{
	"contracts/CrowdFunding.sol": {
		"CrowdFunding": {
			"abi": [
				{
					"inputs": [
						{
							"internalType": "string",
							"name": "_name",
							"type": "string"
						},
						{
							"internalType": "string",
							"name": "_description",
							"type": "string"
						},
						{
							"internalType": "uint256",
							"name": "_goal",
							"type": "uint256"
						},
						{
							"internalType": "uint256",
							"name": "_durationInDays",
							"type": "uint256"
						}
					],
					"stateMutability": "nonpayable",
					"type": "constructor"
				},
				{
					"inputs": [
						{
							"internalType": "string",
							"name": "_name",
							"type": "string"
						},
						{
							"internalType": "uint256",
							"name": "_amount",
							"type": "uint256"
						}
					],
					"name": "addTier",
					"outputs": [],
					"stateMutability": "nonpayable",
					"type": "function"
				},
				{
					"inputs": [],
					"name": "deadline",
					"outputs": [
						{
							"internalType": "uint256",
							"name": "",
							"type": "uint256"
						}
					],
					"stateMutability": "view",
					"type": "function"
				},
				{
					"inputs": [],
					"name": "description",
					"outputs": [
						{
							"internalType": "string",
							"name": "",
							"type": "string"
						}
					],
					"stateMutability": "view",
					"type": "function"
				},
				{
					"inputs": [
						{
							"internalType": "uint256",
							"name": "_tierIndex",
							"type": "uint256"
						}
					],
					"name": "fund",
					"outputs": [],
					"stateMutability": "payable",
					"type": "function"
				},
				{
					"inputs": [],
					"name": "getContractBalance",
					"outputs": [
						{
							"internalType": "uint256",
							"name": "",
							"type": "uint256"
						}
					],
					"stateMutability": "view",
					"type": "function"
				},
				{
					"inputs": [],
					"name": "goal",
					"outputs": [
						{
							"internalType": "uint256",
							"name": "",
							"type": "uint256"
						}
					],
					"stateMutability": "view",
					"type": "function"
				},
				{
					"inputs": [],
					"name": "name",
					"outputs": [
						{
							"internalType": "string",
							"name": "",
							"type": "string"
						}
					],
					"stateMutability": "view",
					"type": "function"
				},
				{
					"inputs": [],
					"name": "owner",
					"outputs": [
						{
							"internalType": "address",
							"name": "",
							"type": "address"
						}
					],
					"stateMutability": "view",
					"type": "function"
				},
				{
					"inputs": [
						{
							"internalType": "uint256",
							"name": "_index",
							"type": "uint256"
						}
					],
					"name": "removeTier",
					"outputs": [],
					"stateMutability": "nonpayable",
					"type": "function"
				},
				{
					"inputs": [],
					"name": "state",
					"outputs": [
						{
							"internalType": "enum CrowdFunding.CampaignState",
							"name": "",
							"type": "uint8"
						}
					],
					"stateMutability": "view",
					"type": "function"
				},
				{
					"inputs": [
						{
							"internalType": "uint256",
							"name": "",
							"type": "uint256"
						}
					],
					"name": "tiers",
					"outputs": [
						{
							"internalType": "string",
							"name": "name",
							"type": "string"
						},
						{
							"internalType": "uint256",
							"name": "amount",
							"type": "uint256"
						},
						{
							"internalType": "uint256",
							"name": "backers",
							"type": "uint256"
						}
					],
					"stateMutability": "view",
					"type": "function"
				},
				{
					"inputs": [],
					"name": "withdraw",
					"outputs": [],
					"stateMutability": "nonpayable",
					"type": "function"
				}
			],
			"devdoc": {
				"kind": "dev",
				"methods": {},
				"version": 1
			},
			"evm": {
				"assembly": "    /* \"contracts/CrowdFunding.sol\":57:2695  contract CrowdFunding {... */\n  mstore(0x40, 0x80)\n    /* \"contracts/CrowdFunding.sol\":688:1045  constructor(... */\n  callvalue\n  dup1\n  iszero\n  tag_1\n  jumpi\n  revert(0x00, 0x00)\ntag_1:\n  pop\n  mload(0x40)\n  sub(codesize, bytecodeSize)\n  dup1\n  bytecodeSize\n  dup4\n  codecopy\n  dup2\n  dup2\n  add\n  0x40\n  mstore\n  dup2\n  add\n  swap1\n  tag_2\n  swap2\n  swap1\n  tag_3\n  jump\t// in\ntag_2:\n    /* \"contracts/CrowdFunding.sol\":844:849  _name */\n  dup4\n    /* \"contracts/CrowdFunding.sol\":837:841  name */\n  0x00\n    /* \"contracts/CrowdFunding.sol\":837:849  name = _name */\n  swap1\n  dup2\n  tag_6\n  swap2\n  swap1\n  tag_7\n  jump\t// in\ntag_6:\n  pop\n    /* \"contracts/CrowdFunding.sol\":873:885  _description */\n  dup3\n    /* \"contracts/CrowdFunding.sol\":859:870  description */\n  0x01\n    /* \"contracts/CrowdFunding.sol\":859:885  description = _description */\n  swap1\n  dup2\n  tag_8\n  swap2\n  swap1\n  tag_7\n  jump\t// in\ntag_8:\n  pop\n    /* \"contracts/CrowdFunding.sol\":902:907  _goal */\n  dup2\n    /* \"contracts/CrowdFunding.sol\":895:899  goal */\n  0x02\n    /* \"contracts/CrowdFunding.sol\":895:907  goal = _goal */\n  dup2\n  swap1\n  sstore\n  pop\n    /* \"contracts/CrowdFunding.sol\":965:971  1 days */\n  0x015180\n    /* \"contracts/CrowdFunding.sol\":947:962  _durationInDays */\n  dup2\n    /* \"contracts/CrowdFunding.sol\":947:971  _durationInDays * 1 days */\n  tag_9\n  swap2\n  swap1\n  tag_10\n  jump\t// in\ntag_9:\n    /* \"contracts/CrowdFunding.sol\":928:943  block.timestamp */\n  timestamp\n    /* \"contracts/CrowdFunding.sol\":928:972  block.timestamp + (_durationInDays * 1 days) */\n  tag_11\n  swap2\n  swap1\n  tag_12\n  jump\t// in\ntag_11:\n    /* \"contracts/CrowdFunding.sol\":917:925  deadline */\n  0x03\n    /* \"contracts/CrowdFunding.sol\":917:972  deadline = block.timestamp + (_durationInDays * 1 days) */\n  dup2\n  swap1\n  sstore\n  pop\n    /* \"contracts/CrowdFunding.sol\":990:1000  msg.sender */\n  caller\n    /* \"contracts/CrowdFunding.sol\":982:987  owner */\n  0x04\n  0x00\n    /* \"contracts/CrowdFunding.sol\":982:1000  owner = msg.sender */\n  0x0100\n  exp\n  dup2\n  sload\n  dup2\n  0xffffffffffffffffffffffffffffffffffffffff\n  mul\n  not\n  and\n  swap1\n  dup4\n  0xffffffffffffffffffffffffffffffffffffffff\n  and\n  mul\n  or\n  swap1\n  sstore\n  pop\n    /* \"contracts/CrowdFunding.sol\":1018:1038  CampaignState.Active */\n  0x00\n    /* \"contracts/CrowdFunding.sol\":1010:1015  state */\n  0x04\n  0x14\n    /* \"contracts/CrowdFunding.sol\":1010:1038  state = CampaignState.Active */\n  0x0100\n  exp\n  dup2\n  sload\n  dup2\n  0xff\n  mul\n  not\n  and\n  swap1\n  dup4\n  0x02\n  dup2\n  gt\n  iszero\n  tag_13\n  jumpi\n  tag_14\n  tag_15\n  jump\t// in\ntag_14:\ntag_13:\n  mul\n  or\n  swap1\n  sstore\n  pop\n    /* \"contracts/CrowdFunding.sol\":688:1045  constructor(... */\n  pop\n  pop\n  pop\n  pop\n    /* \"contracts/CrowdFunding.sol\":57:2695  contract CrowdFunding {... */\n  jump(tag_16)\n    /* \"#utility.yul\":7:82   */\ntag_17:\n    /* \"#utility.yul\":40:46   */\n  0x00\n    /* \"#utility.yul\":73:75   */\n  0x40\n    /* \"#utility.yul\":67:76   */\n  mload\n    /* \"#utility.yul\":57:76   */\n  swap1\n  pop\n    /* \"#utility.yul\":7:82   */\n  swap1\n  jump\t// out\n    /* \"#utility.yul\":88:205   */\ntag_18:\n    /* \"#utility.yul\":197:198   */\n  0x00\n    /* \"#utility.yul\":194:195   */\n  0x00\n    /* \"#utility.yul\":187:199   */\n  revert\n    /* \"#utility.yul\":211:328   */\ntag_19:\n    /* \"#utility.yul\":320:321   */\n  0x00\n    /* \"#utility.yul\":317:318   */\n  0x00\n    /* \"#utility.yul\":310:322   */\n  revert\n    /* \"#utility.yul\":334:451   */\ntag_20:\n    /* \"#utility.yul\":443:444   */\n  0x00\n    /* \"#utility.yul\":440:441   */\n  0x00\n    /* \"#utility.yul\":433:445   */\n  revert\n    /* \"#utility.yul\":457:574   */\ntag_21:\n    /* \"#utility.yul\":566:567   */\n  0x00\n    /* \"#utility.yul\":563:564   */\n  0x00\n    /* \"#utility.yul\":556:568   */\n  revert\n    /* \"#utility.yul\":580:682   */\ntag_22:\n    /* \"#utility.yul\":621:627   */\n  0x00\n    /* \"#utility.yul\":672:674   */\n  0x1f\n    /* \"#utility.yul\":668:675   */\n  not\n    /* \"#utility.yul\":663:665   */\n  0x1f\n    /* \"#utility.yul\":656:661   */\n  dup4\n    /* \"#utility.yul\":652:666   */\n  add\n    /* \"#utility.yul\":648:676   */\n  and\n    /* \"#utility.yul\":638:676   */\n  swap1\n  pop\n    /* \"#utility.yul\":580:682   */\n  swap2\n  swap1\n  pop\n  jump\t// out\n    /* \"#utility.yul\":688:868   */\ntag_23:\n    /* \"#utility.yul\":736:813   */\n  0x4e487b7100000000000000000000000000000000000000000000000000000000\n    /* \"#utility.yul\":733:734   */\n  0x00\n    /* \"#utility.yul\":726:814   */\n  mstore\n    /* \"#utility.yul\":833:837   */\n  0x41\n    /* \"#utility.yul\":830:831   */\n  0x04\n    /* \"#utility.yul\":823:838   */\n  mstore\n    /* \"#utility.yul\":857:861   */\n  0x24\n    /* \"#utility.yul\":854:855   */\n  0x00\n    /* \"#utility.yul\":847:862   */\n  revert\n    /* \"#utility.yul\":874:1155   */\ntag_24:\n    /* \"#utility.yul\":957:984   */\n  tag_61\n    /* \"#utility.yul\":979:983   */\n  dup3\n    /* \"#utility.yul\":957:984   */\n  tag_22\n  jump\t// in\ntag_61:\n    /* \"#utility.yul\":949:955   */\n  dup2\n    /* \"#utility.yul\":945:985   */\n  add\n    /* \"#utility.yul\":1087:1093   */\n  dup2\n    /* \"#utility.yul\":1075:1085   */\n  dup2\n    /* \"#utility.yul\":1072:1094   */\n  lt\n    /* \"#utility.yul\":1051:1069   */\n  0xffffffffffffffff\n    /* \"#utility.yul\":1039:1049   */\n  dup3\n    /* \"#utility.yul\":1036:1070   */\n  gt\n    /* \"#utility.yul\":1033:1095   */\n  or\n    /* \"#utility.yul\":1030:1118   */\n  iszero\n  tag_62\n  jumpi\n    /* \"#utility.yul\":1098:1116   */\n  tag_63\n  tag_23\n  jump\t// in\ntag_63:\n    /* \"#utility.yul\":1030:1118   */\ntag_62:\n    /* \"#utility.yul\":1138:1148   */\n  dup1\n    /* \"#utility.yul\":1134:1136   */\n  0x40\n    /* \"#utility.yul\":1127:1149   */\n  mstore\n    /* \"#utility.yul\":917:1155   */\n  pop\n    /* \"#utility.yul\":874:1155   */\n  pop\n  pop\n  jump\t// out\n    /* \"#utility.yul\":1161:1290   */\ntag_25:\n    /* \"#utility.yul\":1195:1201   */\n  0x00\n    /* \"#utility.yul\":1222:1242   */\n  tag_65\n  tag_17\n  jump\t// in\ntag_65:\n    /* \"#utility.yul\":1212:1242   */\n  swap1\n  pop\n    /* \"#utility.yul\":1251:1284   */\n  tag_66\n    /* \"#utility.yul\":1279:1283   */\n  dup3\n    /* \"#utility.yul\":1271:1277   */\n  dup3\n    /* \"#utility.yul\":1251:1284   */\n  tag_24\n  jump\t// in\ntag_66:\n    /* \"#utility.yul\":1161:1290   */\n  swap2\n  swap1\n  pop\n  jump\t// out\n    /* \"#utility.yul\":1296:1604   */\ntag_26:\n    /* \"#utility.yul\":1358:1362   */\n  0x00\n    /* \"#utility.yul\":1448:1466   */\n  0xffffffffffffffff\n    /* \"#utility.yul\":1440:1446   */\n  dup3\n    /* \"#utility.yul\":1437:1467   */\n  gt\n    /* \"#utility.yul\":1434:1490   */\n  iszero\n  tag_68\n  jumpi\n    /* \"#utility.yul\":1470:1488   */\n  tag_69\n  tag_23\n  jump\t// in\ntag_69:\n    /* \"#utility.yul\":1434:1490   */\ntag_68:\n    /* \"#utility.yul\":1508:1537   */\n  tag_70\n    /* \"#utility.yul\":1530:1536   */\n  dup3\n    /* \"#utility.yul\":1508:1537   */\n  tag_22\n  jump\t// in\ntag_70:\n    /* \"#utility.yul\":1500:1537   */\n  swap1\n  pop\n    /* \"#utility.yul\":1592:1596   */\n  0x20\n    /* \"#utility.yul\":1586:1590   */\n  dup2\n    /* \"#utility.yul\":1582:1597   */\n  add\n    /* \"#utility.yul\":1574:1597   */\n  swap1\n  pop\n    /* \"#utility.yul\":1296:1604   */\n  swap2\n  swap1\n  pop\n  jump\t// out\n    /* \"#utility.yul\":1610:1749   */\ntag_27:\n    /* \"#utility.yul\":1699:1705   */\n  dup3\n    /* \"#utility.yul\":1694:1697   */\n  dup2\n    /* \"#utility.yul\":1689:1692   */\n  dup4\n    /* \"#utility.yul\":1683:1706   */\n  mcopy\n    /* \"#utility.yul\":1740:1741   */\n  0x00\n    /* \"#utility.yul\":1731:1737   */\n  dup4\n    /* \"#utility.yul\":1726:1729   */\n  dup4\n    /* \"#utility.yul\":1722:1738   */\n  add\n    /* \"#utility.yul\":1715:1742   */\n  mstore\n    /* \"#utility.yul\":1610:1749   */\n  pop\n  pop\n  pop\n  jump\t// out\n    /* \"#utility.yul\":1755:2189   */\ntag_28:\n    /* \"#utility.yul\":1844:1849   */\n  0x00\n    /* \"#utility.yul\":1869:1935   */\n  tag_73\n    /* \"#utility.yul\":1885:1934   */\n  tag_74\n    /* \"#utility.yul\":1927:1933   */\n  dup5\n    /* \"#utility.yul\":1885:1934   */\n  tag_26\n  jump\t// in\ntag_74:\n    /* \"#utility.yul\":1869:1935   */\n  tag_25\n  jump\t// in\ntag_73:\n    /* \"#utility.yul\":1860:1935   */\n  swap1\n  pop\n    /* \"#utility.yul\":1958:1964   */\n  dup3\n    /* \"#utility.yul\":1951:1956   */\n  dup2\n    /* \"#utility.yul\":1944:1965   */\n  mstore\n    /* \"#utility.yul\":1996:2000   */\n  0x20\n    /* \"#utility.yul\":1989:1994   */\n  dup2\n    /* \"#utility.yul\":1985:2001   */\n  add\n    /* \"#utility.yul\":2034:2037   */\n  dup5\n    /* \"#utility.yul\":2025:2031   */\n  dup5\n    /* \"#utility.yul\":2020:2023   */\n  dup5\n    /* \"#utility.yul\":2016:2032   */\n  add\n    /* \"#utility.yul\":2013:2038   */\n  gt\n    /* \"#utility.yul\":2010:2122   */\n  iszero\n  tag_75\n  jumpi\n    /* \"#utility.yul\":2041:2120   */\n  tag_76\n  tag_21\n  jump\t// in\ntag_76:\n    /* \"#utility.yul\":2010:2122   */\ntag_75:\n    /* \"#utility.yul\":2131:2183   */\n  tag_77\n    /* \"#utility.yul\":2176:2182   */\n  dup5\n    /* \"#utility.yul\":2171:2174   */\n  dup3\n    /* \"#utility.yul\":2166:2169   */\n  dup6\n    /* \"#utility.yul\":2131:2183   */\n  tag_27\n  jump\t// in\ntag_77:\n    /* \"#utility.yul\":1850:2189   */\n  pop\n    /* \"#utility.yul\":1755:2189   */\n  swap4\n  swap3\n  pop\n  pop\n  pop\n  jump\t// out\n    /* \"#utility.yul\":2209:2564   */\ntag_29:\n    /* \"#utility.yul\":2276:2281   */\n  0x00\n    /* \"#utility.yul\":2325:2328   */\n  dup3\n    /* \"#utility.yul\":2318:2322   */\n  0x1f\n    /* \"#utility.yul\":2310:2316   */\n  dup4\n    /* \"#utility.yul\":2306:2323   */\n  add\n    /* \"#utility.yul\":2302:2329   */\n  slt\n    /* \"#utility.yul\":2292:2414   */\n  tag_79\n  jumpi\n    /* \"#utility.yul\":2333:2412   */\n  tag_80\n  tag_20\n  jump\t// in\ntag_80:\n    /* \"#utility.yul\":2292:2414   */\ntag_79:\n    /* \"#utility.yul\":2443:2449   */\n  dup2\n    /* \"#utility.yul\":2437:2450   */\n  mload\n    /* \"#utility.yul\":2468:2558   */\n  tag_81\n    /* \"#utility.yul\":2554:2557   */\n  dup5\n    /* \"#utility.yul\":2546:2552   */\n  dup3\n    /* \"#utility.yul\":2539:2543   */\n  0x20\n    /* \"#utility.yul\":2531:2537   */\n  dup7\n    /* \"#utility.yul\":2527:2544   */\n  add\n    /* \"#utility.yul\":2468:2558   */\n  tag_28\n  jump\t// in\ntag_81:\n    /* \"#utility.yul\":2459:2558   */\n  swap2\n  pop\n    /* \"#utility.yul\":2282:2564   */\n  pop\n    /* \"#utility.yul\":2209:2564   */\n  swap3\n  swap2\n  pop\n  pop\n  jump\t// out\n    /* \"#utility.yul\":2570:2647   */\ntag_30:\n    /* \"#utility.yul\":2607:2614   */\n  0x00\n    /* \"#utility.yul\":2636:2641   */\n  dup2\n    /* \"#utility.yul\":2625:2641   */\n  swap1\n  pop\n    /* \"#utility.yul\":2570:2647   */\n  swap2\n  swap1\n  pop\n  jump\t// out\n    /* \"#utility.yul\":2653:2775   */\ntag_31:\n    /* \"#utility.yul\":2726:2750   */\n  tag_84\n    /* \"#utility.yul\":2744:2749   */\n  dup2\n    /* \"#utility.yul\":2726:2750   */\n  tag_30\n  jump\t// in\ntag_84:\n    /* \"#utility.yul\":2719:2724   */\n  dup2\n    /* \"#utility.yul\":2716:2751   */\n  eq\n    /* \"#utility.yul\":2706:2769   */\n  tag_85\n  jumpi\n    /* \"#utility.yul\":2765:2766   */\n  0x00\n    /* \"#utility.yul\":2762:2763   */\n  0x00\n    /* \"#utility.yul\":2755:2767   */\n  revert\n    /* \"#utility.yul\":2706:2769   */\ntag_85:\n    /* \"#utility.yul\":2653:2775   */\n  pop\n  jump\t// out\n    /* \"#utility.yul\":2781:2924   */\ntag_32:\n    /* \"#utility.yul\":2838:2843   */\n  0x00\n    /* \"#utility.yul\":2869:2875   */\n  dup2\n    /* \"#utility.yul\":2863:2876   */\n  mload\n    /* \"#utility.yul\":2854:2876   */\n  swap1\n  pop\n    /* \"#utility.yul\":2885:2918   */\n  tag_87\n    /* \"#utility.yul\":2912:2917   */\n  dup2\n    /* \"#utility.yul\":2885:2918   */\n  tag_31\n  jump\t// in\ntag_87:\n    /* \"#utility.yul\":2781:2924   */\n  swap3\n  swap2\n  pop\n  pop\n  jump\t// out\n    /* \"#utility.yul\":2930:4096   */\ntag_3:\n    /* \"#utility.yul\":3047:3053   */\n  0x00\n    /* \"#utility.yul\":3055:3061   */\n  0x00\n    /* \"#utility.yul\":3063:3069   */\n  0x00\n    /* \"#utility.yul\":3071:3077   */\n  0x00\n    /* \"#utility.yul\":3120:3123   */\n  0x80\n    /* \"#utility.yul\":3108:3117   */\n  dup6\n    /* \"#utility.yul\":3099:3106   */\n  dup8\n    /* \"#utility.yul\":3095:3118   */\n  sub\n    /* \"#utility.yul\":3091:3124   */\n  slt\n    /* \"#utility.yul\":3088:3208   */\n  iszero\n  tag_89\n  jumpi\n    /* \"#utility.yul\":3127:3206   */\n  tag_90\n  tag_18\n  jump\t// in\ntag_90:\n    /* \"#utility.yul\":3088:3208   */\ntag_89:\n    /* \"#utility.yul\":3268:3269   */\n  0x00\n    /* \"#utility.yul\":3257:3266   */\n  dup6\n    /* \"#utility.yul\":3253:3270   */\n  add\n    /* \"#utility.yul\":3247:3271   */\n  mload\n    /* \"#utility.yul\":3298:3316   */\n  0xffffffffffffffff\n    /* \"#utility.yul\":3290:3296   */\n  dup2\n    /* \"#utility.yul\":3287:3317   */\n  gt\n    /* \"#utility.yul\":3284:3401   */\n  iszero\n  tag_91\n  jumpi\n    /* \"#utility.yul\":3320:3399   */\n  tag_92\n  tag_19\n  jump\t// in\ntag_92:\n    /* \"#utility.yul\":3284:3401   */\ntag_91:\n    /* \"#utility.yul\":3425:3499   */\n  tag_93\n    /* \"#utility.yul\":3491:3498   */\n  dup8\n    /* \"#utility.yul\":3482:3488   */\n  dup3\n    /* \"#utility.yul\":3471:3480   */\n  dup9\n    /* \"#utility.yul\":3467:3489   */\n  add\n    /* \"#utility.yul\":3425:3499   */\n  tag_29\n  jump\t// in\ntag_93:\n    /* \"#utility.yul\":3415:3499   */\n  swap5\n  pop\n    /* \"#utility.yul\":3218:3509   */\n  pop\n    /* \"#utility.yul\":3569:3571   */\n  0x20\n    /* \"#utility.yul\":3558:3567   */\n  dup6\n    /* \"#utility.yul\":3554:3572   */\n  add\n    /* \"#utility.yul\":3548:3573   */\n  mload\n    /* \"#utility.yul\":3600:3618   */\n  0xffffffffffffffff\n    /* \"#utility.yul\":3592:3598   */\n  dup2\n    /* \"#utility.yul\":3589:3619   */\n  gt\n    /* \"#utility.yul\":3586:3703   */\n  iszero\n  tag_94\n  jumpi\n    /* \"#utility.yul\":3622:3701   */\n  tag_95\n  tag_19\n  jump\t// in\ntag_95:\n    /* \"#utility.yul\":3586:3703   */\ntag_94:\n    /* \"#utility.yul\":3727:3801   */\n  tag_96\n    /* \"#utility.yul\":3793:3800   */\n  dup8\n    /* \"#utility.yul\":3784:3790   */\n  dup3\n    /* \"#utility.yul\":3773:3782   */\n  dup9\n    /* \"#utility.yul\":3769:3791   */\n  add\n    /* \"#utility.yul\":3727:3801   */\n  tag_29\n  jump\t// in\ntag_96:\n    /* \"#utility.yul\":3717:3801   */\n  swap4\n  pop\n    /* \"#utility.yul\":3519:3811   */\n  pop\n    /* \"#utility.yul\":3850:3852   */\n  0x40\n    /* \"#utility.yul\":3876:3940   */\n  tag_97\n    /* \"#utility.yul\":3932:3939   */\n  dup8\n    /* \"#utility.yul\":3923:3929   */\n  dup3\n    /* \"#utility.yul\":3912:3921   */\n  dup9\n    /* \"#utility.yul\":3908:3930   */\n  add\n    /* \"#utility.yul\":3876:3940   */\n  tag_32\n  jump\t// in\ntag_97:\n    /* \"#utility.yul\":3866:3940   */\n  swap3\n  pop\n    /* \"#utility.yul\":3821:3950   */\n  pop\n    /* \"#utility.yul\":3989:3991   */\n  0x60\n    /* \"#utility.yul\":4015:4079   */\n  tag_98\n    /* \"#utility.yul\":4071:4078   */\n  dup8\n    /* \"#utility.yul\":4062:4068   */\n  dup3\n    /* \"#utility.yul\":4051:4060   */\n  dup9\n    /* \"#utility.yul\":4047:4069   */\n  add\n    /* \"#utility.yul\":4015:4079   */\n  tag_32\n  jump\t// in\ntag_98:\n    /* \"#utility.yul\":4005:4079   */\n  swap2\n  pop\n    /* \"#utility.yul\":3960:4089   */\n  pop\n    /* \"#utility.yul\":2930:4096   */\n  swap3\n  swap6\n  swap2\n  swap5\n  pop\n  swap3\n  pop\n  jump\t// out\n    /* \"#utility.yul\":4102:4201   */\ntag_33:\n    /* \"#utility.yul\":4154:4160   */\n  0x00\n    /* \"#utility.yul\":4188:4193   */\n  dup2\n    /* \"#utility.yul\":4182:4194   */\n  mload\n    /* \"#utility.yul\":4172:4194   */\n  swap1\n  pop\n    /* \"#utility.yul\":4102:4201   */\n  swap2\n  swap1\n  pop\n  jump\t// out\n    /* \"#utility.yul\":4207:4387   */\ntag_34:\n    /* \"#utility.yul\":4255:4332   */\n  0x4e487b7100000000000000000000000000000000000000000000000000000000\n    /* \"#utility.yul\":4252:4253   */\n  0x00\n    /* \"#utility.yul\":4245:4333   */\n  mstore\n    /* \"#utility.yul\":4352:4356   */\n  0x22\n    /* \"#utility.yul\":4349:4350   */\n  0x04\n    /* \"#utility.yul\":4342:4357   */\n  mstore\n    /* \"#utility.yul\":4376:4380   */\n  0x24\n    /* \"#utility.yul\":4373:4374   */\n  0x00\n    /* \"#utility.yul\":4366:4381   */\n  revert\n    /* \"#utility.yul\":4393:4713   */\ntag_35:\n    /* \"#utility.yul\":4437:4443   */\n  0x00\n    /* \"#utility.yul\":4474:4475   */\n  0x02\n    /* \"#utility.yul\":4468:4472   */\n  dup3\n    /* \"#utility.yul\":4464:4476   */\n  div\n    /* \"#utility.yul\":4454:4476   */\n  swap1\n  pop\n    /* \"#utility.yul\":4521:4522   */\n  0x01\n    /* \"#utility.yul\":4515:4519   */\n  dup3\n    /* \"#utility.yul\":4511:4523   */\n  and\n    /* \"#utility.yul\":4542:4560   */\n  dup1\n    /* \"#utility.yul\":4532:4613   */\n  tag_102\n  jumpi\n    /* \"#utility.yul\":4598:4602   */\n  0x7f\n    /* \"#utility.yul\":4590:4596   */\n  dup3\n    /* \"#utility.yul\":4586:4603   */\n  and\n    /* \"#utility.yul\":4576:4603   */\n  swap2\n  pop\n    /* \"#utility.yul\":4532:4613   */\ntag_102:\n    /* \"#utility.yul\":4660:4662   */\n  0x20\n    /* \"#utility.yul\":4652:4658   */\n  dup3\n    /* \"#utility.yul\":4649:4663   */\n  lt\n    /* \"#utility.yul\":4629:4647   */\n  dup2\n    /* \"#utility.yul\":4626:4664   */\n  sub\n    /* \"#utility.yul\":4623:4707   */\n  tag_103\n  jumpi\n    /* \"#utility.yul\":4679:4697   */\n  tag_104\n  tag_34\n  jump\t// in\ntag_104:\n    /* \"#utility.yul\":4623:4707   */\ntag_103:\n    /* \"#utility.yul\":4444:4713   */\n  pop\n    /* \"#utility.yul\":4393:4713   */\n  swap2\n  swap1\n  pop\n  jump\t// out\n    /* \"#utility.yul\":4719:4860   */\ntag_36:\n    /* \"#utility.yul\":4768:4772   */\n  0x00\n    /* \"#utility.yul\":4791:4794   */\n  dup2\n    /* \"#utility.yul\":4783:4794   */\n  swap1\n  pop\n    /* \"#utility.yul\":4814:4817   */\n  dup2\n    /* \"#utility.yul\":4811:4812   */\n  0x00\n    /* \"#utility.yul\":4804:4818   */\n  mstore\n    /* \"#utility.yul\":4848:4852   */\n  0x20\n    /* \"#utility.yul\":4845:4846   */\n  0x00\n    /* \"#utility.yul\":4835:4853   */\n  keccak256\n    /* \"#utility.yul\":4827:4853   */\n  swap1\n  pop\n    /* \"#utility.yul\":4719:4860   */\n  swap2\n  swap1\n  pop\n  jump\t// out\n    /* \"#utility.yul\":4866:4959   */\ntag_37:\n    /* \"#utility.yul\":4903:4909   */\n  0x00\n    /* \"#utility.yul\":4950:4952   */\n  0x20\n    /* \"#utility.yul\":4945:4947   */\n  0x1f\n    /* \"#utility.yul\":4938:4943   */\n  dup4\n    /* \"#utility.yul\":4934:4948   */\n  add\n    /* \"#utility.yul\":4930:4953   */\n  div\n    /* \"#utility.yul\":4920:4953   */\n  swap1\n  pop\n    /* \"#utility.yul\":4866:4959   */\n  swap2\n  swap1\n  pop\n  jump\t// out\n    /* \"#utility.yul\":4965:5072   */\ntag_38:\n    /* \"#utility.yul\":5009:5017   */\n  0x00\n    /* \"#utility.yul\":5059:5064   */\n  dup3\n    /* \"#utility.yul\":5053:5057   */\n  dup3\n    /* \"#utility.yul\":5049:5065   */\n  shl\n    /* \"#utility.yul\":5028:5065   */\n  swap1\n  pop\n    /* \"#utility.yul\":4965:5072   */\n  swap3\n  swap2\n  pop\n  pop\n  jump\t// out\n    /* \"#utility.yul\":5078:5471   */\ntag_39:\n    /* \"#utility.yul\":5147:5153   */\n  0x00\n    /* \"#utility.yul\":5197:5198   */\n  0x08\n    /* \"#utility.yul\":5185:5195   */\n  dup4\n    /* \"#utility.yul\":5181:5199   */\n  mul\n    /* \"#utility.yul\":5220:5317   */\n  tag_109\n    /* \"#utility.yul\":5250:5316   */\n  0xffffffffffffffffffffffffffffffffffffffffffffffffffffffffffffffff\n    /* \"#utility.yul\":5239:5248   */\n  dup3\n    /* \"#utility.yul\":5220:5317   */\n  tag_38\n  jump\t// in\ntag_109:\n    /* \"#utility.yul\":5338:5377   */\n  tag_110\n    /* \"#utility.yul\":5368:5376   */\n  dup7\n    /* \"#utility.yul\":5357:5366   */\n  dup4\n    /* \"#utility.yul\":5338:5377   */\n  tag_38\n  jump\t// in\ntag_110:\n    /* \"#utility.yul\":5326:5377   */\n  swap6\n  pop\n    /* \"#utility.yul\":5410:5414   */\n  dup1\n    /* \"#utility.yul\":5406:5415   */\n  not\n    /* \"#utility.yul\":5399:5404   */\n  dup5\n    /* \"#utility.yul\":5395:5416   */\n  and\n    /* \"#utility.yul\":5386:5416   */\n  swap4\n  pop\n    /* \"#utility.yul\":5459:5463   */\n  dup1\n    /* \"#utility.yul\":5449:5457   */\n  dup7\n    /* \"#utility.yul\":5445:5464   */\n  and\n    /* \"#utility.yul\":5438:5443   */\n  dup5\n    /* \"#utility.yul\":5435:5465   */\n  or\n    /* \"#utility.yul\":5425:5465   */\n  swap3\n  pop\n    /* \"#utility.yul\":5154:5471   */\n  pop\n  pop\n    /* \"#utility.yul\":5078:5471   */\n  swap4\n  swap3\n  pop\n  pop\n  pop\n  jump\t// out\n    /* \"#utility.yul\":5477:5537   */\ntag_40:\n    /* \"#utility.yul\":5505:5508   */\n  0x00\n    /* \"#utility.yul\":5526:5531   */\n  dup2\n    /* \"#utility.yul\":5519:5531   */\n  swap1\n  pop\n    /* \"#utility.yul\":5477:5537   */\n  swap2\n  swap1\n  pop\n  jump\t// out\n    /* \"#utility.yul\":5543:5685   */\ntag_41:\n    /* \"#utility.yul\":5593:5602   */\n  0x00\n    /* \"#utility.yul\":5626:5679   */\n  tag_113\n    /* \"#utility.yul\":5644:5678   */\n  tag_114\n    /* \"#utility.yul\":5653:5677   */\n  tag_115\n    /* \"#utility.yul\":5671:5676   */\n  dup5\n    /* \"#utility.yul\":5653:5677   */\n  tag_30\n  jump\t// in\ntag_115:\n    /* \"#utility.yul\":5644:5678   */\n  tag_40\n  jump\t// in\ntag_114:\n    /* \"#utility.yul\":5626:5679   */\n  tag_30\n  jump\t// in\ntag_113:\n    /* \"#utility.yul\":5613:5679   */\n  swap1\n  pop\n    /* \"#utility.yul\":5543:5685   */\n  swap2\n  swap1\n  pop\n  jump\t// out\n    /* \"#utility.yul\":5691:5766   */\ntag_42:\n    /* \"#utility.yul\":5734:5737   */\n  0x00\n    /* \"#utility.yul\":5755:5760   */\n  dup2\n    /* \"#utility.yul\":5748:5760   */\n  swap1\n  pop\n    /* \"#utility.yul\":5691:5766   */\n  swap2\n  swap1\n  pop\n  jump\t// out\n    /* \"#utility.yul\":5772:6041   */\ntag_43:\n    /* \"#utility.yul\":5882:5921   */\n  tag_118\n    /* \"#utility.yul\":5913:5920   */\n  dup4\n    /* \"#utility.yul\":5882:5921   */\n  tag_41\n  jump\t// in\ntag_118:\n    /* \"#utility.yul\":5943:6034   */\n  tag_119\n    /* \"#utility.yul\":5992:6033   */\n  tag_120\n    /* \"#utility.yul\":6016:6032   */\n  dup3\n    /* \"#utility.yul\":5992:6033   */\n  tag_42\n  jump\t// in\ntag_120:\n    /* \"#utility.yul\":5984:5990   */\n  dup5\n    /* \"#utility.yul\":5977:5981   */\n  dup5\n    /* \"#utility.yul\":5971:5982   */\n  sload\n    /* \"#utility.yul\":5943:6034   */\n  tag_39\n  jump\t// in\ntag_119:\n    /* \"#utility.yul\":5937:5941   */\n  dup3\n    /* \"#utility.yul\":5930:6035   */\n  sstore\n    /* \"#utility.yul\":5848:6041   */\n  pop\n    /* \"#utility.yul\":5772:6041   */\n  pop\n  pop\n  pop\n  jump\t// out\n    /* \"#utility.yul\":6047:6120   */\ntag_44:\n    /* \"#utility.yul\":6092:6095   */\n  0x00\n    /* \"#utility.yul\":6113:6114   */\n  0x00\n    /* \"#utility.yul\":6106:6114   */\n  swap1\n  pop\n    /* \"#utility.yul\":6047:6120   */\n  swap1\n  jump\t// out\n    /* \"#utility.yul\":6126:6315   */\ntag_45:\n    /* \"#utility.yul\":6203:6235   */\n  tag_123\n  tag_44\n  jump\t// in\ntag_123:\n    /* \"#utility.yul\":6244:6309   */\n  tag_124\n    /* \"#utility.yul\":6302:6308   */\n  dup2\n    /* \"#utility.yul\":6294:6300   */\n  dup5\n    /* \"#utility.yul\":6288:6292   */\n  dup5\n    /* \"#utility.yul\":6244:6309   */\n  tag_43\n  jump\t// in\ntag_124:\n    /* \"#utility.yul\":6179:6315   */\n  pop\n    /* \"#utility.yul\":6126:6315   */\n  pop\n  pop\n  jump\t// out\n    /* \"#utility.yul\":6321:6507   */\ntag_46:\n    /* \"#utility.yul\":6381:6501   */\ntag_126:\n    /* \"#utility.yul\":6398:6401   */\n  dup2\n    /* \"#utility.yul\":6391:6396   */\n  dup2\n    /* \"#utility.yul\":6388:6402   */\n  lt\n    /* \"#utility.yul\":6381:6501   */\n  iszero\n  tag_128\n  jumpi\n    /* \"#utility.yul\":6452:6491   */\n  tag_129\n    /* \"#utility.yul\":6489:6490   */\n  0x00\n    /* \"#utility.yul\":6482:6487   */\n  dup3\n    /* \"#utility.yul\":6452:6491   */\n  tag_45\n  jump\t// in\ntag_129:\n    /* \"#utility.yul\":6425:6426   */\n  0x01\n    /* \"#utility.yul\":6418:6423   */\n  dup2\n    /* \"#utility.yul\":6414:6427   */\n  add\n    /* \"#utility.yul\":6405:6427   */\n  swap1\n  pop\n    /* \"#utility.yul\":6381:6501   */\n  jump(tag_126)\ntag_128:\n    /* \"#utility.yul\":6321:6507   */\n  pop\n  pop\n  jump\t// out\n    /* \"#utility.yul\":6513:7056   */\ntag_47:\n    /* \"#utility.yul\":6614:6616   */\n  0x1f\n    /* \"#utility.yul\":6609:6612   */\n  dup3\n    /* \"#utility.yul\":6606:6617   */\n  gt\n    /* \"#utility.yul\":6603:7049   */\n  iszero\n  tag_131\n  jumpi\n    /* \"#utility.yul\":6648:6686   */\n  tag_132\n    /* \"#utility.yul\":6680:6685   */\n  dup2\n    /* \"#utility.yul\":6648:6686   */\n  tag_36\n  jump\t// in\ntag_132:\n    /* \"#utility.yul\":6732:6761   */\n  tag_133\n    /* \"#utility.yul\":6750:6760   */\n  dup5\n    /* \"#utility.yul\":6732:6761   */\n  tag_37\n  jump\t// in\ntag_133:\n    /* \"#utility.yul\":6722:6730   */\n  dup2\n    /* \"#utility.yul\":6718:6762   */\n  add\n    /* \"#utility.yul\":6915:6917   */\n  0x20\n    /* \"#utility.yul\":6903:6913   */\n  dup6\n    /* \"#utility.yul\":6900:6918   */\n  lt\n    /* \"#utility.yul\":6897:6946   */\n  iszero\n  tag_134\n  jumpi\n    /* \"#utility.yul\":6936:6944   */\n  dup2\n    /* \"#utility.yul\":6921:6944   */\n  swap1\n  pop\n    /* \"#utility.yul\":6897:6946   */\ntag_134:\n    /* \"#utility.yul\":6959:7039   */\n  tag_135\n    /* \"#utility.yul\":7015:7037   */\n  tag_136\n    /* \"#utility.yul\":7033:7036   */\n  dup6\n    /* \"#utility.yul\":7015:7037   */\n  tag_37\n  jump\t// in\ntag_136:\n    /* \"#utility.yul\":7005:7013   */\n  dup4\n    /* \"#utility.yul\":7001:7038   */\n  add\n    /* \"#utility.yul\":6988:6999   */\n  dup3\n    /* \"#utility.yul\":6959:7039   */\n  tag_46\n  jump\t// in\ntag_135:\n    /* \"#utility.yul\":6618:7049   */\n  pop\n  pop\n    /* \"#utility.yul\":6603:7049   */\ntag_131:\n    /* \"#utility.yul\":6513:7056   */\n  pop\n  pop\n  pop\n  jump\t// out\n    /* \"#utility.yul\":7062:7179   */\ntag_48:\n    /* \"#utility.yul\":7116:7124   */\n  0x00\n    /* \"#utility.yul\":7166:7171   */\n  dup3\n    /* \"#utility.yul\":7160:7164   */\n  dup3\n    /* \"#utility.yul\":7156:7172   */\n  shr\n    /* \"#utility.yul\":7135:7172   */\n  swap1\n  pop\n    /* \"#utility.yul\":7062:7179   */\n  swap3\n  swap2\n  pop\n  pop\n  jump\t// out\n    /* \"#utility.yul\":7185:7354   */\ntag_49:\n    /* \"#utility.yul\":7229:7235   */\n  0x00\n    /* \"#utility.yul\":7262:7313   */\n  tag_139\n    /* \"#utility.yul\":7310:7311   */\n  0x00\n    /* \"#utility.yul\":7306:7312   */\n  not\n    /* \"#utility.yul\":7298:7303   */\n  dup5\n    /* \"#utility.yul\":7295:7296   */\n  0x08\n    /* \"#utility.yul\":7291:7304   */\n  mul\n    /* \"#utility.yul\":7262:7313   */\n  tag_48\n  jump\t// in\ntag_139:\n    /* \"#utility.yul\":7258:7314   */\n  not\n    /* \"#utility.yul\":7343:7347   */\n  dup1\n    /* \"#utility.yul\":7337:7341   */\n  dup4\n    /* \"#utility.yul\":7333:7348   */\n  and\n    /* \"#utility.yul\":7323:7348   */\n  swap2\n  pop\n    /* \"#utility.yul\":7236:7354   */\n  pop\n    /* \"#utility.yul\":7185:7354   */\n  swap3\n  swap2\n  pop\n  pop\n  jump\t// out\n    /* \"#utility.yul\":7359:7654   */\ntag_50:\n    /* \"#utility.yul\":7435:7439   */\n  0x00\n    /* \"#utility.yul\":7581:7610   */\n  tag_141\n    /* \"#utility.yul\":7606:7609   */\n  dup4\n    /* \"#utility.yul\":7600:7604   */\n  dup4\n    /* \"#utility.yul\":7581:7610   */\n  tag_49\n  jump\t// in\ntag_141:\n    /* \"#utility.yul\":7573:7610   */\n  swap2\n  pop\n    /* \"#utility.yul\":7643:7646   */\n  dup3\n    /* \"#utility.yul\":7640:7641   */\n  0x02\n    /* \"#utility.yul\":7636:7647   */\n  mul\n    /* \"#utility.yul\":7630:7634   */\n  dup3\n    /* \"#utility.yul\":7627:7648   */\n  or\n    /* \"#utility.yul\":7619:7648   */\n  swap1\n  pop\n    /* \"#utility.yul\":7359:7654   */\n  swap3\n  swap2\n  pop\n  pop\n  jump\t// out\n    /* \"#utility.yul\":7659:9054   */\ntag_7:\n    /* \"#utility.yul\":7776:7813   */\n  tag_143\n    /* \"#utility.yul\":7809:7812   */\n  dup3\n    /* \"#utility.yul\":7776:7813   */\n  tag_33\n  jump\t// in\ntag_143:\n    /* \"#utility.yul\":7878:7896   */\n  0xffffffffffffffff\n    /* \"#utility.yul\":7870:7876   */\n  dup2\n    /* \"#utility.yul\":7867:7897   */\n  gt\n    /* \"#utility.yul\":7864:7920   */\n  iszero\n  tag_144\n  jumpi\n    /* \"#utility.yul\":7900:7918   */\n  tag_145\n  tag_23\n  jump\t// in\ntag_145:\n    /* \"#utility.yul\":7864:7920   */\ntag_144:\n    /* \"#utility.yul\":7944:7982   */\n  tag_146\n    /* \"#utility.yul\":7976:7980   */\n  dup3\n    /* \"#utility.yul\":7970:7981   */\n  sload\n    /* \"#utility.yul\":7944:7982   */\n  tag_35\n  jump\t// in\ntag_146:\n    /* \"#utility.yul\":8029:8096   */\n  tag_147\n    /* \"#utility.yul\":8089:8095   */\n  dup3\n    /* \"#utility.yul\":8081:8087   */\n  dup3\n    /* \"#utility.yul\":8075:8079   */\n  dup6\n    /* \"#utility.yul\":8029:8096   */\n  tag_47\n  jump\t// in\ntag_147:\n    /* \"#utility.yul\":8123:8124   */\n  0x00\n    /* \"#utility.yul\":8147:8151   */\n  0x20\n    /* \"#utility.yul\":8134:8151   */\n  swap1\n  pop\n    /* \"#utility.yul\":8179:8181   */\n  0x1f\n    /* \"#utility.yul\":8171:8177   */\n  dup4\n    /* \"#utility.yul\":8168:8182   */\n  gt\n    /* \"#utility.yul\":8196:8197   */\n  0x01\n    /* \"#utility.yul\":8191:8809   */\n  dup2\n  eq\n  tag_149\n  jumpi\n    /* \"#utility.yul\":8853:8854   */\n  0x00\n    /* \"#utility.yul\":8870:8876   */\n  dup5\n    /* \"#utility.yul\":8867:8944   */\n  iszero\n  tag_150\n  jumpi\n    /* \"#utility.yul\":8919:8928   */\n  dup3\n    /* \"#utility.yul\":8914:8917   */\n  dup8\n    /* \"#utility.yul\":8910:8929   */\n  add\n    /* \"#utility.yul\":8904:8930   */\n  mload\n    /* \"#utility.yul\":8895:8930   */\n  swap1\n  pop\n    /* \"#utility.yul\":8867:8944   */\ntag_150:\n    /* \"#utility.yul\":8970:9037   */\n  tag_151\n    /* \"#utility.yul\":9030:9036   */\n  dup6\n    /* \"#utility.yul\":9023:9028   */\n  dup3\n    /* \"#utility.yul\":8970:9037   */\n  tag_50\n  jump\t// in\ntag_151:\n    /* \"#utility.yul\":8964:8968   */\n  dup7\n    /* \"#utility.yul\":8957:9038   */\n  sstore\n    /* \"#utility.yul\":8826:9048   */\n  pop\n    /* \"#utility.yul\":8161:9048   */\n  jump(tag_148)\n    /* \"#utility.yul\":8191:8809   */\ntag_149:\n    /* \"#utility.yul\":8243:8247   */\n  0x1f\n    /* \"#utility.yul\":8239:8248   */\n  not\n    /* \"#utility.yul\":8231:8237   */\n  dup5\n    /* \"#utility.yul\":8227:8249   */\n  and\n    /* \"#utility.yul\":8277:8314   */\n  tag_152\n    /* \"#utility.yul\":8309:8313   */\n  dup7\n    /* \"#utility.yul\":8277:8314   */\n  tag_36\n  jump\t// in\ntag_152:\n    /* \"#utility.yul\":8336:8337   */\n  0x00\n    /* \"#utility.yul\":8350:8558   */\ntag_153:\n    /* \"#utility.yul\":8364:8371   */\n  dup3\n    /* \"#utility.yul\":8361:8362   */\n  dup2\n    /* \"#utility.yul\":8358:8372   */\n  lt\n    /* \"#utility.yul\":8350:8558   */\n  iszero\n  tag_155\n  jumpi\n    /* \"#utility.yul\":8443:8452   */\n  dup5\n    /* \"#utility.yul\":8438:8441   */\n  dup10\n    /* \"#utility.yul\":8434:8453   */\n  add\n    /* \"#utility.yul\":8428:8454   */\n  mload\n    /* \"#utility.yul\":8420:8426   */\n  dup3\n    /* \"#utility.yul\":8413:8455   */\n  sstore\n    /* \"#utility.yul\":8494:8495   */\n  0x01\n    /* \"#utility.yul\":8486:8492   */\n  dup3\n    /* \"#utility.yul\":8482:8496   */\n  add\n    /* \"#utility.yul\":8472:8496   */\n  swap2\n  pop\n    /* \"#utility.yul\":8541:8543   */\n  0x20\n    /* \"#utility.yul\":8530:8539   */\n  dup6\n    /* \"#utility.yul\":8526:8544   */\n  add\n    /* \"#utility.yul\":8513:8544   */\n  swap5\n  pop\n    /* \"#utility.yul\":8387:8391   */\n  0x20\n    /* \"#utility.yul\":8384:8385   */\n  dup2\n    /* \"#utility.yul\":8380:8392   */\n  add\n    /* \"#utility.yul\":8375:8392   */\n  swap1\n  pop\n    /* \"#utility.yul\":8350:8558   */\n  jump(tag_153)\ntag_155:\n    /* \"#utility.yul\":8586:8592   */\n  dup7\n    /* \"#utility.yul\":8577:8584   */\n  dup4\n    /* \"#utility.yul\":8574:8593   */\n  lt\n    /* \"#utility.yul\":8571:8750   */\n  iszero\n  tag_156\n  jumpi\n    /* \"#utility.yul\":8644:8653   */\n  dup5\n    /* \"#utility.yul\":8639:8642   */\n  dup10\n    /* \"#utility.yul\":8635:8654   */\n  add\n    /* \"#utility.yul\":8629:8655   */\n  mload\n    /* \"#utility.yul\":8687:8735   */\n  tag_157\n    /* \"#utility.yul\":8729:8733   */\n  0x1f\n    /* \"#utility.yul\":8721:8727   */\n  dup10\n    /* \"#utility.yul\":8717:8734   */\n  and\n    /* \"#utility.yul\":8706:8715   */\n  dup3\n    /* \"#utility.yul\":8687:8735   */\n  tag_49\n  jump\t// in\ntag_157:\n    /* \"#utility.yul\":8679:8685   */\n  dup4\n    /* \"#utility.yul\":8672:8736   */\n  sstore\n    /* \"#utility.yul\":8594:8750   */\n  pop\n    /* \"#utility.yul\":8571:8750   */\ntag_156:\n    /* \"#utility.yul\":8796:8797   */\n  0x01\n    /* \"#utility.yul\":8792:8793   */\n  0x02\n    /* \"#utility.yul\":8784:8790   */\n  dup9\n    /* \"#utility.yul\":8780:8794   */\n  mul\n    /* \"#utility.yul\":8776:8798   */\n  add\n    /* \"#utility.yul\":8770:8774   */\n  dup9\n    /* \"#utility.yul\":8763:8799   */\n  sstore\n    /* \"#utility.yul\":8198:8809   */\n  pop\n  pop\n  pop\n    /* \"#utility.yul\":8161:9048   */\ntag_148:\n  pop\n    /* \"#utility.yul\":7751:9054   */\n  pop\n  pop\n  pop\n    /* \"#utility.yul\":7659:9054   */\n  pop\n  pop\n  jump\t// out\n    /* \"#utility.yul\":9060:9240   */\ntag_51:\n    /* \"#utility.yul\":9108:9185   */\n  0x4e487b7100000000000000000000000000000000000000000000000000000000\n    /* \"#utility.yul\":9105:9106   */\n  0x00\n    /* \"#utility.yul\":9098:9186   */\n  mstore\n    /* \"#utility.yul\":9205:9209   */\n  0x11\n    /* \"#utility.yul\":9202:9203   */\n  0x04\n    /* \"#utility.yul\":9195:9210   */\n  mstore\n    /* \"#utility.yul\":9229:9233   */\n  0x24\n    /* \"#utility.yul\":9226:9227   */\n  0x00\n    /* \"#utility.yul\":9219:9234   */\n  revert\n    /* \"#utility.yul\":9246:9656   */\ntag_10:\n    /* \"#utility.yul\":9286:9293   */\n  0x00\n    /* \"#utility.yul\":9309:9329   */\n  tag_160\n    /* \"#utility.yul\":9327:9328   */\n  dup3\n    /* \"#utility.yul\":9309:9329   */\n  tag_30\n  jump\t// in\ntag_160:\n    /* \"#utility.yul\":9304:9329   */\n  swap2\n  pop\n    /* \"#utility.yul\":9343:9363   */\n  tag_161\n    /* \"#utility.yul\":9361:9362   */\n  dup4\n    /* \"#utility.yul\":9343:9363   */\n  tag_30\n  jump\t// in\ntag_161:\n    /* \"#utility.yul\":9338:9363   */\n  swap3\n  pop\n    /* \"#utility.yul\":9398:9399   */\n  dup3\n    /* \"#utility.yul\":9395:9396   */\n  dup3\n    /* \"#utility.yul\":9391:9400   */\n  mul\n    /* \"#utility.yul\":9420:9450   */\n  tag_162\n    /* \"#utility.yul\":9438:9449   */\n  dup2\n    /* \"#utility.yul\":9420:9450   */\n  tag_30\n  jump\t// in\ntag_162:\n    /* \"#utility.yul\":9409:9450   */\n  swap2\n  pop\n    /* \"#utility.yul\":9599:9600   */\n  dup3\n    /* \"#utility.yul\":9590:9597   */\n  dup3\n    /* \"#utility.yul\":9586:9601   */\n  div\n    /* \"#utility.yul\":9583:9584   */\n  dup5\n    /* \"#utility.yul\":9580:9602   */\n  eq\n    /* \"#utility.yul\":9560:9561   */\n  dup4\n    /* \"#utility.yul\":9553:9562   */\n  iszero\n    /* \"#utility.yul\":9533:9616   */\n  or\n    /* \"#utility.yul\":9510:9649   */\n  tag_163\n  jumpi\n    /* \"#utility.yul\":9629:9647   */\n  tag_164\n  tag_51\n  jump\t// in\ntag_164:\n    /* \"#utility.yul\":9510:9649   */\ntag_163:\n    /* \"#utility.yul\":9294:9656   */\n  pop\n    /* \"#utility.yul\":9246:9656   */\n  swap3\n  swap2\n  pop\n  pop\n  jump\t// out\n    /* \"#utility.yul\":9662:9853   */\ntag_12:\n    /* \"#utility.yul\":9702:9705   */\n  0x00\n    /* \"#utility.yul\":9721:9741   */\n  tag_166\n    /* \"#utility.yul\":9739:9740   */\n  dup3\n    /* \"#utility.yul\":9721:9741   */\n  tag_30\n  jump\t// in\ntag_166:\n    /* \"#utility.yul\":9716:9741   */\n  swap2\n  pop\n    /* \"#utility.yul\":9755:9775   */\n  tag_167\n    /* \"#utility.yul\":9773:9774   */\n  dup4\n    /* \"#utility.yul\":9755:9775   */\n  tag_30\n  jump\t// in\ntag_167:\n    /* \"#utility.yul\":9750:9775   */\n  swap3\n  pop\n    /* \"#utility.yul\":9798:9799   */\n  dup3\n    /* \"#utility.yul\":9795:9796   */\n  dup3\n    /* \"#utility.yul\":9791:9800   */\n  add\n    /* \"#utility.yul\":9784:9800   */\n  swap1\n  pop\n    /* \"#utility.yul\":9819:9822   */\n  dup1\n    /* \"#utility.yul\":9816:9817   */\n  dup3\n    /* \"#utility.yul\":9813:9823   */\n  gt\n    /* \"#utility.yul\":9810:9846   */\n  iszero\n  tag_168\n  jumpi\n    /* \"#utility.yul\":9826:9844   */\n  tag_169\n  tag_51\n  jump\t// in\ntag_169:\n    /* \"#utility.yul\":9810:9846   */\ntag_168:\n    /* \"#utility.yul\":9662:9853   */\n  swap3\n  swap2\n  pop\n  pop\n  jump\t// out\n    /* \"#utility.yul\":9859:10039   */\ntag_15:\n    /* \"#utility.yul\":9907:9984   */\n  0x4e487b7100000000000000000000000000000000000000000000000000000000\n    /* \"#utility.yul\":9904:9905   */\n  0x00\n    /* \"#utility.yul\":9897:9985   */\n  mstore\n    /* \"#utility.yul\":10004:10008   */\n  0x21\n    /* \"#utility.yul\":10001:10002   */\n  0x04\n    /* \"#utility.yul\":9994:10009   */\n  mstore\n    /* \"#utility.yul\":10028:10032   */\n  0x24\n    /* \"#utility.yul\":10025:10026   */\n  0x00\n    /* \"#utility.yul\":10018:10033   */\n  revert\n    /* \"contracts/CrowdFunding.sol\":57:2695  contract CrowdFunding {... */\ntag_16:\n  dataSize(sub_0)\n  dup1\n  dataOffset(sub_0)\n  0x00\n  codecopy\n  0x00\n  return\nstop\n\nsub_0: assembly {\n        /* \"contracts/CrowdFunding.sol\":57:2695  contract CrowdFunding {... */\n      mstore(0x40, 0x80)\n      jumpi(tag_1, lt(calldatasize, 0x04))\n      shr(0xe0, calldataload(0x00))\n      dup1\n      0x7284e416\n      gt\n      tag_14\n      jumpi\n      dup1\n      0x7284e416\n      eq\n      tag_8\n      jumpi\n      dup1\n      0x7497211b\n      eq\n      tag_9\n      jumpi\n      dup1\n      0x8da5cb5b\n      eq\n      tag_10\n      jumpi\n      dup1\n      0x8ece7b91\n      eq\n      tag_11\n      jumpi\n      dup1\n      0xc19d93fb\n      eq\n      tag_12\n      jumpi\n      dup1\n      0xca1d209d\n      eq\n      tag_13\n      jumpi\n      jump(tag_1)\n    tag_14:\n      dup1\n      0x039af9eb\n      eq\n      tag_2\n      jumpi\n      dup1\n      0x06fdde03\n      eq\n      tag_3\n      jumpi\n      dup1\n      0x29dcb0cf\n      eq\n      tag_4\n      jumpi\n      dup1\n      0x3ccfd60b\n      eq\n      tag_5\n      jumpi\n      dup1\n      0x40193883\n      eq\n      tag_6\n      jumpi\n      dup1\n      0x6f9fb98a\n      eq\n      tag_7\n      jumpi\n    tag_1:\n      revert(0x00, 0x00)\n        /* \"contracts/CrowdFunding.sol\":432:451  Tier[] public tiers */\n    tag_2:\n      callvalue\n      dup1\n      iszero\n      tag_15\n      jumpi\n      revert(0x00, 0x00)\n    tag_15:\n      pop\n      tag_16\n      0x04\n      dup1\n      calldatasize\n      sub\n      dup2\n      add\n      swap1\n      tag_17\n      swap2\n      swap1\n      tag_18\n      jump\t// in\n    tag_17:\n      tag_19\n      jump\t// in\n    tag_16:\n      mload(0x40)\n      tag_20\n      swap4\n      swap3\n      swap2\n      swap1\n      tag_21\n      jump\t// in\n    tag_20:\n      mload(0x40)\n      dup1\n      swap2\n      sub\n      swap1\n      return\n        /* \"contracts/CrowdFunding.sol\":85:103  string public name */\n    tag_3:\n      callvalue\n      dup1\n      iszero\n      tag_22\n      jumpi\n      revert(0x00, 0x00)\n    tag_22:\n      pop\n      tag_23\n      tag_24\n      jump\t// in\n    tag_23:\n      mload(0x40)\n      tag_25\n      swap2\n      swap1\n      tag_26\n      jump\t// in\n    tag_25:\n      mload(0x40)\n      dup1\n      swap2\n      sub\n      swap1\n      return\n        /* \"contracts/CrowdFunding.sol\":165:188  uint256 public deadline */\n    tag_4:\n      callvalue\n      dup1\n      iszero\n      tag_27\n      jumpi\n      revert(0x00, 0x00)\n    tag_27:\n      pop\n      tag_28\n      tag_29\n      jump\t// in\n    tag_28:\n      mload(0x40)\n      tag_30\n      swap2\n      swap1\n      tag_31\n      jump\t// in\n    tag_30:\n      mload(0x40)\n      dup1\n      swap2\n      sub\n      swap1\n      return\n        /* \"contracts/CrowdFunding.sol\":2231:2582  function withdraw() public onlyOwner {... */\n    tag_5:\n      callvalue\n      dup1\n      iszero\n      tag_32\n      jumpi\n      revert(0x00, 0x00)\n    tag_32:\n      pop\n      tag_33\n      tag_34\n      jump\t// in\n    tag_33:\n      stop\n        /* \"contracts/CrowdFunding.sol\":140:159  uint256 public goal */\n    tag_6:\n      callvalue\n      dup1\n      iszero\n      tag_35\n      jumpi\n      revert(0x00, 0x00)\n    tag_35:\n      pop\n      tag_36\n      tag_37\n      jump\t// in\n    tag_36:\n      mload(0x40)\n      tag_38\n      swap2\n      swap1\n      tag_31\n      jump\t// in\n    tag_38:\n      mload(0x40)\n      dup1\n      swap2\n      sub\n      swap1\n      return\n        /* \"contracts/CrowdFunding.sol\":2588:2693  function getContractBalance() public view returns (uint256) {... */\n    tag_7:\n      callvalue\n      dup1\n      iszero\n      tag_39\n      jumpi\n      revert(0x00, 0x00)\n    tag_39:\n      pop\n      tag_40\n      tag_41\n      jump\t// in\n    tag_40:\n      mload(0x40)\n      tag_42\n      swap2\n      swap1\n      tag_31\n      jump\t// in\n    tag_42:\n      mload(0x40)\n      dup1\n      swap2\n      sub\n      swap1\n      return\n        /* \"contracts/CrowdFunding.sol\":109:134  string public description */\n    tag_8:\n      callvalue\n      dup1\n      iszero\n      tag_43\n      jumpi\n      revert(0x00, 0x00)\n    tag_43:\n      pop\n      tag_44\n      tag_45\n      jump\t// in\n    tag_44:\n      mload(0x40)\n      tag_46\n      swap2\n      swap1\n      tag_26\n      jump\t// in\n    tag_46:\n      mload(0x40)\n      dup1\n      swap2\n      sub\n      swap1\n      return\n        /* \"contracts/CrowdFunding.sol\":2031:2225  function removeTier(uint256 _index) public onlyOwner {... */\n    tag_9:\n      callvalue\n      dup1\n      iszero\n      tag_47\n      jumpi\n      revert(0x00, 0x00)\n    tag_47:\n      pop\n      tag_48\n      0x04\n      dup1\n      calldatasize\n      sub\n      dup2\n      add\n      swap1\n      tag_49\n      swap2\n      swap1\n      tag_18\n      jump\t// in\n    tag_49:\n      tag_50\n      jump\t// in\n    tag_48:\n      stop\n        /* \"contracts/CrowdFunding.sol\":194:214  address public owner */\n    tag_10:\n      callvalue\n      dup1\n      iszero\n      tag_51\n      jumpi\n      revert(0x00, 0x00)\n    tag_51:\n      pop\n      tag_52\n      tag_53\n      jump\t// in\n    tag_52:\n      mload(0x40)\n      tag_54\n      swap2\n      swap1\n      tag_55\n      jump\t// in\n    tag_54:\n      mload(0x40)\n      dup1\n      swap2\n      sub\n      swap1\n      return\n        /* \"contracts/CrowdFunding.sol\":1837:2025  function addTier(string memory _name, uint256 _amount) public onlyOwner {... */\n    tag_11:\n      callvalue\n      dup1\n      iszero\n      tag_56\n      jumpi\n      revert(0x00, 0x00)\n    tag_56:\n      pop\n      tag_57\n      0x04\n      dup1\n      calldatasize\n      sub\n      dup2\n      add\n      swap1\n      tag_58\n      swap2\n      swap1\n      tag_59\n      jump\t// in\n    tag_58:\n      tag_60\n      jump\t// in\n    tag_57:\n      stop\n        /* \"contracts/CrowdFunding.sol\":304:330  CampaignState public state */\n    tag_12:\n      callvalue\n      dup1\n      iszero\n      tag_61\n      jumpi\n      revert(0x00, 0x00)\n    tag_61:\n      pop\n      tag_62\n      tag_63\n      jump\t// in\n    tag_62:\n      mload(0x40)\n      tag_64\n      swap2\n      swap1\n      tag_65\n      jump\t// in\n    tag_64:\n      mload(0x40)\n      dup1\n      swap2\n      sub\n      swap1\n      return\n        /* \"contracts/CrowdFunding.sol\":1539:1831  function fund(uint256 _tierIndex) public payable campaignOpen {... */\n    tag_13:\n      tag_66\n      0x04\n      dup1\n      calldatasize\n      sub\n      dup2\n      add\n      swap1\n      tag_67\n      swap2\n      swap1\n      tag_18\n      jump\t// in\n    tag_67:\n      tag_68\n      jump\t// in\n    tag_66:\n      stop\n        /* \"contracts/CrowdFunding.sol\":432:451  Tier[] public tiers */\n    tag_19:\n      0x05\n      dup2\n      dup2\n      sload\n      dup2\n      lt\n      tag_69\n      jumpi\n      0x00\n      dup1\n      revert\n    tag_69:\n      swap1\n      0x00\n      mstore\n      keccak256(0x00, 0x20)\n      swap1\n      0x03\n      mul\n      add\n      0x00\n      swap2\n      pop\n      swap1\n      pop\n      dup1\n      0x00\n      add\n      dup1\n      sload\n      tag_71\n      swap1\n      tag_72\n      jump\t// in\n    tag_71:\n      dup1\n      0x1f\n      add\n      0x20\n      dup1\n      swap2\n      div\n      mul\n      0x20\n      add\n      mload(0x40)\n      swap1\n      dup2\n      add\n      0x40\n      mstore\n      dup1\n      swap3\n      swap2\n      swap1\n      dup2\n      dup2\n      mstore\n      0x20\n      add\n      dup3\n      dup1\n      sload\n      tag_73\n      swap1\n      tag_72\n      jump\t// in\n    tag_73:\n      dup1\n      iszero\n      tag_74\n      jumpi\n      dup1\n      0x1f\n      lt\n      tag_75\n      jumpi\n      0x0100\n      dup1\n      dup4\n      sload\n      div\n      mul\n      dup4\n      mstore\n      swap2\n      0x20\n      add\n      swap2\n      jump(tag_74)\n    tag_75:\n      dup3\n      add\n      swap2\n      swap1\n      0x00\n      mstore\n      keccak256(0x00, 0x20)\n      swap1\n    tag_76:\n      dup2\n      sload\n      dup2\n      mstore\n      swap1\n      0x01\n      add\n      swap1\n      0x20\n      add\n      dup1\n      dup4\n      gt\n      tag_76\n      jumpi\n      dup3\n      swap1\n      sub\n      0x1f\n      and\n      dup3\n      add\n      swap2\n    tag_74:\n      pop\n      pop\n      pop\n      pop\n      pop\n      swap1\n      dup1\n      0x01\n      add\n      sload\n      swap1\n      dup1\n      0x02\n      add\n      sload\n      swap1\n      pop\n      dup4\n      jump\t// out\n        /* \"contracts/CrowdFunding.sol\":85:103  string public name */\n    tag_24:\n      0x00\n      dup1\n      sload\n      tag_77\n      swap1\n      tag_72\n      jump\t// in\n    tag_77:\n      dup1\n      0x1f\n      add\n      0x20\n      dup1\n      swap2\n      div\n      mul\n      0x20\n      add\n      mload(0x40)\n      swap1\n      dup2\n      add\n      0x40\n      mstore\n      dup1\n      swap3\n      swap2\n      swap1\n      dup2\n      dup2\n      mstore\n      0x20\n      add\n      dup3\n      dup1\n      sload\n      tag_78\n      swap1\n      tag_72\n      jump\t// in\n    tag_78:\n      dup1\n      iszero\n      tag_79\n      jumpi\n      dup1\n      0x1f\n      lt\n      tag_80\n      jumpi\n      0x0100\n      dup1\n      dup4\n      sload\n      div\n      mul\n      dup4\n      mstore\n      swap2\n      0x20\n      add\n      swap2\n      jump(tag_79)\n    tag_80:\n      dup3\n      add\n      swap2\n      swap1\n      0x00\n      mstore\n      keccak256(0x00, 0x20)\n      swap1\n    tag_81:\n      dup2\n      sload\n      dup2\n      mstore\n      swap1\n      0x01\n      add\n      swap1\n      0x20\n      add\n      dup1\n      dup4\n      gt\n      tag_81\n      jumpi\n      dup3\n      swap1\n      sub\n      0x1f\n      and\n      dup3\n      add\n      swap2\n    tag_79:\n      pop\n      pop\n      pop\n      pop\n      pop\n      dup2\n      jump\t// out\n        /* \"contracts/CrowdFunding.sol\":165:188  uint256 public deadline */\n    tag_29:\n      sload(0x03)\n      dup2\n      jump\t// out\n        /* \"contracts/CrowdFunding.sol\":2231:2582  function withdraw() public onlyOwner {... */\n    tag_34:\n        /* \"contracts/CrowdFunding.sol\":511:516  owner */\n      0x04\n      0x00\n      swap1\n      sload\n      swap1\n      0x0100\n      exp\n      swap1\n      div\n      0xffffffffffffffffffffffffffffffffffffffff\n      and\n        /* \"contracts/CrowdFunding.sol\":497:516  msg.sender == owner */\n      0xffffffffffffffffffffffffffffffffffffffff\n      and\n        /* \"contracts/CrowdFunding.sol\":497:507  msg.sender */\n      caller\n        /* \"contracts/CrowdFunding.sol\":497:516  msg.sender == owner */\n      0xffffffffffffffffffffffffffffffffffffffff\n      and\n      eq\n        /* \"contracts/CrowdFunding.sol\":489:542  require(msg.sender == owner, \"You are not the owner\") */\n      tag_83\n      jumpi\n      mload(0x40)\n      0x08c379a000000000000000000000000000000000000000000000000000000000\n      dup2\n      mstore\n      0x04\n      add\n      tag_84\n      swap1\n      tag_85\n      jump\t// in\n    tag_84:\n      mload(0x40)\n      dup1\n      swap2\n      sub\n      swap1\n      revert\n    tag_83:\n        /* \"contracts/CrowdFunding.sol\":2278:2307  checkAndUpdateCampaignState() */\n      tag_87\n        /* \"contracts/CrowdFunding.sol\":2278:2305  checkAndUpdateCampaignState */\n      tag_88\n        /* \"contracts/CrowdFunding.sol\":2278:2307  checkAndUpdateCampaignState() */\n      jump\t// in\n    tag_87:\n        /* \"contracts/CrowdFunding.sol\":2348:2372  CampaignState.Successful */\n      0x01\n        /* \"contracts/CrowdFunding.sol\":2339:2372  state == CampaignState.Successful */\n      0x02\n      dup2\n      gt\n      iszero\n      tag_89\n      jumpi\n      tag_90\n      tag_91\n      jump\t// in\n    tag_90:\n    tag_89:\n        /* \"contracts/CrowdFunding.sol\":2339:2344  state */\n      0x04\n      0x14\n      swap1\n      sload\n      swap1\n      0x0100\n      exp\n      swap1\n      div\n      0xff\n      and\n        /* \"contracts/CrowdFunding.sol\":2339:2372  state == CampaignState.Successful */\n      0x02\n      dup2\n      gt\n      iszero\n      tag_92\n      jumpi\n      tag_93\n      tag_91\n      jump\t// in\n    tag_93:\n    tag_92:\n      eq\n        /* \"contracts/CrowdFunding.sol\":2318:2425  require(... */\n      tag_94\n      jumpi\n      mload(0x40)\n      0x08c379a000000000000000000000000000000000000000000000000000000000\n      dup2\n      mstore\n      0x04\n      add\n      tag_95\n      swap1\n      tag_96\n      jump\t// in\n    tag_95:\n      mload(0x40)\n      dup1\n      swap2\n      sub\n      swap1\n      revert\n    tag_94:\n        /* \"contracts/CrowdFunding.sol\":2436:2451  uint256 balance */\n      0x00\n        /* \"contracts/CrowdFunding.sol\":2454:2475  address(this).balance */\n      selfbalance\n        /* \"contracts/CrowdFunding.sol\":2436:2475  uint256 balance = address(this).balance */\n      swap1\n      pop\n        /* \"contracts/CrowdFunding.sol\":2503:2504  0 */\n      0x00\n        /* \"contracts/CrowdFunding.sol\":2493:2500  balance */\n      dup2\n        /* \"contracts/CrowdFunding.sol\":2493:2504  balance > 0 */\n      gt\n        /* \"contracts/CrowdFunding.sol\":2485:2532  require(balance > 0, \"No balance to withdraw!\") */\n      tag_97\n      jumpi\n      mload(0x40)\n      0x08c379a000000000000000000000000000000000000000000000000000000000\n      dup2\n      mstore\n      0x04\n      add\n      tag_98\n      swap1\n      tag_99\n      jump\t// in\n    tag_98:\n      mload(0x40)\n      dup1\n      swap2\n      sub\n      swap1\n      revert\n    tag_97:\n        /* \"contracts/CrowdFunding.sol\":2551:2556  owner */\n      0x04\n      0x00\n      swap1\n      sload\n      swap1\n      0x0100\n      exp\n      swap1\n      div\n      0xffffffffffffffffffffffffffffffffffffffff\n      and\n        /* \"contracts/CrowdFunding.sol\":2543:2566  payable(owner).transfer */\n      0xffffffffffffffffffffffffffffffffffffffff\n      and\n        /* \"contracts/CrowdFunding.sol\":2543:2575  payable(owner).transfer(balance) */\n      0x08fc\n        /* \"contracts/CrowdFunding.sol\":2567:2574  balance */\n      dup3\n        /* \"contracts/CrowdFunding.sol\":2543:2575  payable(owner).transfer(balance) */\n      swap1\n      dup2\n      iszero\n      mul\n      swap1\n      mload(0x40)\n      0x00\n      mload(0x40)\n      dup1\n      dup4\n      sub\n      dup2\n      dup6\n      dup9\n      dup9\n      call\n      swap4\n      pop\n      pop\n      pop\n      pop\n      iszero\n      dup1\n      iszero\n      tag_101\n      jumpi\n      returndatacopy(0x00, 0x00, returndatasize)\n      revert(0x00, returndatasize)\n    tag_101:\n      pop\n        /* \"contracts/CrowdFunding.sol\":2268:2582  {... */\n      pop\n        /* \"contracts/CrowdFunding.sol\":2231:2582  function withdraw() public onlyOwner {... */\n      jump\t// out\n        /* \"contracts/CrowdFunding.sol\":140:159  uint256 public goal */\n    tag_37:\n      sload(0x02)\n      dup2\n      jump\t// out\n        /* \"contracts/CrowdFunding.sol\":2588:2693  function getContractBalance() public view returns (uint256) {... */\n    tag_41:\n        /* \"contracts/CrowdFunding.sol\":2639:2646  uint256 */\n      0x00\n        /* \"contracts/CrowdFunding.sol\":2665:2686  address(this).balance */\n      selfbalance\n        /* \"contracts/CrowdFunding.sol\":2658:2686  return address(this).balance */\n      swap1\n      pop\n        /* \"contracts/CrowdFunding.sol\":2588:2693  function getContractBalance() public view returns (uint256) {... */\n      swap1\n      jump\t// out\n        /* \"contracts/CrowdFunding.sol\":109:134  string public description */\n    tag_45:\n      0x01\n      dup1\n      sload\n      tag_103\n      swap1\n      tag_72\n      jump\t// in\n    tag_103:\n      dup1\n      0x1f\n      add\n      0x20\n      dup1\n      swap2\n      div\n      mul\n      0x20\n      add\n      mload(0x40)\n      swap1\n      dup2\n      add\n      0x40\n      mstore\n      dup1\n      swap3\n      swap2\n      swap1\n      dup2\n      dup2\n      mstore\n      0x20\n      add\n      dup3\n      dup1\n      sload\n      tag_104\n      swap1\n      tag_72\n      jump\t// in\n    tag_104:\n      dup1\n      iszero\n      tag_105\n      jumpi\n      dup1\n      0x1f\n      lt\n      tag_106\n      jumpi\n      0x0100\n      dup1\n      dup4\n      sload\n      div\n      mul\n      dup4\n      mstore\n      swap2\n      0x20\n      add\n      swap2\n      jump(tag_105)\n    tag_106:\n      dup3\n      add\n      swap2\n      swap1\n      0x00\n      mstore\n      keccak256(0x00, 0x20)\n      swap1\n    tag_107:\n      dup2\n      sload\n      dup2\n      mstore\n      swap1\n      0x01\n      add\n      swap1\n      0x20\n      add\n      dup1\n      dup4\n      gt\n      tag_107\n      jumpi\n      dup3\n      swap1\n      sub\n      0x1f\n      and\n      dup3\n      add\n      swap2\n    tag_105:\n      pop\n      pop\n      pop\n      pop\n      pop\n      dup2\n      jump\t// out\n        /* \"contracts/CrowdFunding.sol\":2031:2225  function removeTier(uint256 _index) public onlyOwner {... */\n    tag_50:\n        /* \"contracts/CrowdFunding.sol\":511:516  owner */\n      0x04\n      0x00\n      swap1\n      sload\n      swap1\n      0x0100\n      exp\n      swap1\n      div\n      0xffffffffffffffffffffffffffffffffffffffff\n      and\n        /* \"contracts/CrowdFunding.sol\":497:516  msg.sender == owner */\n      0xffffffffffffffffffffffffffffffffffffffff\n      and\n        /* \"contracts/CrowdFunding.sol\":497:507  msg.sender */\n      caller\n        /* \"contracts/CrowdFunding.sol\":497:516  msg.sender == owner */\n      0xffffffffffffffffffffffffffffffffffffffff\n      and\n      eq\n        /* \"contracts/CrowdFunding.sol\":489:542  require(msg.sender == owner, \"You are not the owner\") */\n      tag_109\n      jumpi\n      mload(0x40)\n      0x08c379a000000000000000000000000000000000000000000000000000000000\n      dup2\n      mstore\n      0x04\n      add\n      tag_110\n      swap1\n      tag_85\n      jump\t// in\n    tag_110:\n      mload(0x40)\n      dup1\n      swap2\n      sub\n      swap1\n      revert\n    tag_109:\n        /* \"contracts/CrowdFunding.sol\":2111:2116  tiers */\n      0x05\n        /* \"contracts/CrowdFunding.sol\":2111:2123  tiers.length */\n      dup1\n      sload\n      swap1\n      pop\n        /* \"contracts/CrowdFunding.sol\":2102:2108  _index */\n      dup2\n        /* \"contracts/CrowdFunding.sol\":2102:2123  _index < tiers.length */\n      lt\n        /* \"contracts/CrowdFunding.sol\":2094:2148  require(_index < tiers.length, \"Tier does not exist!\") */\n      tag_112\n      jumpi\n      mload(0x40)\n      0x08c379a000000000000000000000000000000000000000000000000000000000\n      dup2\n      mstore\n      0x04\n      add\n      tag_113\n      swap1\n      tag_114\n      jump\t// in\n    tag_113:\n      mload(0x40)\n      dup1\n      swap2\n      sub\n      swap1\n      revert\n    tag_112:\n        /* \"contracts/CrowdFunding.sol\":2174:2179  tiers */\n      0x05\n        /* \"contracts/CrowdFunding.sol\":2195:2196  1 */\n      0x01\n        /* \"contracts/CrowdFunding.sol\":2180:2185  tiers */\n      0x05\n        /* \"contracts/CrowdFunding.sol\":2180:2192  tiers.length */\n      dup1\n      sload\n      swap1\n      pop\n        /* \"contracts/CrowdFunding.sol\":2180:2196  tiers.length - 1 */\n      tag_115\n      swap2\n      swap1\n      tag_116\n      jump\t// in\n    tag_115:\n        /* \"contracts/CrowdFunding.sol\":2174:2197  tiers[tiers.length - 1] */\n      dup2\n      sload\n      dup2\n      lt\n      tag_117\n      jumpi\n      tag_118\n      tag_119\n      jump\t// in\n    tag_118:\n    tag_117:\n      swap1\n      0x00\n      mstore\n      keccak256(0x00, 0x20)\n      swap1\n      0x03\n      mul\n      add\n        /* \"contracts/CrowdFunding.sol\":2158:2163  tiers */\n      0x05\n        /* \"contracts/CrowdFunding.sol\":2164:2170  _index */\n      dup3\n        /* \"contracts/CrowdFunding.sol\":2158:2171  tiers[_index] */\n      dup2\n      sload\n      dup2\n      lt\n      tag_121\n      jumpi\n      tag_122\n      tag_119\n      jump\t// in\n    tag_122:\n    tag_121:\n      swap1\n      0x00\n      mstore\n      keccak256(0x00, 0x20)\n      swap1\n      0x03\n      mul\n      add\n        /* \"contracts/CrowdFunding.sol\":2158:2197  tiers[_index] = tiers[tiers.length - 1] */\n      0x00\n      dup3\n      add\n      dup2\n      0x00\n      add\n      swap1\n      dup2\n      tag_124\n      swap2\n      swap1\n      tag_125\n      jump\t// in\n    tag_124:\n      pop\n      0x01\n      dup3\n      add\n      sload\n      dup2\n      0x01\n      add\n      sstore\n      0x02\n      dup3\n      add\n      sload\n      dup2\n      0x02\n      add\n      sstore\n      swap1\n      pop\n      pop\n        /* \"contracts/CrowdFunding.sol\":2207:2212  tiers */\n      0x05\n        /* \"contracts/CrowdFunding.sol\":2207:2218  tiers.pop() */\n      dup1\n      sload\n      dup1\n      tag_126\n      jumpi\n      tag_127\n      tag_128\n      jump\t// in\n    tag_127:\n    tag_126:\n      0x01\n      swap1\n      sub\n      dup2\n      dup2\n      swap1\n      0x00\n      mstore\n      keccak256(0x00, 0x20)\n      swap1\n      0x03\n      mul\n      add\n      0x00\n      0x00\n      dup3\n      add\n      0x00\n      tag_130\n      swap2\n      swap1\n      tag_131\n      jump\t// in\n    tag_130:\n      0x01\n      dup3\n      add\n      0x00\n      swap1\n      sstore\n      0x02\n      dup3\n      add\n      0x00\n      swap1\n      sstore\n      pop\n      pop\n      swap1\n      sstore\n        /* \"contracts/CrowdFunding.sol\":2031:2225  function removeTier(uint256 _index) public onlyOwner {... */\n      pop\n      jump\t// out\n        /* \"contracts/CrowdFunding.sol\":194:214  address public owner */\n    tag_53:\n      0x04\n      0x00\n      swap1\n      sload\n      swap1\n      0x0100\n      exp\n      swap1\n      div\n      0xffffffffffffffffffffffffffffffffffffffff\n      and\n      dup2\n      jump\t// out\n        /* \"contracts/CrowdFunding.sol\":1837:2025  function addTier(string memory _name, uint256 _amount) public onlyOwner {... */\n    tag_60:\n        /* \"contracts/CrowdFunding.sol\":511:516  owner */\n      0x04\n      0x00\n      swap1\n      sload\n      swap1\n      0x0100\n      exp\n      swap1\n      div\n      0xffffffffffffffffffffffffffffffffffffffff\n      and\n        /* \"contracts/CrowdFunding.sol\":497:516  msg.sender == owner */\n      0xffffffffffffffffffffffffffffffffffffffff\n      and\n        /* \"contracts/CrowdFunding.sol\":497:507  msg.sender */\n      caller\n        /* \"contracts/CrowdFunding.sol\":497:516  msg.sender == owner */\n      0xffffffffffffffffffffffffffffffffffffffff\n      and\n      eq\n        /* \"contracts/CrowdFunding.sol\":489:542  require(msg.sender == owner, \"You are not the owner\") */\n      tag_133\n      jumpi\n      mload(0x40)\n      0x08c379a000000000000000000000000000000000000000000000000000000000\n      dup2\n      mstore\n      0x04\n      add\n      tag_134\n      swap1\n      tag_85\n      jump\t// in\n    tag_134:\n      mload(0x40)\n      dup1\n      swap2\n      sub\n      swap1\n      revert\n    tag_133:\n        /* \"contracts/CrowdFunding.sol\":1937:1938  0 */\n      0x00\n        /* \"contracts/CrowdFunding.sol\":1927:1934  _amount */\n      dup2\n        /* \"contracts/CrowdFunding.sol\":1927:1938  _amount > 0 */\n      gt\n        /* \"contracts/CrowdFunding.sol\":1919:1973  require(_amount > 0, \"Amount must be greater than 0!\") */\n      tag_136\n      jumpi\n      mload(0x40)\n      0x08c379a000000000000000000000000000000000000000000000000000000000\n      dup2\n      mstore\n      0x04\n      add\n      tag_137\n      swap1\n      tag_138\n      jump\t// in\n    tag_137:\n      mload(0x40)\n      dup1\n      swap2\n      sub\n      swap1\n      revert\n    tag_136:\n        /* \"contracts/CrowdFunding.sol\":1983:1988  tiers */\n      0x05\n        /* \"contracts/CrowdFunding.sol\":1994:2017  Tier(_name, _amount, 0) */\n      mload(0x40)\n      dup1\n      0x60\n      add\n      0x40\n      mstore\n      dup1\n        /* \"contracts/CrowdFunding.sol\":1999:2004  _name */\n      dup5\n        /* \"contracts/CrowdFunding.sol\":1994:2017  Tier(_name, _amount, 0) */\n      dup2\n      mstore\n      0x20\n      add\n        /* \"contracts/CrowdFunding.sol\":2006:2013  _amount */\n      dup4\n        /* \"contracts/CrowdFunding.sol\":1994:2017  Tier(_name, _amount, 0) */\n      dup2\n      mstore\n      0x20\n      add\n        /* \"contracts/CrowdFunding.sol\":2015:2016  0 */\n      0x00\n        /* \"contracts/CrowdFunding.sol\":1994:2017  Tier(_name, _amount, 0) */\n      dup2\n      mstore\n      pop\n        /* \"contracts/CrowdFunding.sol\":1983:2018  tiers.push(Tier(_name, _amount, 0)) */\n      swap1\n      dup1\n      0x01\n      dup2\n      sload\n      add\n      dup1\n      dup3\n      sstore\n      dup1\n      swap2\n      pop\n      pop\n      0x01\n      swap1\n      sub\n      swap1\n      0x00\n      mstore\n      keccak256(0x00, 0x20)\n      swap1\n      0x03\n      mul\n      add\n      0x00\n      swap1\n      swap2\n      swap1\n      swap2\n      swap1\n      swap2\n      pop\n      0x00\n      dup3\n      add\n      mload\n      dup2\n      0x00\n      add\n      swap1\n      dup2\n      tag_140\n      swap2\n      swap1\n      tag_141\n      jump\t// in\n    tag_140:\n      pop\n      0x20\n      dup3\n      add\n      mload\n      dup2\n      0x01\n      add\n      sstore\n      0x40\n      dup3\n      add\n      mload\n      dup2\n      0x02\n      add\n      sstore\n      pop\n      pop\n        /* \"contracts/CrowdFunding.sol\":1837:2025  function addTier(string memory _name, uint256 _amount) public onlyOwner {... */\n      pop\n      pop\n      jump\t// out\n        /* \"contracts/CrowdFunding.sol\":304:330  CampaignState public state */\n    tag_63:\n      0x04\n      0x14\n      swap1\n      sload\n      swap1\n      0x0100\n      exp\n      swap1\n      div\n      0xff\n      and\n      dup2\n      jump\t// out\n        /* \"contracts/CrowdFunding.sol\":1539:1831  function fund(uint256 _tierIndex) public payable campaignOpen {... */\n    tag_68:\n        /* \"contracts/CrowdFunding.sol\":617:637  CampaignState.Active */\n      0x00\n        /* \"contracts/CrowdFunding.sol\":608:637  state == CampaignState.Active */\n      0x02\n      dup2\n      gt\n      iszero\n      tag_143\n      jumpi\n      tag_144\n      tag_91\n      jump\t// in\n    tag_144:\n    tag_143:\n        /* \"contracts/CrowdFunding.sol\":608:613  state */\n      0x04\n      0x14\n      swap1\n      sload\n      swap1\n      0x0100\n      exp\n      swap1\n      div\n      0xff\n      and\n        /* \"contracts/CrowdFunding.sol\":608:637  state == CampaignState.Active */\n      0x02\n      dup2\n      gt\n      iszero\n      tag_145\n      jumpi\n      tag_146\n      tag_91\n      jump\t// in\n    tag_146:\n    tag_145:\n      eq\n        /* \"contracts/CrowdFunding.sol\":600:664  require(state == CampaignState.Active, \"Campaign is not Active\") */\n      tag_147\n      jumpi\n      mload(0x40)\n      0x08c379a000000000000000000000000000000000000000000000000000000000\n      dup2\n      mstore\n      0x04\n      add\n      tag_148\n      swap1\n      tag_149\n      jump\t// in\n    tag_148:\n      mload(0x40)\n      dup1\n      swap2\n      sub\n      swap1\n      revert\n    tag_147:\n        /* \"contracts/CrowdFunding.sol\":1632:1637  tiers */\n      0x05\n        /* \"contracts/CrowdFunding.sol\":1632:1644  tiers.length */\n      dup1\n      sload\n      swap1\n      pop\n        /* \"contracts/CrowdFunding.sol\":1619:1629  _tierIndex */\n      dup2\n        /* \"contracts/CrowdFunding.sol\":1619:1644  _tierIndex < tiers.length */\n      lt\n        /* \"contracts/CrowdFunding.sol\":1611:1669  require(_tierIndex < tiers.length, \"Tier does not exist!\") */\n      tag_151\n      jumpi\n      mload(0x40)\n      0x08c379a000000000000000000000000000000000000000000000000000000000\n      dup2\n      mstore\n      0x04\n      add\n      tag_152\n      swap1\n      tag_114\n      jump\t// in\n    tag_152:\n      mload(0x40)\n      dup1\n      swap2\n      sub\n      swap1\n      revert\n    tag_151:\n        /* \"contracts/CrowdFunding.sol\":1700:1705  tiers */\n      0x05\n        /* \"contracts/CrowdFunding.sol\":1706:1716  _tierIndex */\n      dup2\n        /* \"contracts/CrowdFunding.sol\":1700:1717  tiers[_tierIndex] */\n      dup2\n      sload\n      dup2\n      lt\n      tag_153\n      jumpi\n      tag_154\n      tag_119\n      jump\t// in\n    tag_154:\n    tag_153:\n      swap1\n      0x00\n      mstore\n      keccak256(0x00, 0x20)\n      swap1\n      0x03\n      mul\n      add\n        /* \"contracts/CrowdFunding.sol\":1700:1724  tiers[_tierIndex].amount */\n      0x01\n      add\n      sload\n        /* \"contracts/CrowdFunding.sol\":1687:1696  msg.value */\n      callvalue\n        /* \"contracts/CrowdFunding.sol\":1687:1724  msg.value == tiers[_tierIndex].amount */\n      eq\n        /* \"contracts/CrowdFunding.sol\":1679:1746  require(msg.value == tiers[_tierIndex].amount, \"Incorrect Amount!\") */\n      tag_156\n      jumpi\n      mload(0x40)\n      0x08c379a000000000000000000000000000000000000000000000000000000000\n      dup2\n      mstore\n      0x04\n      add\n      tag_157\n      swap1\n      tag_158\n      jump\t// in\n    tag_157:\n      mload(0x40)\n      dup1\n      swap2\n      sub\n      swap1\n      revert\n    tag_156:\n        /* \"contracts/CrowdFunding.sol\":1757:1762  tiers */\n      0x05\n        /* \"contracts/CrowdFunding.sol\":1763:1773  _tierIndex */\n      dup2\n        /* \"contracts/CrowdFunding.sol\":1757:1774  tiers[_tierIndex] */\n      dup2\n      sload\n      dup2\n      lt\n      tag_159\n      jumpi\n      tag_160\n      tag_119\n      jump\t// in\n    tag_160:\n    tag_159:\n      swap1\n      0x00\n      mstore\n      keccak256(0x00, 0x20)\n      swap1\n      0x03\n      mul\n      add\n        /* \"contracts/CrowdFunding.sol\":1757:1782  tiers[_tierIndex].backers */\n      0x02\n      add\n      0x00\n        /* \"contracts/CrowdFunding.sol\":1757:1784  tiers[_tierIndex].backers++ */\n      dup2\n      sload\n      dup1\n      swap3\n      swap2\n      swap1\n      tag_162\n      swap1\n      tag_163\n      jump\t// in\n    tag_162:\n      swap2\n      swap1\n      pop\n      sstore\n      pop\n        /* \"contracts/CrowdFunding.sol\":1795:1824  checkAndUpdateCampaignState() */\n      tag_164\n        /* \"contracts/CrowdFunding.sol\":1795:1822  checkAndUpdateCampaignState */\n      tag_88\n        /* \"contracts/CrowdFunding.sol\":1795:1824  checkAndUpdateCampaignState() */\n      jump\t// in\n    tag_164:\n        /* \"contracts/CrowdFunding.sol\":1539:1831  function fund(uint256 _tierIndex) public payable campaignOpen {... */\n      pop\n      jump\t// out\n        /* \"contracts/CrowdFunding.sol\":1051:1533  function checkAndUpdateCampaignState() internal {... */\n    tag_88:\n        /* \"contracts/CrowdFunding.sol\":1122:1142  CampaignState.Active */\n      0x00\n        /* \"contracts/CrowdFunding.sol\":1113:1142  state == CampaignState.Active */\n      0x02\n      dup2\n      gt\n      iszero\n      tag_166\n      jumpi\n      tag_167\n      tag_91\n      jump\t// in\n    tag_167:\n    tag_166:\n        /* \"contracts/CrowdFunding.sol\":1113:1118  state */\n      0x04\n      0x14\n      swap1\n      sload\n      swap1\n      0x0100\n      exp\n      swap1\n      div\n      0xff\n      and\n        /* \"contracts/CrowdFunding.sol\":1113:1142  state == CampaignState.Active */\n      0x02\n      dup2\n      gt\n      iszero\n      tag_168\n      jumpi\n      tag_169\n      tag_91\n      jump\t// in\n    tag_169:\n    tag_168:\n      sub\n        /* \"contracts/CrowdFunding.sol\":1109:1527  if (state == CampaignState.Active) {... */\n      tag_170\n      jumpi\n        /* \"contracts/CrowdFunding.sol\":1181:1189  deadline */\n      sload(0x03)\n        /* \"contracts/CrowdFunding.sol\":1162:1177  block.timestamp */\n      timestamp\n        /* \"contracts/CrowdFunding.sol\":1162:1189  block.timestamp >= deadline */\n      lt\n        /* \"contracts/CrowdFunding.sol\":1158:1517  if (block.timestamp >= deadline) {... */\n      tag_171\n      jumpi\n        /* \"contracts/CrowdFunding.sol\":1242:1246  goal */\n      sload(0x02)\n        /* \"contracts/CrowdFunding.sol\":1217:1238  address(this).balance */\n      selfbalance\n        /* \"contracts/CrowdFunding.sol\":1217:1246  address(this).balance >= goal */\n      lt\n      iszero\n        /* \"contracts/CrowdFunding.sol\":1217:1336  address(this).balance >= goal... */\n      tag_172\n      jumpi\n        /* \"contracts/CrowdFunding.sol\":1316:1336  CampaignState.Failed */\n      0x02\n        /* \"contracts/CrowdFunding.sol\":1217:1336  address(this).balance >= goal... */\n      jump(tag_173)\n    tag_172:\n        /* \"contracts/CrowdFunding.sol\":1269:1293  CampaignState.Successful */\n      0x01\n        /* \"contracts/CrowdFunding.sol\":1217:1336  address(this).balance >= goal... */\n    tag_173:\n        /* \"contracts/CrowdFunding.sol\":1209:1214  state */\n      0x04\n      0x14\n        /* \"contracts/CrowdFunding.sol\":1209:1336  state = address(this).balance >= goal... */\n      0x0100\n      exp\n      dup2\n      sload\n      dup2\n      0xff\n      mul\n      not\n      and\n      swap1\n      dup4\n      0x02\n      dup2\n      gt\n      iszero\n      tag_174\n      jumpi\n      tag_175\n      tag_91\n      jump\t// in\n    tag_175:\n    tag_174:\n      mul\n      or\n      swap1\n      sstore\n      pop\n        /* \"contracts/CrowdFunding.sol\":1158:1517  if (block.timestamp >= deadline) {... */\n      jump(tag_176)\n    tag_171:\n        /* \"contracts/CrowdFunding.sol\":1408:1412  goal */\n      sload(0x02)\n        /* \"contracts/CrowdFunding.sol\":1383:1404  address(this).balance */\n      selfbalance\n        /* \"contracts/CrowdFunding.sol\":1383:1412  address(this).balance >= goal */\n      lt\n      iszero\n        /* \"contracts/CrowdFunding.sol\":1383:1502  address(this).balance >= goal... */\n      tag_177\n      jumpi\n        /* \"contracts/CrowdFunding.sol\":1482:1502  CampaignState.Active */\n      0x00\n        /* \"contracts/CrowdFunding.sol\":1383:1502  address(this).balance >= goal... */\n      jump(tag_178)\n    tag_177:\n        /* \"contracts/CrowdFunding.sol\":1435:1459  CampaignState.Successful */\n      0x01\n        /* \"contracts/CrowdFunding.sol\":1383:1502  address(this).balance >= goal... */\n    tag_178:\n        /* \"contracts/CrowdFunding.sol\":1375:1380  state */\n      0x04\n      0x14\n        /* \"contracts/CrowdFunding.sol\":1375:1502  state = address(this).balance >= goal... */\n      0x0100\n      exp\n      dup2\n      sload\n      dup2\n      0xff\n      mul\n      not\n      and\n      swap1\n      dup4\n      0x02\n      dup2\n      gt\n      iszero\n      tag_179\n      jumpi\n      tag_180\n      tag_91\n      jump\t// in\n    tag_180:\n    tag_179:\n      mul\n      or\n      swap1\n      sstore\n      pop\n        /* \"contracts/CrowdFunding.sol\":1158:1517  if (block.timestamp >= deadline) {... */\n    tag_176:\n        /* \"contracts/CrowdFunding.sol\":1109:1527  if (state == CampaignState.Active) {... */\n    tag_170:\n        /* \"contracts/CrowdFunding.sol\":1051:1533  function checkAndUpdateCampaignState() internal {... */\n      jump\t// out\n    tag_131:\n      pop\n      dup1\n      sload\n      tag_181\n      swap1\n      tag_72\n      jump\t// in\n    tag_181:\n      0x00\n      dup3\n      sstore\n      dup1\n      0x1f\n      lt\n      tag_183\n      jumpi\n      pop\n      jump(tag_182)\n    tag_183:\n      0x1f\n      add\n      0x20\n      swap1\n      div\n      swap1\n      0x00\n      mstore\n      keccak256(0x00, 0x20)\n      swap1\n      dup2\n      add\n      swap1\n      tag_184\n      swap2\n      swap1\n      tag_185\n      jump\t// in\n    tag_184:\n    tag_182:\n      pop\n      jump\t// out\n    tag_185:\n    tag_186:\n      dup1\n      dup3\n      gt\n      iszero\n      tag_187\n      jumpi\n      0x00\n      dup2\n      0x00\n      swap1\n      sstore\n      pop\n      0x01\n      add\n      jump(tag_186)\n    tag_187:\n      pop\n      swap1\n      jump\t// out\n        /* \"#utility.yul\":7:82   */\n    tag_188:\n        /* \"#utility.yul\":40:46   */\n      0x00\n        /* \"#utility.yul\":73:75   */\n      0x40\n        /* \"#utility.yul\":67:76   */\n      mload\n        /* \"#utility.yul\":57:76   */\n      swap1\n      pop\n        /* \"#utility.yul\":7:82   */\n      swap1\n      jump\t// out\n        /* \"#utility.yul\":88:205   */\n    tag_189:\n        /* \"#utility.yul\":197:198   */\n      0x00\n        /* \"#utility.yul\":194:195   */\n      0x00\n        /* \"#utility.yul\":187:199   */\n      revert\n        /* \"#utility.yul\":211:328   */\n    tag_190:\n        /* \"#utility.yul\":320:321   */\n      0x00\n        /* \"#utility.yul\":317:318   */\n      0x00\n        /* \"#utility.yul\":310:322   */\n      revert\n        /* \"#utility.yul\":334:411   */\n    tag_191:\n        /* \"#utility.yul\":371:378   */\n      0x00\n        /* \"#utility.yul\":400:405   */\n      dup2\n        /* \"#utility.yul\":389:405   */\n      swap1\n      pop\n        /* \"#utility.yul\":334:411   */\n      swap2\n      swap1\n      pop\n      jump\t// out\n        /* \"#utility.yul\":417:539   */\n    tag_192:\n        /* \"#utility.yul\":490:514   */\n      tag_254\n        /* \"#utility.yul\":508:513   */\n      dup2\n        /* \"#utility.yul\":490:514   */\n      tag_191\n      jump\t// in\n    tag_254:\n        /* \"#utility.yul\":483:488   */\n      dup2\n        /* \"#utility.yul\":480:515   */\n      eq\n        /* \"#utility.yul\":470:533   */\n      tag_255\n      jumpi\n        /* \"#utility.yul\":529:530   */\n      0x00\n        /* \"#utility.yul\":526:527   */\n      0x00\n        /* \"#utility.yul\":519:531   */\n      revert\n        /* \"#utility.yul\":470:533   */\n    tag_255:\n        /* \"#utility.yul\":417:539   */\n      pop\n      jump\t// out\n        /* \"#utility.yul\":545:684   */\n    tag_193:\n        /* \"#utility.yul\":591:596   */\n      0x00\n        /* \"#utility.yul\":629:635   */\n      dup2\n        /* \"#utility.yul\":616:636   */\n      calldataload\n        /* \"#utility.yul\":607:636   */\n      swap1\n      pop\n        /* \"#utility.yul\":645:678   */\n      tag_257\n        /* \"#utility.yul\":672:677   */\n      dup2\n        /* \"#utility.yul\":645:678   */\n      tag_192\n      jump\t// in\n    tag_257:\n        /* \"#utility.yul\":545:684   */\n      swap3\n      swap2\n      pop\n      pop\n      jump\t// out\n        /* \"#utility.yul\":690:1019   */\n    tag_18:\n        /* \"#utility.yul\":749:755   */\n      0x00\n        /* \"#utility.yul\":798:800   */\n      0x20\n        /* \"#utility.yul\":786:795   */\n      dup3\n        /* \"#utility.yul\":777:784   */\n      dup5\n        /* \"#utility.yul\":773:796   */\n      sub\n        /* \"#utility.yul\":769:801   */\n      slt\n        /* \"#utility.yul\":766:885   */\n      iszero\n      tag_259\n      jumpi\n        /* \"#utility.yul\":804:883   */\n      tag_260\n      tag_189\n      jump\t// in\n    tag_260:\n        /* \"#utility.yul\":766:885   */\n    tag_259:\n        /* \"#utility.yul\":924:925   */\n      0x00\n        /* \"#utility.yul\":949:1002   */\n      tag_261\n        /* \"#utility.yul\":994:1001   */\n      dup5\n        /* \"#utility.yul\":985:991   */\n      dup3\n        /* \"#utility.yul\":974:983   */\n      dup6\n        /* \"#utility.yul\":970:992   */\n      add\n        /* \"#utility.yul\":949:1002   */\n      tag_193\n      jump\t// in\n    tag_261:\n        /* \"#utility.yul\":939:1002   */\n      swap2\n      pop\n        /* \"#utility.yul\":895:1012   */\n      pop\n        /* \"#utility.yul\":690:1019   */\n      swap3\n      swap2\n      pop\n      pop\n      jump\t// out\n        /* \"#utility.yul\":1025:1124   */\n    tag_194:\n        /* \"#utility.yul\":1077:1083   */\n      0x00\n        /* \"#utility.yul\":1111:1116   */\n      dup2\n        /* \"#utility.yul\":1105:1117   */\n      mload\n        /* \"#utility.yul\":1095:1117   */\n      swap1\n      pop\n        /* \"#utility.yul\":1025:1124   */\n      swap2\n      swap1\n      pop\n      jump\t// out\n        /* \"#utility.yul\":1130:1299   */\n    tag_195:\n        /* \"#utility.yul\":1214:1225   */\n      0x00\n        /* \"#utility.yul\":1248:1254   */\n      dup3\n        /* \"#utility.yul\":1243:1246   */\n      dup3\n        /* \"#utility.yul\":1236:1255   */\n      mstore\n        /* \"#utility.yul\":1288:1292   */\n      0x20\n        /* \"#utility.yul\":1283:1286   */\n      dup3\n        /* \"#utility.yul\":1279:1293   */\n      add\n        /* \"#utility.yul\":1264:1293   */\n      swap1\n      pop\n        /* \"#utility.yul\":1130:1299   */\n      swap3\n      swap2\n      pop\n      pop\n      jump\t// out\n        /* \"#utility.yul\":1305:1444   */\n    tag_196:\n        /* \"#utility.yul\":1394:1400   */\n      dup3\n        /* \"#utility.yul\":1389:1392   */\n      dup2\n        /* \"#utility.yul\":1384:1387   */\n      dup4\n        /* \"#utility.yul\":1378:1401   */\n      mcopy\n        /* \"#utility.yul\":1435:1436   */\n      0x00\n        /* \"#utility.yul\":1426:1432   */\n      dup4\n        /* \"#utility.yul\":1421:1424   */\n      dup4\n        /* \"#utility.yul\":1417:1433   */\n      add\n        /* \"#utility.yul\":1410:1437   */\n      mstore\n        /* \"#utility.yul\":1305:1444   */\n      pop\n      pop\n      pop\n      jump\t// out\n        /* \"#utility.yul\":1450:1552   */\n    tag_197:\n        /* \"#utility.yul\":1491:1497   */\n      0x00\n        /* \"#utility.yul\":1542:1544   */\n      0x1f\n        /* \"#utility.yul\":1538:1545   */\n      not\n        /* \"#utility.yul\":1533:1535   */\n      0x1f\n        /* \"#utility.yul\":1526:1531   */\n      dup4\n        /* \"#utility.yul\":1522:1536   */\n      add\n        /* \"#utility.yul\":1518:1546   */\n      and\n        /* \"#utility.yul\":1508:1546   */\n      swap1\n      pop\n        /* \"#utility.yul\":1450:1552   */\n      swap2\n      swap1\n      pop\n      jump\t// out\n        /* \"#utility.yul\":1558:1935   */\n    tag_198:\n        /* \"#utility.yul\":1646:1649   */\n      0x00\n        /* \"#utility.yul\":1674:1713   */\n      tag_267\n        /* \"#utility.yul\":1707:1712   */\n      dup3\n        /* \"#utility.yul\":1674:1713   */\n      tag_194\n      jump\t// in\n    tag_267:\n        /* \"#utility.yul\":1729:1800   */\n      tag_268\n        /* \"#utility.yul\":1793:1799   */\n      dup2\n        /* \"#utility.yul\":1788:1791   */\n      dup6\n        /* \"#utility.yul\":1729:1800   */\n      tag_195\n      jump\t// in\n    tag_268:\n        /* \"#utility.yul\":1722:1800   */\n      swap4\n      pop\n        /* \"#utility.yul\":1809:1874   */\n      tag_269\n        /* \"#utility.yul\":1867:1873   */\n      dup2\n        /* \"#utility.yul\":1862:1865   */\n      dup6\n        /* \"#utility.yul\":1855:1859   */\n      0x20\n        /* \"#utility.yul\":1848:1853   */\n      dup7\n        /* \"#utility.yul\":1844:1860   */\n      add\n        /* \"#utility.yul\":1809:1874   */\n      tag_196\n      jump\t// in\n    tag_269:\n        /* \"#utility.yul\":1899:1928   */\n      tag_270\n        /* \"#utility.yul\":1921:1927   */\n      dup2\n        /* \"#utility.yul\":1899:1928   */\n      tag_197\n      jump\t// in\n    tag_270:\n        /* \"#utility.yul\":1894:1897   */\n      dup5\n        /* \"#utility.yul\":1890:1929   */\n      add\n        /* \"#utility.yul\":1883:1929   */\n      swap2\n      pop\n        /* \"#utility.yul\":1650:1935   */\n      pop\n        /* \"#utility.yul\":1558:1935   */\n      swap3\n      swap2\n      pop\n      pop\n      jump\t// out\n        /* \"#utility.yul\":1941:2059   */\n    tag_199:\n        /* \"#utility.yul\":2028:2052   */\n      tag_272\n        /* \"#utility.yul\":2046:2051   */\n      dup2\n        /* \"#utility.yul\":2028:2052   */\n      tag_191\n      jump\t// in\n    tag_272:\n        /* \"#utility.yul\":2023:2026   */\n      dup3\n        /* \"#utility.yul\":2016:2053   */\n      mstore\n        /* \"#utility.yul\":1941:2059   */\n      pop\n      pop\n      jump\t// out\n        /* \"#utility.yul\":2065:2598   */\n    tag_21:\n        /* \"#utility.yul\":2234:2238   */\n      0x00\n        /* \"#utility.yul\":2272:2274   */\n      0x60\n        /* \"#utility.yul\":2261:2270   */\n      dup3\n        /* \"#utility.yul\":2257:2275   */\n      add\n        /* \"#utility.yul\":2249:2275   */\n      swap1\n      pop\n        /* \"#utility.yul\":2321:2330   */\n      dup2\n        /* \"#utility.yul\":2315:2319   */\n      dup2\n        /* \"#utility.yul\":2311:2331   */\n      sub\n        /* \"#utility.yul\":2307:2308   */\n      0x00\n        /* \"#utility.yul\":2296:2305   */\n      dup4\n        /* \"#utility.yul\":2292:2309   */\n      add\n        /* \"#utility.yul\":2285:2332   */\n      mstore\n        /* \"#utility.yul\":2349:2427   */\n      tag_274\n        /* \"#utility.yul\":2422:2426   */\n      dup2\n        /* \"#utility.yul\":2413:2419   */\n      dup7\n        /* \"#utility.yul\":2349:2427   */\n      tag_198\n      jump\t// in\n    tag_274:\n        /* \"#utility.yul\":2341:2427   */\n      swap1\n      pop\n        /* \"#utility.yul\":2437:2509   */\n      tag_275\n        /* \"#utility.yul\":2505:2507   */\n      0x20\n        /* \"#utility.yul\":2494:2503   */\n      dup4\n        /* \"#utility.yul\":2490:2508   */\n      add\n        /* \"#utility.yul\":2481:2487   */\n      dup6\n        /* \"#utility.yul\":2437:2509   */\n      tag_199\n      jump\t// in\n    tag_275:\n        /* \"#utility.yul\":2519:2591   */\n      tag_276\n        /* \"#utility.yul\":2587:2589   */\n      0x40\n        /* \"#utility.yul\":2576:2585   */\n      dup4\n        /* \"#utility.yul\":2572:2590   */\n      add\n        /* \"#utility.yul\":2563:2569   */\n      dup5\n        /* \"#utility.yul\":2519:2591   */\n      tag_199\n      jump\t// in\n    tag_276:\n        /* \"#utility.yul\":2065:2598   */\n      swap5\n      swap4\n      pop\n      pop\n      pop\n      pop\n      jump\t// out\n        /* \"#utility.yul\":2604:2917   */\n    tag_26:\n        /* \"#utility.yul\":2717:2721   */\n      0x00\n        /* \"#utility.yul\":2755:2757   */\n      0x20\n        /* \"#utility.yul\":2744:2753   */\n      dup3\n        /* \"#utility.yul\":2740:2758   */\n      add\n        /* \"#utility.yul\":2732:2758   */\n      swap1\n      pop\n        /* \"#utility.yul\":2804:2813   */\n      dup2\n        /* \"#utility.yul\":2798:2802   */\n      dup2\n        /* \"#utility.yul\":2794:2814   */\n      sub\n        /* \"#utility.yul\":2790:2791   */\n      0x00\n        /* \"#utility.yul\":2779:2788   */\n      dup4\n        /* \"#utility.yul\":2775:2792   */\n      add\n        /* \"#utility.yul\":2768:2815   */\n      mstore\n        /* \"#utility.yul\":2832:2910   */\n      tag_278\n        /* \"#utility.yul\":2905:2909   */\n      dup2\n        /* \"#utility.yul\":2896:2902   */\n      dup5\n        /* \"#utility.yul\":2832:2910   */\n      tag_198\n      jump\t// in\n    tag_278:\n        /* \"#utility.yul\":2824:2910   */\n      swap1\n      pop\n        /* \"#utility.yul\":2604:2917   */\n      swap3\n      swap2\n      pop\n      pop\n      jump\t// out\n        /* \"#utility.yul\":2923:3145   */\n    tag_31:\n        /* \"#utility.yul\":3016:3020   */\n      0x00\n        /* \"#utility.yul\":3054:3056   */\n      0x20\n        /* \"#utility.yul\":3043:3052   */\n      dup3\n        /* \"#utility.yul\":3039:3057   */\n      add\n        /* \"#utility.yul\":3031:3057   */\n      swap1\n      pop\n        /* \"#utility.yul\":3067:3138   */\n      tag_280\n        /* \"#utility.yul\":3135:3136   */\n      0x00\n        /* \"#utility.yul\":3124:3133   */\n      dup4\n        /* \"#utility.yul\":3120:3137   */\n      add\n        /* \"#utility.yul\":3111:3117   */\n      dup5\n        /* \"#utility.yul\":3067:3138   */\n      tag_199\n      jump\t// in\n    tag_280:\n        /* \"#utility.yul\":2923:3145   */\n      swap3\n      swap2\n      pop\n      pop\n      jump\t// out\n        /* \"#utility.yul\":3151:3277   */\n    tag_200:\n        /* \"#utility.yul\":3188:3195   */\n      0x00\n        /* \"#utility.yul\":3228:3270   */\n      0xffffffffffffffffffffffffffffffffffffffff\n        /* \"#utility.yul\":3221:3226   */\n      dup3\n        /* \"#utility.yul\":3217:3271   */\n      and\n        /* \"#utility.yul\":3206:3271   */\n      swap1\n      pop\n        /* \"#utility.yul\":3151:3277   */\n      swap2\n      swap1\n      pop\n      jump\t// out\n        /* \"#utility.yul\":3283:3379   */\n    tag_201:\n        /* \"#utility.yul\":3320:3327   */\n      0x00\n        /* \"#utility.yul\":3349:3373   */\n      tag_283\n        /* \"#utility.yul\":3367:3372   */\n      dup3\n        /* \"#utility.yul\":3349:3373   */\n      tag_200\n      jump\t// in\n    tag_283:\n        /* \"#utility.yul\":3338:3373   */\n      swap1\n      pop\n        /* \"#utility.yul\":3283:3379   */\n      swap2\n      swap1\n      pop\n      jump\t// out\n        /* \"#utility.yul\":3385:3503   */\n    tag_202:\n        /* \"#utility.yul\":3472:3496   */\n      tag_285\n        /* \"#utility.yul\":3490:3495   */\n      dup2\n        /* \"#utility.yul\":3472:3496   */\n      tag_201\n      jump\t// in\n    tag_285:\n        /* \"#utility.yul\":3467:3470   */\n      dup3\n        /* \"#utility.yul\":3460:3497   */\n      mstore\n        /* \"#utility.yul\":3385:3503   */\n      pop\n      pop\n      jump\t// out\n        /* \"#utility.yul\":3509:3731   */\n    tag_55:\n        /* \"#utility.yul\":3602:3606   */\n      0x00\n        /* \"#utility.yul\":3640:3642   */\n      0x20\n        /* \"#utility.yul\":3629:3638   */\n      dup3\n        /* \"#utility.yul\":3625:3643   */\n      add\n        /* \"#utility.yul\":3617:3643   */\n      swap1\n      pop\n        /* \"#utility.yul\":3653:3724   */\n      tag_287\n        /* \"#utility.yul\":3721:3722   */\n      0x00\n        /* \"#utility.yul\":3710:3719   */\n      dup4\n        /* \"#utility.yul\":3706:3723   */\n      add\n        /* \"#utility.yul\":3697:3703   */\n      dup5\n        /* \"#utility.yul\":3653:3724   */\n      tag_202\n      jump\t// in\n    tag_287:\n        /* \"#utility.yul\":3509:3731   */\n      swap3\n      swap2\n      pop\n      pop\n      jump\t// out\n        /* \"#utility.yul\":3737:3854   */\n    tag_203:\n        /* \"#utility.yul\":3846:3847   */\n      0x00\n        /* \"#utility.yul\":3843:3844   */\n      0x00\n        /* \"#utility.yul\":3836:3848   */\n      revert\n        /* \"#utility.yul\":3860:3977   */\n    tag_204:\n        /* \"#utility.yul\":3969:3970   */\n      0x00\n        /* \"#utility.yul\":3966:3967   */\n      0x00\n        /* \"#utility.yul\":3959:3971   */\n      revert\n        /* \"#utility.yul\":3983:4163   */\n    tag_205:\n        /* \"#utility.yul\":4031:4108   */\n      0x4e487b7100000000000000000000000000000000000000000000000000000000\n        /* \"#utility.yul\":4028:4029   */\n      0x00\n        /* \"#utility.yul\":4021:4109   */\n      mstore\n        /* \"#utility.yul\":4128:4132   */\n      0x41\n        /* \"#utility.yul\":4125:4126   */\n      0x04\n        /* \"#utility.yul\":4118:4133   */\n      mstore\n        /* \"#utility.yul\":4152:4156   */\n      0x24\n        /* \"#utility.yul\":4149:4150   */\n      0x00\n        /* \"#utility.yul\":4142:4157   */\n      revert\n        /* \"#utility.yul\":4169:4450   */\n    tag_206:\n        /* \"#utility.yul\":4252:4279   */\n      tag_292\n        /* \"#utility.yul\":4274:4278   */\n      dup3\n        /* \"#utility.yul\":4252:4279   */\n      tag_197\n      jump\t// in\n    tag_292:\n        /* \"#utility.yul\":4244:4250   */\n      dup2\n        /* \"#utility.yul\":4240:4280   */\n      add\n        /* \"#utility.yul\":4382:4388   */\n      dup2\n        /* \"#utility.yul\":4370:4380   */\n      dup2\n        /* \"#utility.yul\":4367:4389   */\n      lt\n        /* \"#utility.yul\":4346:4364   */\n      0xffffffffffffffff\n        /* \"#utility.yul\":4334:4344   */\n      dup3\n        /* \"#utility.yul\":4331:4365   */\n      gt\n        /* \"#utility.yul\":4328:4390   */\n      or\n        /* \"#utility.yul\":4325:4413   */\n      iszero\n      tag_293\n      jumpi\n        /* \"#utility.yul\":4393:4411   */\n      tag_294\n      tag_205\n      jump\t// in\n    tag_294:\n        /* \"#utility.yul\":4325:4413   */\n    tag_293:\n        /* \"#utility.yul\":4433:4443   */\n      dup1\n        /* \"#utility.yul\":4429:4431   */\n      0x40\n        /* \"#utility.yul\":4422:4444   */\n      mstore\n        /* \"#utility.yul\":4212:4450   */\n      pop\n        /* \"#utility.yul\":4169:4450   */\n      pop\n      pop\n      jump\t// out\n        /* \"#utility.yul\":4456:4585   */\n    tag_207:\n        /* \"#utility.yul\":4490:4496   */\n      0x00\n        /* \"#utility.yul\":4517:4537   */\n      tag_296\n      tag_188\n      jump\t// in\n    tag_296:\n        /* \"#utility.yul\":4507:4537   */\n      swap1\n      pop\n        /* \"#utility.yul\":4546:4579   */\n      tag_297\n        /* \"#utility.yul\":4574:4578   */\n      dup3\n        /* \"#utility.yul\":4566:4572   */\n      dup3\n        /* \"#utility.yul\":4546:4579   */\n      tag_206\n      jump\t// in\n    tag_297:\n        /* \"#utility.yul\":4456:4585   */\n      swap2\n      swap1\n      pop\n      jump\t// out\n        /* \"#utility.yul\":4591:4899   */\n    tag_208:\n        /* \"#utility.yul\":4653:4657   */\n      0x00\n        /* \"#utility.yul\":4743:4761   */\n      0xffffffffffffffff\n        /* \"#utility.yul\":4735:4741   */\n      dup3\n        /* \"#utility.yul\":4732:4762   */\n      gt\n        /* \"#utility.yul\":4729:4785   */\n      iszero\n      tag_299\n      jumpi\n        /* \"#utility.yul\":4765:4783   */\n      tag_300\n      tag_205\n      jump\t// in\n    tag_300:\n        /* \"#utility.yul\":4729:4785   */\n    tag_299:\n        /* \"#utility.yul\":4803:4832   */\n      tag_301\n        /* \"#utility.yul\":4825:4831   */\n      dup3\n        /* \"#utility.yul\":4803:4832   */\n      tag_197\n      jump\t// in\n    tag_301:\n        /* \"#utility.yul\":4795:4832   */\n      swap1\n      pop\n        /* \"#utility.yul\":4887:4891   */\n      0x20\n        /* \"#utility.yul\":4881:4885   */\n      dup2\n        /* \"#utility.yul\":4877:4892   */\n      add\n        /* \"#utility.yul\":4869:4892   */\n      swap1\n      pop\n        /* \"#utility.yul\":4591:4899   */\n      swap2\n      swap1\n      pop\n      jump\t// out\n        /* \"#utility.yul\":4905:5053   */\n    tag_209:\n        /* \"#utility.yul\":5003:5009   */\n      dup3\n        /* \"#utility.yul\":4998:5001   */\n      dup2\n        /* \"#utility.yul\":4993:4996   */\n      dup4\n        /* \"#utility.yul\":4980:5010   */\n      calldatacopy\n        /* \"#utility.yul\":5044:5045   */\n      0x00\n        /* \"#utility.yul\":5035:5041   */\n      dup4\n        /* \"#utility.yul\":5030:5033   */\n      dup4\n        /* \"#utility.yul\":5026:5042   */\n      add\n        /* \"#utility.yul\":5019:5046   */\n      mstore\n        /* \"#utility.yul\":4905:5053   */\n      pop\n      pop\n      pop\n      jump\t// out\n        /* \"#utility.yul\":5059:5484   */\n    tag_210:\n        /* \"#utility.yul\":5137:5142   */\n      0x00\n        /* \"#utility.yul\":5162:5228   */\n      tag_304\n        /* \"#utility.yul\":5178:5227   */\n      tag_305\n        /* \"#utility.yul\":5220:5226   */\n      dup5\n        /* \"#utility.yul\":5178:5227   */\n      tag_208\n      jump\t// in\n    tag_305:\n        /* \"#utility.yul\":5162:5228   */\n      tag_207\n      jump\t// in\n    tag_304:\n        /* \"#utility.yul\":5153:5228   */\n      swap1\n      pop\n        /* \"#utility.yul\":5251:5257   */\n      dup3\n        /* \"#utility.yul\":5244:5249   */\n      dup2\n        /* \"#utility.yul\":5237:5258   */\n      mstore\n        /* \"#utility.yul\":5289:5293   */\n      0x20\n        /* \"#utility.yul\":5282:5287   */\n      dup2\n        /* \"#utility.yul\":5278:5294   */\n      add\n        /* \"#utility.yul\":5327:5330   */\n      dup5\n        /* \"#utility.yul\":5318:5324   */\n      dup5\n        /* \"#utility.yul\":5313:5316   */\n      dup5\n        /* \"#utility.yul\":5309:5325   */\n      add\n        /* \"#utility.yul\":5306:5331   */\n      gt\n        /* \"#utility.yul\":5303:5415   */\n      iszero\n      tag_306\n      jumpi\n        /* \"#utility.yul\":5334:5413   */\n      tag_307\n      tag_204\n      jump\t// in\n    tag_307:\n        /* \"#utility.yul\":5303:5415   */\n    tag_306:\n        /* \"#utility.yul\":5424:5478   */\n      tag_308\n        /* \"#utility.yul\":5471:5477   */\n      dup5\n        /* \"#utility.yul\":5466:5469   */\n      dup3\n        /* \"#utility.yul\":5461:5464   */\n      dup6\n        /* \"#utility.yul\":5424:5478   */\n      tag_209\n      jump\t// in\n    tag_308:\n        /* \"#utility.yul\":5143:5484   */\n      pop\n        /* \"#utility.yul\":5059:5484   */\n      swap4\n      swap3\n      pop\n      pop\n      pop\n      jump\t// out\n        /* \"#utility.yul\":5504:5844   */\n    tag_211:\n        /* \"#utility.yul\":5560:5565   */\n      0x00\n        /* \"#utility.yul\":5609:5612   */\n      dup3\n        /* \"#utility.yul\":5602:5606   */\n      0x1f\n        /* \"#utility.yul\":5594:5600   */\n      dup4\n        /* \"#utility.yul\":5590:5607   */\n      add\n        /* \"#utility.yul\":5586:5613   */\n      slt\n        /* \"#utility.yul\":5576:5698   */\n      tag_310\n      jumpi\n        /* \"#utility.yul\":5617:5696   */\n      tag_311\n      tag_203\n      jump\t// in\n    tag_311:\n        /* \"#utility.yul\":5576:5698   */\n    tag_310:\n        /* \"#utility.yul\":5734:5740   */\n      dup2\n        /* \"#utility.yul\":5721:5741   */\n      calldataload\n        /* \"#utility.yul\":5759:5838   */\n      tag_312\n        /* \"#utility.yul\":5834:5837   */\n      dup5\n        /* \"#utility.yul\":5826:5832   */\n      dup3\n        /* \"#utility.yul\":5819:5823   */\n      0x20\n        /* \"#utility.yul\":5811:5817   */\n      dup7\n        /* \"#utility.yul\":5807:5824   */\n      add\n        /* \"#utility.yul\":5759:5838   */\n      tag_210\n      jump\t// in\n    tag_312:\n        /* \"#utility.yul\":5750:5838   */\n      swap2\n      pop\n        /* \"#utility.yul\":5566:5844   */\n      pop\n        /* \"#utility.yul\":5504:5844   */\n      swap3\n      swap2\n      pop\n      pop\n      jump\t// out\n        /* \"#utility.yul\":5850:6504   */\n    tag_59:\n        /* \"#utility.yul\":5928:5934   */\n      0x00\n        /* \"#utility.yul\":5936:5942   */\n      0x00\n        /* \"#utility.yul\":5985:5987   */\n      0x40\n        /* \"#utility.yul\":5973:5982   */\n      dup4\n        /* \"#utility.yul\":5964:5971   */\n      dup6\n        /* \"#utility.yul\":5960:5983   */\n      sub\n        /* \"#utility.yul\":5956:5988   */\n      slt\n        /* \"#utility.yul\":5953:6072   */\n      iszero\n      tag_314\n      jumpi\n        /* \"#utility.yul\":5991:6070   */\n      tag_315\n      tag_189\n      jump\t// in\n    tag_315:\n        /* \"#utility.yul\":5953:6072   */\n    tag_314:\n        /* \"#utility.yul\":6139:6140   */\n      0x00\n        /* \"#utility.yul\":6128:6137   */\n      dup4\n        /* \"#utility.yul\":6124:6141   */\n      add\n        /* \"#utility.yul\":6111:6142   */\n      calldataload\n        /* \"#utility.yul\":6169:6187   */\n      0xffffffffffffffff\n        /* \"#utility.yul\":6161:6167   */\n      dup2\n        /* \"#utility.yul\":6158:6188   */\n      gt\n        /* \"#utility.yul\":6155:6272   */\n      iszero\n      tag_316\n      jumpi\n        /* \"#utility.yul\":6191:6270   */\n      tag_317\n      tag_190\n      jump\t// in\n    tag_317:\n        /* \"#utility.yul\":6155:6272   */\n    tag_316:\n        /* \"#utility.yul\":6296:6359   */\n      tag_318\n        /* \"#utility.yul\":6351:6358   */\n      dup6\n        /* \"#utility.yul\":6342:6348   */\n      dup3\n        /* \"#utility.yul\":6331:6340   */\n      dup7\n        /* \"#utility.yul\":6327:6349   */\n      add\n        /* \"#utility.yul\":6296:6359   */\n      tag_211\n      jump\t// in\n    tag_318:\n        /* \"#utility.yul\":6286:6359   */\n      swap3\n      pop\n        /* \"#utility.yul\":6082:6369   */\n      pop\n        /* \"#utility.yul\":6408:6410   */\n      0x20\n        /* \"#utility.yul\":6434:6487   */\n      tag_319\n        /* \"#utility.yul\":6479:6486   */\n      dup6\n        /* \"#utility.yul\":6470:6476   */\n      dup3\n        /* \"#utility.yul\":6459:6468   */\n      dup7\n        /* \"#utility.yul\":6455:6477   */\n      add\n        /* \"#utility.yul\":6434:6487   */\n      tag_193\n      jump\t// in\n    tag_319:\n        /* \"#utility.yul\":6424:6487   */\n      swap2\n      pop\n        /* \"#utility.yul\":6379:6497   */\n      pop\n        /* \"#utility.yul\":5850:6504   */\n      swap3\n      pop\n      swap3\n      swap1\n      pop\n      jump\t// out\n        /* \"#utility.yul\":6510:6690   */\n    tag_91:\n        /* \"#utility.yul\":6558:6635   */\n      0x4e487b7100000000000000000000000000000000000000000000000000000000\n        /* \"#utility.yul\":6555:6556   */\n      0x00\n        /* \"#utility.yul\":6548:6636   */\n      mstore\n        /* \"#utility.yul\":6655:6659   */\n      0x21\n        /* \"#utility.yul\":6652:6653   */\n      0x04\n        /* \"#utility.yul\":6645:6660   */\n      mstore\n        /* \"#utility.yul\":6679:6683   */\n      0x24\n        /* \"#utility.yul\":6676:6677   */\n      0x00\n        /* \"#utility.yul\":6669:6684   */\n      revert\n        /* \"#utility.yul\":6696:6817   */\n    tag_212:\n        /* \"#utility.yul\":6785:6786   */\n      0x03\n        /* \"#utility.yul\":6778:6783   */\n      dup2\n        /* \"#utility.yul\":6775:6787   */\n      lt\n        /* \"#utility.yul\":6765:6811   */\n      tag_322\n      jumpi\n        /* \"#utility.yul\":6791:6809   */\n      tag_323\n      tag_91\n      jump\t// in\n    tag_323:\n        /* \"#utility.yul\":6765:6811   */\n    tag_322:\n        /* \"#utility.yul\":6696:6817   */\n      pop\n      jump\t// out\n        /* \"#utility.yul\":6823:6966   */\n    tag_213:\n        /* \"#utility.yul\":6876:6883   */\n      0x00\n        /* \"#utility.yul\":6905:6910   */\n      dup2\n        /* \"#utility.yul\":6894:6910   */\n      swap1\n      pop\n        /* \"#utility.yul\":6911:6960   */\n      tag_325\n        /* \"#utility.yul\":6954:6959   */\n      dup3\n        /* \"#utility.yul\":6911:6960   */\n      tag_212\n      jump\t// in\n    tag_325:\n        /* \"#utility.yul\":6823:6966   */\n      swap2\n      swap1\n      pop\n      jump\t// out\n        /* \"#utility.yul\":6972:7115   */\n    tag_214:\n        /* \"#utility.yul\":7036:7045   */\n      0x00\n        /* \"#utility.yul\":7069:7109   */\n      tag_327\n        /* \"#utility.yul\":7103:7108   */\n      dup3\n        /* \"#utility.yul\":7069:7109   */\n      tag_213\n      jump\t// in\n    tag_327:\n        /* \"#utility.yul\":7056:7109   */\n      swap1\n      pop\n        /* \"#utility.yul\":6972:7115   */\n      swap2\n      swap1\n      pop\n      jump\t// out\n        /* \"#utility.yul\":7121:7280   */\n    tag_215:\n        /* \"#utility.yul\":7222:7273   */\n      tag_329\n        /* \"#utility.yul\":7267:7272   */\n      dup2\n        /* \"#utility.yul\":7222:7273   */\n      tag_214\n      jump\t// in\n    tag_329:\n        /* \"#utility.yul\":7217:7220   */\n      dup3\n        /* \"#utility.yul\":7210:7274   */\n      mstore\n        /* \"#utility.yul\":7121:7280   */\n      pop\n      pop\n      jump\t// out\n        /* \"#utility.yul\":7286:7536   */\n    tag_65:\n        /* \"#utility.yul\":7393:7397   */\n      0x00\n        /* \"#utility.yul\":7431:7433   */\n      0x20\n        /* \"#utility.yul\":7420:7429   */\n      dup3\n        /* \"#utility.yul\":7416:7434   */\n      add\n        /* \"#utility.yul\":7408:7434   */\n      swap1\n      pop\n        /* \"#utility.yul\":7444:7529   */\n      tag_331\n        /* \"#utility.yul\":7526:7527   */\n      0x00\n        /* \"#utility.yul\":7515:7524   */\n      dup4\n        /* \"#utility.yul\":7511:7528   */\n      add\n        /* \"#utility.yul\":7502:7508   */\n      dup5\n        /* \"#utility.yul\":7444:7529   */\n      tag_215\n      jump\t// in\n    tag_331:\n        /* \"#utility.yul\":7286:7536   */\n      swap3\n      swap2\n      pop\n      pop\n      jump\t// out\n        /* \"#utility.yul\":7542:7722   */\n    tag_216:\n        /* \"#utility.yul\":7590:7667   */\n      0x4e487b7100000000000000000000000000000000000000000000000000000000\n        /* \"#utility.yul\":7587:7588   */\n      0x00\n        /* \"#utility.yul\":7580:7668   */\n      mstore\n        /* \"#utility.yul\":7687:7691   */\n      0x22\n        /* \"#utility.yul\":7684:7685   */\n      0x04\n        /* \"#utility.yul\":7677:7692   */\n      mstore\n        /* \"#utility.yul\":7711:7715   */\n      0x24\n        /* \"#utility.yul\":7708:7709   */\n      0x00\n        /* \"#utility.yul\":7701:7716   */\n      revert\n        /* \"#utility.yul\":7728:8048   */\n    tag_72:\n        /* \"#utility.yul\":7772:7778   */\n      0x00\n        /* \"#utility.yul\":7809:7810   */\n      0x02\n        /* \"#utility.yul\":7803:7807   */\n      dup3\n        /* \"#utility.yul\":7799:7811   */\n      div\n        /* \"#utility.yul\":7789:7811   */\n      swap1\n      pop\n        /* \"#utility.yul\":7856:7857   */\n      0x01\n        /* \"#utility.yul\":7850:7854   */\n      dup3\n        /* \"#utility.yul\":7846:7858   */\n      and\n        /* \"#utility.yul\":7877:7895   */\n      dup1\n        /* \"#utility.yul\":7867:7948   */\n      tag_334\n      jumpi\n        /* \"#utility.yul\":7933:7937   */\n      0x7f\n        /* \"#utility.yul\":7925:7931   */\n      dup3\n        /* \"#utility.yul\":7921:7938   */\n      and\n        /* \"#utility.yul\":7911:7938   */\n      swap2\n      pop\n        /* \"#utility.yul\":7867:7948   */\n    tag_334:\n        /* \"#utility.yul\":7995:7997   */\n      0x20\n        /* \"#utility.yul\":7987:7993   */\n      dup3\n        /* \"#utility.yul\":7984:7998   */\n      lt\n        /* \"#utility.yul\":7964:7982   */\n      dup2\n        /* \"#utility.yul\":7961:7999   */\n      sub\n        /* \"#utility.yul\":7958:8042   */\n      tag_335\n      jumpi\n        /* \"#utility.yul\":8014:8032   */\n      tag_336\n      tag_216\n      jump\t// in\n    tag_336:\n        /* \"#utility.yul\":7958:8042   */\n    tag_335:\n        /* \"#utility.yul\":7779:8048   */\n      pop\n        /* \"#utility.yul\":7728:8048   */\n      swap2\n      swap1\n      pop\n      jump\t// out\n        /* \"#utility.yul\":8054:8225   */\n    tag_217:\n        /* \"#utility.yul\":8194:8217   */\n      0x596f7520617265206e6f7420746865206f776e65720000000000000000000000\n        /* \"#utility.yul\":8190:8191   */\n      0x00\n        /* \"#utility.yul\":8182:8188   */\n      dup3\n        /* \"#utility.yul\":8178:8192   */\n      add\n        /* \"#utility.yul\":8171:8218   */\n      mstore\n        /* \"#utility.yul\":8054:8225   */\n      pop\n      jump\t// out\n        /* \"#utility.yul\":8231:8597   */\n    tag_218:\n        /* \"#utility.yul\":8373:8376   */\n      0x00\n        /* \"#utility.yul\":8394:8461   */\n      tag_339\n        /* \"#utility.yul\":8458:8460   */\n      0x15\n        /* \"#utility.yul\":8453:8456   */\n      dup4\n        /* \"#utility.yul\":8394:8461   */\n      tag_195\n      jump\t// in\n    tag_339:\n        /* \"#utility.yul\":8387:8461   */\n      swap2\n      pop\n        /* \"#utility.yul\":8470:8563   */\n      tag_340\n        /* \"#utility.yul\":8559:8562   */\n      dup3\n        /* \"#utility.yul\":8470:8563   */\n      tag_217\n      jump\t// in\n    tag_340:\n        /* \"#utility.yul\":8588:8590   */\n      0x20\n        /* \"#utility.yul\":8583:8586   */\n      dup3\n        /* \"#utility.yul\":8579:8591   */\n      add\n        /* \"#utility.yul\":8572:8591   */\n      swap1\n      pop\n        /* \"#utility.yul\":8231:8597   */\n      swap2\n      swap1\n      pop\n      jump\t// out\n        /* \"#utility.yul\":8603:9022   */\n    tag_85:\n        /* \"#utility.yul\":8769:8773   */\n      0x00\n        /* \"#utility.yul\":8807:8809   */\n      0x20\n        /* \"#utility.yul\":8796:8805   */\n      dup3\n        /* \"#utility.yul\":8792:8810   */\n      add\n        /* \"#utility.yul\":8784:8810   */\n      swap1\n      pop\n        /* \"#utility.yul\":8856:8865   */\n      dup2\n        /* \"#utility.yul\":8850:8854   */\n      dup2\n        /* \"#utility.yul\":8846:8866   */\n      sub\n        /* \"#utility.yul\":8842:8843   */\n      0x00\n        /* \"#utility.yul\":8831:8840   */\n      dup4\n        /* \"#utility.yul\":8827:8844   */\n      add\n        /* \"#utility.yul\":8820:8867   */\n      mstore\n        /* \"#utility.yul\":8884:9015   */\n      tag_342\n        /* \"#utility.yul\":9010:9014   */\n      dup2\n        /* \"#utility.yul\":8884:9015   */\n      tag_218\n      jump\t// in\n    tag_342:\n        /* \"#utility.yul\":8876:9015   */\n      swap1\n      pop\n        /* \"#utility.yul\":8603:9022   */\n      swap2\n      swap1\n      pop\n      jump\t// out\n        /* \"#utility.yul\":9028:9205   */\n    tag_219:\n        /* \"#utility.yul\":9168:9197   */\n      0x43616d706169676e206e6f74207375636365737366756c207965740000000000\n        /* \"#utility.yul\":9164:9165   */\n      0x00\n        /* \"#utility.yul\":9156:9162   */\n      dup3\n        /* \"#utility.yul\":9152:9166   */\n      add\n        /* \"#utility.yul\":9145:9198   */\n      mstore\n        /* \"#utility.yul\":9028:9205   */\n      pop\n      jump\t// out\n        /* \"#utility.yul\":9211:9577   */\n    tag_220:\n        /* \"#utility.yul\":9353:9356   */\n      0x00\n        /* \"#utility.yul\":9374:9441   */\n      tag_345\n        /* \"#utility.yul\":9438:9440   */\n      0x1b\n        /* \"#utility.yul\":9433:9436   */\n      dup4\n        /* \"#utility.yul\":9374:9441   */\n      tag_195\n      jump\t// in\n    tag_345:\n        /* \"#utility.yul\":9367:9441   */\n      swap2\n      pop\n        /* \"#utility.yul\":9450:9543   */\n      tag_346\n        /* \"#utility.yul\":9539:9542   */\n      dup3\n        /* \"#utility.yul\":9450:9543   */\n      tag_219\n      jump\t// in\n    tag_346:\n        /* \"#utility.yul\":9568:9570   */\n      0x20\n        /* \"#utility.yul\":9563:9566   */\n      dup3\n        /* \"#utility.yul\":9559:9571   */\n      add\n        /* \"#utility.yul\":9552:9571   */\n      swap1\n      pop\n        /* \"#utility.yul\":9211:9577   */\n      swap2\n      swap1\n      pop\n      jump\t// out\n        /* \"#utility.yul\":9583:10002   */\n    tag_96:\n        /* \"#utility.yul\":9749:9753   */\n      0x00\n        /* \"#utility.yul\":9787:9789   */\n      0x20\n        /* \"#utility.yul\":9776:9785   */\n      dup3\n        /* \"#utility.yul\":9772:9790   */\n      add\n        /* \"#utility.yul\":9764:9790   */\n      swap1\n      pop\n        /* \"#utility.yul\":9836:9845   */\n      dup2\n        /* \"#utility.yul\":9830:9834   */\n      dup2\n        /* \"#utility.yul\":9826:9846   */\n      sub\n        /* \"#utility.yul\":9822:9823   */\n      0x00\n        /* \"#utility.yul\":9811:9820   */\n      dup4\n        /* \"#utility.yul\":9807:9824   */\n      add\n        /* \"#utility.yul\":9800:9847   */\n      mstore\n        /* \"#utility.yul\":9864:9995   */\n      tag_348\n        /* \"#utility.yul\":9990:9994   */\n      dup2\n        /* \"#utility.yul\":9864:9995   */\n      tag_220\n      jump\t// in\n    tag_348:\n        /* \"#utility.yul\":9856:9995   */\n      swap1\n      pop\n        /* \"#utility.yul\":9583:10002   */\n      swap2\n      swap1\n      pop\n      jump\t// out\n        /* \"#utility.yul\":10008:10181   */\n    tag_221:\n        /* \"#utility.yul\":10148:10173   */\n      0x4e6f2062616c616e636520746f20776974686472617721000000000000000000\n        /* \"#utility.yul\":10144:10145   */\n      0x00\n        /* \"#utility.yul\":10136:10142   */\n      dup3\n        /* \"#utility.yul\":10132:10146   */\n      add\n        /* \"#utility.yul\":10125:10174   */\n      mstore\n        /* \"#utility.yul\":10008:10181   */\n      pop\n      jump\t// out\n        /* \"#utility.yul\":10187:10553   */\n    tag_222:\n        /* \"#utility.yul\":10329:10332   */\n      0x00\n        /* \"#utility.yul\":10350:10417   */\n      tag_351\n        /* \"#utility.yul\":10414:10416   */\n      0x17\n        /* \"#utility.yul\":10409:10412   */\n      dup4\n        /* \"#utility.yul\":10350:10417   */\n      tag_195\n      jump\t// in\n    tag_351:\n        /* \"#utility.yul\":10343:10417   */\n      swap2\n      pop\n        /* \"#utility.yul\":10426:10519   */\n      tag_352\n        /* \"#utility.yul\":10515:10518   */\n      dup3\n        /* \"#utility.yul\":10426:10519   */\n      tag_221\n      jump\t// in\n    tag_352:\n        /* \"#utility.yul\":10544:10546   */\n      0x20\n        /* \"#utility.yul\":10539:10542   */\n      dup3\n        /* \"#utility.yul\":10535:10547   */\n      add\n        /* \"#utility.yul\":10528:10547   */\n      swap1\n      pop\n        /* \"#utility.yul\":10187:10553   */\n      swap2\n      swap1\n      pop\n      jump\t// out\n        /* \"#utility.yul\":10559:10978   */\n    tag_99:\n        /* \"#utility.yul\":10725:10729   */\n      0x00\n        /* \"#utility.yul\":10763:10765   */\n      0x20\n        /* \"#utility.yul\":10752:10761   */\n      dup3\n        /* \"#utility.yul\":10748:10766   */\n      add\n        /* \"#utility.yul\":10740:10766   */\n      swap1\n      pop\n        /* \"#utility.yul\":10812:10821   */\n      dup2\n        /* \"#utility.yul\":10806:10810   */\n      dup2\n        /* \"#utility.yul\":10802:10822   */\n      sub\n        /* \"#utility.yul\":10798:10799   */\n      0x00\n        /* \"#utility.yul\":10787:10796   */\n      dup4\n        /* \"#utility.yul\":10783:10800   */\n      add\n        /* \"#utility.yul\":10776:10823   */\n      mstore\n        /* \"#utility.yul\":10840:10971   */\n      tag_354\n        /* \"#utility.yul\":10966:10970   */\n      dup2\n        /* \"#utility.yul\":10840:10971   */\n      tag_222\n      jump\t// in\n    tag_354:\n        /* \"#utility.yul\":10832:10971   */\n      swap1\n      pop\n        /* \"#utility.yul\":10559:10978   */\n      swap2\n      swap1\n      pop\n      jump\t// out\n        /* \"#utility.yul\":10984:11154   */\n    tag_223:\n        /* \"#utility.yul\":11124:11146   */\n      0x5469657220646f6573206e6f7420657869737421000000000000000000000000\n        /* \"#utility.yul\":11120:11121   */\n      0x00\n        /* \"#utility.yul\":11112:11118   */\n      dup3\n        /* \"#utility.yul\":11108:11122   */\n      add\n        /* \"#utility.yul\":11101:11147   */\n      mstore\n        /* \"#utility.yul\":10984:11154   */\n      pop\n      jump\t// out\n        /* \"#utility.yul\":11160:11526   */\n    tag_224:\n        /* \"#utility.yul\":11302:11305   */\n      0x00\n        /* \"#utility.yul\":11323:11390   */\n      tag_357\n        /* \"#utility.yul\":11387:11389   */\n      0x14\n        /* \"#utility.yul\":11382:11385   */\n      dup4\n        /* \"#utility.yul\":11323:11390   */\n      tag_195\n      jump\t// in\n    tag_357:\n        /* \"#utility.yul\":11316:11390   */\n      swap2\n      pop\n        /* \"#utility.yul\":11399:11492   */\n      tag_358\n        /* \"#utility.yul\":11488:11491   */\n      dup3\n        /* \"#utility.yul\":11399:11492   */\n      tag_223\n      jump\t// in\n    tag_358:\n        /* \"#utility.yul\":11517:11519   */\n      0x20\n        /* \"#utility.yul\":11512:11515   */\n      dup3\n        /* \"#utility.yul\":11508:11520   */\n      add\n        /* \"#utility.yul\":11501:11520   */\n      swap1\n      pop\n        /* \"#utility.yul\":11160:11526   */\n      swap2\n      swap1\n      pop\n      jump\t// out\n        /* \"#utility.yul\":11532:11951   */\n    tag_114:\n        /* \"#utility.yul\":11698:11702   */\n      0x00\n        /* \"#utility.yul\":11736:11738   */\n      0x20\n        /* \"#utility.yul\":11725:11734   */\n      dup3\n        /* \"#utility.yul\":11721:11739   */\n      add\n        /* \"#utility.yul\":11713:11739   */\n      swap1\n      pop\n        /* \"#utility.yul\":11785:11794   */\n      dup2\n        /* \"#utility.yul\":11779:11783   */\n      dup2\n        /* \"#utility.yul\":11775:11795   */\n      sub\n        /* \"#utility.yul\":11771:11772   */\n      0x00\n        /* \"#utility.yul\":11760:11769   */\n      dup4\n        /* \"#utility.yul\":11756:11773   */\n      add\n        /* \"#utility.yul\":11749:11796   */\n      mstore\n        /* \"#utility.yul\":11813:11944   */\n      tag_360\n        /* \"#utility.yul\":11939:11943   */\n      dup2\n        /* \"#utility.yul\":11813:11944   */\n      tag_224\n      jump\t// in\n    tag_360:\n        /* \"#utility.yul\":11805:11944   */\n      swap1\n      pop\n        /* \"#utility.yul\":11532:11951   */\n      swap2\n      swap1\n      pop\n      jump\t// out\n        /* \"#utility.yul\":11957:12137   */\n    tag_225:\n        /* \"#utility.yul\":12005:12082   */\n      0x4e487b7100000000000000000000000000000000000000000000000000000000\n        /* \"#utility.yul\":12002:12003   */\n      0x00\n        /* \"#utility.yul\":11995:12083   */\n      mstore\n        /* \"#utility.yul\":12102:12106   */\n      0x11\n        /* \"#utility.yul\":12099:12100   */\n      0x04\n        /* \"#utility.yul\":12092:12107   */\n      mstore\n        /* \"#utility.yul\":12126:12130   */\n      0x24\n        /* \"#utility.yul\":12123:12124   */\n      0x00\n        /* \"#utility.yul\":12116:12131   */\n      revert\n        /* \"#utility.yul\":12143:12337   */\n    tag_116:\n        /* \"#utility.yul\":12183:12187   */\n      0x00\n        /* \"#utility.yul\":12203:12223   */\n      tag_363\n        /* \"#utility.yul\":12221:12222   */\n      dup3\n        /* \"#utility.yul\":12203:12223   */\n      tag_191\n      jump\t// in\n    tag_363:\n        /* \"#utility.yul\":12198:12223   */\n      swap2\n      pop\n        /* \"#utility.yul\":12237:12257   */\n      tag_364\n        /* \"#utility.yul\":12255:12256   */\n      dup4\n        /* \"#utility.yul\":12237:12257   */\n      tag_191\n      jump\t// in\n    tag_364:\n        /* \"#utility.yul\":12232:12257   */\n      swap3\n      pop\n        /* \"#utility.yul\":12281:12282   */\n      dup3\n        /* \"#utility.yul\":12278:12279   */\n      dup3\n        /* \"#utility.yul\":12274:12283   */\n      sub\n        /* \"#utility.yul\":12266:12283   */\n      swap1\n      pop\n        /* \"#utility.yul\":12305:12306   */\n      dup2\n        /* \"#utility.yul\":12299:12303   */\n      dup2\n        /* \"#utility.yul\":12296:12307   */\n      gt\n        /* \"#utility.yul\":12293:12330   */\n      iszero\n      tag_365\n      jumpi\n        /* \"#utility.yul\":12310:12328   */\n      tag_366\n      tag_225\n      jump\t// in\n    tag_366:\n        /* \"#utility.yul\":12293:12330   */\n    tag_365:\n        /* \"#utility.yul\":12143:12337   */\n      swap3\n      swap2\n      pop\n      pop\n      jump\t// out\n        /* \"#utility.yul\":12343:12523   */\n    tag_119:\n        /* \"#utility.yul\":12391:12468   */\n      0x4e487b7100000000000000000000000000000000000000000000000000000000\n        /* \"#utility.yul\":12388:12389   */\n      0x00\n        /* \"#utility.yul\":12381:12469   */\n      mstore\n        /* \"#utility.yul\":12488:12492   */\n      0x32\n        /* \"#utility.yul\":12485:12486   */\n      0x04\n        /* \"#utility.yul\":12478:12493   */\n      mstore\n        /* \"#utility.yul\":12512:12516   */\n      0x24\n        /* \"#utility.yul\":12509:12510   */\n      0x00\n        /* \"#utility.yul\":12502:12517   */\n      revert\n        /* \"#utility.yul\":12529:12678   */\n    tag_226:\n        /* \"#utility.yul\":12578:12584   */\n      0x00\n        /* \"#utility.yul\":12612:12617   */\n      dup2\n        /* \"#utility.yul\":12606:12618   */\n      sload\n        /* \"#utility.yul\":12596:12618   */\n      swap1\n      pop\n        /* \"#utility.yul\":12638:12671   */\n      tag_369\n        /* \"#utility.yul\":12664:12670   */\n      dup2\n        /* \"#utility.yul\":12638:12671   */\n      tag_72\n      jump\t// in\n    tag_369:\n        /* \"#utility.yul\":12628:12671   */\n      swap1\n      pop\n        /* \"#utility.yul\":12529:12678   */\n      swap2\n      swap1\n      pop\n      jump\t// out\n        /* \"#utility.yul\":12684:12825   */\n    tag_227:\n        /* \"#utility.yul\":12733:12737   */\n      0x00\n        /* \"#utility.yul\":12756:12759   */\n      dup2\n        /* \"#utility.yul\":12748:12759   */\n      swap1\n      pop\n        /* \"#utility.yul\":12779:12782   */\n      dup2\n        /* \"#utility.yul\":12776:12777   */\n      0x00\n        /* \"#utility.yul\":12769:12783   */\n      mstore\n        /* \"#utility.yul\":12813:12817   */\n      0x20\n        /* \"#utility.yul\":12810:12811   */\n      0x00\n        /* \"#utility.yul\":12800:12818   */\n      keccak256\n        /* \"#utility.yul\":12792:12818   */\n      swap1\n      pop\n        /* \"#utility.yul\":12684:12825   */\n      swap2\n      swap1\n      pop\n      jump\t// out\n        /* \"#utility.yul\":12831:12924   */\n    tag_228:\n        /* \"#utility.yul\":12868:12874   */\n      0x00\n        /* \"#utility.yul\":12915:12917   */\n      0x20\n        /* \"#utility.yul\":12910:12912   */\n      0x1f\n        /* \"#utility.yul\":12903:12908   */\n      dup4\n        /* \"#utility.yul\":12899:12913   */\n      add\n        /* \"#utility.yul\":12895:12918   */\n      div\n        /* \"#utility.yul\":12885:12918   */\n      swap1\n      pop\n        /* \"#utility.yul\":12831:12924   */\n      swap2\n      swap1\n      pop\n      jump\t// out\n        /* \"#utility.yul\":12930:13037   */\n    tag_229:\n        /* \"#utility.yul\":12974:12982   */\n      0x00\n        /* \"#utility.yul\":13024:13029   */\n      dup3\n        /* \"#utility.yul\":13018:13022   */\n      dup3\n        /* \"#utility.yul\":13014:13030   */\n      shl\n        /* \"#utility.yul\":12993:13030   */\n      swap1\n      pop\n        /* \"#utility.yul\":12930:13037   */\n      swap3\n      swap2\n      pop\n      pop\n      jump\t// out\n        /* \"#utility.yul\":13043:13436   */\n    tag_230:\n        /* \"#utility.yul\":13112:13118   */\n      0x00\n        /* \"#utility.yul\":13162:13163   */\n      0x08\n        /* \"#utility.yul\":13150:13160   */\n      dup4\n        /* \"#utility.yul\":13146:13164   */\n      mul\n        /* \"#utility.yul\":13185:13282   */\n      tag_374\n        /* \"#utility.yul\":13215:13281   */\n      0xffffffffffffffffffffffffffffffffffffffffffffffffffffffffffffffff\n        /* \"#utility.yul\":13204:13213   */\n      dup3\n        /* \"#utility.yul\":13185:13282   */\n      tag_229\n      jump\t// in\n    tag_374:\n        /* \"#utility.yul\":13303:13342   */\n      tag_375\n        /* \"#utility.yul\":13333:13341   */\n      dup7\n        /* \"#utility.yul\":13322:13331   */\n      dup4\n        /* \"#utility.yul\":13303:13342   */\n      tag_229\n      jump\t// in\n    tag_375:\n        /* \"#utility.yul\":13291:13342   */\n      swap6\n      pop\n        /* \"#utility.yul\":13375:13379   */\n      dup1\n        /* \"#utility.yul\":13371:13380   */\n      not\n        /* \"#utility.yul\":13364:13369   */\n      dup5\n        /* \"#utility.yul\":13360:13381   */\n      and\n        /* \"#utility.yul\":13351:13381   */\n      swap4\n      pop\n        /* \"#utility.yul\":13424:13428   */\n      dup1\n        /* \"#utility.yul\":13414:13422   */\n      dup7\n        /* \"#utility.yul\":13410:13429   */\n      and\n        /* \"#utility.yul\":13403:13408   */\n      dup5\n        /* \"#utility.yul\":13400:13430   */\n      or\n        /* \"#utility.yul\":13390:13430   */\n      swap3\n      pop\n        /* \"#utility.yul\":13119:13436   */\n      pop\n      pop\n        /* \"#utility.yul\":13043:13436   */\n      swap4\n      swap3\n      pop\n      pop\n      pop\n      jump\t// out\n        /* \"#utility.yul\":13442:13502   */\n    tag_231:\n        /* \"#utility.yul\":13470:13473   */\n      0x00\n        /* \"#utility.yul\":13491:13496   */\n      dup2\n        /* \"#utility.yul\":13484:13496   */\n      swap1\n      pop\n        /* \"#utility.yul\":13442:13502   */\n      swap2\n      swap1\n      pop\n      jump\t// out\n        /* \"#utility.yul\":13508:13650   */\n    tag_232:\n        /* \"#utility.yul\":13558:13567   */\n      0x00\n        /* \"#utility.yul\":13591:13644   */\n      tag_378\n        /* \"#utility.yul\":13609:13643   */\n      tag_379\n        /* \"#utility.yul\":13618:13642   */\n      tag_380\n        /* \"#utility.yul\":13636:13641   */\n      dup5\n        /* \"#utility.yul\":13618:13642   */\n      tag_191\n      jump\t// in\n    tag_380:\n        /* \"#utility.yul\":13609:13643   */\n      tag_231\n      jump\t// in\n    tag_379:\n        /* \"#utility.yul\":13591:13644   */\n      tag_191\n      jump\t// in\n    tag_378:\n        /* \"#utility.yul\":13578:13644   */\n      swap1\n      pop\n        /* \"#utility.yul\":13508:13650   */\n      swap2\n      swap1\n      pop\n      jump\t// out\n        /* \"#utility.yul\":13656:13731   */\n    tag_233:\n        /* \"#utility.yul\":13699:13702   */\n      0x00\n        /* \"#utility.yul\":13720:13725   */\n      dup2\n        /* \"#utility.yul\":13713:13725   */\n      swap1\n      pop\n        /* \"#utility.yul\":13656:13731   */\n      swap2\n      swap1\n      pop\n      jump\t// out\n        /* \"#utility.yul\":13737:14006   */\n    tag_234:\n        /* \"#utility.yul\":13847:13886   */\n      tag_383\n        /* \"#utility.yul\":13878:13885   */\n      dup4\n        /* \"#utility.yul\":13847:13886   */\n      tag_232\n      jump\t// in\n    tag_383:\n        /* \"#utility.yul\":13908:13999   */\n      tag_384\n        /* \"#utility.yul\":13957:13998   */\n      tag_385\n        /* \"#utility.yul\":13981:13997   */\n      dup3\n        /* \"#utility.yul\":13957:13998   */\n      tag_233\n      jump\t// in\n    tag_385:\n        /* \"#utility.yul\":13949:13955   */\n      dup5\n        /* \"#utility.yul\":13942:13946   */\n      dup5\n        /* \"#utility.yul\":13936:13947   */\n      sload\n        /* \"#utility.yul\":13908:13999   */\n      tag_230\n      jump\t// in\n    tag_384:\n        /* \"#utility.yul\":13902:13906   */\n      dup3\n        /* \"#utility.yul\":13895:14000   */\n      sstore\n        /* \"#utility.yul\":13813:14006   */\n      pop\n        /* \"#utility.yul\":13737:14006   */\n      pop\n      pop\n      pop\n      jump\t// out\n        /* \"#utility.yul\":14012:14085   */\n    tag_235:\n        /* \"#utility.yul\":14057:14060   */\n      0x00\n        /* \"#utility.yul\":14078:14079   */\n      0x00\n        /* \"#utility.yul\":14071:14079   */\n      swap1\n      pop\n        /* \"#utility.yul\":14012:14085   */\n      swap1\n      jump\t// out\n        /* \"#utility.yul\":14091:14280   */\n    tag_236:\n        /* \"#utility.yul\":14168:14200   */\n      tag_388\n      tag_235\n      jump\t// in\n    tag_388:\n        /* \"#utility.yul\":14209:14274   */\n      tag_389\n        /* \"#utility.yul\":14267:14273   */\n      dup2\n        /* \"#utility.yul\":14259:14265   */\n      dup5\n        /* \"#utility.yul\":14253:14257   */\n      dup5\n        /* \"#utility.yul\":14209:14274   */\n      tag_234\n      jump\t// in\n    tag_389:\n        /* \"#utility.yul\":14144:14280   */\n      pop\n        /* \"#utility.yul\":14091:14280   */\n      pop\n      pop\n      jump\t// out\n        /* \"#utility.yul\":14286:14472   */\n    tag_237:\n        /* \"#utility.yul\":14346:14466   */\n    tag_391:\n        /* \"#utility.yul\":14363:14366   */\n      dup2\n        /* \"#utility.yul\":14356:14361   */\n      dup2\n        /* \"#utility.yul\":14353:14367   */\n      lt\n        /* \"#utility.yul\":14346:14466   */\n      iszero\n      tag_393\n      jumpi\n        /* \"#utility.yul\":14417:14456   */\n      tag_394\n        /* \"#utility.yul\":14454:14455   */\n      0x00\n        /* \"#utility.yul\":14447:14452   */\n      dup3\n        /* \"#utility.yul\":14417:14456   */\n      tag_236\n      jump\t// in\n    tag_394:\n        /* \"#utility.yul\":14390:14391   */\n      0x01\n        /* \"#utility.yul\":14383:14388   */\n      dup2\n        /* \"#utility.yul\":14379:14392   */\n      add\n        /* \"#utility.yul\":14370:14392   */\n      swap1\n      pop\n        /* \"#utility.yul\":14346:14466   */\n      jump(tag_391)\n    tag_393:\n        /* \"#utility.yul\":14286:14472   */\n      pop\n      pop\n      jump\t// out\n        /* \"#utility.yul\":14478:15021   */\n    tag_238:\n        /* \"#utility.yul\":14579:14581   */\n      0x1f\n        /* \"#utility.yul\":14574:14577   */\n      dup3\n        /* \"#utility.yul\":14571:14582   */\n      gt\n        /* \"#utility.yul\":14568:15014   */\n      iszero\n      tag_396\n      jumpi\n        /* \"#utility.yul\":14613:14651   */\n      tag_397\n        /* \"#utility.yul\":14645:14650   */\n      dup2\n        /* \"#utility.yul\":14613:14651   */\n      tag_227\n      jump\t// in\n    tag_397:\n        /* \"#utility.yul\":14697:14726   */\n      tag_398\n        /* \"#utility.yul\":14715:14725   */\n      dup5\n        /* \"#utility.yul\":14697:14726   */\n      tag_228\n      jump\t// in\n    tag_398:\n        /* \"#utility.yul\":14687:14695   */\n      dup2\n        /* \"#utility.yul\":14683:14727   */\n      add\n        /* \"#utility.yul\":14880:14882   */\n      0x20\n        /* \"#utility.yul\":14868:14878   */\n      dup6\n        /* \"#utility.yul\":14865:14883   */\n      lt\n        /* \"#utility.yul\":14862:14911   */\n      iszero\n      tag_399\n      jumpi\n        /* \"#utility.yul\":14901:14909   */\n      dup2\n        /* \"#utility.yul\":14886:14909   */\n      swap1\n      pop\n        /* \"#utility.yul\":14862:14911   */\n    tag_399:\n        /* \"#utility.yul\":14924:15004   */\n      tag_400\n        /* \"#utility.yul\":14980:15002   */\n      tag_401\n        /* \"#utility.yul\":14998:15001   */\n      dup6\n        /* \"#utility.yul\":14980:15002   */\n      tag_228\n      jump\t// in\n    tag_401:\n        /* \"#utility.yul\":14970:14978   */\n      dup4\n        /* \"#utility.yul\":14966:15003   */\n      add\n        /* \"#utility.yul\":14953:14964   */\n      dup3\n        /* \"#utility.yul\":14924:15004   */\n      tag_237\n      jump\t// in\n    tag_400:\n        /* \"#utility.yul\":14583:15014   */\n      pop\n      pop\n        /* \"#utility.yul\":14568:15014   */\n    tag_396:\n        /* \"#utility.yul\":14478:15021   */\n      pop\n      pop\n      pop\n      jump\t// out\n        /* \"#utility.yul\":15027:15144   */\n    tag_239:\n        /* \"#utility.yul\":15081:15089   */\n      0x00\n        /* \"#utility.yul\":15131:15136   */\n      dup3\n        /* \"#utility.yul\":15125:15129   */\n      dup3\n        /* \"#utility.yul\":15121:15137   */\n      shr\n        /* \"#utility.yul\":15100:15137   */\n      swap1\n      pop\n        /* \"#utility.yul\":15027:15144   */\n      swap3\n      swap2\n      pop\n      pop\n      jump\t// out\n        /* \"#utility.yul\":15150:15319   */\n    tag_240:\n        /* \"#utility.yul\":15194:15200   */\n      0x00\n        /* \"#utility.yul\":15227:15278   */\n      tag_404\n        /* \"#utility.yul\":15275:15276   */\n      0x00\n        /* \"#utility.yul\":15271:15277   */\n      not\n        /* \"#utility.yul\":15263:15268   */\n      dup5\n        /* \"#utility.yul\":15260:15261   */\n      0x08\n        /* \"#utility.yul\":15256:15269   */\n      mul\n        /* \"#utility.yul\":15227:15278   */\n      tag_239\n      jump\t// in\n    tag_404:\n        /* \"#utility.yul\":15223:15279   */\n      not\n        /* \"#utility.yul\":15308:15312   */\n      dup1\n        /* \"#utility.yul\":15302:15306   */\n      dup4\n        /* \"#utility.yul\":15298:15313   */\n      and\n        /* \"#utility.yul\":15288:15313   */\n      swap2\n      pop\n        /* \"#utility.yul\":15201:15319   */\n      pop\n        /* \"#utility.yul\":15150:15319   */\n      swap3\n      swap2\n      pop\n      pop\n      jump\t// out\n        /* \"#utility.yul\":15324:15619   */\n    tag_241:\n        /* \"#utility.yul\":15400:15404   */\n      0x00\n        /* \"#utility.yul\":15546:15575   */\n      tag_406\n        /* \"#utility.yul\":15571:15574   */\n      dup4\n        /* \"#utility.yul\":15565:15569   */\n      dup4\n        /* \"#utility.yul\":15546:15575   */\n      tag_240\n      jump\t// in\n    tag_406:\n        /* \"#utility.yul\":15538:15575   */\n      swap2\n      pop\n        /* \"#utility.yul\":15608:15611   */\n      dup3\n        /* \"#utility.yul\":15605:15606   */\n      0x02\n        /* \"#utility.yul\":15601:15612   */\n      mul\n        /* \"#utility.yul\":15595:15599   */\n      dup3\n        /* \"#utility.yul\":15592:15613   */\n      or\n        /* \"#utility.yul\":15584:15613   */\n      swap1\n      pop\n        /* \"#utility.yul\":15324:15619   */\n      swap3\n      swap2\n      pop\n      pop\n      jump\t// out\n        /* \"#utility.yul\":15624:17075   */\n    tag_125:\n        /* \"#utility.yul\":15735:15738   */\n      dup2\n        /* \"#utility.yul\":15729:15733   */\n      dup2\n        /* \"#utility.yul\":15726:15739   */\n      sub\n        /* \"#utility.yul\":15723:15749   */\n      tag_408\n      jumpi\n        /* \"#utility.yul\":15742:15747   */\n      pop\n      pop\n      jump(tag_407)\n        /* \"#utility.yul\":15723:15749   */\n    tag_408:\n        /* \"#utility.yul\":15773:15807   */\n      tag_409\n        /* \"#utility.yul\":15803:15806   */\n      dup3\n        /* \"#utility.yul\":15773:15807   */\n      tag_226\n      jump\t// in\n    tag_409:\n        /* \"#utility.yul\":15872:15890   */\n      0xffffffffffffffff\n        /* \"#utility.yul\":15864:15870   */\n      dup2\n        /* \"#utility.yul\":15861:15891   */\n      gt\n        /* \"#utility.yul\":15858:15914   */\n      iszero\n      tag_410\n      jumpi\n        /* \"#utility.yul\":15894:15912   */\n      tag_411\n      tag_205\n      jump\t// in\n    tag_411:\n        /* \"#utility.yul\":15858:15914   */\n    tag_410:\n        /* \"#utility.yul\":15938:15976   */\n      tag_412\n        /* \"#utility.yul\":15970:15974   */\n      dup3\n        /* \"#utility.yul\":15964:15975   */\n      sload\n        /* \"#utility.yul\":15938:15976   */\n      tag_72\n      jump\t// in\n    tag_412:\n        /* \"#utility.yul\":16023:16090   */\n      tag_413\n        /* \"#utility.yul\":16083:16089   */\n      dup3\n        /* \"#utility.yul\":16075:16081   */\n      dup3\n        /* \"#utility.yul\":16069:16073   */\n      dup6\n        /* \"#utility.yul\":16023:16090   */\n      tag_238\n      jump\t// in\n    tag_413:\n        /* \"#utility.yul\":16117:16118   */\n      0x00\n        /* \"#utility.yul\":16146:16148   */\n      0x1f\n        /* \"#utility.yul\":16138:16144   */\n      dup4\n        /* \"#utility.yul\":16135:16149   */\n      gt\n        /* \"#utility.yul\":16163:16164   */\n      0x01\n        /* \"#utility.yul\":16158:16830   */\n      dup2\n      eq\n      tag_415\n      jumpi\n        /* \"#utility.yul\":16874:16875   */\n      0x00\n        /* \"#utility.yul\":16891:16897   */\n      dup5\n        /* \"#utility.yul\":16888:16965   */\n      iszero\n      tag_416\n      jumpi\n        /* \"#utility.yul\":16940:16949   */\n      dup3\n        /* \"#utility.yul\":16935:16938   */\n      dup8\n        /* \"#utility.yul\":16931:16950   */\n      add\n        /* \"#utility.yul\":16925:16951   */\n      sload\n        /* \"#utility.yul\":16916:16951   */\n      swap1\n      pop\n        /* \"#utility.yul\":16888:16965   */\n    tag_416:\n        /* \"#utility.yul\":16991:17058   */\n      tag_417\n        /* \"#utility.yul\":17051:17057   */\n      dup6\n        /* \"#utility.yul\":17044:17049   */\n      dup3\n        /* \"#utility.yul\":16991:17058   */\n      tag_241\n      jump\t// in\n    tag_417:\n        /* \"#utility.yul\":16985:16989   */\n      dup7\n        /* \"#utility.yul\":16978:17059   */\n      sstore\n        /* \"#utility.yul\":16847:17069   */\n      pop\n        /* \"#utility.yul\":16128:17069   */\n      jump(tag_414)\n        /* \"#utility.yul\":16158:16830   */\n    tag_415:\n        /* \"#utility.yul\":16210:16214   */\n      0x1f\n        /* \"#utility.yul\":16206:16215   */\n      not\n        /* \"#utility.yul\":16198:16204   */\n      dup5\n        /* \"#utility.yul\":16194:16216   */\n      and\n        /* \"#utility.yul\":16236:16272   */\n      tag_418\n        /* \"#utility.yul\":16268:16271   */\n      dup8\n        /* \"#utility.yul\":16236:16272   */\n      tag_227\n      jump\t// in\n    tag_418:\n        /* \"#utility.yul\":16229:16272   */\n      swap7\n      pop\n        /* \"#utility.yul\":16299:16336   */\n      tag_419\n        /* \"#utility.yul\":16331:16335   */\n      dup7\n        /* \"#utility.yul\":16299:16336   */\n      tag_227\n      jump\t// in\n    tag_419:\n        /* \"#utility.yul\":16358:16359   */\n      0x00\n        /* \"#utility.yul\":16372:16579   */\n    tag_420:\n        /* \"#utility.yul\":16386:16393   */\n      dup3\n        /* \"#utility.yul\":16383:16384   */\n      dup2\n        /* \"#utility.yul\":16380:16394   */\n      lt\n        /* \"#utility.yul\":16372:16579   */\n      iszero\n      tag_422\n      jumpi\n        /* \"#utility.yul\":16465:16474   */\n      dup5\n        /* \"#utility.yul\":16460:16463   */\n      dup10\n        /* \"#utility.yul\":16456:16475   */\n      add\n        /* \"#utility.yul\":16450:16476   */\n      sload\n        /* \"#utility.yul\":16442:16448   */\n      dup3\n        /* \"#utility.yul\":16435:16477   */\n      sstore\n        /* \"#utility.yul\":16516:16517   */\n      0x01\n        /* \"#utility.yul\":16508:16514   */\n      dup3\n        /* \"#utility.yul\":16504:16518   */\n      add\n        /* \"#utility.yul\":16494:16518   */\n      swap2\n      pop\n        /* \"#utility.yul\":16563:16564   */\n      0x01\n        /* \"#utility.yul\":16552:16561   */\n      dup6\n        /* \"#utility.yul\":16548:16565   */\n      add\n        /* \"#utility.yul\":16535:16565   */\n      swap5\n      pop\n        /* \"#utility.yul\":16409:16413   */\n      0x20\n        /* \"#utility.yul\":16406:16407   */\n      dup2\n        /* \"#utility.yul\":16402:16414   */\n      add\n        /* \"#utility.yul\":16397:16414   */\n      swap1\n      pop\n        /* \"#utility.yul\":16372:16579   */\n      jump(tag_420)\n    tag_422:\n        /* \"#utility.yul\":16607:16613   */\n      dup7\n        /* \"#utility.yul\":16598:16605   */\n      dup4\n        /* \"#utility.yul\":16595:16614   */\n      lt\n        /* \"#utility.yul\":16592:16771   */\n      iszero\n      tag_423\n      jumpi\n        /* \"#utility.yul\":16665:16674   */\n      dup5\n        /* \"#utility.yul\":16660:16663   */\n      dup10\n        /* \"#utility.yul\":16656:16675   */\n      add\n        /* \"#utility.yul\":16650:16676   */\n      sload\n        /* \"#utility.yul\":16708:16756   */\n      tag_424\n        /* \"#utility.yul\":16750:16754   */\n      0x1f\n        /* \"#utility.yul\":16742:16748   */\n      dup10\n        /* \"#utility.yul\":16738:16755   */\n      and\n        /* \"#utility.yul\":16727:16736   */\n      dup3\n        /* \"#utility.yul\":16708:16756   */\n      tag_240\n      jump\t// in\n    tag_424:\n        /* \"#utility.yul\":16700:16706   */\n      dup4\n        /* \"#utility.yul\":16693:16757   */\n      sstore\n        /* \"#utility.yul\":16615:16771   */\n      pop\n        /* \"#utility.yul\":16592:16771   */\n    tag_423:\n        /* \"#utility.yul\":16817:16818   */\n      0x01\n        /* \"#utility.yul\":16813:16814   */\n      0x02\n        /* \"#utility.yul\":16805:16811   */\n      dup9\n        /* \"#utility.yul\":16801:16815   */\n      mul\n        /* \"#utility.yul\":16797:16819   */\n      add\n        /* \"#utility.yul\":16791:16795   */\n      dup9\n        /* \"#utility.yul\":16784:16820   */\n      sstore\n        /* \"#utility.yul\":16165:16830   */\n      pop\n      pop\n      pop\n        /* \"#utility.yul\":16128:17069   */\n    tag_414:\n      pop\n        /* \"#utility.yul\":15713:17075   */\n      pop\n      pop\n      pop\n        /* \"#utility.yul\":15624:17075   */\n      pop\n      pop\n    tag_407:\n      jump\t// out\n        /* \"#utility.yul\":17081:17261   */\n    tag_128:\n        /* \"#utility.yul\":17129:17206   */\n      0x4e487b7100000000000000000000000000000000000000000000000000000000\n        /* \"#utility.yul\":17126:17127   */\n      0x00\n        /* \"#utility.yul\":17119:17207   */\n      mstore\n        /* \"#utility.yul\":17226:17230   */\n      0x31\n        /* \"#utility.yul\":17223:17224   */\n      0x04\n        /* \"#utility.yul\":17216:17231   */\n      mstore\n        /* \"#utility.yul\":17250:17254   */\n      0x24\n        /* \"#utility.yul\":17247:17248   */\n      0x00\n        /* \"#utility.yul\":17240:17255   */\n      revert\n        /* \"#utility.yul\":17267:17447   */\n    tag_242:\n        /* \"#utility.yul\":17407:17439   */\n      0x416d6f756e74206d7573742062652067726561746572207468616e2030210000\n        /* \"#utility.yul\":17403:17404   */\n      0x00\n        /* \"#utility.yul\":17395:17401   */\n      dup3\n        /* \"#utility.yul\":17391:17405   */\n      add\n        /* \"#utility.yul\":17384:17440   */\n      mstore\n        /* \"#utility.yul\":17267:17447   */\n      pop\n      jump\t// out\n        /* \"#utility.yul\":17453:17819   */\n    tag_243:\n        /* \"#utility.yul\":17595:17598   */\n      0x00\n        /* \"#utility.yul\":17616:17683   */\n      tag_428\n        /* \"#utility.yul\":17680:17682   */\n      0x1e\n        /* \"#utility.yul\":17675:17678   */\n      dup4\n        /* \"#utility.yul\":17616:17683   */\n      tag_195\n      jump\t// in\n    tag_428:\n        /* \"#utility.yul\":17609:17683   */\n      swap2\n      pop\n        /* \"#utility.yul\":17692:17785   */\n      tag_429\n        /* \"#utility.yul\":17781:17784   */\n      dup3\n        /* \"#utility.yul\":17692:17785   */\n      tag_242\n      jump\t// in\n    tag_429:\n        /* \"#utility.yul\":17810:17812   */\n      0x20\n        /* \"#utility.yul\":17805:17808   */\n      dup3\n        /* \"#utility.yul\":17801:17813   */\n      add\n        /* \"#utility.yul\":17794:17813   */\n      swap1\n      pop\n        /* \"#utility.yul\":17453:17819   */\n      swap2\n      swap1\n      pop\n      jump\t// out\n        /* \"#utility.yul\":17825:18244   */\n    tag_138:\n        /* \"#utility.yul\":17991:17995   */\n      0x00\n        /* \"#utility.yul\":18029:18031   */\n      0x20\n        /* \"#utility.yul\":18018:18027   */\n      dup3\n        /* \"#utility.yul\":18014:18032   */\n      add\n        /* \"#utility.yul\":18006:18032   */\n      swap1\n      pop\n        /* \"#utility.yul\":18078:18087   */\n      dup2\n        /* \"#utility.yul\":18072:18076   */\n      dup2\n        /* \"#utility.yul\":18068:18088   */\n      sub\n        /* \"#utility.yul\":18064:18065   */\n      0x00\n        /* \"#utility.yul\":18053:18062   */\n      dup4\n        /* \"#utility.yul\":18049:18066   */\n      add\n        /* \"#utility.yul\":18042:18089   */\n      mstore\n        /* \"#utility.yul\":18106:18237   */\n      tag_431\n        /* \"#utility.yul\":18232:18236   */\n      dup2\n        /* \"#utility.yul\":18106:18237   */\n      tag_243\n      jump\t// in\n    tag_431:\n        /* \"#utility.yul\":18098:18237   */\n      swap1\n      pop\n        /* \"#utility.yul\":17825:18244   */\n      swap2\n      swap1\n      pop\n      jump\t// out\n        /* \"#utility.yul\":18250:19645   */\n    tag_141:\n        /* \"#utility.yul\":18367:18404   */\n      tag_433\n        /* \"#utility.yul\":18400:18403   */\n      dup3\n        /* \"#utility.yul\":18367:18404   */\n      tag_194\n      jump\t// in\n    tag_433:\n        /* \"#utility.yul\":18469:18487   */\n      0xffffffffffffffff\n        /* \"#utility.yul\":18461:18467   */\n      dup2\n        /* \"#utility.yul\":18458:18488   */\n      gt\n        /* \"#utility.yul\":18455:18511   */\n      iszero\n      tag_434\n      jumpi\n        /* \"#utility.yul\":18491:18509   */\n      tag_435\n      tag_205\n      jump\t// in\n    tag_435:\n        /* \"#utility.yul\":18455:18511   */\n    tag_434:\n        /* \"#utility.yul\":18535:18573   */\n      tag_436\n        /* \"#utility.yul\":18567:18571   */\n      dup3\n        /* \"#utility.yul\":18561:18572   */\n      sload\n        /* \"#utility.yul\":18535:18573   */\n      tag_72\n      jump\t// in\n    tag_436:\n        /* \"#utility.yul\":18620:18687   */\n      tag_437\n        /* \"#utility.yul\":18680:18686   */\n      dup3\n        /* \"#utility.yul\":18672:18678   */\n      dup3\n        /* \"#utility.yul\":18666:18670   */\n      dup6\n        /* \"#utility.yul\":18620:18687   */\n      tag_238\n      jump\t// in\n    tag_437:\n        /* \"#utility.yul\":18714:18715   */\n      0x00\n        /* \"#utility.yul\":18738:18742   */\n      0x20\n        /* \"#utility.yul\":18725:18742   */\n      swap1\n      pop\n        /* \"#utility.yul\":18770:18772   */\n      0x1f\n        /* \"#utility.yul\":18762:18768   */\n      dup4\n        /* \"#utility.yul\":18759:18773   */\n      gt\n        /* \"#utility.yul\":18787:18788   */\n      0x01\n        /* \"#utility.yul\":18782:19400   */\n      dup2\n      eq\n      tag_439\n      jumpi\n        /* \"#utility.yul\":19444:19445   */\n      0x00\n        /* \"#utility.yul\":19461:19467   */\n      dup5\n        /* \"#utility.yul\":19458:19535   */\n      iszero\n      tag_440\n      jumpi\n        /* \"#utility.yul\":19510:19519   */\n      dup3\n        /* \"#utility.yul\":19505:19508   */\n      dup8\n        /* \"#utility.yul\":19501:19520   */\n      add\n        /* \"#utility.yul\":19495:19521   */\n      mload\n        /* \"#utility.yul\":19486:19521   */\n      swap1\n      pop\n        /* \"#utility.yul\":19458:19535   */\n    tag_440:\n        /* \"#utility.yul\":19561:19628   */\n      tag_441\n        /* \"#utility.yul\":19621:19627   */\n      dup6\n        /* \"#utility.yul\":19614:19619   */\n      dup3\n        /* \"#utility.yul\":19561:19628   */\n      tag_241\n      jump\t// in\n    tag_441:\n        /* \"#utility.yul\":19555:19559   */\n      dup7\n        /* \"#utility.yul\":19548:19629   */\n      sstore\n        /* \"#utility.yul\":19417:19639   */\n      pop\n        /* \"#utility.yul\":18752:19639   */\n      jump(tag_438)\n        /* \"#utility.yul\":18782:19400   */\n    tag_439:\n        /* \"#utility.yul\":18834:18838   */\n      0x1f\n        /* \"#utility.yul\":18830:18839   */\n      not\n        /* \"#utility.yul\":18822:18828   */\n      dup5\n        /* \"#utility.yul\":18818:18840   */\n      and\n        /* \"#utility.yul\":18868:18905   */\n      tag_442\n        /* \"#utility.yul\":18900:18904   */\n      dup7\n        /* \"#utility.yul\":18868:18905   */\n      tag_227\n      jump\t// in\n    tag_442:\n        /* \"#utility.yul\":18927:18928   */\n      0x00\n        /* \"#utility.yul\":18941:19149   */\n    tag_443:\n        /* \"#utility.yul\":18955:18962   */\n      dup3\n        /* \"#utility.yul\":18952:18953   */\n      dup2\n        /* \"#utility.yul\":18949:18963   */\n      lt\n        /* \"#utility.yul\":18941:19149   */\n      iszero\n      tag_445\n      jumpi\n        /* \"#utility.yul\":19034:19043   */\n      dup5\n        /* \"#utility.yul\":19029:19032   */\n      dup10\n        /* \"#utility.yul\":19025:19044   */\n      add\n        /* \"#utility.yul\":19019:19045   */\n      mload\n        /* \"#utility.yul\":19011:19017   */\n      dup3\n        /* \"#utility.yul\":19004:19046   */\n      sstore\n        /* \"#utility.yul\":19085:19086   */\n      0x01\n        /* \"#utility.yul\":19077:19083   */\n      dup3\n        /* \"#utility.yul\":19073:19087   */\n      add\n        /* \"#utility.yul\":19063:19087   */\n      swap2\n      pop\n        /* \"#utility.yul\":19132:19134   */\n      0x20\n        /* \"#utility.yul\":19121:19130   */\n      dup6\n        /* \"#utility.yul\":19117:19135   */\n      add\n        /* \"#utility.yul\":19104:19135   */\n      swap5\n      pop\n        /* \"#utility.yul\":18978:18982   */\n      0x20\n        /* \"#utility.yul\":18975:18976   */\n      dup2\n        /* \"#utility.yul\":18971:18983   */\n      add\n        /* \"#utility.yul\":18966:18983   */\n      swap1\n      pop\n        /* \"#utility.yul\":18941:19149   */\n      jump(tag_443)\n    tag_445:\n        /* \"#utility.yul\":19177:19183   */\n      dup7\n        /* \"#utility.yul\":19168:19175   */\n      dup4\n        /* \"#utility.yul\":19165:19184   */\n      lt\n        /* \"#utility.yul\":19162:19341   */\n      iszero\n      tag_446\n      jumpi\n        /* \"#utility.yul\":19235:19244   */\n      dup5\n        /* \"#utility.yul\":19230:19233   */\n      dup10\n        /* \"#utility.yul\":19226:19245   */\n      add\n        /* \"#utility.yul\":19220:19246   */\n      mload\n        /* \"#utility.yul\":19278:19326   */\n      tag_447\n        /* \"#utility.yul\":19320:19324   */\n      0x1f\n        /* \"#utility.yul\":19312:19318   */\n      dup10\n        /* \"#utility.yul\":19308:19325   */\n      and\n        /* \"#utility.yul\":19297:19306   */\n      dup3\n        /* \"#utility.yul\":19278:19326   */\n      tag_240\n      jump\t// in\n    tag_447:\n        /* \"#utility.yul\":19270:19276   */\n      dup4\n        /* \"#utility.yul\":19263:19327   */\n      sstore\n        /* \"#utility.yul\":19185:19341   */\n      pop\n        /* \"#utility.yul\":19162:19341   */\n    tag_446:\n        /* \"#utility.yul\":19387:19388   */\n      0x01\n        /* \"#utility.yul\":19383:19384   */\n      0x02\n        /* \"#utility.yul\":19375:19381   */\n      dup9\n        /* \"#utility.yul\":19371:19385   */\n      mul\n        /* \"#utility.yul\":19367:19389   */\n      add\n        /* \"#utility.yul\":19361:19365   */\n      dup9\n        /* \"#utility.yul\":19354:19390   */\n      sstore\n        /* \"#utility.yul\":18789:19400   */\n      pop\n      pop\n      pop\n        /* \"#utility.yul\":18752:19639   */\n    tag_438:\n      pop\n        /* \"#utility.yul\":18342:19645   */\n      pop\n      pop\n      pop\n        /* \"#utility.yul\":18250:19645   */\n      pop\n      pop\n      jump\t// out\n        /* \"#utility.yul\":19651:19823   */\n    tag_244:\n        /* \"#utility.yul\":19791:19815   */\n      0x43616d706169676e206973206e6f742041637469766500000000000000000000\n        /* \"#utility.yul\":19787:19788   */\n      0x00\n        /* \"#utility.yul\":19779:19785   */\n      dup3\n        /* \"#utility.yul\":19775:19789   */\n      add\n        /* \"#utility.yul\":19768:19816   */\n      mstore\n        /* \"#utility.yul\":19651:19823   */\n      pop\n      jump\t// out\n        /* \"#utility.yul\":19829:20195   */\n    tag_245:\n        /* \"#utility.yul\":19971:19974   */\n      0x00\n        /* \"#utility.yul\":19992:20059   */\n      tag_450\n        /* \"#utility.yul\":20056:20058   */\n      0x16\n        /* \"#utility.yul\":20051:20054   */\n      dup4\n        /* \"#utility.yul\":19992:20059   */\n      tag_195\n      jump\t// in\n    tag_450:\n        /* \"#utility.yul\":19985:20059   */\n      swap2\n      pop\n        /* \"#utility.yul\":20068:20161   */\n      tag_451\n        /* \"#utility.yul\":20157:20160   */\n      dup3\n        /* \"#utility.yul\":20068:20161   */\n      tag_244\n      jump\t// in\n    tag_451:\n        /* \"#utility.yul\":20186:20188   */\n      0x20\n        /* \"#utility.yul\":20181:20184   */\n      dup3\n        /* \"#utility.yul\":20177:20189   */\n      add\n        /* \"#utility.yul\":20170:20189   */\n      swap1\n      pop\n        /* \"#utility.yul\":19829:20195   */\n      swap2\n      swap1\n      pop\n      jump\t// out\n        /* \"#utility.yul\":20201:20620   */\n    tag_149:\n        /* \"#utility.yul\":20367:20371   */\n      0x00\n        /* \"#utility.yul\":20405:20407   */\n      0x20\n        /* \"#utility.yul\":20394:20403   */\n      dup3\n        /* \"#utility.yul\":20390:20408   */\n      add\n        /* \"#utility.yul\":20382:20408   */\n      swap1\n      pop\n        /* \"#utility.yul\":20454:20463   */\n      dup2\n        /* \"#utility.yul\":20448:20452   */\n      dup2\n        /* \"#utility.yul\":20444:20464   */\n      sub\n        /* \"#utility.yul\":20440:20441   */\n      0x00\n        /* \"#utility.yul\":20429:20438   */\n      dup4\n        /* \"#utility.yul\":20425:20442   */\n      add\n        /* \"#utility.yul\":20418:20465   */\n      mstore\n        /* \"#utility.yul\":20482:20613   */\n      tag_453\n        /* \"#utility.yul\":20608:20612   */\n      dup2\n        /* \"#utility.yul\":20482:20613   */\n      tag_245\n      jump\t// in\n    tag_453:\n        /* \"#utility.yul\":20474:20613   */\n      swap1\n      pop\n        /* \"#utility.yul\":20201:20620   */\n      swap2\n      swap1\n      pop\n      jump\t// out\n        /* \"#utility.yul\":20626:20793   */\n    tag_246:\n        /* \"#utility.yul\":20766:20785   */\n      0x496e636f727265637420416d6f756e7421000000000000000000000000000000\n        /* \"#utility.yul\":20762:20763   */\n      0x00\n        /* \"#utility.yul\":20754:20760   */\n      dup3\n        /* \"#utility.yul\":20750:20764   */\n      add\n        /* \"#utility.yul\":20743:20786   */\n      mstore\n        /* \"#utility.yul\":20626:20793   */\n      pop\n      jump\t// out\n        /* \"#utility.yul\":20799:21165   */\n    tag_247:\n        /* \"#utility.yul\":20941:20944   */\n      0x00\n        /* \"#utility.yul\":20962:21029   */\n      tag_456\n        /* \"#utility.yul\":21026:21028   */\n      0x11\n        /* \"#utility.yul\":21021:21024   */\n      dup4\n        /* \"#utility.yul\":20962:21029   */\n      tag_195\n      jump\t// in\n    tag_456:\n        /* \"#utility.yul\":20955:21029   */\n      swap2\n      pop\n        /* \"#utility.yul\":21038:21131   */\n      tag_457\n        /* \"#utility.yul\":21127:21130   */\n      dup3\n        /* \"#utility.yul\":21038:21131   */\n      tag_246\n      jump\t// in\n    tag_457:\n        /* \"#utility.yul\":21156:21158   */\n      0x20\n        /* \"#utility.yul\":21151:21154   */\n      dup3\n        /* \"#utility.yul\":21147:21159   */\n      add\n        /* \"#utility.yul\":21140:21159   */\n      swap1\n      pop\n        /* \"#utility.yul\":20799:21165   */\n      swap2\n      swap1\n      pop\n      jump\t// out\n        /* \"#utility.yul\":21171:21590   */\n    tag_158:\n        /* \"#utility.yul\":21337:21341   */\n      0x00\n        /* \"#utility.yul\":21375:21377   */\n      0x20\n        /* \"#utility.yul\":21364:21373   */\n      dup3\n        /* \"#utility.yul\":21360:21378   */\n      add\n        /* \"#utility.yul\":21352:21378   */\n      swap1\n      pop\n        /* \"#utility.yul\":21424:21433   */\n      dup2\n        /* \"#utility.yul\":21418:21422   */\n      dup2\n        /* \"#utility.yul\":21414:21434   */\n      sub\n        /* \"#utility.yul\":21410:21411   */\n      0x00\n        /* \"#utility.yul\":21399:21408   */\n      dup4\n        /* \"#utility.yul\":21395:21412   */\n      add\n        /* \"#utility.yul\":21388:21435   */\n      mstore\n        /* \"#utility.yul\":21452:21583   */\n      tag_459\n        /* \"#utility.yul\":21578:21582   */\n      dup2\n        /* \"#utility.yul\":21452:21583   */\n      tag_247\n      jump\t// in\n    tag_459:\n        /* \"#utility.yul\":21444:21583   */\n      swap1\n      pop\n        /* \"#utility.yul\":21171:21590   */\n      swap2\n      swap1\n      pop\n      jump\t// out\n        /* \"#utility.yul\":21596:21829   */\n    tag_163:\n        /* \"#utility.yul\":21635:21638   */\n      0x00\n        /* \"#utility.yul\":21658:21682   */\n      tag_461\n        /* \"#utility.yul\":21676:21681   */\n      dup3\n        /* \"#utility.yul\":21658:21682   */\n      tag_191\n      jump\t// in\n    tag_461:\n        /* \"#utility.yul\":21649:21682   */\n      swap2\n      pop\n        /* \"#utility.yul\":21704:21770   */\n      0xffffffffffffffffffffffffffffffffffffffffffffffffffffffffffffffff\n        /* \"#utility.yul\":21697:21702   */\n      dup3\n        /* \"#utility.yul\":21694:21771   */\n      sub\n        /* \"#utility.yul\":21691:21794   */\n      tag_462\n      jumpi\n        /* \"#utility.yul\":21774:21792   */\n      tag_463\n      tag_225\n      jump\t// in\n    tag_463:\n        /* \"#utility.yul\":21691:21794   */\n    tag_462:\n        /* \"#utility.yul\":21821:21822   */\n      0x01\n        /* \"#utility.yul\":21814:21819   */\n      dup3\n        /* \"#utility.yul\":21810:21823   */\n      add\n        /* \"#utility.yul\":21803:21823   */\n      swap1\n      pop\n        /* \"#utility.yul\":21596:21829   */\n      swap2\n      swap1\n      pop\n      jump\t// out\n\n    auxdata: 0xa264697066735822122059d270d368465c4fa5ecdbdd6e68ec45991f1e22151f4f0b0f4f01c99088fcf664736f6c634300081e0033\n}\n",
				"bytecode": {
					"linkReferences": {},
					"object": "608060405234801561000f575f5ffd5b50604051611e1d380380611e1d8339818101604052810190610031919061026a565b835f908161003f919061050d565b50826001908161004f919061050d565b508160028190555062015180816100669190610609565b42610071919061064a565b6003819055503360045f6101000a81548173ffffffffffffffffffffffffffffffffffffffff021916908373ffffffffffffffffffffffffffffffffffffffff1602179055505f600460146101000a81548160ff021916908360028111156100dc576100db61067d565b5b0217905550505050506106aa565b5f604051905090565b5f5ffd5b5f5ffd5b5f5ffd5b5f5ffd5b5f601f19601f8301169050919050565b7f4e487b71000000000000000000000000000000000000000000000000000000005f52604160045260245ffd5b61014982610103565b810181811067ffffffffffffffff8211171561016857610167610113565b5b80604052505050565b5f61017a6100ea565b90506101868282610140565b919050565b5f67ffffffffffffffff8211156101a5576101a4610113565b5b6101ae82610103565b9050602081019050919050565b8281835e5f83830152505050565b5f6101db6101d68461018b565b610171565b9050828152602081018484840111156101f7576101f66100ff565b5b6102028482856101bb565b509392505050565b5f82601f83011261021e5761021d6100fb565b5b815161022e8482602086016101c9565b91505092915050565b5f819050919050565b61024981610237565b8114610253575f5ffd5b50565b5f8151905061026481610240565b92915050565b5f5f5f5f60808587031215610282576102816100f3565b5b5f85015167ffffffffffffffff81111561029f5761029e6100f7565b5b6102ab8782880161020a565b945050602085015167ffffffffffffffff8111156102cc576102cb6100f7565b5b6102d88782880161020a565b93505060406102e987828801610256565b92505060606102fa87828801610256565b91505092959194509250565b5f81519050919050565b7f4e487b71000000000000000000000000000000000000000000000000000000005f52602260045260245ffd5b5f600282049050600182168061035457607f821691505b60208210810361036757610366610310565b5b50919050565b5f819050815f5260205f209050919050565b5f6020601f8301049050919050565b5f82821b905092915050565b5f600883026103c97fffffffffffffffffffffffffffffffffffffffffffffffffffffffffffffffff8261038e565b6103d3868361038e565b95508019841693508086168417925050509392505050565b5f819050919050565b5f61040e61040961040484610237565b6103eb565b610237565b9050919050565b5f819050919050565b610427836103f4565b61043b61043382610415565b84845461039a565b825550505050565b5f5f905090565b610452610443565b61045d81848461041e565b505050565b5b81811015610480576104755f8261044a565b600181019050610463565b5050565b601f8211156104c5576104968161036d565b61049f8461037f565b810160208510156104ae578190505b6104c26104ba8561037f565b830182610462565b50505b505050565b5f82821c905092915050565b5f6104e55f19846008026104ca565b1980831691505092915050565b5f6104fd83836104d6565b9150826002028217905092915050565b61051682610306565b67ffffffffffffffff81111561052f5761052e610113565b5b610539825461033d565b610544828285610484565b5f60209050601f831160018114610575575f8415610563578287015190505b61056d85826104f2565b8655506105d4565b601f1984166105838661036d565b5f5b828110156105aa57848901518255600182019150602085019450602081019050610585565b868310156105c757848901516105c3601f8916826104d6565b8355505b6001600288020188555050505b505050505050565b7f4e487b71000000000000000000000000000000000000000000000000000000005f52601160045260245ffd5b5f61061382610237565b915061061e83610237565b925082820261062c81610237565b91508282048414831517610643576106426105dc565b5b5092915050565b5f61065482610237565b915061065f83610237565b9250828201905080821115610677576106766105dc565b5b92915050565b7f4e487b71000000000000000000000000000000000000000000000000000000005f52602160045260245ffd5b611766806106b75f395ff3fe6080604052600436106100a6575f3560e01c80637284e416116100635780637284e416146101a65780637497211b146101d05780638da5cb5b146101f85780638ece7b9114610222578063c19d93fb1461024a578063ca1d209d14610274576100a6565b8063039af9eb146100aa57806306fdde03146100e857806329dcb0cf146101125780633ccfd60b1461013c57806340193883146101525780636f9fb98a1461017c575b5f5ffd5b3480156100b5575f5ffd5b506100d060048036038101906100cb9190610c08565b610290565b6040516100df93929190610cb2565b60405180910390f35b3480156100f3575f5ffd5b506100fc61034b565b6040516101099190610cee565b60405180910390f35b34801561011d575f5ffd5b506101266103d6565b6040516101339190610d0e565b60405180910390f35b348015610147575f5ffd5b506101506103dc565b005b34801561015d575f5ffd5b50610166610597565b6040516101739190610d0e565b60405180910390f35b348015610187575f5ffd5b5061019061059d565b60405161019d9190610d0e565b60405180910390f35b3480156101b1575f5ffd5b506101ba6105a4565b6040516101c79190610cee565b60405180910390f35b3480156101db575f5ffd5b506101f660048036038101906101f19190610c08565b610630565b005b348015610203575f5ffd5b5061020c6107c9565b6040516102199190610d66565b60405180910390f35b34801561022d575f5ffd5b5061024860048036038101906102439190610eab565b6107ee565b005b348015610255575f5ffd5b5061025e610930565b60405161026b9190610f78565b60405180910390f35b61028e60048036038101906102899190610c08565b610943565b005b6005818154811061029f575f80fd5b905f5260205f2090600302015f91509050805f0180546102be90610fbe565b80601f01602080910402602001604051908101604052809291908181526020018280546102ea90610fbe565b80156103355780601f1061030c57610100808354040283529160200191610335565b820191905f5260205f20905b81548152906001019060200180831161031857829003601f168201915b5050505050908060010154908060020154905083565b5f805461035790610fbe565b80601f016020809104026020016040519081016040528092919081815260200182805461038390610fbe565b80156103ce5780601f106103a5576101008083540402835291602001916103ce565b820191905f5260205f20905b8154815290600101906020018083116103b157829003601f168201915b505050505081565b60035481565b60045f9054906101000a900473ffffffffffffffffffffffffffffffffffffffff1673ffffffffffffffffffffffffffffffffffffffff163373ffffffffffffffffffffffffffffffffffffffff161461046b576040517f08c379a000000000000000000000000000000000000000000000000000000000815260040161046290611038565b60405180910390fd5b610473610aa7565b6001600281111561048757610486610f05565b5b600460149054906101000a900460ff1660028111156104a9576104a8610f05565b5b146104e9576040517f08c379a00000000000000000000000000000000000000000000000000000000081526004016104e0906110a0565b60405180910390fd5b5f4790505f811161052f576040517f08c379a000000000000000000000000000000000000000000000000000000000815260040161052690611108565b60405180910390fd5b60045f9054906101000a900473ffffffffffffffffffffffffffffffffffffffff1673ffffffffffffffffffffffffffffffffffffffff166108fc8290811502906040515f60405180830381858888f19350505050158015610593573d5f5f3e3d5ffd5b5050565b60025481565b5f47905090565b600180546105b190610fbe565b80601f01602080910402602001604051908101604052809291908181526020018280546105dd90610fbe565b80156106285780601f106105ff57610100808354040283529160200191610628565b820191905f5260205f20905b81548152906001019060200180831161060b57829003601f168201915b505050505081565b60045f9054906101000a900473ffffffffffffffffffffffffffffffffffffffff1673ffffffffffffffffffffffffffffffffffffffff163373ffffffffffffffffffffffffffffffffffffffff16146106bf576040517f08c379a00000000000000000000000000000000000000000000000000000000081526004016106b690611038565b60405180910390fd5b6005805490508110610706576040517f08c379a00000000000000000000000000000000000000000000000000000000081526004016106fd90611170565b60405180910390fd5b6005600160058054905061071a91906111bb565b8154811061072b5761072a6111ee565b5b905f5260205f2090600302016005828154811061074b5761074a6111ee565b5b905f5260205f2090600302015f8201815f01908161076991906113d0565b5060018201548160010155600282015481600201559050506005805480610793576107926114b5565b5b600190038181905f5260205f2090600302015f5f82015f6107b49190610b6c565b600182015f9055600282015f90555050905550565b60045f9054906101000a900473ffffffffffffffffffffffffffffffffffffffff1681565b60045f9054906101000a900473ffffffffffffffffffffffffffffffffffffffff1673ffffffffffffffffffffffffffffffffffffffff163373ffffffffffffffffffffffffffffffffffffffff161461087d576040517f08c379a000000000000000000000000000000000000000000000000000000000815260040161087490611038565b60405180910390fd5b5f81116108bf576040517f08c379a00000000000000000000000000000000000000000000000000000000081526004016108b69061152c565b60405180910390fd5b600560405180606001604052808481526020018381526020015f815250908060018154018082558091505060019003905f5260205f2090600302015f909190919091505f820151815f019081610915919061154a565b50602082015181600101556040820151816002015550505050565b600460149054906101000a900460ff1681565b5f600281111561095657610955610f05565b5b600460149054906101000a900460ff16600281111561097857610977610f05565b5b146109b8576040517f08c379a00000000000000000000000000000000000000000000000000000000081526004016109af90611663565b60405180910390fd5b60058054905081106109ff576040517f08c379a00000000000000000000000000000000000000000000000000000000081526004016109f690611170565b60405180910390fd5b60058181548110610a1357610a126111ee565b5b905f5260205f209060030201600101543414610a64576040517f08c379a0000000000000000000000000000000000000000000000000000000008152600401610a5b906116cb565b60405180910390fd5b60058181548110610a7857610a776111ee565b5b905f5260205f2090600302016002015f815480929190610a97906116e9565b9190505550610aa4610aa7565b50565b5f6002811115610aba57610ab9610f05565b5b600460149054906101000a900460ff166002811115610adc57610adb610f05565b5b03610b6a576003544210610b2c57600254471015610afb576002610afe565b60015b600460146101000a81548160ff02191690836002811115610b2257610b21610f05565b5b0217905550610b69565b600254471015610b3c575f610b3f565b60015b600460146101000a81548160ff02191690836002811115610b6357610b62610f05565b5b02179055505b5b565b508054610b7890610fbe565b5f825580601f10610b895750610ba6565b601f0160209004905f5260205f2090810190610ba59190610ba9565b5b50565b5b80821115610bc0575f815f905550600101610baa565b5090565b5f604051905090565b5f5ffd5b5f5ffd5b5f819050919050565b610be781610bd5565b8114610bf1575f5ffd5b50565b5f81359050610c0281610bde565b92915050565b5f60208284031215610c1d57610c1c610bcd565b5b5f610c2a84828501610bf4565b91505092915050565b5f81519050919050565b5f82825260208201905092915050565b8281835e5f83830152505050565b5f601f19601f8301169050919050565b5f610c7582610c33565b610c7f8185610c3d565b9350610c8f818560208601610c4d565b610c9881610c5b565b840191505092915050565b610cac81610bd5565b82525050565b5f6060820190508181035f830152610cca8186610c6b565b9050610cd96020830185610ca3565b610ce66040830184610ca3565b949350505050565b5f6020820190508181035f830152610d068184610c6b565b905092915050565b5f602082019050610d215f830184610ca3565b92915050565b5f73ffffffffffffffffffffffffffffffffffffffff82169050919050565b5f610d5082610d27565b9050919050565b610d6081610d46565b82525050565b5f602082019050610d795f830184610d57565b92915050565b5f5ffd5b5f5ffd5b7f4e487b71000000000000000000000000000000000000000000000000000000005f52604160045260245ffd5b610dbd82610c5b565b810181811067ffffffffffffffff82111715610ddc57610ddb610d87565b5b80604052505050565b5f610dee610bc4565b9050610dfa8282610db4565b919050565b5f67ffffffffffffffff821115610e1957610e18610d87565b5b610e2282610c5b565b9050602081019050919050565b828183375f83830152505050565b5f610e4f610e4a84610dff565b610de5565b905082815260208101848484011115610e6b57610e6a610d83565b5b610e76848285610e2f565b509392505050565b5f82601f830112610e9257610e91610d7f565b5b8135610ea2848260208601610e3d565b91505092915050565b5f5f60408385031215610ec157610ec0610bcd565b5b5f83013567ffffffffffffffff811115610ede57610edd610bd1565b5b610eea85828601610e7e565b9250506020610efb85828601610bf4565b9150509250929050565b7f4e487b71000000000000000000000000000000000000000000000000000000005f52602160045260245ffd5b60038110610f4357610f42610f05565b5b50565b5f819050610f5382610f32565b919050565b5f610f6282610f46565b9050919050565b610f7281610f58565b82525050565b5f602082019050610f8b5f830184610f69565b92915050565b7f4e487b71000000000000000000000000000000000000000000000000000000005f52602260045260245ffd5b5f6002820490506001821680610fd557607f821691505b602082108103610fe857610fe7610f91565b5b50919050565b7f596f7520617265206e6f7420746865206f776e657200000000000000000000005f82015250565b5f611022601583610c3d565b915061102d82610fee565b602082019050919050565b5f6020820190508181035f83015261104f81611016565b9050919050565b7f43616d706169676e206e6f74207375636365737366756c2079657400000000005f82015250565b5f61108a601b83610c3d565b915061109582611056565b602082019050919050565b5f6020820190508181035f8301526110b78161107e565b9050919050565b7f4e6f2062616c616e636520746f207769746864726177210000000000000000005f82015250565b5f6110f2601783610c3d565b91506110fd826110be565b602082019050919050565b5f6020820190508181035f83015261111f816110e6565b9050919050565b7f5469657220646f6573206e6f74206578697374210000000000000000000000005f82015250565b5f61115a601483610c3d565b915061116582611126565b602082019050919050565b5f6020820190508181035f8301526111878161114e565b9050919050565b7f4e487b71000000000000000000000000000000000000000000000000000000005f52601160045260245ffd5b5f6111c582610bd5565b91506111d083610bd5565b92508282039050818111156111e8576111e761118e565b5b92915050565b7f4e487b71000000000000000000000000000000000000000000000000000000005f52603260045260245ffd5b5f8154905061122981610fbe565b9050919050565b5f819050815f5260205f209050919050565b5f6020601f8301049050919050565b5f82821b905092915050565b5f6008830261128c7fffffffffffffffffffffffffffffffffffffffffffffffffffffffffffffffff82611251565b6112968683611251565b95508019841693508086168417925050509392505050565b5f819050919050565b5f6112d16112cc6112c784610bd5565b6112ae565b610bd5565b9050919050565b5f819050919050565b6112ea836112b7565b6112fe6112f6826112d8565b84845461125d565b825550505050565b5f5f905090565b611315611306565b6113208184846112e1565b505050565b5b81811015611343576113385f8261130d565b600181019050611326565b5050565b601f8211156113885761135981611230565b61136284611242565b81016020851015611371578190505b61138561137d85611242565b830182611325565b50505b505050565b5f82821c905092915050565b5f6113a85f198460080261138d565b1980831691505092915050565b5f6113c08383611399565b9150826002028217905092915050565b8181036113de5750506114b3565b6113e78261121b565b67ffffffffffffffff811115611400576113ff610d87565b5b61140a8254610fbe565b611415828285611347565b5f601f831160018114611442575f8415611430578287015490505b61143a85826113b5565b8655506114ac565b601f19841661145087611230565b965061145b86611230565b5f5b828110156114825784890154825560018201915060018501945060208101905061145d565b8683101561149f578489015461149b601f891682611399565b8355505b6001600288020188555050505b5050505050505b565b7f4e487b71000000000000000000000000000000000000000000000000000000005f52603160045260245ffd5b7f416d6f756e74206d7573742062652067726561746572207468616e20302100005f82015250565b5f611516601e83610c3d565b9150611521826114e2565b602082019050919050565b5f6020820190508181035f8301526115438161150a565b9050919050565b61155382610c33565b67ffffffffffffffff81111561156c5761156b610d87565b5b6115768254610fbe565b611581828285611347565b5f60209050601f8311600181146115b2575f84156115a0578287015190505b6115aa85826113b5565b865550611611565b601f1984166115c086611230565b5f5b828110156115e7578489015182556001820191506020850194506020810190506115c2565b868310156116045784890151611600601f891682611399565b8355505b6001600288020188555050505b505050505050565b7f43616d706169676e206973206e6f7420416374697665000000000000000000005f82015250565b5f61164d601683610c3d565b915061165882611619565b602082019050919050565b5f6020820190508181035f83015261167a81611641565b9050919050565b7f496e636f727265637420416d6f756e74210000000000000000000000000000005f82015250565b5f6116b5601183610c3d565b91506116c082611681565b602082019050919050565b5f6020820190508181035f8301526116e2816116a9565b9050919050565b5f6116f382610bd5565b91507fffffffffffffffffffffffffffffffffffffffffffffffffffffffffffffffff82036117255761172461118e565b5b60018201905091905056fea264697066735822122059d270d368465c4fa5ecdbdd6e68ec45991f1e22151f4f0b0f4f01c99088fcf664736f6c634300081e0033",
					"opcodes": "PUSH1 0x80 PUSH1 0x40 MSTORE CALLVALUE DUP1 ISZERO PUSH2 0xF JUMPI PUSH0 PUSH0 REVERT JUMPDEST POP PUSH1 0x40 MLOAD PUSH2 0x1E1D CODESIZE SUB DUP1 PUSH2 0x1E1D DUP4 CODECOPY DUP2 DUP2 ADD PUSH1 0x40 MSTORE DUP2 ADD SWAP1 PUSH2 0x31 SWAP2 SWAP1 PUSH2 0x26A JUMP JUMPDEST DUP4 PUSH0 SWAP1 DUP2 PUSH2 0x3F SWAP2 SWAP1 PUSH2 0x50D JUMP JUMPDEST POP DUP3 PUSH1 0x1 SWAP1 DUP2 PUSH2 0x4F SWAP2 SWAP1 PUSH2 0x50D JUMP JUMPDEST POP DUP2 PUSH1 0x2 DUP2 SWAP1 SSTORE POP PUSH3 0x15180 DUP2 PUSH2 0x66 SWAP2 SWAP1 PUSH2 0x609 JUMP JUMPDEST TIMESTAMP PUSH2 0x71 SWAP2 SWAP1 PUSH2 0x64A JUMP JUMPDEST PUSH1 0x3 DUP2 SWAP1 SSTORE POP CALLER PUSH1 0x4 PUSH0 PUSH2 0x100 EXP DUP2 SLOAD DUP2 PUSH20 0xFFFFFFFFFFFFFFFFFFFFFFFFFFFFFFFFFFFFFFFF MUL NOT AND SWAP1 DUP4 PUSH20 0xFFFFFFFFFFFFFFFFFFFFFFFFFFFFFFFFFFFFFFFF AND MUL OR SWAP1 SSTORE POP PUSH0 PUSH1 0x4 PUSH1 0x14 PUSH2 0x100 EXP DUP2 SLOAD DUP2 PUSH1 0xFF MUL NOT AND SWAP1 DUP4 PUSH1 0x2 DUP2 GT ISZERO PUSH2 0xDC JUMPI PUSH2 0xDB PUSH2 0x67D JUMP JUMPDEST JUMPDEST MUL OR SWAP1 SSTORE POP POP POP POP POP PUSH2 0x6AA JUMP JUMPDEST PUSH0 PUSH1 0x40 MLOAD SWAP1 POP SWAP1 JUMP JUMPDEST PUSH0 PUSH0 REVERT JUMPDEST PUSH0 PUSH0 REVERT JUMPDEST PUSH0 PUSH0 REVERT JUMPDEST PUSH0 PUSH0 REVERT JUMPDEST PUSH0 PUSH1 0x1F NOT PUSH1 0x1F DUP4 ADD AND SWAP1 POP SWAP2 SWAP1 POP JUMP JUMPDEST PUSH32 0x4E487B7100000000000000000000000000000000000000000000000000000000 PUSH0 MSTORE PUSH1 0x41 PUSH1 0x4 MSTORE PUSH1 0x24 PUSH0 REVERT JUMPDEST PUSH2 0x149 DUP3 PUSH2 0x103 JUMP JUMPDEST DUP2 ADD DUP2 DUP2 LT PUSH8 0xFFFFFFFFFFFFFFFF DUP3 GT OR ISZERO PUSH2 0x168 JUMPI PUSH2 0x167 PUSH2 0x113 JUMP JUMPDEST JUMPDEST DUP1 PUSH1 0x40 MSTORE POP POP POP JUMP JUMPDEST PUSH0 PUSH2 0x17A PUSH2 0xEA JUMP JUMPDEST SWAP1 POP PUSH2 0x186 DUP3 DUP3 PUSH2 0x140 JUMP JUMPDEST SWAP2 SWAP1 POP JUMP JUMPDEST PUSH0 PUSH8 0xFFFFFFFFFFFFFFFF DUP3 GT ISZERO PUSH2 0x1A5 JUMPI PUSH2 0x1A4 PUSH2 0x113 JUMP JUMPDEST JUMPDEST PUSH2 0x1AE DUP3 PUSH2 0x103 JUMP JUMPDEST SWAP1 POP PUSH1 0x20 DUP2 ADD SWAP1 POP SWAP2 SWAP1 POP JUMP JUMPDEST DUP3 DUP2 DUP4 MCOPY PUSH0 DUP4 DUP4 ADD MSTORE POP POP POP JUMP JUMPDEST PUSH0 PUSH2 0x1DB PUSH2 0x1D6 DUP5 PUSH2 0x18B JUMP JUMPDEST PUSH2 0x171 JUMP JUMPDEST SWAP1 POP DUP3 DUP2 MSTORE PUSH1 0x20 DUP2 ADD DUP5 DUP5 DUP5 ADD GT ISZERO PUSH2 0x1F7 JUMPI PUSH2 0x1F6 PUSH2 0xFF JUMP JUMPDEST JUMPDEST PUSH2 0x202 DUP5 DUP3 DUP6 PUSH2 0x1BB JUMP JUMPDEST POP SWAP4 SWAP3 POP POP POP JUMP JUMPDEST PUSH0 DUP3 PUSH1 0x1F DUP4 ADD SLT PUSH2 0x21E JUMPI PUSH2 0x21D PUSH2 0xFB JUMP JUMPDEST JUMPDEST DUP2 MLOAD PUSH2 0x22E DUP5 DUP3 PUSH1 0x20 DUP7 ADD PUSH2 0x1C9 JUMP JUMPDEST SWAP2 POP POP SWAP3 SWAP2 POP POP JUMP JUMPDEST PUSH0 DUP2 SWAP1 POP SWAP2 SWAP1 POP JUMP JUMPDEST PUSH2 0x249 DUP2 PUSH2 0x237 JUMP JUMPDEST DUP2 EQ PUSH2 0x253 JUMPI PUSH0 PUSH0 REVERT JUMPDEST POP JUMP JUMPDEST PUSH0 DUP2 MLOAD SWAP1 POP PUSH2 0x264 DUP2 PUSH2 0x240 JUMP JUMPDEST SWAP3 SWAP2 POP POP JUMP JUMPDEST PUSH0 PUSH0 PUSH0 PUSH0 PUSH1 0x80 DUP6 DUP8 SUB SLT ISZERO PUSH2 0x282 JUMPI PUSH2 0x281 PUSH2 0xF3 JUMP JUMPDEST JUMPDEST PUSH0 DUP6 ADD MLOAD PUSH8 0xFFFFFFFFFFFFFFFF DUP2 GT ISZERO PUSH2 0x29F JUMPI PUSH2 0x29E PUSH2 0xF7 JUMP JUMPDEST JUMPDEST PUSH2 0x2AB DUP8 DUP3 DUP9 ADD PUSH2 0x20A JUMP JUMPDEST SWAP5 POP POP PUSH1 0x20 DUP6 ADD MLOAD PUSH8 0xFFFFFFFFFFFFFFFF DUP2 GT ISZERO PUSH2 0x2CC JUMPI PUSH2 0x2CB PUSH2 0xF7 JUMP JUMPDEST JUMPDEST PUSH2 0x2D8 DUP8 DUP3 DUP9 ADD PUSH2 0x20A JUMP JUMPDEST SWAP4 POP POP PUSH1 0x40 PUSH2 0x2E9 DUP8 DUP3 DUP9 ADD PUSH2 0x256 JUMP JUMPDEST SWAP3 POP POP PUSH1 0x60 PUSH2 0x2FA DUP8 DUP3 DUP9 ADD PUSH2 0x256 JUMP JUMPDEST SWAP2 POP POP SWAP3 SWAP6 SWAP2 SWAP5 POP SWAP3 POP JUMP JUMPDEST PUSH0 DUP2 MLOAD SWAP1 POP SWAP2 SWAP1 POP JUMP JUMPDEST PUSH32 0x4E487B7100000000000000000000000000000000000000000000000000000000 PUSH0 MSTORE PUSH1 0x22 PUSH1 0x4 MSTORE PUSH1 0x24 PUSH0 REVERT JUMPDEST PUSH0 PUSH1 0x2 DUP3 DIV SWAP1 POP PUSH1 0x1 DUP3 AND DUP1 PUSH2 0x354 JUMPI PUSH1 0x7F DUP3 AND SWAP2 POP JUMPDEST PUSH1 0x20 DUP3 LT DUP2 SUB PUSH2 0x367 JUMPI PUSH2 0x366 PUSH2 0x310 JUMP JUMPDEST JUMPDEST POP SWAP2 SWAP1 POP JUMP JUMPDEST PUSH0 DUP2 SWAP1 POP DUP2 PUSH0 MSTORE PUSH1 0x20 PUSH0 KECCAK256 SWAP1 POP SWAP2 SWAP1 POP JUMP JUMPDEST PUSH0 PUSH1 0x20 PUSH1 0x1F DUP4 ADD DIV SWAP1 POP SWAP2 SWAP1 POP JUMP JUMPDEST PUSH0 DUP3 DUP3 SHL SWAP1 POP SWAP3 SWAP2 POP POP JUMP JUMPDEST PUSH0 PUSH1 0x8 DUP4 MUL PUSH2 0x3C9 PUSH32 0xFFFFFFFFFFFFFFFFFFFFFFFFFFFFFFFFFFFFFFFFFFFFFFFFFFFFFFFFFFFFFFFF DUP3 PUSH2 0x38E JUMP JUMPDEST PUSH2 0x3D3 DUP7 DUP4 PUSH2 0x38E JUMP JUMPDEST SWAP6 POP DUP1 NOT DUP5 AND SWAP4 POP DUP1 DUP7 AND DUP5 OR SWAP3 POP POP POP SWAP4 SWAP3 POP POP POP JUMP JUMPDEST PUSH0 DUP2 SWAP1 POP SWAP2 SWAP1 POP JUMP JUMPDEST PUSH0 PUSH2 0x40E PUSH2 0x409 PUSH2 0x404 DUP5 PUSH2 0x237 JUMP JUMPDEST PUSH2 0x3EB JUMP JUMPDEST PUSH2 0x237 JUMP JUMPDEST SWAP1 POP SWAP2 SWAP1 POP JUMP JUMPDEST PUSH0 DUP2 SWAP1 POP SWAP2 SWAP1 POP JUMP JUMPDEST PUSH2 0x427 DUP4 PUSH2 0x3F4 JUMP JUMPDEST PUSH2 0x43B PUSH2 0x433 DUP3 PUSH2 0x415 JUMP JUMPDEST DUP5 DUP5 SLOAD PUSH2 0x39A JUMP JUMPDEST DUP3 SSTORE POP POP POP POP JUMP JUMPDEST PUSH0 PUSH0 SWAP1 POP SWAP1 JUMP JUMPDEST PUSH2 0x452 PUSH2 0x443 JUMP JUMPDEST PUSH2 0x45D DUP2 DUP5 DUP5 PUSH2 0x41E JUMP JUMPDEST POP POP POP JUMP JUMPDEST JUMPDEST DUP2 DUP2 LT ISZERO PUSH2 0x480 JUMPI PUSH2 0x475 PUSH0 DUP3 PUSH2 0x44A JUMP JUMPDEST PUSH1 0x1 DUP2 ADD SWAP1 POP PUSH2 0x463 JUMP JUMPDEST POP POP JUMP JUMPDEST PUSH1 0x1F DUP3 GT ISZERO PUSH2 0x4C5 JUMPI PUSH2 0x496 DUP2 PUSH2 0x36D JUMP JUMPDEST PUSH2 0x49F DUP5 PUSH2 0x37F JUMP JUMPDEST DUP2 ADD PUSH1 0x20 DUP6 LT ISZERO PUSH2 0x4AE JUMPI DUP2 SWAP1 POP JUMPDEST PUSH2 0x4C2 PUSH2 0x4BA DUP6 PUSH2 0x37F JUMP JUMPDEST DUP4 ADD DUP3 PUSH2 0x462 JUMP JUMPDEST POP POP JUMPDEST POP POP POP JUMP JUMPDEST PUSH0 DUP3 DUP3 SHR SWAP1 POP SWAP3 SWAP2 POP POP JUMP JUMPDEST PUSH0 PUSH2 0x4E5 PUSH0 NOT DUP5 PUSH1 0x8 MUL PUSH2 0x4CA JUMP JUMPDEST NOT DUP1 DUP4 AND SWAP2 POP POP SWAP3 SWAP2 POP POP JUMP JUMPDEST PUSH0 PUSH2 0x4FD DUP4 DUP4 PUSH2 0x4D6 JUMP JUMPDEST SWAP2 POP DUP3 PUSH1 0x2 MUL DUP3 OR SWAP1 POP SWAP3 SWAP2 POP POP JUMP JUMPDEST PUSH2 0x516 DUP3 PUSH2 0x306 JUMP JUMPDEST PUSH8 0xFFFFFFFFFFFFFFFF DUP2 GT ISZERO PUSH2 0x52F JUMPI PUSH2 0x52E PUSH2 0x113 JUMP JUMPDEST JUMPDEST PUSH2 0x539 DUP3 SLOAD PUSH2 0x33D JUMP JUMPDEST PUSH2 0x544 DUP3 DUP3 DUP6 PUSH2 0x484 JUMP JUMPDEST PUSH0 PUSH1 0x20 SWAP1 POP PUSH1 0x1F DUP4 GT PUSH1 0x1 DUP2 EQ PUSH2 0x575 JUMPI PUSH0 DUP5 ISZERO PUSH2 0x563 JUMPI DUP3 DUP8 ADD MLOAD SWAP1 POP JUMPDEST PUSH2 0x56D DUP6 DUP3 PUSH2 0x4F2 JUMP JUMPDEST DUP7 SSTORE POP PUSH2 0x5D4 JUMP JUMPDEST PUSH1 0x1F NOT DUP5 AND PUSH2 0x583 DUP7 PUSH2 0x36D JUMP JUMPDEST PUSH0 JUMPDEST DUP3 DUP2 LT ISZERO PUSH2 0x5AA JUMPI DUP5 DUP10 ADD MLOAD DUP3 SSTORE PUSH1 0x1 DUP3 ADD SWAP2 POP PUSH1 0x20 DUP6 ADD SWAP5 POP PUSH1 0x20 DUP2 ADD SWAP1 POP PUSH2 0x585 JUMP JUMPDEST DUP7 DUP4 LT ISZERO PUSH2 0x5C7 JUMPI DUP5 DUP10 ADD MLOAD PUSH2 0x5C3 PUSH1 0x1F DUP10 AND DUP3 PUSH2 0x4D6 JUMP JUMPDEST DUP4 SSTORE POP JUMPDEST PUSH1 0x1 PUSH1 0x2 DUP9 MUL ADD DUP9 SSTORE POP POP POP JUMPDEST POP POP POP POP POP POP JUMP JUMPDEST PUSH32 0x4E487B7100000000000000000000000000000000000000000000000000000000 PUSH0 MSTORE PUSH1 0x11 PUSH1 0x4 MSTORE PUSH1 0x24 PUSH0 REVERT JUMPDEST PUSH0 PUSH2 0x613 DUP3 PUSH2 0x237 JUMP JUMPDEST SWAP2 POP PUSH2 0x61E DUP4 PUSH2 0x237 JUMP JUMPDEST SWAP3 POP DUP3 DUP3 MUL PUSH2 0x62C DUP2 PUSH2 0x237 JUMP JUMPDEST SWAP2 POP DUP3 DUP3 DIV DUP5 EQ DUP4 ISZERO OR PUSH2 0x643 JUMPI PUSH2 0x642 PUSH2 0x5DC JUMP JUMPDEST JUMPDEST POP SWAP3 SWAP2 POP POP JUMP JUMPDEST PUSH0 PUSH2 0x654 DUP3 PUSH2 0x237 JUMP JUMPDEST SWAP2 POP PUSH2 0x65F DUP4 PUSH2 0x237 JUMP JUMPDEST SWAP3 POP DUP3 DUP3 ADD SWAP1 POP DUP1 DUP3 GT ISZERO PUSH2 0x677 JUMPI PUSH2 0x676 PUSH2 0x5DC JUMP JUMPDEST JUMPDEST SWAP3 SWAP2 POP POP JUMP JUMPDEST PUSH32 0x4E487B7100000000000000000000000000000000000000000000000000000000 PUSH0 MSTORE PUSH1 0x21 PUSH1 0x4 MSTORE PUSH1 0x24 PUSH0 REVERT JUMPDEST PUSH2 0x1766 DUP1 PUSH2 0x6B7 PUSH0 CODECOPY PUSH0 RETURN INVALID PUSH1 0x80 PUSH1 0x40 MSTORE PUSH1 0x4 CALLDATASIZE LT PUSH2 0xA6 JUMPI PUSH0 CALLDATALOAD PUSH1 0xE0 SHR DUP1 PUSH4 0x7284E416 GT PUSH2 0x63 JUMPI DUP1 PUSH4 0x7284E416 EQ PUSH2 0x1A6 JUMPI DUP1 PUSH4 0x7497211B EQ PUSH2 0x1D0 JUMPI DUP1 PUSH4 0x8DA5CB5B EQ PUSH2 0x1F8 JUMPI DUP1 PUSH4 0x8ECE7B91 EQ PUSH2 0x222 JUMPI DUP1 PUSH4 0xC19D93FB EQ PUSH2 0x24A JUMPI DUP1 PUSH4 0xCA1D209D EQ PUSH2 0x274 JUMPI PUSH2 0xA6 JUMP JUMPDEST DUP1 PUSH4 0x39AF9EB EQ PUSH2 0xAA JUMPI DUP1 PUSH4 0x6FDDE03 EQ PUSH2 0xE8 JUMPI DUP1 PUSH4 0x29DCB0CF EQ PUSH2 0x112 JUMPI DUP1 PUSH4 0x3CCFD60B EQ PUSH2 0x13C JUMPI DUP1 PUSH4 0x40193883 EQ PUSH2 0x152 JUMPI DUP1 PUSH4 0x6F9FB98A EQ PUSH2 0x17C JUMPI JUMPDEST PUSH0 PUSH0 REVERT JUMPDEST CALLVALUE DUP1 ISZERO PUSH2 0xB5 JUMPI PUSH0 PUSH0 REVERT JUMPDEST POP PUSH2 0xD0 PUSH1 0x4 DUP1 CALLDATASIZE SUB DUP2 ADD SWAP1 PUSH2 0xCB SWAP2 SWAP1 PUSH2 0xC08 JUMP JUMPDEST PUSH2 0x290 JUMP JUMPDEST PUSH1 0x40 MLOAD PUSH2 0xDF SWAP4 SWAP3 SWAP2 SWAP1 PUSH2 0xCB2 JUMP JUMPDEST PUSH1 0x40 MLOAD DUP1 SWAP2 SUB SWAP1 RETURN JUMPDEST CALLVALUE DUP1 ISZERO PUSH2 0xF3 JUMPI PUSH0 PUSH0 REVERT JUMPDEST POP PUSH2 0xFC PUSH2 0x34B JUMP JUMPDEST PUSH1 0x40 MLOAD PUSH2 0x109 SWAP2 SWAP1 PUSH2 0xCEE JUMP JUMPDEST PUSH1 0x40 MLOAD DUP1 SWAP2 SUB SWAP1 RETURN JUMPDEST CALLVALUE DUP1 ISZERO PUSH2 0x11D JUMPI PUSH0 PUSH0 REVERT JUMPDEST POP PUSH2 0x126 PUSH2 0x3D6 JUMP JUMPDEST PUSH1 0x40 MLOAD PUSH2 0x133 SWAP2 SWAP1 PUSH2 0xD0E JUMP JUMPDEST PUSH1 0x40 MLOAD DUP1 SWAP2 SUB SWAP1 RETURN JUMPDEST CALLVALUE DUP1 ISZERO PUSH2 0x147 JUMPI PUSH0 PUSH0 REVERT JUMPDEST POP PUSH2 0x150 PUSH2 0x3DC JUMP JUMPDEST STOP JUMPDEST CALLVALUE DUP1 ISZERO PUSH2 0x15D JUMPI PUSH0 PUSH0 REVERT JUMPDEST POP PUSH2 0x166 PUSH2 0x597 JUMP JUMPDEST PUSH1 0x40 MLOAD PUSH2 0x173 SWAP2 SWAP1 PUSH2 0xD0E JUMP JUMPDEST PUSH1 0x40 MLOAD DUP1 SWAP2 SUB SWAP1 RETURN JUMPDEST CALLVALUE DUP1 ISZERO PUSH2 0x187 JUMPI PUSH0 PUSH0 REVERT JUMPDEST POP PUSH2 0x190 PUSH2 0x59D JUMP JUMPDEST PUSH1 0x40 MLOAD PUSH2 0x19D SWAP2 SWAP1 PUSH2 0xD0E JUMP JUMPDEST PUSH1 0x40 MLOAD DUP1 SWAP2 SUB SWAP1 RETURN JUMPDEST CALLVALUE DUP1 ISZERO PUSH2 0x1B1 JUMPI PUSH0 PUSH0 REVERT JUMPDEST POP PUSH2 0x1BA PUSH2 0x5A4 JUMP JUMPDEST PUSH1 0x40 MLOAD PUSH2 0x1C7 SWAP2 SWAP1 PUSH2 0xCEE JUMP JUMPDEST PUSH1 0x40 MLOAD DUP1 SWAP2 SUB SWAP1 RETURN JUMPDEST CALLVALUE DUP1 ISZERO PUSH2 0x1DB JUMPI PUSH0 PUSH0 REVERT JUMPDEST POP PUSH2 0x1F6 PUSH1 0x4 DUP1 CALLDATASIZE SUB DUP2 ADD SWAP1 PUSH2 0x1F1 SWAP2 SWAP1 PUSH2 0xC08 JUMP JUMPDEST PUSH2 0x630 JUMP JUMPDEST STOP JUMPDEST CALLVALUE DUP1 ISZERO PUSH2 0x203 JUMPI PUSH0 PUSH0 REVERT JUMPDEST POP PUSH2 0x20C PUSH2 0x7C9 JUMP JUMPDEST PUSH1 0x40 MLOAD PUSH2 0x219 SWAP2 SWAP1 PUSH2 0xD66 JUMP JUMPDEST PUSH1 0x40 MLOAD DUP1 SWAP2 SUB SWAP1 RETURN JUMPDEST CALLVALUE DUP1 ISZERO PUSH2 0x22D JUMPI PUSH0 PUSH0 REVERT JUMPDEST POP PUSH2 0x248 PUSH1 0x4 DUP1 CALLDATASIZE SUB DUP2 ADD SWAP1 PUSH2 0x243 SWAP2 SWAP1 PUSH2 0xEAB JUMP JUMPDEST PUSH2 0x7EE JUMP JUMPDEST STOP JUMPDEST CALLVALUE DUP1 ISZERO PUSH2 0x255 JUMPI PUSH0 PUSH0 REVERT JUMPDEST POP PUSH2 0x25E PUSH2 0x930 JUMP JUMPDEST PUSH1 0x40 MLOAD PUSH2 0x26B SWAP2 SWAP1 PUSH2 0xF78 JUMP JUMPDEST PUSH1 0x40 MLOAD DUP1 SWAP2 SUB SWAP1 RETURN JUMPDEST PUSH2 0x28E PUSH1 0x4 DUP1 CALLDATASIZE SUB DUP2 ADD SWAP1 PUSH2 0x289 SWAP2 SWAP1 PUSH2 0xC08 JUMP JUMPDEST PUSH2 0x943 JUMP JUMPDEST STOP JUMPDEST PUSH1 0x5 DUP2 DUP2 SLOAD DUP2 LT PUSH2 0x29F JUMPI PUSH0 DUP1 REVERT JUMPDEST SWAP1 PUSH0 MSTORE PUSH1 0x20 PUSH0 KECCAK256 SWAP1 PUSH1 0x3 MUL ADD PUSH0 SWAP2 POP SWAP1 POP DUP1 PUSH0 ADD DUP1 SLOAD PUSH2 0x2BE SWAP1 PUSH2 0xFBE JUMP JUMPDEST DUP1 PUSH1 0x1F ADD PUSH1 0x20 DUP1 SWAP2 DIV MUL PUSH1 0x20 ADD PUSH1 0x40 MLOAD SWAP1 DUP2 ADD PUSH1 0x40 MSTORE DUP1 SWAP3 SWAP2 SWAP1 DUP2 DUP2 MSTORE PUSH1 0x20 ADD DUP3 DUP1 SLOAD PUSH2 0x2EA SWAP1 PUSH2 0xFBE JUMP JUMPDEST DUP1 ISZERO PUSH2 0x335 JUMPI DUP1 PUSH1 0x1F LT PUSH2 0x30C JUMPI PUSH2 0x100 DUP1 DUP4 SLOAD DIV MUL DUP4 MSTORE SWAP2 PUSH1 0x20 ADD SWAP2 PUSH2 0x335 JUMP JUMPDEST DUP3 ADD SWAP2 SWAP1 PUSH0 MSTORE PUSH1 0x20 PUSH0 KECCAK256 SWAP1 JUMPDEST DUP2 SLOAD DUP2 MSTORE SWAP1 PUSH1 0x1 ADD SWAP1 PUSH1 0x20 ADD DUP1 DUP4 GT PUSH2 0x318 JUMPI DUP3 SWAP1 SUB PUSH1 0x1F AND DUP3 ADD SWAP2 JUMPDEST POP POP POP POP POP SWAP1 DUP1 PUSH1 0x1 ADD SLOAD SWAP1 DUP1 PUSH1 0x2 ADD SLOAD SWAP1 POP DUP4 JUMP JUMPDEST PUSH0 DUP1 SLOAD PUSH2 0x357 SWAP1 PUSH2 0xFBE JUMP JUMPDEST DUP1 PUSH1 0x1F ADD PUSH1 0x20 DUP1 SWAP2 DIV MUL PUSH1 0x20 ADD PUSH1 0x40 MLOAD SWAP1 DUP2 ADD PUSH1 0x40 MSTORE DUP1 SWAP3 SWAP2 SWAP1 DUP2 DUP2 MSTORE PUSH1 0x20 ADD DUP3 DUP1 SLOAD PUSH2 0x383 SWAP1 PUSH2 0xFBE JUMP JUMPDEST DUP1 ISZERO PUSH2 0x3CE JUMPI DUP1 PUSH1 0x1F LT PUSH2 0x3A5 JUMPI PUSH2 0x100 DUP1 DUP4 SLOAD DIV MUL DUP4 MSTORE SWAP2 PUSH1 0x20 ADD SWAP2 PUSH2 0x3CE JUMP JUMPDEST DUP3 ADD SWAP2 SWAP1 PUSH0 MSTORE PUSH1 0x20 PUSH0 KECCAK256 SWAP1 JUMPDEST DUP2 SLOAD DUP2 MSTORE SWAP1 PUSH1 0x1 ADD SWAP1 PUSH1 0x20 ADD DUP1 DUP4 GT PUSH2 0x3B1 JUMPI DUP3 SWAP1 SUB PUSH1 0x1F AND DUP3 ADD SWAP2 JUMPDEST POP POP POP POP POP DUP2 JUMP JUMPDEST PUSH1 0x3 SLOAD DUP2 JUMP JUMPDEST PUSH1 0x4 PUSH0 SWAP1 SLOAD SWAP1 PUSH2 0x100 EXP SWAP1 DIV PUSH20 0xFFFFFFFFFFFFFFFFFFFFFFFFFFFFFFFFFFFFFFFF AND PUSH20 0xFFFFFFFFFFFFFFFFFFFFFFFFFFFFFFFFFFFFFFFF AND CALLER PUSH20 0xFFFFFFFFFFFFFFFFFFFFFFFFFFFFFFFFFFFFFFFF AND EQ PUSH2 0x46B JUMPI PUSH1 0x40 MLOAD PUSH32 0x8C379A000000000000000000000000000000000000000000000000000000000 DUP2 MSTORE PUSH1 0x4 ADD PUSH2 0x462 SWAP1 PUSH2 0x1038 JUMP JUMPDEST PUSH1 0x40 MLOAD DUP1 SWAP2 SUB SWAP1 REVERT JUMPDEST PUSH2 0x473 PUSH2 0xAA7 JUMP JUMPDEST PUSH1 0x1 PUSH1 0x2 DUP2 GT ISZERO PUSH2 0x487 JUMPI PUSH2 0x486 PUSH2 0xF05 JUMP JUMPDEST JUMPDEST PUSH1 0x4 PUSH1 0x14 SWAP1 SLOAD SWAP1 PUSH2 0x100 EXP SWAP1 DIV PUSH1 0xFF AND PUSH1 0x2 DUP2 GT ISZERO PUSH2 0x4A9 JUMPI PUSH2 0x4A8 PUSH2 0xF05 JUMP JUMPDEST JUMPDEST EQ PUSH2 0x4E9 JUMPI PUSH1 0x40 MLOAD PUSH32 0x8C379A000000000000000000000000000000000000000000000000000000000 DUP2 MSTORE PUSH1 0x4 ADD PUSH2 0x4E0 SWAP1 PUSH2 0x10A0 JUMP JUMPDEST PUSH1 0x40 MLOAD DUP1 SWAP2 SUB SWAP1 REVERT JUMPDEST PUSH0 SELFBALANCE SWAP1 POP PUSH0 DUP2 GT PUSH2 0x52F JUMPI PUSH1 0x40 MLOAD PUSH32 0x8C379A000000000000000000000000000000000000000000000000000000000 DUP2 MSTORE PUSH1 0x4 ADD PUSH2 0x526 SWAP1 PUSH2 0x1108 JUMP JUMPDEST PUSH1 0x40 MLOAD DUP1 SWAP2 SUB SWAP1 REVERT JUMPDEST PUSH1 0x4 PUSH0 SWAP1 SLOAD SWAP1 PUSH2 0x100 EXP SWAP1 DIV PUSH20 0xFFFFFFFFFFFFFFFFFFFFFFFFFFFFFFFFFFFFFFFF AND PUSH20 0xFFFFFFFFFFFFFFFFFFFFFFFFFFFFFFFFFFFFFFFF AND PUSH2 0x8FC DUP3 SWAP1 DUP2 ISZERO MUL SWAP1 PUSH1 0x40 MLOAD PUSH0 PUSH1 0x40 MLOAD DUP1 DUP4 SUB DUP2 DUP6 DUP9 DUP9 CALL SWAP4 POP POP POP POP ISZERO DUP1 ISZERO PUSH2 0x593 JUMPI RETURNDATASIZE PUSH0 PUSH0 RETURNDATACOPY RETURNDATASIZE PUSH0 REVERT JUMPDEST POP POP JUMP JUMPDEST PUSH1 0x2 SLOAD DUP2 JUMP JUMPDEST PUSH0 SELFBALANCE SWAP1 POP SWAP1 JUMP JUMPDEST PUSH1 0x1 DUP1 SLOAD PUSH2 0x5B1 SWAP1 PUSH2 0xFBE JUMP JUMPDEST DUP1 PUSH1 0x1F ADD PUSH1 0x20 DUP1 SWAP2 DIV MUL PUSH1 0x20 ADD PUSH1 0x40 MLOAD SWAP1 DUP2 ADD PUSH1 0x40 MSTORE DUP1 SWAP3 SWAP2 SWAP1 DUP2 DUP2 MSTORE PUSH1 0x20 ADD DUP3 DUP1 SLOAD PUSH2 0x5DD SWAP1 PUSH2 0xFBE JUMP JUMPDEST DUP1 ISZERO PUSH2 0x628 JUMPI DUP1 PUSH1 0x1F LT PUSH2 0x5FF JUMPI PUSH2 0x100 DUP1 DUP4 SLOAD DIV MUL DUP4 MSTORE SWAP2 PUSH1 0x20 ADD SWAP2 PUSH2 0x628 JUMP JUMPDEST DUP3 ADD SWAP2 SWAP1 PUSH0 MSTORE PUSH1 0x20 PUSH0 KECCAK256 SWAP1 JUMPDEST DUP2 SLOAD DUP2 MSTORE SWAP1 PUSH1 0x1 ADD SWAP1 PUSH1 0x20 ADD DUP1 DUP4 GT PUSH2 0x60B JUMPI DUP3 SWAP1 SUB PUSH1 0x1F AND DUP3 ADD SWAP2 JUMPDEST POP POP POP POP POP DUP2 JUMP JUMPDEST PUSH1 0x4 PUSH0 SWAP1 SLOAD SWAP1 PUSH2 0x100 EXP SWAP1 DIV PUSH20 0xFFFFFFFFFFFFFFFFFFFFFFFFFFFFFFFFFFFFFFFF AND PUSH20 0xFFFFFFFFFFFFFFFFFFFFFFFFFFFFFFFFFFFFFFFF AND CALLER PUSH20 0xFFFFFFFFFFFFFFFFFFFFFFFFFFFFFFFFFFFFFFFF AND EQ PUSH2 0x6BF JUMPI PUSH1 0x40 MLOAD PUSH32 0x8C379A000000000000000000000000000000000000000000000000000000000 DUP2 MSTORE PUSH1 0x4 ADD PUSH2 0x6B6 SWAP1 PUSH2 0x1038 JUMP JUMPDEST PUSH1 0x40 MLOAD DUP1 SWAP2 SUB SWAP1 REVERT JUMPDEST PUSH1 0x5 DUP1 SLOAD SWAP1 POP DUP2 LT PUSH2 0x706 JUMPI PUSH1 0x40 MLOAD PUSH32 0x8C379A000000000000000000000000000000000000000000000000000000000 DUP2 MSTORE PUSH1 0x4 ADD PUSH2 0x6FD SWAP1 PUSH2 0x1170 JUMP JUMPDEST PUSH1 0x40 MLOAD DUP1 SWAP2 SUB SWAP1 REVERT JUMPDEST PUSH1 0x5 PUSH1 0x1 PUSH1 0x5 DUP1 SLOAD SWAP1 POP PUSH2 0x71A SWAP2 SWAP1 PUSH2 0x11BB JUMP JUMPDEST DUP2 SLOAD DUP2 LT PUSH2 0x72B JUMPI PUSH2 0x72A PUSH2 0x11EE JUMP JUMPDEST JUMPDEST SWAP1 PUSH0 MSTORE PUSH1 0x20 PUSH0 KECCAK256 SWAP1 PUSH1 0x3 MUL ADD PUSH1 0x5 DUP3 DUP2 SLOAD DUP2 LT PUSH2 0x74B JUMPI PUSH2 0x74A PUSH2 0x11EE JUMP JUMPDEST JUMPDEST SWAP1 PUSH0 MSTORE PUSH1 0x20 PUSH0 KECCAK256 SWAP1 PUSH1 0x3 MUL ADD PUSH0 DUP3 ADD DUP2 PUSH0 ADD SWAP1 DUP2 PUSH2 0x769 SWAP2 SWAP1 PUSH2 0x13D0 JUMP JUMPDEST POP PUSH1 0x1 DUP3 ADD SLOAD DUP2 PUSH1 0x1 ADD SSTORE PUSH1 0x2 DUP3 ADD SLOAD DUP2 PUSH1 0x2 ADD SSTORE SWAP1 POP POP PUSH1 0x5 DUP1 SLOAD DUP1 PUSH2 0x793 JUMPI PUSH2 0x792 PUSH2 0x14B5 JUMP JUMPDEST JUMPDEST PUSH1 0x1 SWAP1 SUB DUP2 DUP2 SWAP1 PUSH0 MSTORE PUSH1 0x20 PUSH0 KECCAK256 SWAP1 PUSH1 0x3 MUL ADD PUSH0 PUSH0 DUP3 ADD PUSH0 PUSH2 0x7B4 SWAP2 SWAP1 PUSH2 0xB6C JUMP JUMPDEST PUSH1 0x1 DUP3 ADD PUSH0 SWAP1 SSTORE PUSH1 0x2 DUP3 ADD PUSH0 SWAP1 SSTORE POP POP SWAP1 SSTORE POP JUMP JUMPDEST PUSH1 0x4 PUSH0 SWAP1 SLOAD SWAP1 PUSH2 0x100 EXP SWAP1 DIV PUSH20 0xFFFFFFFFFFFFFFFFFFFFFFFFFFFFFFFFFFFFFFFF AND DUP2 JUMP JUMPDEST PUSH1 0x4 PUSH0 SWAP1 SLOAD SWAP1 PUSH2 0x100 EXP SWAP1 DIV PUSH20 0xFFFFFFFFFFFFFFFFFFFFFFFFFFFFFFFFFFFFFFFF AND PUSH20 0xFFFFFFFFFFFFFFFFFFFFFFFFFFFFFFFFFFFFFFFF AND CALLER PUSH20 0xFFFFFFFFFFFFFFFFFFFFFFFFFFFFFFFFFFFFFFFF AND EQ PUSH2 0x87D JUMPI PUSH1 0x40 MLOAD PUSH32 0x8C379A000000000000000000000000000000000000000000000000000000000 DUP2 MSTORE PUSH1 0x4 ADD PUSH2 0x874 SWAP1 PUSH2 0x1038 JUMP JUMPDEST PUSH1 0x40 MLOAD DUP1 SWAP2 SUB SWAP1 REVERT JUMPDEST PUSH0 DUP2 GT PUSH2 0x8BF JUMPI PUSH1 0x40 MLOAD PUSH32 0x8C379A000000000000000000000000000000000000000000000000000000000 DUP2 MSTORE PUSH1 0x4 ADD PUSH2 0x8B6 SWAP1 PUSH2 0x152C JUMP JUMPDEST PUSH1 0x40 MLOAD DUP1 SWAP2 SUB SWAP1 REVERT JUMPDEST PUSH1 0x5 PUSH1 0x40 MLOAD DUP1 PUSH1 0x60 ADD PUSH1 0x40 MSTORE DUP1 DUP5 DUP2 MSTORE PUSH1 0x20 ADD DUP4 DUP2 MSTORE PUSH1 0x20 ADD PUSH0 DUP2 MSTORE POP SWAP1 DUP1 PUSH1 0x1 DUP2 SLOAD ADD DUP1 DUP3 SSTORE DUP1 SWAP2 POP POP PUSH1 0x1 SWAP1 SUB SWAP1 PUSH0 MSTORE PUSH1 0x20 PUSH0 KECCAK256 SWAP1 PUSH1 0x3 MUL ADD PUSH0 SWAP1 SWAP2 SWAP1 SWAP2 SWAP1 SWAP2 POP PUSH0 DUP3 ADD MLOAD DUP2 PUSH0 ADD SWAP1 DUP2 PUSH2 0x915 SWAP2 SWAP1 PUSH2 0x154A JUMP JUMPDEST POP PUSH1 0x20 DUP3 ADD MLOAD DUP2 PUSH1 0x1 ADD SSTORE PUSH1 0x40 DUP3 ADD MLOAD DUP2 PUSH1 0x2 ADD SSTORE POP POP POP POP JUMP JUMPDEST PUSH1 0x4 PUSH1 0x14 SWAP1 SLOAD SWAP1 PUSH2 0x100 EXP SWAP1 DIV PUSH1 0xFF AND DUP2 JUMP JUMPDEST PUSH0 PUSH1 0x2 DUP2 GT ISZERO PUSH2 0x956 JUMPI PUSH2 0x955 PUSH2 0xF05 JUMP JUMPDEST JUMPDEST PUSH1 0x4 PUSH1 0x14 SWAP1 SLOAD SWAP1 PUSH2 0x100 EXP SWAP1 DIV PUSH1 0xFF AND PUSH1 0x2 DUP2 GT ISZERO PUSH2 0x978 JUMPI PUSH2 0x977 PUSH2 0xF05 JUMP JUMPDEST JUMPDEST EQ PUSH2 0x9B8 JUMPI PUSH1 0x40 MLOAD PUSH32 0x8C379A000000000000000000000000000000000000000000000000000000000 DUP2 MSTORE PUSH1 0x4 ADD PUSH2 0x9AF SWAP1 PUSH2 0x1663 JUMP JUMPDEST PUSH1 0x40 MLOAD DUP1 SWAP2 SUB SWAP1 REVERT JUMPDEST PUSH1 0x5 DUP1 SLOAD SWAP1 POP DUP2 LT PUSH2 0x9FF JUMPI PUSH1 0x40 MLOAD PUSH32 0x8C379A000000000000000000000000000000000000000000000000000000000 DUP2 MSTORE PUSH1 0x4 ADD PUSH2 0x9F6 SWAP1 PUSH2 0x1170 JUMP JUMPDEST PUSH1 0x40 MLOAD DUP1 SWAP2 SUB SWAP1 REVERT JUMPDEST PUSH1 0x5 DUP2 DUP2 SLOAD DUP2 LT PUSH2 0xA13 JUMPI PUSH2 0xA12 PUSH2 0x11EE JUMP JUMPDEST JUMPDEST SWAP1 PUSH0 MSTORE PUSH1 0x20 PUSH0 KECCAK256 SWAP1 PUSH1 0x3 MUL ADD PUSH1 0x1 ADD SLOAD CALLVALUE EQ PUSH2 0xA64 JUMPI PUSH1 0x40 MLOAD PUSH32 0x8C379A000000000000000000000000000000000000000000000000000000000 DUP2 MSTORE PUSH1 0x4 ADD PUSH2 0xA5B SWAP1 PUSH2 0x16CB JUMP JUMPDEST PUSH1 0x40 MLOAD DUP1 SWAP2 SUB SWAP1 REVERT JUMPDEST PUSH1 0x5 DUP2 DUP2 SLOAD DUP2 LT PUSH2 0xA78 JUMPI PUSH2 0xA77 PUSH2 0x11EE JUMP JUMPDEST JUMPDEST SWAP1 PUSH0 MSTORE PUSH1 0x20 PUSH0 KECCAK256 SWAP1 PUSH1 0x3 MUL ADD PUSH1 0x2 ADD PUSH0 DUP2 SLOAD DUP1 SWAP3 SWAP2 SWAP1 PUSH2 0xA97 SWAP1 PUSH2 0x16E9 JUMP JUMPDEST SWAP2 SWAP1 POP SSTORE POP PUSH2 0xAA4 PUSH2 0xAA7 JUMP JUMPDEST POP JUMP JUMPDEST PUSH0 PUSH1 0x2 DUP2 GT ISZERO PUSH2 0xABA JUMPI PUSH2 0xAB9 PUSH2 0xF05 JUMP JUMPDEST JUMPDEST PUSH1 0x4 PUSH1 0x14 SWAP1 SLOAD SWAP1 PUSH2 0x100 EXP SWAP1 DIV PUSH1 0xFF AND PUSH1 0x2 DUP2 GT ISZERO PUSH2 0xADC JUMPI PUSH2 0xADB PUSH2 0xF05 JUMP JUMPDEST JUMPDEST SUB PUSH2 0xB6A JUMPI PUSH1 0x3 SLOAD TIMESTAMP LT PUSH2 0xB2C JUMPI PUSH1 0x2 SLOAD SELFBALANCE LT ISZERO PUSH2 0xAFB JUMPI PUSH1 0x2 PUSH2 0xAFE JUMP JUMPDEST PUSH1 0x1 JUMPDEST PUSH1 0x4 PUSH1 0x14 PUSH2 0x100 EXP DUP2 SLOAD DUP2 PUSH1 0xFF MUL NOT AND SWAP1 DUP4 PUSH1 0x2 DUP2 GT ISZERO PUSH2 0xB22 JUMPI PUSH2 0xB21 PUSH2 0xF05 JUMP JUMPDEST JUMPDEST MUL OR SWAP1 SSTORE POP PUSH2 0xB69 JUMP JUMPDEST PUSH1 0x2 SLOAD SELFBALANCE LT ISZERO PUSH2 0xB3C JUMPI PUSH0 PUSH2 0xB3F JUMP JUMPDEST PUSH1 0x1 JUMPDEST PUSH1 0x4 PUSH1 0x14 PUSH2 0x100 EXP DUP2 SLOAD DUP2 PUSH1 0xFF MUL NOT AND SWAP1 DUP4 PUSH1 0x2 DUP2 GT ISZERO PUSH2 0xB63 JUMPI PUSH2 0xB62 PUSH2 0xF05 JUMP JUMPDEST JUMPDEST MUL OR SWAP1 SSTORE POP JUMPDEST JUMPDEST JUMP JUMPDEST POP DUP1 SLOAD PUSH2 0xB78 SWAP1 PUSH2 0xFBE JUMP JUMPDEST PUSH0 DUP3 SSTORE DUP1 PUSH1 0x1F LT PUSH2 0xB89 JUMPI POP PUSH2 0xBA6 JUMP JUMPDEST PUSH1 0x1F ADD PUSH1 0x20 SWAP1 DIV SWAP1 PUSH0 MSTORE PUSH1 0x20 PUSH0 KECCAK256 SWAP1 DUP2 ADD SWAP1 PUSH2 0xBA5 SWAP2 SWAP1 PUSH2 0xBA9 JUMP JUMPDEST JUMPDEST POP JUMP JUMPDEST JUMPDEST DUP1 DUP3 GT ISZERO PUSH2 0xBC0 JUMPI PUSH0 DUP2 PUSH0 SWAP1 SSTORE POP PUSH1 0x1 ADD PUSH2 0xBAA JUMP JUMPDEST POP SWAP1 JUMP JUMPDEST PUSH0 PUSH1 0x40 MLOAD SWAP1 POP SWAP1 JUMP JUMPDEST PUSH0 PUSH0 REVERT JUMPDEST PUSH0 PUSH0 REVERT JUMPDEST PUSH0 DUP2 SWAP1 POP SWAP2 SWAP1 POP JUMP JUMPDEST PUSH2 0xBE7 DUP2 PUSH2 0xBD5 JUMP JUMPDEST DUP2 EQ PUSH2 0xBF1 JUMPI PUSH0 PUSH0 REVERT JUMPDEST POP JUMP JUMPDEST PUSH0 DUP2 CALLDATALOAD SWAP1 POP PUSH2 0xC02 DUP2 PUSH2 0xBDE JUMP JUMPDEST SWAP3 SWAP2 POP POP JUMP JUMPDEST PUSH0 PUSH1 0x20 DUP3 DUP5 SUB SLT ISZERO PUSH2 0xC1D JUMPI PUSH2 0xC1C PUSH2 0xBCD JUMP JUMPDEST JUMPDEST PUSH0 PUSH2 0xC2A DUP5 DUP3 DUP6 ADD PUSH2 0xBF4 JUMP JUMPDEST SWAP2 POP POP SWAP3 SWAP2 POP POP JUMP JUMPDEST PUSH0 DUP2 MLOAD SWAP1 POP SWAP2 SWAP1 POP JUMP JUMPDEST PUSH0 DUP3 DUP3 MSTORE PUSH1 0x20 DUP3 ADD SWAP1 POP SWAP3 SWAP2 POP POP JUMP JUMPDEST DUP3 DUP2 DUP4 MCOPY PUSH0 DUP4 DUP4 ADD MSTORE POP POP POP JUMP JUMPDEST PUSH0 PUSH1 0x1F NOT PUSH1 0x1F DUP4 ADD AND SWAP1 POP SWAP2 SWAP1 POP JUMP JUMPDEST PUSH0 PUSH2 0xC75 DUP3 PUSH2 0xC33 JUMP JUMPDEST PUSH2 0xC7F DUP2 DUP6 PUSH2 0xC3D JUMP JUMPDEST SWAP4 POP PUSH2 0xC8F DUP2 DUP6 PUSH1 0x20 DUP7 ADD PUSH2 0xC4D JUMP JUMPDEST PUSH2 0xC98 DUP2 PUSH2 0xC5B JUMP JUMPDEST DUP5 ADD SWAP2 POP POP SWAP3 SWAP2 POP POP JUMP JUMPDEST PUSH2 0xCAC DUP2 PUSH2 0xBD5 JUMP JUMPDEST DUP3 MSTORE POP POP JUMP JUMPDEST PUSH0 PUSH1 0x60 DUP3 ADD SWAP1 POP DUP2 DUP2 SUB PUSH0 DUP4 ADD MSTORE PUSH2 0xCCA DUP2 DUP7 PUSH2 0xC6B JUMP JUMPDEST SWAP1 POP PUSH2 0xCD9 PUSH1 0x20 DUP4 ADD DUP6 PUSH2 0xCA3 JUMP JUMPDEST PUSH2 0xCE6 PUSH1 0x40 DUP4 ADD DUP5 PUSH2 0xCA3 JUMP JUMPDEST SWAP5 SWAP4 POP POP POP POP JUMP JUMPDEST PUSH0 PUSH1 0x20 DUP3 ADD SWAP1 POP DUP2 DUP2 SUB PUSH0 DUP4 ADD MSTORE PUSH2 0xD06 DUP2 DUP5 PUSH2 0xC6B JUMP JUMPDEST SWAP1 POP SWAP3 SWAP2 POP POP JUMP JUMPDEST PUSH0 PUSH1 0x20 DUP3 ADD SWAP1 POP PUSH2 0xD21 PUSH0 DUP4 ADD DUP5 PUSH2 0xCA3 JUMP JUMPDEST SWAP3 SWAP2 POP POP JUMP JUMPDEST PUSH0 PUSH20 0xFFFFFFFFFFFFFFFFFFFFFFFFFFFFFFFFFFFFFFFF DUP3 AND SWAP1 POP SWAP2 SWAP1 POP JUMP JUMPDEST PUSH0 PUSH2 0xD50 DUP3 PUSH2 0xD27 JUMP JUMPDEST SWAP1 POP SWAP2 SWAP1 POP JUMP JUMPDEST PUSH2 0xD60 DUP2 PUSH2 0xD46 JUMP JUMPDEST DUP3 MSTORE POP POP JUMP JUMPDEST PUSH0 PUSH1 0x20 DUP3 ADD SWAP1 POP PUSH2 0xD79 PUSH0 DUP4 ADD DUP5 PUSH2 0xD57 JUMP JUMPDEST SWAP3 SWAP2 POP POP JUMP JUMPDEST PUSH0 PUSH0 REVERT JUMPDEST PUSH0 PUSH0 REVERT JUMPDEST PUSH32 0x4E487B7100000000000000000000000000000000000000000000000000000000 PUSH0 MSTORE PUSH1 0x41 PUSH1 0x4 MSTORE PUSH1 0x24 PUSH0 REVERT JUMPDEST PUSH2 0xDBD DUP3 PUSH2 0xC5B JUMP JUMPDEST DUP2 ADD DUP2 DUP2 LT PUSH8 0xFFFFFFFFFFFFFFFF DUP3 GT OR ISZERO PUSH2 0xDDC JUMPI PUSH2 0xDDB PUSH2 0xD87 JUMP JUMPDEST JUMPDEST DUP1 PUSH1 0x40 MSTORE POP POP POP JUMP JUMPDEST PUSH0 PUSH2 0xDEE PUSH2 0xBC4 JUMP JUMPDEST SWAP1 POP PUSH2 0xDFA DUP3 DUP3 PUSH2 0xDB4 JUMP JUMPDEST SWAP2 SWAP1 POP JUMP JUMPDEST PUSH0 PUSH8 0xFFFFFFFFFFFFFFFF DUP3 GT ISZERO PUSH2 0xE19 JUMPI PUSH2 0xE18 PUSH2 0xD87 JUMP JUMPDEST JUMPDEST PUSH2 0xE22 DUP3 PUSH2 0xC5B JUMP JUMPDEST SWAP1 POP PUSH1 0x20 DUP2 ADD SWAP1 POP SWAP2 SWAP1 POP JUMP JUMPDEST DUP3 DUP2 DUP4 CALLDATACOPY PUSH0 DUP4 DUP4 ADD MSTORE POP POP POP JUMP JUMPDEST PUSH0 PUSH2 0xE4F PUSH2 0xE4A DUP5 PUSH2 0xDFF JUMP JUMPDEST PUSH2 0xDE5 JUMP JUMPDEST SWAP1 POP DUP3 DUP2 MSTORE PUSH1 0x20 DUP2 ADD DUP5 DUP5 DUP5 ADD GT ISZERO PUSH2 0xE6B JUMPI PUSH2 0xE6A PUSH2 0xD83 JUMP JUMPDEST JUMPDEST PUSH2 0xE76 DUP5 DUP3 DUP6 PUSH2 0xE2F JUMP JUMPDEST POP SWAP4 SWAP3 POP POP POP JUMP JUMPDEST PUSH0 DUP3 PUSH1 0x1F DUP4 ADD SLT PUSH2 0xE92 JUMPI PUSH2 0xE91 PUSH2 0xD7F JUMP JUMPDEST JUMPDEST DUP2 CALLDATALOAD PUSH2 0xEA2 DUP5 DUP3 PUSH1 0x20 DUP7 ADD PUSH2 0xE3D JUMP JUMPDEST SWAP2 POP POP SWAP3 SWAP2 POP POP JUMP JUMPDEST PUSH0 PUSH0 PUSH1 0x40 DUP4 DUP6 SUB SLT ISZERO PUSH2 0xEC1 JUMPI PUSH2 0xEC0 PUSH2 0xBCD JUMP JUMPDEST JUMPDEST PUSH0 DUP4 ADD CALLDATALOAD PUSH8 0xFFFFFFFFFFFFFFFF DUP2 GT ISZERO PUSH2 0xEDE JUMPI PUSH2 0xEDD PUSH2 0xBD1 JUMP JUMPDEST JUMPDEST PUSH2 0xEEA DUP6 DUP3 DUP7 ADD PUSH2 0xE7E JUMP JUMPDEST SWAP3 POP POP PUSH1 0x20 PUSH2 0xEFB DUP6 DUP3 DUP7 ADD PUSH2 0xBF4 JUMP JUMPDEST SWAP2 POP POP SWAP3 POP SWAP3 SWAP1 POP JUMP JUMPDEST PUSH32 0x4E487B7100000000000000000000000000000000000000000000000000000000 PUSH0 MSTORE PUSH1 0x21 PUSH1 0x4 MSTORE PUSH1 0x24 PUSH0 REVERT JUMPDEST PUSH1 0x3 DUP2 LT PUSH2 0xF43 JUMPI PUSH2 0xF42 PUSH2 0xF05 JUMP JUMPDEST JUMPDEST POP JUMP JUMPDEST PUSH0 DUP2 SWAP1 POP PUSH2 0xF53 DUP3 PUSH2 0xF32 JUMP JUMPDEST SWAP2 SWAP1 POP JUMP JUMPDEST PUSH0 PUSH2 0xF62 DUP3 PUSH2 0xF46 JUMP JUMPDEST SWAP1 POP SWAP2 SWAP1 POP JUMP JUMPDEST PUSH2 0xF72 DUP2 PUSH2 0xF58 JUMP JUMPDEST DUP3 MSTORE POP POP JUMP JUMPDEST PUSH0 PUSH1 0x20 DUP3 ADD SWAP1 POP PUSH2 0xF8B PUSH0 DUP4 ADD DUP5 PUSH2 0xF69 JUMP JUMPDEST SWAP3 SWAP2 POP POP JUMP JUMPDEST PUSH32 0x4E487B7100000000000000000000000000000000000000000000000000000000 PUSH0 MSTORE PUSH1 0x22 PUSH1 0x4 MSTORE PUSH1 0x24 PUSH0 REVERT JUMPDEST PUSH0 PUSH1 0x2 DUP3 DIV SWAP1 POP PUSH1 0x1 DUP3 AND DUP1 PUSH2 0xFD5 JUMPI PUSH1 0x7F DUP3 AND SWAP2 POP JUMPDEST PUSH1 0x20 DUP3 LT DUP2 SUB PUSH2 0xFE8 JUMPI PUSH2 0xFE7 PUSH2 0xF91 JUMP JUMPDEST JUMPDEST POP SWAP2 SWAP1 POP JUMP JUMPDEST PUSH32 0x596F7520617265206E6F7420746865206F776E65720000000000000000000000 PUSH0 DUP3 ADD MSTORE POP JUMP JUMPDEST PUSH0 PUSH2 0x1022 PUSH1 0x15 DUP4 PUSH2 0xC3D JUMP JUMPDEST SWAP2 POP PUSH2 0x102D DUP3 PUSH2 0xFEE JUMP JUMPDEST PUSH1 0x20 DUP3 ADD SWAP1 POP SWAP2 SWAP1 POP JUMP JUMPDEST PUSH0 PUSH1 0x20 DUP3 ADD SWAP1 POP DUP2 DUP2 SUB PUSH0 DUP4 ADD MSTORE PUSH2 0x104F DUP2 PUSH2 0x1016 JUMP JUMPDEST SWAP1 POP SWAP2 SWAP1 POP JUMP JUMPDEST PUSH32 0x43616D706169676E206E6F74207375636365737366756C207965740000000000 PUSH0 DUP3 ADD MSTORE POP JUMP JUMPDEST PUSH0 PUSH2 0x108A PUSH1 0x1B DUP4 PUSH2 0xC3D JUMP JUMPDEST SWAP2 POP PUSH2 0x1095 DUP3 PUSH2 0x1056 JUMP JUMPDEST PUSH1 0x20 DUP3 ADD SWAP1 POP SWAP2 SWAP1 POP JUMP JUMPDEST PUSH0 PUSH1 0x20 DUP3 ADD SWAP1 POP DUP2 DUP2 SUB PUSH0 DUP4 ADD MSTORE PUSH2 0x10B7 DUP2 PUSH2 0x107E JUMP JUMPDEST SWAP1 POP SWAP2 SWAP1 POP JUMP JUMPDEST PUSH32 0x4E6F2062616C616E636520746F20776974686472617721000000000000000000 PUSH0 DUP3 ADD MSTORE POP JUMP JUMPDEST PUSH0 PUSH2 0x10F2 PUSH1 0x17 DUP4 PUSH2 0xC3D JUMP JUMPDEST SWAP2 POP PUSH2 0x10FD DUP3 PUSH2 0x10BE JUMP JUMPDEST PUSH1 0x20 DUP3 ADD SWAP1 POP SWAP2 SWAP1 POP JUMP JUMPDEST PUSH0 PUSH1 0x20 DUP3 ADD SWAP1 POP DUP2 DUP2 SUB PUSH0 DUP4 ADD MSTORE PUSH2 0x111F DUP2 PUSH2 0x10E6 JUMP JUMPDEST SWAP1 POP SWAP2 SWAP1 POP JUMP JUMPDEST PUSH32 0x5469657220646F6573206E6F7420657869737421000000000000000000000000 PUSH0 DUP3 ADD MSTORE POP JUMP JUMPDEST PUSH0 PUSH2 0x115A PUSH1 0x14 DUP4 PUSH2 0xC3D JUMP JUMPDEST SWAP2 POP PUSH2 0x1165 DUP3 PUSH2 0x1126 JUMP JUMPDEST PUSH1 0x20 DUP3 ADD SWAP1 POP SWAP2 SWAP1 POP JUMP JUMPDEST PUSH0 PUSH1 0x20 DUP3 ADD SWAP1 POP DUP2 DUP2 SUB PUSH0 DUP4 ADD MSTORE PUSH2 0x1187 DUP2 PUSH2 0x114E JUMP JUMPDEST SWAP1 POP SWAP2 SWAP1 POP JUMP JUMPDEST PUSH32 0x4E487B7100000000000000000000000000000000000000000000000000000000 PUSH0 MSTORE PUSH1 0x11 PUSH1 0x4 MSTORE PUSH1 0x24 PUSH0 REVERT JUMPDEST PUSH0 PUSH2 0x11C5 DUP3 PUSH2 0xBD5 JUMP JUMPDEST SWAP2 POP PUSH2 0x11D0 DUP4 PUSH2 0xBD5 JUMP JUMPDEST SWAP3 POP DUP3 DUP3 SUB SWAP1 POP DUP2 DUP2 GT ISZERO PUSH2 0x11E8 JUMPI PUSH2 0x11E7 PUSH2 0x118E JUMP JUMPDEST JUMPDEST SWAP3 SWAP2 POP POP JUMP JUMPDEST PUSH32 0x4E487B7100000000000000000000000000000000000000000000000000000000 PUSH0 MSTORE PUSH1 0x32 PUSH1 0x4 MSTORE PUSH1 0x24 PUSH0 REVERT JUMPDEST PUSH0 DUP2 SLOAD SWAP1 POP PUSH2 0x1229 DUP2 PUSH2 0xFBE JUMP JUMPDEST SWAP1 POP SWAP2 SWAP1 POP JUMP JUMPDEST PUSH0 DUP2 SWAP1 POP DUP2 PUSH0 MSTORE PUSH1 0x20 PUSH0 KECCAK256 SWAP1 POP SWAP2 SWAP1 POP JUMP JUMPDEST PUSH0 PUSH1 0x20 PUSH1 0x1F DUP4 ADD DIV SWAP1 POP SWAP2 SWAP1 POP JUMP JUMPDEST PUSH0 DUP3 DUP3 SHL SWAP1 POP SWAP3 SWAP2 POP POP JUMP JUMPDEST PUSH0 PUSH1 0x8 DUP4 MUL PUSH2 0x128C PUSH32 0xFFFFFFFFFFFFFFFFFFFFFFFFFFFFFFFFFFFFFFFFFFFFFFFFFFFFFFFFFFFFFFFF DUP3 PUSH2 0x1251 JUMP JUMPDEST PUSH2 0x1296 DUP7 DUP4 PUSH2 0x1251 JUMP JUMPDEST SWAP6 POP DUP1 NOT DUP5 AND SWAP4 POP DUP1 DUP7 AND DUP5 OR SWAP3 POP POP POP SWAP4 SWAP3 POP POP POP JUMP JUMPDEST PUSH0 DUP2 SWAP1 POP SWAP2 SWAP1 POP JUMP JUMPDEST PUSH0 PUSH2 0x12D1 PUSH2 0x12CC PUSH2 0x12C7 DUP5 PUSH2 0xBD5 JUMP JUMPDEST PUSH2 0x12AE JUMP JUMPDEST PUSH2 0xBD5 JUMP JUMPDEST SWAP1 POP SWAP2 SWAP1 POP JUMP JUMPDEST PUSH0 DUP2 SWAP1 POP SWAP2 SWAP1 POP JUMP JUMPDEST PUSH2 0x12EA DUP4 PUSH2 0x12B7 JUMP JUMPDEST PUSH2 0x12FE PUSH2 0x12F6 DUP3 PUSH2 0x12D8 JUMP JUMPDEST DUP5 DUP5 SLOAD PUSH2 0x125D JUMP JUMPDEST DUP3 SSTORE POP POP POP POP JUMP JUMPDEST PUSH0 PUSH0 SWAP1 POP SWAP1 JUMP JUMPDEST PUSH2 0x1315 PUSH2 0x1306 JUMP JUMPDEST PUSH2 0x1320 DUP2 DUP5 DUP5 PUSH2 0x12E1 JUMP JUMPDEST POP POP POP JUMP JUMPDEST JUMPDEST DUP2 DUP2 LT ISZERO PUSH2 0x1343 JUMPI PUSH2 0x1338 PUSH0 DUP3 PUSH2 0x130D JUMP JUMPDEST PUSH1 0x1 DUP2 ADD SWAP1 POP PUSH2 0x1326 JUMP JUMPDEST POP POP JUMP JUMPDEST PUSH1 0x1F DUP3 GT ISZERO PUSH2 0x1388 JUMPI PUSH2 0x1359 DUP2 PUSH2 0x1230 JUMP JUMPDEST PUSH2 0x1362 DUP5 PUSH2 0x1242 JUMP JUMPDEST DUP2 ADD PUSH1 0x20 DUP6 LT ISZERO PUSH2 0x1371 JUMPI DUP2 SWAP1 POP JUMPDEST PUSH2 0x1385 PUSH2 0x137D DUP6 PUSH2 0x1242 JUMP JUMPDEST DUP4 ADD DUP3 PUSH2 0x1325 JUMP JUMPDEST POP POP JUMPDEST POP POP POP JUMP JUMPDEST PUSH0 DUP3 DUP3 SHR SWAP1 POP SWAP3 SWAP2 POP POP JUMP JUMPDEST PUSH0 PUSH2 0x13A8 PUSH0 NOT DUP5 PUSH1 0x8 MUL PUSH2 0x138D JUMP JUMPDEST NOT DUP1 DUP4 AND SWAP2 POP POP SWAP3 SWAP2 POP POP JUMP JUMPDEST PUSH0 PUSH2 0x13C0 DUP4 DUP4 PUSH2 0x1399 JUMP JUMPDEST SWAP2 POP DUP3 PUSH1 0x2 MUL DUP3 OR SWAP1 POP SWAP3 SWAP2 POP POP JUMP JUMPDEST DUP2 DUP2 SUB PUSH2 0x13DE JUMPI POP POP PUSH2 0x14B3 JUMP JUMPDEST PUSH2 0x13E7 DUP3 PUSH2 0x121B JUMP JUMPDEST PUSH8 0xFFFFFFFFFFFFFFFF DUP2 GT ISZERO PUSH2 0x1400 JUMPI PUSH2 0x13FF PUSH2 0xD87 JUMP JUMPDEST JUMPDEST PUSH2 0x140A DUP3 SLOAD PUSH2 0xFBE JUMP JUMPDEST PUSH2 0x1415 DUP3 DUP3 DUP6 PUSH2 0x1347 JUMP JUMPDEST PUSH0 PUSH1 0x1F DUP4 GT PUSH1 0x1 DUP2 EQ PUSH2 0x1442 JUMPI PUSH0 DUP5 ISZERO PUSH2 0x1430 JUMPI DUP3 DUP8 ADD SLOAD SWAP1 POP JUMPDEST PUSH2 0x143A DUP6 DUP3 PUSH2 0x13B5 JUMP JUMPDEST DUP7 SSTORE POP PUSH2 0x14AC JUMP JUMPDEST PUSH1 0x1F NOT DUP5 AND PUSH2 0x1450 DUP8 PUSH2 0x1230 JUMP JUMPDEST SWAP7 POP PUSH2 0x145B DUP7 PUSH2 0x1230 JUMP JUMPDEST PUSH0 JUMPDEST DUP3 DUP2 LT ISZERO PUSH2 0x1482 JUMPI DUP5 DUP10 ADD SLOAD DUP3 SSTORE PUSH1 0x1 DUP3 ADD SWAP2 POP PUSH1 0x1 DUP6 ADD SWAP5 POP PUSH1 0x20 DUP2 ADD SWAP1 POP PUSH2 0x145D JUMP JUMPDEST DUP7 DUP4 LT ISZERO PUSH2 0x149F JUMPI DUP5 DUP10 ADD SLOAD PUSH2 0x149B PUSH1 0x1F DUP10 AND DUP3 PUSH2 0x1399 JUMP JUMPDEST DUP4 SSTORE POP JUMPDEST PUSH1 0x1 PUSH1 0x2 DUP9 MUL ADD DUP9 SSTORE POP POP POP JUMPDEST POP POP POP POP POP POP JUMPDEST JUMP JUMPDEST PUSH32 0x4E487B7100000000000000000000000000000000000000000000000000000000 PUSH0 MSTORE PUSH1 0x31 PUSH1 0x4 MSTORE PUSH1 0x24 PUSH0 REVERT JUMPDEST PUSH32 0x416D6F756E74206D7573742062652067726561746572207468616E2030210000 PUSH0 DUP3 ADD MSTORE POP JUMP JUMPDEST PUSH0 PUSH2 0x1516 PUSH1 0x1E DUP4 PUSH2 0xC3D JUMP JUMPDEST SWAP2 POP PUSH2 0x1521 DUP3 PUSH2 0x14E2 JUMP JUMPDEST PUSH1 0x20 DUP3 ADD SWAP1 POP SWAP2 SWAP1 POP JUMP JUMPDEST PUSH0 PUSH1 0x20 DUP3 ADD SWAP1 POP DUP2 DUP2 SUB PUSH0 DUP4 ADD MSTORE PUSH2 0x1543 DUP2 PUSH2 0x150A JUMP JUMPDEST SWAP1 POP SWAP2 SWAP1 POP JUMP JUMPDEST PUSH2 0x1553 DUP3 PUSH2 0xC33 JUMP JUMPDEST PUSH8 0xFFFFFFFFFFFFFFFF DUP2 GT ISZERO PUSH2 0x156C JUMPI PUSH2 0x156B PUSH2 0xD87 JUMP JUMPDEST JUMPDEST PUSH2 0x1576 DUP3 SLOAD PUSH2 0xFBE JUMP JUMPDEST PUSH2 0x1581 DUP3 DUP3 DUP6 PUSH2 0x1347 JUMP JUMPDEST PUSH0 PUSH1 0x20 SWAP1 POP PUSH1 0x1F DUP4 GT PUSH1 0x1 DUP2 EQ PUSH2 0x15B2 JUMPI PUSH0 DUP5 ISZERO PUSH2 0x15A0 JUMPI DUP3 DUP8 ADD MLOAD SWAP1 POP JUMPDEST PUSH2 0x15AA DUP6 DUP3 PUSH2 0x13B5 JUMP JUMPDEST DUP7 SSTORE POP PUSH2 0x1611 JUMP JUMPDEST PUSH1 0x1F NOT DUP5 AND PUSH2 0x15C0 DUP7 PUSH2 0x1230 JUMP JUMPDEST PUSH0 JUMPDEST DUP3 DUP2 LT ISZERO PUSH2 0x15E7 JUMPI DUP5 DUP10 ADD MLOAD DUP3 SSTORE PUSH1 0x1 DUP3 ADD SWAP2 POP PUSH1 0x20 DUP6 ADD SWAP5 POP PUSH1 0x20 DUP2 ADD SWAP1 POP PUSH2 0x15C2 JUMP JUMPDEST DUP7 DUP4 LT ISZERO PUSH2 0x1604 JUMPI DUP5 DUP10 ADD MLOAD PUSH2 0x1600 PUSH1 0x1F DUP10 AND DUP3 PUSH2 0x1399 JUMP JUMPDEST DUP4 SSTORE POP JUMPDEST PUSH1 0x1 PUSH1 0x2 DUP9 MUL ADD DUP9 SSTORE POP POP POP JUMPDEST POP POP POP POP POP POP JUMP JUMPDEST PUSH32 0x43616D706169676E206973206E6F742041637469766500000000000000000000 PUSH0 DUP3 ADD MSTORE POP JUMP JUMPDEST PUSH0 PUSH2 0x164D PUSH1 0x16 DUP4 PUSH2 0xC3D JUMP JUMPDEST SWAP2 POP PUSH2 0x1658 DUP3 PUSH2 0x1619 JUMP JUMPDEST PUSH1 0x20 DUP3 ADD SWAP1 POP SWAP2 SWAP1 POP JUMP JUMPDEST PUSH0 PUSH1 0x20 DUP3 ADD SWAP1 POP DUP2 DUP2 SUB PUSH0 DUP4 ADD MSTORE PUSH2 0x167A DUP2 PUSH2 0x1641 JUMP JUMPDEST SWAP1 POP SWAP2 SWAP1 POP JUMP JUMPDEST PUSH32 0x496E636F727265637420416D6F756E7421000000000000000000000000000000 PUSH0 DUP3 ADD MSTORE POP JUMP JUMPDEST PUSH0 PUSH2 0x16B5 PUSH1 0x11 DUP4 PUSH2 0xC3D JUMP JUMPDEST SWAP2 POP PUSH2 0x16C0 DUP3 PUSH2 0x1681 JUMP JUMPDEST PUSH1 0x20 DUP3 ADD SWAP1 POP SWAP2 SWAP1 POP JUMP JUMPDEST PUSH0 PUSH1 0x20 DUP3 ADD SWAP1 POP DUP2 DUP2 SUB PUSH0 DUP4 ADD MSTORE PUSH2 0x16E2 DUP2 PUSH2 0x16A9 JUMP JUMPDEST SWAP1 POP SWAP2 SWAP1 POP JUMP JUMPDEST PUSH0 PUSH2 0x16F3 DUP3 PUSH2 0xBD5 JUMP JUMPDEST SWAP2 POP PUSH32 0xFFFFFFFFFFFFFFFFFFFFFFFFFFFFFFFFFFFFFFFFFFFFFFFFFFFFFFFFFFFFFFFF DUP3 SUB PUSH2 0x1725 JUMPI PUSH2 0x1724 PUSH2 0x118E JUMP JUMPDEST JUMPDEST PUSH1 0x1 DUP3 ADD SWAP1 POP SWAP2 SWAP1 POP JUMP INVALID LOG2 PUSH5 0x6970667358 0x22 SLT KECCAK256 MSIZE 0xD2 PUSH17 0xD368465C4FA5ECDBDD6E68EC45991F1E22 ISZERO 0x1F 0x4F SIGNEXTEND 0xF 0x4F ADD 0xC9 SWAP1 DUP9 0xFC 0xF6 PUSH5 0x736F6C6343 STOP ADDMOD 0x1E STOP CALLER "
				},
				"gasEstimates": {
					"creation": {
						"codeDepositCost": "1198000",
						"executionCost": "infinite",
						"totalCost": "infinite"
					},
					"external": {
						"addTier(string,uint256)": "infinite",
						"deadline()": "2470",
						"description()": "infinite",
						"fund(uint256)": "infinite",
						"getContractBalance()": "445",
						"goal()": "2514",
						"name()": "infinite",
						"owner()": "2552",
						"removeTier(uint256)": "infinite",
						"state()": "2693",
						"tiers(uint256)": "infinite",
						"withdraw()": "infinite"
					},
					"internal": {
						"checkAndUpdateCampaignState()": "30878"
					}
				},
				"methodIdentifiers": {
					"addTier(string,uint256)": "8ece7b91",
					"deadline()": "29dcb0cf",
					"description()": "7284e416",
					"fund(uint256)": "ca1d209d",
					"getContractBalance()": "6f9fb98a",
					"goal()": "40193883",
					"name()": "06fdde03",
					"owner()": "8da5cb5b",
					"removeTier(uint256)": "7497211b",
					"state()": "c19d93fb",
					"tiers(uint256)": "039af9eb",
					"withdraw()": "3ccfd60b"
				}
			},
			"storageLayout": {
				"storage": [
					{
						"astId": 3,
						"contract": "contracts/CrowdFunding.sol:CrowdFunding",
						"label": "name",
						"offset": 0,
						"slot": "0",
						"type": "t_string_storage"
					},
					{
						"astId": 5,
						"contract": "contracts/CrowdFunding.sol:CrowdFunding",
						"label": "description",
						"offset": 0,
						"slot": "1",
						"type": "t_string_storage"
					},
					{
						"astId": 7,
						"contract": "contracts/CrowdFunding.sol:CrowdFunding",
						"label": "goal",
						"offset": 0,
						"slot": "2",
						"type": "t_uint256"
					},
					{
						"astId": 9,
						"contract": "contracts/CrowdFunding.sol:CrowdFunding",
						"label": "deadline",
						"offset": 0,
						"slot": "3",
						"type": "t_uint256"
					},
					{
						"astId": 11,
						"contract": "contracts/CrowdFunding.sol:CrowdFunding",
						"label": "owner",
						"offset": 0,
						"slot": "4",
						"type": "t_address"
					},
					{
						"astId": 18,
						"contract": "contracts/CrowdFunding.sol:CrowdFunding",
						"label": "state",
						"offset": 20,
						"slot": "4",
						"type": "t_enum(CampaignState)15"
					},
					{
						"astId": 29,
						"contract": "contracts/CrowdFunding.sol:CrowdFunding",
						"label": "tiers",
						"offset": 0,
						"slot": "5",
						"type": "t_array(t_struct(Tier)25_storage)dyn_storage"
					}
				],
				"types": {
					"t_address": {
						"encoding": "inplace",
						"label": "address",
						"numberOfBytes": "20"
					},
					"t_array(t_struct(Tier)25_storage)dyn_storage": {
						"base": "t_struct(Tier)25_storage",
						"encoding": "dynamic_array",
						"label": "struct CrowdFunding.Tier[]",
						"numberOfBytes": "32"
					},
					"t_enum(CampaignState)15": {
						"encoding": "inplace",
						"label": "enum CrowdFunding.CampaignState",
						"numberOfBytes": "1"
					},
					"t_string_storage": {
						"encoding": "bytes",
						"label": "string",
						"numberOfBytes": "32"
					},
					"t_struct(Tier)25_storage": {
						"encoding": "inplace",
						"label": "struct CrowdFunding.Tier",
						"members": [
							{
								"astId": 20,
								"contract": "contracts/CrowdFunding.sol:CrowdFunding",
								"label": "name",
								"offset": 0,
								"slot": "0",
								"type": "t_string_storage"
							},
							{
								"astId": 22,
								"contract": "contracts/CrowdFunding.sol:CrowdFunding",
								"label": "amount",
								"offset": 0,
								"slot": "1",
								"type": "t_uint256"
							},
							{
								"astId": 24,
								"contract": "contracts/CrowdFunding.sol:CrowdFunding",
								"label": "backers",
								"offset": 0,
								"slot": "2",
								"type": "t_uint256"
							}
						],
						"numberOfBytes": "96"
					},
					"t_uint256": {
						"encoding": "inplace",
						"label": "uint256",
						"numberOfBytes": "32"
					}
				}
			},
			"userdoc": {
				"kind": "user",
				"methods": {},
				"version": 1
			}
		}
	}
}