{
	"contracts/CrowdFunding.sol": {
		"CrowdFunding": {
			"abi": [
				{
					"inputs": [
						{
							"internalType": "string",
							"name": "_name",
							"type": "string"
						},
						{
							"internalType": "string",
							"name": "_description",
							"type": "string"
						},
						{
							"internalType": "uint256",
							"name": "_goal",
							"type": "uint256"
						},
						{
							"internalType": "uint256",
							"name": "_durationInDays",
							"type": "uint256"
						}
					],
					"stateMutability": "nonpayable",
					"type": "constructor"
				},
				{
					"inputs": [
						{
							"internalType": "string",
							"name": "_name",
							"type": "string"
						},
						{
							"internalType": "uint256",
							"name": "_amount",
							"type": "uint256"
						}
					],
					"name": "addTier",
					"outputs": [],
					"stateMutability": "nonpayable",
					"type": "function"
				},
				{
					"inputs": [
						{
							"internalType": "address",
							"name": "",
							"type": "address"
						}
					],
					"name": "backers",
					"outputs": [
						{
							"internalType": "uint256",
							"name": "totalContribution",
							"type": "uint256"
						}
					],
					"stateMutability": "view",
					"type": "function"
				},
				{
					"inputs": [],
					"name": "deadline",
					"outputs": [
						{
							"internalType": "uint256",
							"name": "",
							"type": "uint256"
						}
					],
					"stateMutability": "view",
					"type": "function"
				},
				{
					"inputs": [],
					"name": "description",
					"outputs": [
						{
							"internalType": "string",
							"name": "",
							"type": "string"
						}
					],
					"stateMutability": "view",
					"type": "function"
				},
				{
					"inputs": [
						{
							"internalType": "uint256",
							"name": "_daysToAdd",
							"type": "uint256"
						}
					],
					"name": "extendDeadline",
					"outputs": [],
					"stateMutability": "nonpayable",
					"type": "function"
				},
				{
					"inputs": [
						{
							"internalType": "uint256",
							"name": "_tierIndex",
							"type": "uint256"
						}
					],
					"name": "fund",
					"outputs": [],
					"stateMutability": "payable",
					"type": "function"
				},
				{
					"inputs": [],
					"name": "getCampaignStatus",
					"outputs": [
						{
							"internalType": "enum CrowdFunding.CampaignState",
							"name": "",
							"type": "uint8"
						}
					],
					"stateMutability": "view",
					"type": "function"
				},
				{
					"inputs": [],
					"name": "getContractBalance",
					"outputs": [
						{
							"internalType": "uint256",
							"name": "",
							"type": "uint256"
						}
					],
					"stateMutability": "view",
					"type": "function"
				},
				{
					"inputs": [],
					"name": "getTiers",
					"outputs": [
						{
							"components": [
								{
									"internalType": "string",
									"name": "name",
									"type": "string"
								},
								{
									"internalType": "uint256",
									"name": "amount",
									"type": "uint256"
								},
								{
									"internalType": "uint256",
									"name": "backers",
									"type": "uint256"
								}
							],
							"internalType": "struct CrowdFunding.Tier[]",
							"name": "",
							"type": "tuple[]"
						}
					],
					"stateMutability": "view",
					"type": "function"
				},
				{
					"inputs": [],
					"name": "goal",
					"outputs": [
						{
							"internalType": "uint256",
							"name": "",
							"type": "uint256"
						}
					],
					"stateMutability": "view",
					"type": "function"
				},
				{
					"inputs": [
						{
							"internalType": "address",
							"name": "_backer",
							"type": "address"
						},
						{
							"internalType": "uint256",
							"name": "_tierIndex",
							"type": "uint256"
						}
					],
					"name": "hasFundedTier",
					"outputs": [
						{
							"internalType": "bool",
							"name": "",
							"type": "bool"
						}
					],
					"stateMutability": "view",
					"type": "function"
				},
				{
					"inputs": [],
					"name": "name",
					"outputs": [
						{
							"internalType": "string",
							"name": "",
							"type": "string"
						}
					],
					"stateMutability": "view",
					"type": "function"
				},
				{
					"inputs": [],
					"name": "owner",
					"outputs": [
						{
							"internalType": "address",
							"name": "",
							"type": "address"
						}
					],
					"stateMutability": "view",
					"type": "function"
				},
				{
					"inputs": [],
					"name": "paused",
					"outputs": [
						{
							"internalType": "bool",
							"name": "",
							"type": "bool"
						}
					],
					"stateMutability": "view",
					"type": "function"
				},
				{
					"inputs": [],
					"name": "refund",
					"outputs": [],
					"stateMutability": "nonpayable",
					"type": "function"
				},
				{
					"inputs": [
						{
							"internalType": "uint256",
							"name": "_index",
							"type": "uint256"
						}
					],
					"name": "removeTier",
					"outputs": [],
					"stateMutability": "nonpayable",
					"type": "function"
				},
				{
					"inputs": [],
					"name": "state",
					"outputs": [
						{
							"internalType": "enum CrowdFunding.CampaignState",
							"name": "",
							"type": "uint8"
						}
					],
					"stateMutability": "view",
					"type": "function"
				},
				{
					"inputs": [
						{
							"internalType": "uint256",
							"name": "",
							"type": "uint256"
						}
					],
					"name": "tiers",
					"outputs": [
						{
							"internalType": "string",
							"name": "name",
							"type": "string"
						},
						{
							"internalType": "uint256",
							"name": "amount",
							"type": "uint256"
						},
						{
							"internalType": "uint256",
							"name": "backers",
							"type": "uint256"
						}
					],
					"stateMutability": "view",
					"type": "function"
				},
				{
					"inputs": [],
					"name": "togglePause",
					"outputs": [],
					"stateMutability": "nonpayable",
					"type": "function"
				},
				{
					"inputs": [],
					"name": "withdraw",
					"outputs": [],
					"stateMutability": "nonpayable",
					"type": "function"
				}
			],
			"devdoc": {
				"kind": "dev",
				"methods": {},
				"version": 1
			},
			"evm": {
				"assembly": "    /* \"contracts/CrowdFunding.sol\":57:4290  contract CrowdFunding {... */\n  mstore(0x40, 0x80)\n    /* \"contracts/CrowdFunding.sol\":961:1318  constructor(... */\n  callvalue\n  dup1\n  iszero\n  tag_1\n  jumpi\n  revert(0x00, 0x00)\ntag_1:\n  pop\n  mload(0x40)\n  sub(codesize, bytecodeSize)\n  dup1\n  bytecodeSize\n  dup4\n  codecopy\n  dup2\n  dup2\n  add\n  0x40\n  mstore\n  dup2\n  add\n  swap1\n  tag_2\n  swap2\n  swap1\n  tag_3\n  jump\t// in\ntag_2:\n    /* \"contracts/CrowdFunding.sol\":1117:1122  _name */\n  dup4\n    /* \"contracts/CrowdFunding.sol\":1110:1114  name */\n  0x00\n    /* \"contracts/CrowdFunding.sol\":1110:1122  name = _name */\n  swap1\n  dup2\n  tag_6\n  swap2\n  swap1\n  tag_7\n  jump\t// in\ntag_6:\n  pop\n    /* \"contracts/CrowdFunding.sol\":1146:1158  _description */\n  dup3\n    /* \"contracts/CrowdFunding.sol\":1132:1143  description */\n  0x01\n    /* \"contracts/CrowdFunding.sol\":1132:1158  description = _description */\n  swap1\n  dup2\n  tag_8\n  swap2\n  swap1\n  tag_7\n  jump\t// in\ntag_8:\n  pop\n    /* \"contracts/CrowdFunding.sol\":1175:1180  _goal */\n  dup2\n    /* \"contracts/CrowdFunding.sol\":1168:1172  goal */\n  0x02\n    /* \"contracts/CrowdFunding.sol\":1168:1180  goal = _goal */\n  dup2\n  swap1\n  sstore\n  pop\n    /* \"contracts/CrowdFunding.sol\":1238:1244  1 days */\n  0x015180\n    /* \"contracts/CrowdFunding.sol\":1220:1235  _durationInDays */\n  dup2\n    /* \"contracts/CrowdFunding.sol\":1220:1244  _durationInDays * 1 days */\n  tag_9\n  swap2\n  swap1\n  tag_10\n  jump\t// in\ntag_9:\n    /* \"contracts/CrowdFunding.sol\":1201:1216  block.timestamp */\n  timestamp\n    /* \"contracts/CrowdFunding.sol\":1201:1245  block.timestamp + (_durationInDays * 1 days) */\n  tag_11\n  swap2\n  swap1\n  tag_12\n  jump\t// in\ntag_11:\n    /* \"contracts/CrowdFunding.sol\":1190:1198  deadline */\n  0x03\n    /* \"contracts/CrowdFunding.sol\":1190:1245  deadline = block.timestamp + (_durationInDays * 1 days) */\n  dup2\n  swap1\n  sstore\n  pop\n    /* \"contracts/CrowdFunding.sol\":1263:1273  msg.sender */\n  caller\n    /* \"contracts/CrowdFunding.sol\":1255:1260  owner */\n  0x04\n  0x00\n    /* \"contracts/CrowdFunding.sol\":1255:1273  owner = msg.sender */\n  0x0100\n  exp\n  dup2\n  sload\n  dup2\n  0xffffffffffffffffffffffffffffffffffffffff\n  mul\n  not\n  and\n  swap1\n  dup4\n  0xffffffffffffffffffffffffffffffffffffffff\n  and\n  mul\n  or\n  swap1\n  sstore\n  pop\n    /* \"contracts/CrowdFunding.sol\":1291:1311  CampaignState.Active */\n  0x00\n    /* \"contracts/CrowdFunding.sol\":1283:1288  state */\n  0x04\n  0x15\n    /* \"contracts/CrowdFunding.sol\":1283:1311  state = CampaignState.Active */\n  0x0100\n  exp\n  dup2\n  sload\n  dup2\n  0xff\n  mul\n  not\n  and\n  swap1\n  dup4\n  0x02\n  dup2\n  gt\n  iszero\n  tag_13\n  jumpi\n  tag_14\n  tag_15\n  jump\t// in\ntag_14:\ntag_13:\n  mul\n  or\n  swap1\n  sstore\n  pop\n    /* \"contracts/CrowdFunding.sol\":961:1318  constructor(... */\n  pop\n  pop\n  pop\n  pop\n    /* \"contracts/CrowdFunding.sol\":57:4290  contract CrowdFunding {... */\n  jump(tag_16)\n    /* \"#utility.yul\":7:82   */\ntag_17:\n    /* \"#utility.yul\":40:46   */\n  0x00\n    /* \"#utility.yul\":73:75   */\n  0x40\n    /* \"#utility.yul\":67:76   */\n  mload\n    /* \"#utility.yul\":57:76   */\n  swap1\n  pop\n    /* \"#utility.yul\":7:82   */\n  swap1\n  jump\t// out\n    /* \"#utility.yul\":88:205   */\ntag_18:\n    /* \"#utility.yul\":197:198   */\n  0x00\n    /* \"#utility.yul\":194:195   */\n  0x00\n    /* \"#utility.yul\":187:199   */\n  revert\n    /* \"#utility.yul\":211:328   */\ntag_19:\n    /* \"#utility.yul\":320:321   */\n  0x00\n    /* \"#utility.yul\":317:318   */\n  0x00\n    /* \"#utility.yul\":310:322   */\n  revert\n    /* \"#utility.yul\":334:451   */\ntag_20:\n    /* \"#utility.yul\":443:444   */\n  0x00\n    /* \"#utility.yul\":440:441   */\n  0x00\n    /* \"#utility.yul\":433:445   */\n  revert\n    /* \"#utility.yul\":457:574   */\ntag_21:\n    /* \"#utility.yul\":566:567   */\n  0x00\n    /* \"#utility.yul\":563:564   */\n  0x00\n    /* \"#utility.yul\":556:568   */\n  revert\n    /* \"#utility.yul\":580:682   */\ntag_22:\n    /* \"#utility.yul\":621:627   */\n  0x00\n    /* \"#utility.yul\":672:674   */\n  0x1f\n    /* \"#utility.yul\":668:675   */\n  not\n    /* \"#utility.yul\":663:665   */\n  0x1f\n    /* \"#utility.yul\":656:661   */\n  dup4\n    /* \"#utility.yul\":652:666   */\n  add\n    /* \"#utility.yul\":648:676   */\n  and\n    /* \"#utility.yul\":638:676   */\n  swap1\n  pop\n    /* \"#utility.yul\":580:682   */\n  swap2\n  swap1\n  pop\n  jump\t// out\n    /* \"#utility.yul\":688:868   */\ntag_23:\n    /* \"#utility.yul\":736:813   */\n  0x4e487b7100000000000000000000000000000000000000000000000000000000\n    /* \"#utility.yul\":733:734   */\n  0x00\n    /* \"#utility.yul\":726:814   */\n  mstore\n    /* \"#utility.yul\":833:837   */\n  0x41\n    /* \"#utility.yul\":830:831   */\n  0x04\n    /* \"#utility.yul\":823:838   */\n  mstore\n    /* \"#utility.yul\":857:861   */\n  0x24\n    /* \"#utility.yul\":854:855   */\n  0x00\n    /* \"#utility.yul\":847:862   */\n  revert\n    /* \"#utility.yul\":874:1155   */\ntag_24:\n    /* \"#utility.yul\":957:984   */\n  tag_61\n    /* \"#utility.yul\":979:983   */\n  dup3\n    /* \"#utility.yul\":957:984   */\n  tag_22\n  jump\t// in\ntag_61:\n    /* \"#utility.yul\":949:955   */\n  dup2\n    /* \"#utility.yul\":945:985   */\n  add\n    /* \"#utility.yul\":1087:1093   */\n  dup2\n    /* \"#utility.yul\":1075:1085   */\n  dup2\n    /* \"#utility.yul\":1072:1094   */\n  lt\n    /* \"#utility.yul\":1051:1069   */\n  0xffffffffffffffff\n    /* \"#utility.yul\":1039:1049   */\n  dup3\n    /* \"#utility.yul\":1036:1070   */\n  gt\n    /* \"#utility.yul\":1033:1095   */\n  or\n    /* \"#utility.yul\":1030:1118   */\n  iszero\n  tag_62\n  jumpi\n    /* \"#utility.yul\":1098:1116   */\n  tag_63\n  tag_23\n  jump\t// in\ntag_63:\n    /* \"#utility.yul\":1030:1118   */\ntag_62:\n    /* \"#utility.yul\":1138:1148   */\n  dup1\n    /* \"#utility.yul\":1134:1136   */\n  0x40\n    /* \"#utility.yul\":1127:1149   */\n  mstore\n    /* \"#utility.yul\":917:1155   */\n  pop\n    /* \"#utility.yul\":874:1155   */\n  pop\n  pop\n  jump\t// out\n    /* \"#utility.yul\":1161:1290   */\ntag_25:\n    /* \"#utility.yul\":1195:1201   */\n  0x00\n    /* \"#utility.yul\":1222:1242   */\n  tag_65\n  tag_17\n  jump\t// in\ntag_65:\n    /* \"#utility.yul\":1212:1242   */\n  swap1\n  pop\n    /* \"#utility.yul\":1251:1284   */\n  tag_66\n    /* \"#utility.yul\":1279:1283   */\n  dup3\n    /* \"#utility.yul\":1271:1277   */\n  dup3\n    /* \"#utility.yul\":1251:1284   */\n  tag_24\n  jump\t// in\ntag_66:\n    /* \"#utility.yul\":1161:1290   */\n  swap2\n  swap1\n  pop\n  jump\t// out\n    /* \"#utility.yul\":1296:1604   */\ntag_26:\n    /* \"#utility.yul\":1358:1362   */\n  0x00\n    /* \"#utility.yul\":1448:1466   */\n  0xffffffffffffffff\n    /* \"#utility.yul\":1440:1446   */\n  dup3\n    /* \"#utility.yul\":1437:1467   */\n  gt\n    /* \"#utility.yul\":1434:1490   */\n  iszero\n  tag_68\n  jumpi\n    /* \"#utility.yul\":1470:1488   */\n  tag_69\n  tag_23\n  jump\t// in\ntag_69:\n    /* \"#utility.yul\":1434:1490   */\ntag_68:\n    /* \"#utility.yul\":1508:1537   */\n  tag_70\n    /* \"#utility.yul\":1530:1536   */\n  dup3\n    /* \"#utility.yul\":1508:1537   */\n  tag_22\n  jump\t// in\ntag_70:\n    /* \"#utility.yul\":1500:1537   */\n  swap1\n  pop\n    /* \"#utility.yul\":1592:1596   */\n  0x20\n    /* \"#utility.yul\":1586:1590   */\n  dup2\n    /* \"#utility.yul\":1582:1597   */\n  add\n    /* \"#utility.yul\":1574:1597   */\n  swap1\n  pop\n    /* \"#utility.yul\":1296:1604   */\n  swap2\n  swap1\n  pop\n  jump\t// out\n    /* \"#utility.yul\":1610:1749   */\ntag_27:\n    /* \"#utility.yul\":1699:1705   */\n  dup3\n    /* \"#utility.yul\":1694:1697   */\n  dup2\n    /* \"#utility.yul\":1689:1692   */\n  dup4\n    /* \"#utility.yul\":1683:1706   */\n  mcopy\n    /* \"#utility.yul\":1740:1741   */\n  0x00\n    /* \"#utility.yul\":1731:1737   */\n  dup4\n    /* \"#utility.yul\":1726:1729   */\n  dup4\n    /* \"#utility.yul\":1722:1738   */\n  add\n    /* \"#utility.yul\":1715:1742   */\n  mstore\n    /* \"#utility.yul\":1610:1749   */\n  pop\n  pop\n  pop\n  jump\t// out\n    /* \"#utility.yul\":1755:2189   */\ntag_28:\n    /* \"#utility.yul\":1844:1849   */\n  0x00\n    /* \"#utility.yul\":1869:1935   */\n  tag_73\n    /* \"#utility.yul\":1885:1934   */\n  tag_74\n    /* \"#utility.yul\":1927:1933   */\n  dup5\n    /* \"#utility.yul\":1885:1934   */\n  tag_26\n  jump\t// in\ntag_74:\n    /* \"#utility.yul\":1869:1935   */\n  tag_25\n  jump\t// in\ntag_73:\n    /* \"#utility.yul\":1860:1935   */\n  swap1\n  pop\n    /* \"#utility.yul\":1958:1964   */\n  dup3\n    /* \"#utility.yul\":1951:1956   */\n  dup2\n    /* \"#utility.yul\":1944:1965   */\n  mstore\n    /* \"#utility.yul\":1996:2000   */\n  0x20\n    /* \"#utility.yul\":1989:1994   */\n  dup2\n    /* \"#utility.yul\":1985:2001   */\n  add\n    /* \"#utility.yul\":2034:2037   */\n  dup5\n    /* \"#utility.yul\":2025:2031   */\n  dup5\n    /* \"#utility.yul\":2020:2023   */\n  dup5\n    /* \"#utility.yul\":2016:2032   */\n  add\n    /* \"#utility.yul\":2013:2038   */\n  gt\n    /* \"#utility.yul\":2010:2122   */\n  iszero\n  tag_75\n  jumpi\n    /* \"#utility.yul\":2041:2120   */\n  tag_76\n  tag_21\n  jump\t// in\ntag_76:\n    /* \"#utility.yul\":2010:2122   */\ntag_75:\n    /* \"#utility.yul\":2131:2183   */\n  tag_77\n    /* \"#utility.yul\":2176:2182   */\n  dup5\n    /* \"#utility.yul\":2171:2174   */\n  dup3\n    /* \"#utility.yul\":2166:2169   */\n  dup6\n    /* \"#utility.yul\":2131:2183   */\n  tag_27\n  jump\t// in\ntag_77:\n    /* \"#utility.yul\":1850:2189   */\n  pop\n    /* \"#utility.yul\":1755:2189   */\n  swap4\n  swap3\n  pop\n  pop\n  pop\n  jump\t// out\n    /* \"#utility.yul\":2209:2564   */\ntag_29:\n    /* \"#utility.yul\":2276:2281   */\n  0x00\n    /* \"#utility.yul\":2325:2328   */\n  dup3\n    /* \"#utility.yul\":2318:2322   */\n  0x1f\n    /* \"#utility.yul\":2310:2316   */\n  dup4\n    /* \"#utility.yul\":2306:2323   */\n  add\n    /* \"#utility.yul\":2302:2329   */\n  slt\n    /* \"#utility.yul\":2292:2414   */\n  tag_79\n  jumpi\n    /* \"#utility.yul\":2333:2412   */\n  tag_80\n  tag_20\n  jump\t// in\ntag_80:\n    /* \"#utility.yul\":2292:2414   */\ntag_79:\n    /* \"#utility.yul\":2443:2449   */\n  dup2\n    /* \"#utility.yul\":2437:2450   */\n  mload\n    /* \"#utility.yul\":2468:2558   */\n  tag_81\n    /* \"#utility.yul\":2554:2557   */\n  dup5\n    /* \"#utility.yul\":2546:2552   */\n  dup3\n    /* \"#utility.yul\":2539:2543   */\n  0x20\n    /* \"#utility.yul\":2531:2537   */\n  dup7\n    /* \"#utility.yul\":2527:2544   */\n  add\n    /* \"#utility.yul\":2468:2558   */\n  tag_28\n  jump\t// in\ntag_81:\n    /* \"#utility.yul\":2459:2558   */\n  swap2\n  pop\n    /* \"#utility.yul\":2282:2564   */\n  pop\n    /* \"#utility.yul\":2209:2564   */\n  swap3\n  swap2\n  pop\n  pop\n  jump\t// out\n    /* \"#utility.yul\":2570:2647   */\ntag_30:\n    /* \"#utility.yul\":2607:2614   */\n  0x00\n    /* \"#utility.yul\":2636:2641   */\n  dup2\n    /* \"#utility.yul\":2625:2641   */\n  swap1\n  pop\n    /* \"#utility.yul\":2570:2647   */\n  swap2\n  swap1\n  pop\n  jump\t// out\n    /* \"#utility.yul\":2653:2775   */\ntag_31:\n    /* \"#utility.yul\":2726:2750   */\n  tag_84\n    /* \"#utility.yul\":2744:2749   */\n  dup2\n    /* \"#utility.yul\":2726:2750   */\n  tag_30\n  jump\t// in\ntag_84:\n    /* \"#utility.yul\":2719:2724   */\n  dup2\n    /* \"#utility.yul\":2716:2751   */\n  eq\n    /* \"#utility.yul\":2706:2769   */\n  tag_85\n  jumpi\n    /* \"#utility.yul\":2765:2766   */\n  0x00\n    /* \"#utility.yul\":2762:2763   */\n  0x00\n    /* \"#utility.yul\":2755:2767   */\n  revert\n    /* \"#utility.yul\":2706:2769   */\ntag_85:\n    /* \"#utility.yul\":2653:2775   */\n  pop\n  jump\t// out\n    /* \"#utility.yul\":2781:2924   */\ntag_32:\n    /* \"#utility.yul\":2838:2843   */\n  0x00\n    /* \"#utility.yul\":2869:2875   */\n  dup2\n    /* \"#utility.yul\":2863:2876   */\n  mload\n    /* \"#utility.yul\":2854:2876   */\n  swap1\n  pop\n    /* \"#utility.yul\":2885:2918   */\n  tag_87\n    /* \"#utility.yul\":2912:2917   */\n  dup2\n    /* \"#utility.yul\":2885:2918   */\n  tag_31\n  jump\t// in\ntag_87:\n    /* \"#utility.yul\":2781:2924   */\n  swap3\n  swap2\n  pop\n  pop\n  jump\t// out\n    /* \"#utility.yul\":2930:4096   */\ntag_3:\n    /* \"#utility.yul\":3047:3053   */\n  0x00\n    /* \"#utility.yul\":3055:3061   */\n  0x00\n    /* \"#utility.yul\":3063:3069   */\n  0x00\n    /* \"#utility.yul\":3071:3077   */\n  0x00\n    /* \"#utility.yul\":3120:3123   */\n  0x80\n    /* \"#utility.yul\":3108:3117   */\n  dup6\n    /* \"#utility.yul\":3099:3106   */\n  dup8\n    /* \"#utility.yul\":3095:3118   */\n  sub\n    /* \"#utility.yul\":3091:3124   */\n  slt\n    /* \"#utility.yul\":3088:3208   */\n  iszero\n  tag_89\n  jumpi\n    /* \"#utility.yul\":3127:3206   */\n  tag_90\n  tag_18\n  jump\t// in\ntag_90:\n    /* \"#utility.yul\":3088:3208   */\ntag_89:\n    /* \"#utility.yul\":3268:3269   */\n  0x00\n    /* \"#utility.yul\":3257:3266   */\n  dup6\n    /* \"#utility.yul\":3253:3270   */\n  add\n    /* \"#utility.yul\":3247:3271   */\n  mload\n    /* \"#utility.yul\":3298:3316   */\n  0xffffffffffffffff\n    /* \"#utility.yul\":3290:3296   */\n  dup2\n    /* \"#utility.yul\":3287:3317   */\n  gt\n    /* \"#utility.yul\":3284:3401   */\n  iszero\n  tag_91\n  jumpi\n    /* \"#utility.yul\":3320:3399   */\n  tag_92\n  tag_19\n  jump\t// in\ntag_92:\n    /* \"#utility.yul\":3284:3401   */\ntag_91:\n    /* \"#utility.yul\":3425:3499   */\n  tag_93\n    /* \"#utility.yul\":3491:3498   */\n  dup8\n    /* \"#utility.yul\":3482:3488   */\n  dup3\n    /* \"#utility.yul\":3471:3480   */\n  dup9\n    /* \"#utility.yul\":3467:3489   */\n  add\n    /* \"#utility.yul\":3425:3499   */\n  tag_29\n  jump\t// in\ntag_93:\n    /* \"#utility.yul\":3415:3499   */\n  swap5\n  pop\n    /* \"#utility.yul\":3218:3509   */\n  pop\n    /* \"#utility.yul\":3569:3571   */\n  0x20\n    /* \"#utility.yul\":3558:3567   */\n  dup6\n    /* \"#utility.yul\":3554:3572   */\n  add\n    /* \"#utility.yul\":3548:3573   */\n  mload\n    /* \"#utility.yul\":3600:3618   */\n  0xffffffffffffffff\n    /* \"#utility.yul\":3592:3598   */\n  dup2\n    /* \"#utility.yul\":3589:3619   */\n  gt\n    /* \"#utility.yul\":3586:3703   */\n  iszero\n  tag_94\n  jumpi\n    /* \"#utility.yul\":3622:3701   */\n  tag_95\n  tag_19\n  jump\t// in\ntag_95:\n    /* \"#utility.yul\":3586:3703   */\ntag_94:\n    /* \"#utility.yul\":3727:3801   */\n  tag_96\n    /* \"#utility.yul\":3793:3800   */\n  dup8\n    /* \"#utility.yul\":3784:3790   */\n  dup3\n    /* \"#utility.yul\":3773:3782   */\n  dup9\n    /* \"#utility.yul\":3769:3791   */\n  add\n    /* \"#utility.yul\":3727:3801   */\n  tag_29\n  jump\t// in\ntag_96:\n    /* \"#utility.yul\":3717:3801   */\n  swap4\n  pop\n    /* \"#utility.yul\":3519:3811   */\n  pop\n    /* \"#utility.yul\":3850:3852   */\n  0x40\n    /* \"#utility.yul\":3876:3940   */\n  tag_97\n    /* \"#utility.yul\":3932:3939   */\n  dup8\n    /* \"#utility.yul\":3923:3929   */\n  dup3\n    /* \"#utility.yul\":3912:3921   */\n  dup9\n    /* \"#utility.yul\":3908:3930   */\n  add\n    /* \"#utility.yul\":3876:3940   */\n  tag_32\n  jump\t// in\ntag_97:\n    /* \"#utility.yul\":3866:3940   */\n  swap3\n  pop\n    /* \"#utility.yul\":3821:3950   */\n  pop\n    /* \"#utility.yul\":3989:3991   */\n  0x60\n    /* \"#utility.yul\":4015:4079   */\n  tag_98\n    /* \"#utility.yul\":4071:4078   */\n  dup8\n    /* \"#utility.yul\":4062:4068   */\n  dup3\n    /* \"#utility.yul\":4051:4060   */\n  dup9\n    /* \"#utility.yul\":4047:4069   */\n  add\n    /* \"#utility.yul\":4015:4079   */\n  tag_32\n  jump\t// in\ntag_98:\n    /* \"#utility.yul\":4005:4079   */\n  swap2\n  pop\n    /* \"#utility.yul\":3960:4089   */\n  pop\n    /* \"#utility.yul\":2930:4096   */\n  swap3\n  swap6\n  swap2\n  swap5\n  pop\n  swap3\n  pop\n  jump\t// out\n    /* \"#utility.yul\":4102:4201   */\ntag_33:\n    /* \"#utility.yul\":4154:4160   */\n  0x00\n    /* \"#utility.yul\":4188:4193   */\n  dup2\n    /* \"#utility.yul\":4182:4194   */\n  mload\n    /* \"#utility.yul\":4172:4194   */\n  swap1\n  pop\n    /* \"#utility.yul\":4102:4201   */\n  swap2\n  swap1\n  pop\n  jump\t// out\n    /* \"#utility.yul\":4207:4387   */\ntag_34:\n    /* \"#utility.yul\":4255:4332   */\n  0x4e487b7100000000000000000000000000000000000000000000000000000000\n    /* \"#utility.yul\":4252:4253   */\n  0x00\n    /* \"#utility.yul\":4245:4333   */\n  mstore\n    /* \"#utility.yul\":4352:4356   */\n  0x22\n    /* \"#utility.yul\":4349:4350   */\n  0x04\n    /* \"#utility.yul\":4342:4357   */\n  mstore\n    /* \"#utility.yul\":4376:4380   */\n  0x24\n    /* \"#utility.yul\":4373:4374   */\n  0x00\n    /* \"#utility.yul\":4366:4381   */\n  revert\n    /* \"#utility.yul\":4393:4713   */\ntag_35:\n    /* \"#utility.yul\":4437:4443   */\n  0x00\n    /* \"#utility.yul\":4474:4475   */\n  0x02\n    /* \"#utility.yul\":4468:4472   */\n  dup3\n    /* \"#utility.yul\":4464:4476   */\n  div\n    /* \"#utility.yul\":4454:4476   */\n  swap1\n  pop\n    /* \"#utility.yul\":4521:4522   */\n  0x01\n    /* \"#utility.yul\":4515:4519   */\n  dup3\n    /* \"#utility.yul\":4511:4523   */\n  and\n    /* \"#utility.yul\":4542:4560   */\n  dup1\n    /* \"#utility.yul\":4532:4613   */\n  tag_102\n  jumpi\n    /* \"#utility.yul\":4598:4602   */\n  0x7f\n    /* \"#utility.yul\":4590:4596   */\n  dup3\n    /* \"#utility.yul\":4586:4603   */\n  and\n    /* \"#utility.yul\":4576:4603   */\n  swap2\n  pop\n    /* \"#utility.yul\":4532:4613   */\ntag_102:\n    /* \"#utility.yul\":4660:4662   */\n  0x20\n    /* \"#utility.yul\":4652:4658   */\n  dup3\n    /* \"#utility.yul\":4649:4663   */\n  lt\n    /* \"#utility.yul\":4629:4647   */\n  dup2\n    /* \"#utility.yul\":4626:4664   */\n  sub\n    /* \"#utility.yul\":4623:4707   */\n  tag_103\n  jumpi\n    /* \"#utility.yul\":4679:4697   */\n  tag_104\n  tag_34\n  jump\t// in\ntag_104:\n    /* \"#utility.yul\":4623:4707   */\ntag_103:\n    /* \"#utility.yul\":4444:4713   */\n  pop\n    /* \"#utility.yul\":4393:4713   */\n  swap2\n  swap1\n  pop\n  jump\t// out\n    /* \"#utility.yul\":4719:4860   */\ntag_36:\n    /* \"#utility.yul\":4768:4772   */\n  0x00\n    /* \"#utility.yul\":4791:4794   */\n  dup2\n    /* \"#utility.yul\":4783:4794   */\n  swap1\n  pop\n    /* \"#utility.yul\":4814:4817   */\n  dup2\n    /* \"#utility.yul\":4811:4812   */\n  0x00\n    /* \"#utility.yul\":4804:4818   */\n  mstore\n    /* \"#utility.yul\":4848:4852   */\n  0x20\n    /* \"#utility.yul\":4845:4846   */\n  0x00\n    /* \"#utility.yul\":4835:4853   */\n  keccak256\n    /* \"#utility.yul\":4827:4853   */\n  swap1\n  pop\n    /* \"#utility.yul\":4719:4860   */\n  swap2\n  swap1\n  pop\n  jump\t// out\n    /* \"#utility.yul\":4866:4959   */\ntag_37:\n    /* \"#utility.yul\":4903:4909   */\n  0x00\n    /* \"#utility.yul\":4950:4952   */\n  0x20\n    /* \"#utility.yul\":4945:4947   */\n  0x1f\n    /* \"#utility.yul\":4938:4943   */\n  dup4\n    /* \"#utility.yul\":4934:4948   */\n  add\n    /* \"#utility.yul\":4930:4953   */\n  div\n    /* \"#utility.yul\":4920:4953   */\n  swap1\n  pop\n    /* \"#utility.yul\":4866:4959   */\n  swap2\n  swap1\n  pop\n  jump\t// out\n    /* \"#utility.yul\":4965:5072   */\ntag_38:\n    /* \"#utility.yul\":5009:5017   */\n  0x00\n    /* \"#utility.yul\":5059:5064   */\n  dup3\n    /* \"#utility.yul\":5053:5057   */\n  dup3\n    /* \"#utility.yul\":5049:5065   */\n  shl\n    /* \"#utility.yul\":5028:5065   */\n  swap1\n  pop\n    /* \"#utility.yul\":4965:5072   */\n  swap3\n  swap2\n  pop\n  pop\n  jump\t// out\n    /* \"#utility.yul\":5078:5471   */\ntag_39:\n    /* \"#utility.yul\":5147:5153   */\n  0x00\n    /* \"#utility.yul\":5197:5198   */\n  0x08\n    /* \"#utility.yul\":5185:5195   */\n  dup4\n    /* \"#utility.yul\":5181:5199   */\n  mul\n    /* \"#utility.yul\":5220:5317   */\n  tag_109\n    /* \"#utility.yul\":5250:5316   */\n  0xffffffffffffffffffffffffffffffffffffffffffffffffffffffffffffffff\n    /* \"#utility.yul\":5239:5248   */\n  dup3\n    /* \"#utility.yul\":5220:5317   */\n  tag_38\n  jump\t// in\ntag_109:\n    /* \"#utility.yul\":5338:5377   */\n  tag_110\n    /* \"#utility.yul\":5368:5376   */\n  dup7\n    /* \"#utility.yul\":5357:5366   */\n  dup4\n    /* \"#utility.yul\":5338:5377   */\n  tag_38\n  jump\t// in\ntag_110:\n    /* \"#utility.yul\":5326:5377   */\n  swap6\n  pop\n    /* \"#utility.yul\":5410:5414   */\n  dup1\n    /* \"#utility.yul\":5406:5415   */\n  not\n    /* \"#utility.yul\":5399:5404   */\n  dup5\n    /* \"#utility.yul\":5395:5416   */\n  and\n    /* \"#utility.yul\":5386:5416   */\n  swap4\n  pop\n    /* \"#utility.yul\":5459:5463   */\n  dup1\n    /* \"#utility.yul\":5449:5457   */\n  dup7\n    /* \"#utility.yul\":5445:5464   */\n  and\n    /* \"#utility.yul\":5438:5443   */\n  dup5\n    /* \"#utility.yul\":5435:5465   */\n  or\n    /* \"#utility.yul\":5425:5465   */\n  swap3\n  pop\n    /* \"#utility.yul\":5154:5471   */\n  pop\n  pop\n    /* \"#utility.yul\":5078:5471   */\n  swap4\n  swap3\n  pop\n  pop\n  pop\n  jump\t// out\n    /* \"#utility.yul\":5477:5537   */\ntag_40:\n    /* \"#utility.yul\":5505:5508   */\n  0x00\n    /* \"#utility.yul\":5526:5531   */\n  dup2\n    /* \"#utility.yul\":5519:5531   */\n  swap1\n  pop\n    /* \"#utility.yul\":5477:5537   */\n  swap2\n  swap1\n  pop\n  jump\t// out\n    /* \"#utility.yul\":5543:5685   */\ntag_41:\n    /* \"#utility.yul\":5593:5602   */\n  0x00\n    /* \"#utility.yul\":5626:5679   */\n  tag_113\n    /* \"#utility.yul\":5644:5678   */\n  tag_114\n    /* \"#utility.yul\":5653:5677   */\n  tag_115\n    /* \"#utility.yul\":5671:5676   */\n  dup5\n    /* \"#utility.yul\":5653:5677   */\n  tag_30\n  jump\t// in\ntag_115:\n    /* \"#utility.yul\":5644:5678   */\n  tag_40\n  jump\t// in\ntag_114:\n    /* \"#utility.yul\":5626:5679   */\n  tag_30\n  jump\t// in\ntag_113:\n    /* \"#utility.yul\":5613:5679   */\n  swap1\n  pop\n    /* \"#utility.yul\":5543:5685   */\n  swap2\n  swap1\n  pop\n  jump\t// out\n    /* \"#utility.yul\":5691:5766   */\ntag_42:\n    /* \"#utility.yul\":5734:5737   */\n  0x00\n    /* \"#utility.yul\":5755:5760   */\n  dup2\n    /* \"#utility.yul\":5748:5760   */\n  swap1\n  pop\n    /* \"#utility.yul\":5691:5766   */\n  swap2\n  swap1\n  pop\n  jump\t// out\n    /* \"#utility.yul\":5772:6041   */\ntag_43:\n    /* \"#utility.yul\":5882:5921   */\n  tag_118\n    /* \"#utility.yul\":5913:5920   */\n  dup4\n    /* \"#utility.yul\":5882:5921   */\n  tag_41\n  jump\t// in\ntag_118:\n    /* \"#utility.yul\":5943:6034   */\n  tag_119\n    /* \"#utility.yul\":5992:6033   */\n  tag_120\n    /* \"#utility.yul\":6016:6032   */\n  dup3\n    /* \"#utility.yul\":5992:6033   */\n  tag_42\n  jump\t// in\ntag_120:\n    /* \"#utility.yul\":5984:5990   */\n  dup5\n    /* \"#utility.yul\":5977:5981   */\n  dup5\n    /* \"#utility.yul\":5971:5982   */\n  sload\n    /* \"#utility.yul\":5943:6034   */\n  tag_39\n  jump\t// in\ntag_119:\n    /* \"#utility.yul\":5937:5941   */\n  dup3\n    /* \"#utility.yul\":5930:6035   */\n  sstore\n    /* \"#utility.yul\":5848:6041   */\n  pop\n    /* \"#utility.yul\":5772:6041   */\n  pop\n  pop\n  pop\n  jump\t// out\n    /* \"#utility.yul\":6047:6120   */\ntag_44:\n    /* \"#utility.yul\":6092:6095   */\n  0x00\n    /* \"#utility.yul\":6113:6114   */\n  0x00\n    /* \"#utility.yul\":6106:6114   */\n  swap1\n  pop\n    /* \"#utility.yul\":6047:6120   */\n  swap1\n  jump\t// out\n    /* \"#utility.yul\":6126:6315   */\ntag_45:\n    /* \"#utility.yul\":6203:6235   */\n  tag_123\n  tag_44\n  jump\t// in\ntag_123:\n    /* \"#utility.yul\":6244:6309   */\n  tag_124\n    /* \"#utility.yul\":6302:6308   */\n  dup2\n    /* \"#utility.yul\":6294:6300   */\n  dup5\n    /* \"#utility.yul\":6288:6292   */\n  dup5\n    /* \"#utility.yul\":6244:6309   */\n  tag_43\n  jump\t// in\ntag_124:\n    /* \"#utility.yul\":6179:6315   */\n  pop\n    /* \"#utility.yul\":6126:6315   */\n  pop\n  pop\n  jump\t// out\n    /* \"#utility.yul\":6321:6507   */\ntag_46:\n    /* \"#utility.yul\":6381:6501   */\ntag_126:\n    /* \"#utility.yul\":6398:6401   */\n  dup2\n    /* \"#utility.yul\":6391:6396   */\n  dup2\n    /* \"#utility.yul\":6388:6402   */\n  lt\n    /* \"#utility.yul\":6381:6501   */\n  iszero\n  tag_128\n  jumpi\n    /* \"#utility.yul\":6452:6491   */\n  tag_129\n    /* \"#utility.yul\":6489:6490   */\n  0x00\n    /* \"#utility.yul\":6482:6487   */\n  dup3\n    /* \"#utility.yul\":6452:6491   */\n  tag_45\n  jump\t// in\ntag_129:\n    /* \"#utility.yul\":6425:6426   */\n  0x01\n    /* \"#utility.yul\":6418:6423   */\n  dup2\n    /* \"#utility.yul\":6414:6427   */\n  add\n    /* \"#utility.yul\":6405:6427   */\n  swap1\n  pop\n    /* \"#utility.yul\":6381:6501   */\n  jump(tag_126)\ntag_128:\n    /* \"#utility.yul\":6321:6507   */\n  pop\n  pop\n  jump\t// out\n    /* \"#utility.yul\":6513:7056   */\ntag_47:\n    /* \"#utility.yul\":6614:6616   */\n  0x1f\n    /* \"#utility.yul\":6609:6612   */\n  dup3\n    /* \"#utility.yul\":6606:6617   */\n  gt\n    /* \"#utility.yul\":6603:7049   */\n  iszero\n  tag_131\n  jumpi\n    /* \"#utility.yul\":6648:6686   */\n  tag_132\n    /* \"#utility.yul\":6680:6685   */\n  dup2\n    /* \"#utility.yul\":6648:6686   */\n  tag_36\n  jump\t// in\ntag_132:\n    /* \"#utility.yul\":6732:6761   */\n  tag_133\n    /* \"#utility.yul\":6750:6760   */\n  dup5\n    /* \"#utility.yul\":6732:6761   */\n  tag_37\n  jump\t// in\ntag_133:\n    /* \"#utility.yul\":6722:6730   */\n  dup2\n    /* \"#utility.yul\":6718:6762   */\n  add\n    /* \"#utility.yul\":6915:6917   */\n  0x20\n    /* \"#utility.yul\":6903:6913   */\n  dup6\n    /* \"#utility.yul\":6900:6918   */\n  lt\n    /* \"#utility.yul\":6897:6946   */\n  iszero\n  tag_134\n  jumpi\n    /* \"#utility.yul\":6936:6944   */\n  dup2\n    /* \"#utility.yul\":6921:6944   */\n  swap1\n  pop\n    /* \"#utility.yul\":6897:6946   */\ntag_134:\n    /* \"#utility.yul\":6959:7039   */\n  tag_135\n    /* \"#utility.yul\":7015:7037   */\n  tag_136\n    /* \"#utility.yul\":7033:7036   */\n  dup6\n    /* \"#utility.yul\":7015:7037   */\n  tag_37\n  jump\t// in\ntag_136:\n    /* \"#utility.yul\":7005:7013   */\n  dup4\n    /* \"#utility.yul\":7001:7038   */\n  add\n    /* \"#utility.yul\":6988:6999   */\n  dup3\n    /* \"#utility.yul\":6959:7039   */\n  tag_46\n  jump\t// in\ntag_135:\n    /* \"#utility.yul\":6618:7049   */\n  pop\n  pop\n    /* \"#utility.yul\":6603:7049   */\ntag_131:\n    /* \"#utility.yul\":6513:7056   */\n  pop\n  pop\n  pop\n  jump\t// out\n    /* \"#utility.yul\":7062:7179   */\ntag_48:\n    /* \"#utility.yul\":7116:7124   */\n  0x00\n    /* \"#utility.yul\":7166:7171   */\n  dup3\n    /* \"#utility.yul\":7160:7164   */\n  dup3\n    /* \"#utility.yul\":7156:7172   */\n  shr\n    /* \"#utility.yul\":7135:7172   */\n  swap1\n  pop\n    /* \"#utility.yul\":7062:7179   */\n  swap3\n  swap2\n  pop\n  pop\n  jump\t// out\n    /* \"#utility.yul\":7185:7354   */\ntag_49:\n    /* \"#utility.yul\":7229:7235   */\n  0x00\n    /* \"#utility.yul\":7262:7313   */\n  tag_139\n    /* \"#utility.yul\":7310:7311   */\n  0x00\n    /* \"#utility.yul\":7306:7312   */\n  not\n    /* \"#utility.yul\":7298:7303   */\n  dup5\n    /* \"#utility.yul\":7295:7296   */\n  0x08\n    /* \"#utility.yul\":7291:7304   */\n  mul\n    /* \"#utility.yul\":7262:7313   */\n  tag_48\n  jump\t// in\ntag_139:\n    /* \"#utility.yul\":7258:7314   */\n  not\n    /* \"#utility.yul\":7343:7347   */\n  dup1\n    /* \"#utility.yul\":7337:7341   */\n  dup4\n    /* \"#utility.yul\":7333:7348   */\n  and\n    /* \"#utility.yul\":7323:7348   */\n  swap2\n  pop\n    /* \"#utility.yul\":7236:7354   */\n  pop\n    /* \"#utility.yul\":7185:7354   */\n  swap3\n  swap2\n  pop\n  pop\n  jump\t// out\n    /* \"#utility.yul\":7359:7654   */\ntag_50:\n    /* \"#utility.yul\":7435:7439   */\n  0x00\n    /* \"#utility.yul\":7581:7610   */\n  tag_141\n    /* \"#utility.yul\":7606:7609   */\n  dup4\n    /* \"#utility.yul\":7600:7604   */\n  dup4\n    /* \"#utility.yul\":7581:7610   */\n  tag_49\n  jump\t// in\ntag_141:\n    /* \"#utility.yul\":7573:7610   */\n  swap2\n  pop\n    /* \"#utility.yul\":7643:7646   */\n  dup3\n    /* \"#utility.yul\":7640:7641   */\n  0x02\n    /* \"#utility.yul\":7636:7647   */\n  mul\n    /* \"#utility.yul\":7630:7634   */\n  dup3\n    /* \"#utility.yul\":7627:7648   */\n  or\n    /* \"#utility.yul\":7619:7648   */\n  swap1\n  pop\n    /* \"#utility.yul\":7359:7654   */\n  swap3\n  swap2\n  pop\n  pop\n  jump\t// out\n    /* \"#utility.yul\":7659:9054   */\ntag_7:\n    /* \"#utility.yul\":7776:7813   */\n  tag_143\n    /* \"#utility.yul\":7809:7812   */\n  dup3\n    /* \"#utility.yul\":7776:7813   */\n  tag_33\n  jump\t// in\ntag_143:\n    /* \"#utility.yul\":7878:7896   */\n  0xffffffffffffffff\n    /* \"#utility.yul\":7870:7876   */\n  dup2\n    /* \"#utility.yul\":7867:7897   */\n  gt\n    /* \"#utility.yul\":7864:7920   */\n  iszero\n  tag_144\n  jumpi\n    /* \"#utility.yul\":7900:7918   */\n  tag_145\n  tag_23\n  jump\t// in\ntag_145:\n    /* \"#utility.yul\":7864:7920   */\ntag_144:\n    /* \"#utility.yul\":7944:7982   */\n  tag_146\n    /* \"#utility.yul\":7976:7980   */\n  dup3\n    /* \"#utility.yul\":7970:7981   */\n  sload\n    /* \"#utility.yul\":7944:7982   */\n  tag_35\n  jump\t// in\ntag_146:\n    /* \"#utility.yul\":8029:8096   */\n  tag_147\n    /* \"#utility.yul\":8089:8095   */\n  dup3\n    /* \"#utility.yul\":8081:8087   */\n  dup3\n    /* \"#utility.yul\":8075:8079   */\n  dup6\n    /* \"#utility.yul\":8029:8096   */\n  tag_47\n  jump\t// in\ntag_147:\n    /* \"#utility.yul\":8123:8124   */\n  0x00\n    /* \"#utility.yul\":8147:8151   */\n  0x20\n    /* \"#utility.yul\":8134:8151   */\n  swap1\n  pop\n    /* \"#utility.yul\":8179:8181   */\n  0x1f\n    /* \"#utility.yul\":8171:8177   */\n  dup4\n    /* \"#utility.yul\":8168:8182   */\n  gt\n    /* \"#utility.yul\":8196:8197   */\n  0x01\n    /* \"#utility.yul\":8191:8809   */\n  dup2\n  eq\n  tag_149\n  jumpi\n    /* \"#utility.yul\":8853:8854   */\n  0x00\n    /* \"#utility.yul\":8870:8876   */\n  dup5\n    /* \"#utility.yul\":8867:8944   */\n  iszero\n  tag_150\n  jumpi\n    /* \"#utility.yul\":8919:8928   */\n  dup3\n    /* \"#utility.yul\":8914:8917   */\n  dup8\n    /* \"#utility.yul\":8910:8929   */\n  add\n    /* \"#utility.yul\":8904:8930   */\n  mload\n    /* \"#utility.yul\":8895:8930   */\n  swap1\n  pop\n    /* \"#utility.yul\":8867:8944   */\ntag_150:\n    /* \"#utility.yul\":8970:9037   */\n  tag_151\n    /* \"#utility.yul\":9030:9036   */\n  dup6\n    /* \"#utility.yul\":9023:9028   */\n  dup3\n    /* \"#utility.yul\":8970:9037   */\n  tag_50\n  jump\t// in\ntag_151:\n    /* \"#utility.yul\":8964:8968   */\n  dup7\n    /* \"#utility.yul\":8957:9038   */\n  sstore\n    /* \"#utility.yul\":8826:9048   */\n  pop\n    /* \"#utility.yul\":8161:9048   */\n  jump(tag_148)\n    /* \"#utility.yul\":8191:8809   */\ntag_149:\n    /* \"#utility.yul\":8243:8247   */\n  0x1f\n    /* \"#utility.yul\":8239:8248   */\n  not\n    /* \"#utility.yul\":8231:8237   */\n  dup5\n    /* \"#utility.yul\":8227:8249   */\n  and\n    /* \"#utility.yul\":8277:8314   */\n  tag_152\n    /* \"#utility.yul\":8309:8313   */\n  dup7\n    /* \"#utility.yul\":8277:8314   */\n  tag_36\n  jump\t// in\ntag_152:\n    /* \"#utility.yul\":8336:8337   */\n  0x00\n    /* \"#utility.yul\":8350:8558   */\ntag_153:\n    /* \"#utility.yul\":8364:8371   */\n  dup3\n    /* \"#utility.yul\":8361:8362   */\n  dup2\n    /* \"#utility.yul\":8358:8372   */\n  lt\n    /* \"#utility.yul\":8350:8558   */\n  iszero\n  tag_155\n  jumpi\n    /* \"#utility.yul\":8443:8452   */\n  dup5\n    /* \"#utility.yul\":8438:8441   */\n  dup10\n    /* \"#utility.yul\":8434:8453   */\n  add\n    /* \"#utility.yul\":8428:8454   */\n  mload\n    /* \"#utility.yul\":8420:8426   */\n  dup3\n    /* \"#utility.yul\":8413:8455   */\n  sstore\n    /* \"#utility.yul\":8494:8495   */\n  0x01\n    /* \"#utility.yul\":8486:8492   */\n  dup3\n    /* \"#utility.yul\":8482:8496   */\n  add\n    /* \"#utility.yul\":8472:8496   */\n  swap2\n  pop\n    /* \"#utility.yul\":8541:8543   */\n  0x20\n    /* \"#utility.yul\":8530:8539   */\n  dup6\n    /* \"#utility.yul\":8526:8544   */\n  add\n    /* \"#utility.yul\":8513:8544   */\n  swap5\n  pop\n    /* \"#utility.yul\":8387:8391   */\n  0x20\n    /* \"#utility.yul\":8384:8385   */\n  dup2\n    /* \"#utility.yul\":8380:8392   */\n  add\n    /* \"#utility.yul\":8375:8392   */\n  swap1\n  pop\n    /* \"#utility.yul\":8350:8558   */\n  jump(tag_153)\ntag_155:\n    /* \"#utility.yul\":8586:8592   */\n  dup7\n    /* \"#utility.yul\":8577:8584   */\n  dup4\n    /* \"#utility.yul\":8574:8593   */\n  lt\n    /* \"#utility.yul\":8571:8750   */\n  iszero\n  tag_156\n  jumpi\n    /* \"#utility.yul\":8644:8653   */\n  dup5\n    /* \"#utility.yul\":8639:8642   */\n  dup10\n    /* \"#utility.yul\":8635:8654   */\n  add\n    /* \"#utility.yul\":8629:8655   */\n  mload\n    /* \"#utility.yul\":8687:8735   */\n  tag_157\n    /* \"#utility.yul\":8729:8733   */\n  0x1f\n    /* \"#utility.yul\":8721:8727   */\n  dup10\n    /* \"#utility.yul\":8717:8734   */\n  and\n    /* \"#utility.yul\":8706:8715   */\n  dup3\n    /* \"#utility.yul\":8687:8735   */\n  tag_49\n  jump\t// in\ntag_157:\n    /* \"#utility.yul\":8679:8685   */\n  dup4\n    /* \"#utility.yul\":8672:8736   */\n  sstore\n    /* \"#utility.yul\":8594:8750   */\n  pop\n    /* \"#utility.yul\":8571:8750   */\ntag_156:\n    /* \"#utility.yul\":8796:8797   */\n  0x01\n    /* \"#utility.yul\":8792:8793   */\n  0x02\n    /* \"#utility.yul\":8784:8790   */\n  dup9\n    /* \"#utility.yul\":8780:8794   */\n  mul\n    /* \"#utility.yul\":8776:8798   */\n  add\n    /* \"#utility.yul\":8770:8774   */\n  dup9\n    /* \"#utility.yul\":8763:8799   */\n  sstore\n    /* \"#utility.yul\":8198:8809   */\n  pop\n  pop\n  pop\n    /* \"#utility.yul\":8161:9048   */\ntag_148:\n  pop\n    /* \"#utility.yul\":7751:9054   */\n  pop\n  pop\n  pop\n    /* \"#utility.yul\":7659:9054   */\n  pop\n  pop\n  jump\t// out\n    /* \"#utility.yul\":9060:9240   */\ntag_51:\n    /* \"#utility.yul\":9108:9185   */\n  0x4e487b7100000000000000000000000000000000000000000000000000000000\n    /* \"#utility.yul\":9105:9106   */\n  0x00\n    /* \"#utility.yul\":9098:9186   */\n  mstore\n    /* \"#utility.yul\":9205:9209   */\n  0x11\n    /* \"#utility.yul\":9202:9203   */\n  0x04\n    /* \"#utility.yul\":9195:9210   */\n  mstore\n    /* \"#utility.yul\":9229:9233   */\n  0x24\n    /* \"#utility.yul\":9226:9227   */\n  0x00\n    /* \"#utility.yul\":9219:9234   */\n  revert\n    /* \"#utility.yul\":9246:9656   */\ntag_10:\n    /* \"#utility.yul\":9286:9293   */\n  0x00\n    /* \"#utility.yul\":9309:9329   */\n  tag_160\n    /* \"#utility.yul\":9327:9328   */\n  dup3\n    /* \"#utility.yul\":9309:9329   */\n  tag_30\n  jump\t// in\ntag_160:\n    /* \"#utility.yul\":9304:9329   */\n  swap2\n  pop\n    /* \"#utility.yul\":9343:9363   */\n  tag_161\n    /* \"#utility.yul\":9361:9362   */\n  dup4\n    /* \"#utility.yul\":9343:9363   */\n  tag_30\n  jump\t// in\ntag_161:\n    /* \"#utility.yul\":9338:9363   */\n  swap3\n  pop\n    /* \"#utility.yul\":9398:9399   */\n  dup3\n    /* \"#utility.yul\":9395:9396   */\n  dup3\n    /* \"#utility.yul\":9391:9400   */\n  mul\n    /* \"#utility.yul\":9420:9450   */\n  tag_162\n    /* \"#utility.yul\":9438:9449   */\n  dup2\n    /* \"#utility.yul\":9420:9450   */\n  tag_30\n  jump\t// in\ntag_162:\n    /* \"#utility.yul\":9409:9450   */\n  swap2\n  pop\n    /* \"#utility.yul\":9599:9600   */\n  dup3\n    /* \"#utility.yul\":9590:9597   */\n  dup3\n    /* \"#utility.yul\":9586:9601   */\n  div\n    /* \"#utility.yul\":9583:9584   */\n  dup5\n    /* \"#utility.yul\":9580:9602   */\n  eq\n    /* \"#utility.yul\":9560:9561   */\n  dup4\n    /* \"#utility.yul\":9553:9562   */\n  iszero\n    /* \"#utility.yul\":9533:9616   */\n  or\n    /* \"#utility.yul\":9510:9649   */\n  tag_163\n  jumpi\n    /* \"#utility.yul\":9629:9647   */\n  tag_164\n  tag_51\n  jump\t// in\ntag_164:\n    /* \"#utility.yul\":9510:9649   */\ntag_163:\n    /* \"#utility.yul\":9294:9656   */\n  pop\n    /* \"#utility.yul\":9246:9656   */\n  swap3\n  swap2\n  pop\n  pop\n  jump\t// out\n    /* \"#utility.yul\":9662:9853   */\ntag_12:\n    /* \"#utility.yul\":9702:9705   */\n  0x00\n    /* \"#utility.yul\":9721:9741   */\n  tag_166\n    /* \"#utility.yul\":9739:9740   */\n  dup3\n    /* \"#utility.yul\":9721:9741   */\n  tag_30\n  jump\t// in\ntag_166:\n    /* \"#utility.yul\":9716:9741   */\n  swap2\n  pop\n    /* \"#utility.yul\":9755:9775   */\n  tag_167\n    /* \"#utility.yul\":9773:9774   */\n  dup4\n    /* \"#utility.yul\":9755:9775   */\n  tag_30\n  jump\t// in\ntag_167:\n    /* \"#utility.yul\":9750:9775   */\n  swap3\n  pop\n    /* \"#utility.yul\":9798:9799   */\n  dup3\n    /* \"#utility.yul\":9795:9796   */\n  dup3\n    /* \"#utility.yul\":9791:9800   */\n  add\n    /* \"#utility.yul\":9784:9800   */\n  swap1\n  pop\n    /* \"#utility.yul\":9819:9822   */\n  dup1\n    /* \"#utility.yul\":9816:9817   */\n  dup3\n    /* \"#utility.yul\":9813:9823   */\n  gt\n    /* \"#utility.yul\":9810:9846   */\n  iszero\n  tag_168\n  jumpi\n    /* \"#utility.yul\":9826:9844   */\n  tag_169\n  tag_51\n  jump\t// in\ntag_169:\n    /* \"#utility.yul\":9810:9846   */\ntag_168:\n    /* \"#utility.yul\":9662:9853   */\n  swap3\n  swap2\n  pop\n  pop\n  jump\t// out\n    /* \"#utility.yul\":9859:10039   */\ntag_15:\n    /* \"#utility.yul\":9907:9984   */\n  0x4e487b7100000000000000000000000000000000000000000000000000000000\n    /* \"#utility.yul\":9904:9905   */\n  0x00\n    /* \"#utility.yul\":9897:9985   */\n  mstore\n    /* \"#utility.yul\":10004:10008   */\n  0x21\n    /* \"#utility.yul\":10001:10002   */\n  0x04\n    /* \"#utility.yul\":9994:10009   */\n  mstore\n    /* \"#utility.yul\":10028:10032   */\n  0x24\n    /* \"#utility.yul\":10025:10026   */\n  0x00\n    /* \"#utility.yul\":10018:10033   */\n  revert\n    /* \"contracts/CrowdFunding.sol\":57:4290  contract CrowdFunding {... */\ntag_16:\n  dataSize(sub_0)\n  dup1\n  dataOffset(sub_0)\n  0x00\n  codecopy\n  0x00\n  return\nstop\n\nsub_0: assembly {\n        /* \"contracts/CrowdFunding.sol\":57:4290  contract CrowdFunding {... */\n      mstore(0x40, 0x80)\n      jumpi(tag_1, lt(calldatasize, 0x04))\n      shr(0xe0, calldataload(0x00))\n      dup1\n      0x7284e416\n      gt\n      tag_22\n      jumpi\n      dup1\n      0xb85dfb80\n      gt\n      tag_23\n      jumpi\n      dup1\n      0xb85dfb80\n      eq\n      tag_17\n      jumpi\n      dup1\n      0xc19d93fb\n      eq\n      tag_18\n      jumpi\n      dup1\n      0xc4ae3168\n      eq\n      tag_19\n      jumpi\n      dup1\n      0xca1d209d\n      eq\n      tag_20\n      jumpi\n      dup1\n      0xde170570\n      eq\n      tag_21\n      jumpi\n      jump(tag_1)\n    tag_23:\n      dup1\n      0x7284e416\n      eq\n      tag_12\n      jumpi\n      dup1\n      0x7497211b\n      eq\n      tag_13\n      jumpi\n      dup1\n      0x7adba527\n      eq\n      tag_14\n      jumpi\n      dup1\n      0x8da5cb5b\n      eq\n      tag_15\n      jumpi\n      dup1\n      0x8ece7b91\n      eq\n      tag_16\n      jumpi\n      jump(tag_1)\n    tag_22:\n      dup1\n      0x3ccfd60b\n      gt\n      tag_24\n      jumpi\n      dup1\n      0x3ccfd60b\n      eq\n      tag_7\n      jumpi\n      dup1\n      0x40193883\n      eq\n      tag_8\n      jumpi\n      dup1\n      0x590e1ae3\n      eq\n      tag_9\n      jumpi\n      dup1\n      0x5c975abb\n      eq\n      tag_10\n      jumpi\n      dup1\n      0x6f9fb98a\n      eq\n      tag_11\n      jumpi\n      jump(tag_1)\n    tag_24:\n      dup1\n      0x039af9eb\n      eq\n      tag_2\n      jumpi\n      dup1\n      0x06fdde03\n      eq\n      tag_3\n      jumpi\n      dup1\n      0x10550515\n      eq\n      tag_4\n      jumpi\n      dup1\n      0x29dcb0cf\n      eq\n      tag_5\n      jumpi\n      dup1\n      0x389b7533\n      eq\n      tag_6\n      jumpi\n    tag_1:\n      revert(0x00, 0x00)\n        /* \"contracts/CrowdFunding.sol\":563:582  Tier[] public tiers */\n    tag_2:\n      callvalue\n      dup1\n      iszero\n      tag_25\n      jumpi\n      revert(0x00, 0x00)\n    tag_25:\n      pop\n      tag_26\n      0x04\n      dup1\n      calldatasize\n      sub\n      dup2\n      add\n      swap1\n      tag_27\n      swap2\n      swap1\n      tag_28\n      jump\t// in\n    tag_27:\n      tag_29\n      jump\t// in\n    tag_26:\n      mload(0x40)\n      tag_30\n      swap4\n      swap3\n      swap2\n      swap1\n      tag_31\n      jump\t// in\n    tag_30:\n      mload(0x40)\n      dup1\n      swap2\n      sub\n      swap1\n      return\n        /* \"contracts/CrowdFunding.sol\":85:103  string public name */\n    tag_3:\n      callvalue\n      dup1\n      iszero\n      tag_32\n      jumpi\n      revert(0x00, 0x00)\n    tag_32:\n      pop\n      tag_33\n      tag_34\n      jump\t// in\n    tag_33:\n      mload(0x40)\n      tag_35\n      swap2\n      swap1\n      tag_36\n      jump\t// in\n    tag_35:\n      mload(0x40)\n      dup1\n      swap2\n      sub\n      swap1\n      return\n        /* \"contracts/CrowdFunding.sol\":3825:4160  function getCampaignStatus() public view returns (CampaignState) {... */\n    tag_4:\n      callvalue\n      dup1\n      iszero\n      tag_37\n      jumpi\n      revert(0x00, 0x00)\n    tag_37:\n      pop\n      tag_38\n      tag_39\n      jump\t// in\n    tag_38:\n      mload(0x40)\n      tag_40\n      swap2\n      swap1\n      tag_41\n      jump\t// in\n    tag_40:\n      mload(0x40)\n      dup1\n      swap2\n      sub\n      swap1\n      return\n        /* \"contracts/CrowdFunding.sol\":165:188  uint256 public deadline */\n    tag_5:\n      callvalue\n      dup1\n      iszero\n      tag_42\n      jumpi\n      revert(0x00, 0x00)\n    tag_42:\n      pop\n      tag_43\n      tag_44\n      jump\t// in\n    tag_43:\n      mload(0x40)\n      tag_45\n      swap2\n      swap1\n      tag_46\n      jump\t// in\n    tag_45:\n      mload(0x40)\n      dup1\n      swap2\n      sub\n      swap1\n      return\n        /* \"contracts/CrowdFunding.sol\":4166:4288  function extendDeadline(uint256 _daysToAdd) public onlyOwner campaignOpen {... */\n    tag_6:\n      callvalue\n      dup1\n      iszero\n      tag_47\n      jumpi\n      revert(0x00, 0x00)\n    tag_47:\n      pop\n      tag_48\n      0x04\n      dup1\n      calldatasize\n      sub\n      dup2\n      add\n      swap1\n      tag_49\n      swap2\n      swap1\n      tag_28\n      jump\t// in\n    tag_49:\n      tag_50\n      jump\t// in\n    tag_48:\n      stop\n        /* \"contracts/CrowdFunding.sol\":2633:2984  function withdraw() public onlyOwner {... */\n    tag_7:\n      callvalue\n      dup1\n      iszero\n      tag_51\n      jumpi\n      revert(0x00, 0x00)\n    tag_51:\n      pop\n      tag_52\n      tag_53\n      jump\t// in\n    tag_52:\n      stop\n        /* \"contracts/CrowdFunding.sol\":140:159  uint256 public goal */\n    tag_8:\n      callvalue\n      dup1\n      iszero\n      tag_54\n      jumpi\n      revert(0x00, 0x00)\n    tag_54:\n      pop\n      tag_55\n      tag_56\n      jump\t// in\n    tag_55:\n      mload(0x40)\n      tag_57\n      swap2\n      swap1\n      tag_46\n      jump\t// in\n    tag_57:\n      mload(0x40)\n      dup1\n      swap2\n      sub\n      swap1\n      return\n        /* \"contracts/CrowdFunding.sol\":3101:3465  function refund() public {... */\n    tag_9:\n      callvalue\n      dup1\n      iszero\n      tag_58\n      jumpi\n      revert(0x00, 0x00)\n    tag_58:\n      pop\n      tag_59\n      tag_60\n      jump\t// in\n    tag_59:\n      stop\n        /* \"contracts/CrowdFunding.sol\":220:238  bool public paused */\n    tag_10:\n      callvalue\n      dup1\n      iszero\n      tag_61\n      jumpi\n      revert(0x00, 0x00)\n    tag_61:\n      pop\n      tag_62\n      tag_63\n      jump\t// in\n    tag_62:\n      mload(0x40)\n      tag_64\n      swap2\n      swap1\n      tag_65\n      jump\t// in\n    tag_64:\n      mload(0x40)\n      dup1\n      swap2\n      sub\n      swap1\n      return\n        /* \"contracts/CrowdFunding.sol\":2990:3095  function getContractBalance() public view returns (uint256) {... */\n    tag_11:\n      callvalue\n      dup1\n      iszero\n      tag_66\n      jumpi\n      revert(0x00, 0x00)\n    tag_66:\n      pop\n      tag_67\n      tag_68\n      jump\t// in\n    tag_67:\n      mload(0x40)\n      tag_69\n      swap2\n      swap1\n      tag_46\n      jump\t// in\n    tag_69:\n      mload(0x40)\n      dup1\n      swap2\n      sub\n      swap1\n      return\n        /* \"contracts/CrowdFunding.sol\":109:134  string public description */\n    tag_12:\n      callvalue\n      dup1\n      iszero\n      tag_70\n      jumpi\n      revert(0x00, 0x00)\n    tag_70:\n      pop\n      tag_71\n      tag_72\n      jump\t// in\n    tag_71:\n      mload(0x40)\n      tag_73\n      swap2\n      swap1\n      tag_36\n      jump\t// in\n    tag_73:\n      mload(0x40)\n      dup1\n      swap2\n      sub\n      swap1\n      return\n        /* \"contracts/CrowdFunding.sol\":2433:2627  function removeTier(uint256 _index) public onlyOwner {... */\n    tag_13:\n      callvalue\n      dup1\n      iszero\n      tag_74\n      jumpi\n      revert(0x00, 0x00)\n    tag_74:\n      pop\n      tag_75\n      0x04\n      dup1\n      calldatasize\n      sub\n      dup2\n      add\n      swap1\n      tag_76\n      swap2\n      swap1\n      tag_28\n      jump\t// in\n    tag_76:\n      tag_77\n      jump\t// in\n    tag_75:\n      stop\n        /* \"contracts/CrowdFunding.sol\":3471:3649  function hasFundedTier(address _backer, uint256 _tierIndex)... */\n    tag_14:\n      callvalue\n      dup1\n      iszero\n      tag_78\n      jumpi\n      revert(0x00, 0x00)\n    tag_78:\n      pop\n      tag_79\n      0x04\n      dup1\n      calldatasize\n      sub\n      dup2\n      add\n      swap1\n      tag_80\n      swap2\n      swap1\n      tag_81\n      jump\t// in\n    tag_80:\n      tag_82\n      jump\t// in\n    tag_79:\n      mload(0x40)\n      tag_83\n      swap2\n      swap1\n      tag_65\n      jump\t// in\n    tag_83:\n      mload(0x40)\n      dup1\n      swap2\n      sub\n      swap1\n      return\n        /* \"contracts/CrowdFunding.sol\":194:214  address public owner */\n    tag_15:\n      callvalue\n      dup1\n      iszero\n      tag_84\n      jumpi\n      revert(0x00, 0x00)\n    tag_84:\n      pop\n      tag_85\n      tag_86\n      jump\t// in\n    tag_85:\n      mload(0x40)\n      tag_87\n      swap2\n      swap1\n      tag_88\n      jump\t// in\n    tag_87:\n      mload(0x40)\n      dup1\n      swap2\n      sub\n      swap1\n      return\n        /* \"contracts/CrowdFunding.sol\":2239:2427  function addTier(string memory _name, uint256 _amount) public onlyOwner {... */\n    tag_16:\n      callvalue\n      dup1\n      iszero\n      tag_89\n      jumpi\n      revert(0x00, 0x00)\n    tag_89:\n      pop\n      tag_90\n      0x04\n      dup1\n      calldatasize\n      sub\n      dup2\n      add\n      swap1\n      tag_91\n      swap2\n      swap1\n      tag_92\n      jump\t// in\n    tag_91:\n      tag_93\n      jump\t// in\n    tag_90:\n      stop\n        /* \"contracts/CrowdFunding.sol\":589:630  mapping(address => Backer) public backers */\n    tag_17:\n      callvalue\n      dup1\n      iszero\n      tag_94\n      jumpi\n      revert(0x00, 0x00)\n    tag_94:\n      pop\n      tag_95\n      0x04\n      dup1\n      calldatasize\n      sub\n      dup2\n      add\n      swap1\n      tag_96\n      swap2\n      swap1\n      tag_97\n      jump\t// in\n    tag_96:\n      tag_98\n      jump\t// in\n    tag_95:\n      mload(0x40)\n      tag_99\n      swap2\n      swap1\n      tag_46\n      jump\t// in\n    tag_99:\n      mload(0x40)\n      dup1\n      swap2\n      sub\n      swap1\n      return\n        /* \"contracts/CrowdFunding.sol\":328:354  CampaignState public state */\n    tag_18:\n      callvalue\n      dup1\n      iszero\n      tag_100\n      jumpi\n      revert(0x00, 0x00)\n    tag_100:\n      pop\n      tag_101\n      tag_102\n      jump\t// in\n    tag_101:\n      mload(0x40)\n      tag_103\n      swap2\n      swap1\n      tag_41\n      jump\t// in\n    tag_103:\n      mload(0x40)\n      dup1\n      swap2\n      sub\n      swap1\n      return\n        /* \"contracts/CrowdFunding.sol\":3746:3819  function togglePause() public onlyOwner {... */\n    tag_19:\n      callvalue\n      dup1\n      iszero\n      tag_104\n      jumpi\n      revert(0x00, 0x00)\n    tag_104:\n      pop\n      tag_105\n      tag_106\n      jump\t// in\n    tag_105:\n      stop\n        /* \"contracts/CrowdFunding.sol\":1812:2233  function fund(uint256 _tierIndex) public payable campaignOpen notPaused {... */\n    tag_20:\n      tag_107\n      0x04\n      dup1\n      calldatasize\n      sub\n      dup2\n      add\n      swap1\n      tag_108\n      swap2\n      swap1\n      tag_28\n      jump\t// in\n    tag_108:\n      tag_109\n      jump\t// in\n    tag_107:\n      stop\n        /* \"contracts/CrowdFunding.sol\":3655:3740  function getTiers() public view returns (Tier[] memory) {... */\n    tag_21:\n      callvalue\n      dup1\n      iszero\n      tag_110\n      jumpi\n      revert(0x00, 0x00)\n    tag_110:\n      pop\n      tag_111\n      tag_112\n      jump\t// in\n    tag_111:\n      mload(0x40)\n      tag_113\n      swap2\n      swap1\n      tag_114\n      jump\t// in\n    tag_113:\n      mload(0x40)\n      dup1\n      swap2\n      sub\n      swap1\n      return\n        /* \"contracts/CrowdFunding.sol\":563:582  Tier[] public tiers */\n    tag_29:\n      0x05\n      dup2\n      dup2\n      sload\n      dup2\n      lt\n      tag_115\n      jumpi\n      0x00\n      dup1\n      revert\n    tag_115:\n      swap1\n      0x00\n      mstore\n      keccak256(0x00, 0x20)\n      swap1\n      0x03\n      mul\n      add\n      0x00\n      swap2\n      pop\n      swap1\n      pop\n      dup1\n      0x00\n      add\n      dup1\n      sload\n      tag_117\n      swap1\n      tag_118\n      jump\t// in\n    tag_117:\n      dup1\n      0x1f\n      add\n      0x20\n      dup1\n      swap2\n      div\n      mul\n      0x20\n      add\n      mload(0x40)\n      swap1\n      dup2\n      add\n      0x40\n      mstore\n      dup1\n      swap3\n      swap2\n      swap1\n      dup2\n      dup2\n      mstore\n      0x20\n      add\n      dup3\n      dup1\n      sload\n      tag_119\n      swap1\n      tag_118\n      jump\t// in\n    tag_119:\n      dup1\n      iszero\n      tag_120\n      jumpi\n      dup1\n      0x1f\n      lt\n      tag_121\n      jumpi\n      0x0100\n      dup1\n      dup4\n      sload\n      div\n      mul\n      dup4\n      mstore\n      swap2\n      0x20\n      add\n      swap2\n      jump(tag_120)\n    tag_121:\n      dup3\n      add\n      swap2\n      swap1\n      0x00\n      mstore\n      keccak256(0x00, 0x20)\n      swap1\n    tag_122:\n      dup2\n      sload\n      dup2\n      mstore\n      swap1\n      0x01\n      add\n      swap1\n      0x20\n      add\n      dup1\n      dup4\n      gt\n      tag_122\n      jumpi\n      dup3\n      swap1\n      sub\n      0x1f\n      and\n      dup3\n      add\n      swap2\n    tag_120:\n      pop\n      pop\n      pop\n      pop\n      pop\n      swap1\n      dup1\n      0x01\n      add\n      sload\n      swap1\n      dup1\n      0x02\n      add\n      sload\n      swap1\n      pop\n      dup4\n      jump\t// out\n        /* \"contracts/CrowdFunding.sol\":85:103  string public name */\n    tag_34:\n      0x00\n      dup1\n      sload\n      tag_123\n      swap1\n      tag_118\n      jump\t// in\n    tag_123:\n      dup1\n      0x1f\n      add\n      0x20\n      dup1\n      swap2\n      div\n      mul\n      0x20\n      add\n      mload(0x40)\n      swap1\n      dup2\n      add\n      0x40\n      mstore\n      dup1\n      swap3\n      swap2\n      swap1\n      dup2\n      dup2\n      mstore\n      0x20\n      add\n      dup3\n      dup1\n      sload\n      tag_124\n      swap1\n      tag_118\n      jump\t// in\n    tag_124:\n      dup1\n      iszero\n      tag_125\n      jumpi\n      dup1\n      0x1f\n      lt\n      tag_126\n      jumpi\n      0x0100\n      dup1\n      dup4\n      sload\n      div\n      mul\n      dup4\n      mstore\n      swap2\n      0x20\n      add\n      swap2\n      jump(tag_125)\n    tag_126:\n      dup3\n      add\n      swap2\n      swap1\n      0x00\n      mstore\n      keccak256(0x00, 0x20)\n      swap1\n    tag_127:\n      dup2\n      sload\n      dup2\n      mstore\n      swap1\n      0x01\n      add\n      swap1\n      0x20\n      add\n      dup1\n      dup4\n      gt\n      tag_127\n      jumpi\n      dup3\n      swap1\n      sub\n      0x1f\n      and\n      dup3\n      add\n      swap2\n    tag_125:\n      pop\n      pop\n      pop\n      pop\n      pop\n      dup2\n      jump\t// out\n        /* \"contracts/CrowdFunding.sol\":3825:4160  function getCampaignStatus() public view returns (CampaignState) {... */\n    tag_39:\n        /* \"contracts/CrowdFunding.sol\":3875:3888  CampaignState */\n      0x00\n        /* \"contracts/CrowdFunding.sol\":3913:3933  CampaignState.Active */\n      0x00\n        /* \"contracts/CrowdFunding.sol\":3904:3933  state == CampaignState.Active */\n      0x02\n      dup2\n      gt\n      iszero\n      tag_129\n      jumpi\n      tag_130\n      tag_131\n      jump\t// in\n    tag_130:\n    tag_129:\n        /* \"contracts/CrowdFunding.sol\":3904:3909  state */\n      0x04\n      0x15\n      swap1\n      sload\n      swap1\n      0x0100\n      exp\n      swap1\n      div\n      0xff\n      and\n        /* \"contracts/CrowdFunding.sol\":3904:3933  state == CampaignState.Active */\n      0x02\n      dup2\n      gt\n      iszero\n      tag_132\n      jumpi\n      tag_133\n      tag_131\n      jump\t// in\n    tag_133:\n    tag_132:\n      eq\n        /* \"contracts/CrowdFunding.sol\":3904:3963  state == CampaignState.Active && block.timestamp > deadline */\n      dup1\n      iszero\n      tag_134\n      jumpi\n      pop\n        /* \"contracts/CrowdFunding.sol\":3955:3963  deadline */\n      sload(0x03)\n        /* \"contracts/CrowdFunding.sol\":3937:3952  block.timestamp */\n      timestamp\n        /* \"contracts/CrowdFunding.sol\":3937:3963  block.timestamp > deadline */\n      gt\n        /* \"contracts/CrowdFunding.sol\":3904:3963  state == CampaignState.Active && block.timestamp > deadline */\n    tag_134:\n        /* \"contracts/CrowdFunding.sol\":3900:4132  if (state == CampaignState.Active && block.timestamp > deadline) {... */\n      iszero\n      tag_135\n      jumpi\n        /* \"contracts/CrowdFunding.sol\":4027:4031  goal */\n      sload(0x02)\n        /* \"contracts/CrowdFunding.sol\":4002:4023  address(this).balance */\n      selfbalance\n        /* \"contracts/CrowdFunding.sol\":4002:4031  address(this).balance >= goal */\n      lt\n      iszero\n        /* \"contracts/CrowdFunding.sol\":4002:4121  address(this).balance >= goal... */\n      tag_136\n      jumpi\n        /* \"contracts/CrowdFunding.sol\":4101:4121  CampaignState.Failed */\n      0x02\n        /* \"contracts/CrowdFunding.sol\":4002:4121  address(this).balance >= goal... */\n      jump(tag_137)\n    tag_136:\n        /* \"contracts/CrowdFunding.sol\":4054:4078  CampaignState.Successful */\n      0x01\n        /* \"contracts/CrowdFunding.sol\":4002:4121  address(this).balance >= goal... */\n    tag_137:\n        /* \"contracts/CrowdFunding.sol\":3979:4121  return... */\n      swap1\n      pop\n      jump(tag_128)\n        /* \"contracts/CrowdFunding.sol\":3900:4132  if (state == CampaignState.Active && block.timestamp > deadline) {... */\n    tag_135:\n        /* \"contracts/CrowdFunding.sol\":4148:4153  state */\n      0x04\n      0x15\n      swap1\n      sload\n      swap1\n      0x0100\n      exp\n      swap1\n      div\n      0xff\n      and\n        /* \"contracts/CrowdFunding.sol\":4141:4153  return state */\n      swap1\n      pop\n        /* \"contracts/CrowdFunding.sol\":3825:4160  function getCampaignStatus() public view returns (CampaignState) {... */\n    tag_128:\n      swap1\n      jump\t// out\n        /* \"contracts/CrowdFunding.sol\":165:188  uint256 public deadline */\n    tag_44:\n      sload(0x03)\n      dup2\n      jump\t// out\n        /* \"contracts/CrowdFunding.sol\":4166:4288  function extendDeadline(uint256 _daysToAdd) public onlyOwner campaignOpen {... */\n    tag_50:\n        /* \"contracts/CrowdFunding.sol\":690:695  owner */\n      0x04\n      0x00\n      swap1\n      sload\n      swap1\n      0x0100\n      exp\n      swap1\n      div\n      0xffffffffffffffffffffffffffffffffffffffff\n      and\n        /* \"contracts/CrowdFunding.sol\":676:695  msg.sender == owner */\n      0xffffffffffffffffffffffffffffffffffffffff\n      and\n        /* \"contracts/CrowdFunding.sol\":676:686  msg.sender */\n      caller\n        /* \"contracts/CrowdFunding.sol\":676:695  msg.sender == owner */\n      0xffffffffffffffffffffffffffffffffffffffff\n      and\n      eq\n        /* \"contracts/CrowdFunding.sol\":668:721  require(msg.sender == owner, \"You are not the owner\") */\n      tag_139\n      jumpi\n      mload(0x40)\n      0x08c379a000000000000000000000000000000000000000000000000000000000\n      dup2\n      mstore\n      0x04\n      add\n      tag_140\n      swap1\n      tag_141\n      jump\t// in\n    tag_140:\n      mload(0x40)\n      dup1\n      swap2\n      sub\n      swap1\n      revert\n    tag_139:\n        /* \"contracts/CrowdFunding.sol\":796:816  CampaignState.Active */\n      0x00\n        /* \"contracts/CrowdFunding.sol\":787:816  state == CampaignState.Active */\n      0x02\n      dup2\n      gt\n      iszero\n      tag_143\n      jumpi\n      tag_144\n      tag_131\n      jump\t// in\n    tag_144:\n    tag_143:\n        /* \"contracts/CrowdFunding.sol\":787:792  state */\n      0x04\n      0x15\n      swap1\n      sload\n      swap1\n      0x0100\n      exp\n      swap1\n      div\n      0xff\n      and\n        /* \"contracts/CrowdFunding.sol\":787:816  state == CampaignState.Active */\n      0x02\n      dup2\n      gt\n      iszero\n      tag_145\n      jumpi\n      tag_146\n      tag_131\n      jump\t// in\n    tag_146:\n    tag_145:\n      eq\n        /* \"contracts/CrowdFunding.sol\":779:843  require(state == CampaignState.Active, \"Campaign is not Active\") */\n      tag_147\n      jumpi\n      mload(0x40)\n      0x08c379a000000000000000000000000000000000000000000000000000000000\n      dup2\n      mstore\n      0x04\n      add\n      tag_148\n      swap1\n      tag_149\n      jump\t// in\n    tag_148:\n      mload(0x40)\n      dup1\n      swap2\n      sub\n      swap1\n      revert\n    tag_147:\n        /* \"contracts/CrowdFunding.sol\":4275:4281  1 days */\n      0x015180\n        /* \"contracts/CrowdFunding.sol\":4262:4272  _daysToAdd */\n      dup2\n        /* \"contracts/CrowdFunding.sol\":4262:4281  _daysToAdd * 1 days */\n      tag_151\n      swap2\n      swap1\n      tag_152\n      jump\t// in\n    tag_151:\n        /* \"contracts/CrowdFunding.sol\":4250:4258  deadline */\n      0x03\n      0x00\n        /* \"contracts/CrowdFunding.sol\":4250:4281  deadline += _daysToAdd * 1 days */\n      dup3\n      dup3\n      sload\n      tag_153\n      swap2\n      swap1\n      tag_154\n      jump\t// in\n    tag_153:\n      swap3\n      pop\n      pop\n      dup2\n      swap1\n      sstore\n      pop\n        /* \"contracts/CrowdFunding.sol\":4166:4288  function extendDeadline(uint256 _daysToAdd) public onlyOwner campaignOpen {... */\n      pop\n      jump\t// out\n        /* \"contracts/CrowdFunding.sol\":2633:2984  function withdraw() public onlyOwner {... */\n    tag_53:\n        /* \"contracts/CrowdFunding.sol\":690:695  owner */\n      0x04\n      0x00\n      swap1\n      sload\n      swap1\n      0x0100\n      exp\n      swap1\n      div\n      0xffffffffffffffffffffffffffffffffffffffff\n      and\n        /* \"contracts/CrowdFunding.sol\":676:695  msg.sender == owner */\n      0xffffffffffffffffffffffffffffffffffffffff\n      and\n        /* \"contracts/CrowdFunding.sol\":676:686  msg.sender */\n      caller\n        /* \"contracts/CrowdFunding.sol\":676:695  msg.sender == owner */\n      0xffffffffffffffffffffffffffffffffffffffff\n      and\n      eq\n        /* \"contracts/CrowdFunding.sol\":668:721  require(msg.sender == owner, \"You are not the owner\") */\n      tag_156\n      jumpi\n      mload(0x40)\n      0x08c379a000000000000000000000000000000000000000000000000000000000\n      dup2\n      mstore\n      0x04\n      add\n      tag_157\n      swap1\n      tag_141\n      jump\t// in\n    tag_157:\n      mload(0x40)\n      dup1\n      swap2\n      sub\n      swap1\n      revert\n    tag_156:\n        /* \"contracts/CrowdFunding.sol\":2680:2709  checkAndUpdateCampaignState() */\n      tag_159\n        /* \"contracts/CrowdFunding.sol\":2680:2707  checkAndUpdateCampaignState */\n      tag_160\n        /* \"contracts/CrowdFunding.sol\":2680:2709  checkAndUpdateCampaignState() */\n      jump\t// in\n    tag_159:\n        /* \"contracts/CrowdFunding.sol\":2750:2774  CampaignState.Successful */\n      0x01\n        /* \"contracts/CrowdFunding.sol\":2741:2774  state == CampaignState.Successful */\n      0x02\n      dup2\n      gt\n      iszero\n      tag_161\n      jumpi\n      tag_162\n      tag_131\n      jump\t// in\n    tag_162:\n    tag_161:\n        /* \"contracts/CrowdFunding.sol\":2741:2746  state */\n      0x04\n      0x15\n      swap1\n      sload\n      swap1\n      0x0100\n      exp\n      swap1\n      div\n      0xff\n      and\n        /* \"contracts/CrowdFunding.sol\":2741:2774  state == CampaignState.Successful */\n      0x02\n      dup2\n      gt\n      iszero\n      tag_163\n      jumpi\n      tag_164\n      tag_131\n      jump\t// in\n    tag_164:\n    tag_163:\n      eq\n        /* \"contracts/CrowdFunding.sol\":2720:2827  require(... */\n      tag_165\n      jumpi\n      mload(0x40)\n      0x08c379a000000000000000000000000000000000000000000000000000000000\n      dup2\n      mstore\n      0x04\n      add\n      tag_166\n      swap1\n      tag_167\n      jump\t// in\n    tag_166:\n      mload(0x40)\n      dup1\n      swap2\n      sub\n      swap1\n      revert\n    tag_165:\n        /* \"contracts/CrowdFunding.sol\":2838:2853  uint256 balance */\n      0x00\n        /* \"contracts/CrowdFunding.sol\":2856:2877  address(this).balance */\n      selfbalance\n        /* \"contracts/CrowdFunding.sol\":2838:2877  uint256 balance = address(this).balance */\n      swap1\n      pop\n        /* \"contracts/CrowdFunding.sol\":2905:2906  0 */\n      0x00\n        /* \"contracts/CrowdFunding.sol\":2895:2902  balance */\n      dup2\n        /* \"contracts/CrowdFunding.sol\":2895:2906  balance > 0 */\n      gt\n        /* \"contracts/CrowdFunding.sol\":2887:2934  require(balance > 0, \"No balance to withdraw!\") */\n      tag_168\n      jumpi\n      mload(0x40)\n      0x08c379a000000000000000000000000000000000000000000000000000000000\n      dup2\n      mstore\n      0x04\n      add\n      tag_169\n      swap1\n      tag_170\n      jump\t// in\n    tag_169:\n      mload(0x40)\n      dup1\n      swap2\n      sub\n      swap1\n      revert\n    tag_168:\n        /* \"contracts/CrowdFunding.sol\":2953:2958  owner */\n      0x04\n      0x00\n      swap1\n      sload\n      swap1\n      0x0100\n      exp\n      swap1\n      div\n      0xffffffffffffffffffffffffffffffffffffffff\n      and\n        /* \"contracts/CrowdFunding.sol\":2945:2968  payable(owner).transfer */\n      0xffffffffffffffffffffffffffffffffffffffff\n      and\n        /* \"contracts/CrowdFunding.sol\":2945:2977  payable(owner).transfer(balance) */\n      0x08fc\n        /* \"contracts/CrowdFunding.sol\":2969:2976  balance */\n      dup3\n        /* \"contracts/CrowdFunding.sol\":2945:2977  payable(owner).transfer(balance) */\n      swap1\n      dup2\n      iszero\n      mul\n      swap1\n      mload(0x40)\n      0x00\n      mload(0x40)\n      dup1\n      dup4\n      sub\n      dup2\n      dup6\n      dup9\n      dup9\n      call\n      swap4\n      pop\n      pop\n      pop\n      pop\n      iszero\n      dup1\n      iszero\n      tag_172\n      jumpi\n      returndatacopy(0x00, 0x00, returndatasize)\n      revert(0x00, returndatasize)\n    tag_172:\n      pop\n        /* \"contracts/CrowdFunding.sol\":2670:2984  {... */\n      pop\n        /* \"contracts/CrowdFunding.sol\":2633:2984  function withdraw() public onlyOwner {... */\n      jump\t// out\n        /* \"contracts/CrowdFunding.sol\":140:159  uint256 public goal */\n    tag_56:\n      sload(0x02)\n      dup2\n      jump\t// out\n        /* \"contracts/CrowdFunding.sol\":3101:3465  function refund() public {... */\n    tag_60:\n        /* \"contracts/CrowdFunding.sol\":3136:3165  checkAndUpdateCampaignState() */\n      tag_174\n        /* \"contracts/CrowdFunding.sol\":3136:3163  checkAndUpdateCampaignState */\n      tag_160\n        /* \"contracts/CrowdFunding.sol\":3136:3165  checkAndUpdateCampaignState() */\n      jump\t// in\n    tag_174:\n        /* \"contracts/CrowdFunding.sol\":3192:3212  CampaignState.Failed */\n      0x02\n        /* \"contracts/CrowdFunding.sol\":3183:3212  state == CampaignState.Failed */\n      dup1\n      dup2\n      gt\n      iszero\n      tag_175\n      jumpi\n      tag_176\n      tag_131\n      jump\t// in\n    tag_176:\n    tag_175:\n        /* \"contracts/CrowdFunding.sol\":3183:3188  state */\n      0x04\n      0x15\n      swap1\n      sload\n      swap1\n      0x0100\n      exp\n      swap1\n      div\n      0xff\n      and\n        /* \"contracts/CrowdFunding.sol\":3183:3212  state == CampaignState.Failed */\n      0x02\n      dup2\n      gt\n      iszero\n      tag_177\n      jumpi\n      tag_178\n      tag_131\n      jump\t// in\n    tag_178:\n    tag_177:\n      eq\n        /* \"contracts/CrowdFunding.sol\":3175:3238  require(state == CampaignState.Failed, \"Refunds not available\") */\n      tag_179\n      jumpi\n      mload(0x40)\n      0x08c379a000000000000000000000000000000000000000000000000000000000\n      dup2\n      mstore\n      0x04\n      add\n      tag_180\n      swap1\n      tag_181\n      jump\t// in\n    tag_180:\n      mload(0x40)\n      dup1\n      swap2\n      sub\n      swap1\n      revert\n    tag_179:\n        /* \"contracts/CrowdFunding.sol\":3248:3262  uint256 amount */\n      0x00\n        /* \"contracts/CrowdFunding.sol\":3265:3272  backers */\n      0x06\n        /* \"contracts/CrowdFunding.sol\":3265:3284  backers[msg.sender] */\n      0x00\n        /* \"contracts/CrowdFunding.sol\":3273:3283  msg.sender */\n      caller\n        /* \"contracts/CrowdFunding.sol\":3265:3284  backers[msg.sender] */\n      0xffffffffffffffffffffffffffffffffffffffff\n      and\n      0xffffffffffffffffffffffffffffffffffffffff\n      and\n      dup2\n      mstore\n      0x20\n      add\n      swap1\n      dup2\n      mstore\n      0x20\n      add\n      0x00\n      keccak256\n        /* \"contracts/CrowdFunding.sol\":3265:3302  backers[msg.sender].totalContribution */\n      0x00\n      add\n      sload\n        /* \"contracts/CrowdFunding.sol\":3248:3302  uint256 amount = backers[msg.sender].totalContribution */\n      swap1\n      pop\n        /* \"contracts/CrowdFunding.sol\":3329:3330  0 */\n      0x00\n        /* \"contracts/CrowdFunding.sol\":3320:3326  amount */\n      dup2\n        /* \"contracts/CrowdFunding.sol\":3320:3330  amount > 0 */\n      gt\n        /* \"contracts/CrowdFunding.sol\":3312:3360  require(amount > 0, \"No contribution to refund\") */\n      tag_182\n      jumpi\n      mload(0x40)\n      0x08c379a000000000000000000000000000000000000000000000000000000000\n      dup2\n      mstore\n      0x04\n      add\n      tag_183\n      swap1\n      tag_184\n      jump\t// in\n    tag_183:\n      mload(0x40)\n      dup1\n      swap2\n      sub\n      swap1\n      revert\n    tag_182:\n        /* \"contracts/CrowdFunding.sol\":3411:3412  0 */\n      0x00\n        /* \"contracts/CrowdFunding.sol\":3371:3378  backers */\n      0x06\n        /* \"contracts/CrowdFunding.sol\":3371:3390  backers[msg.sender] */\n      0x00\n        /* \"contracts/CrowdFunding.sol\":3379:3389  msg.sender */\n      caller\n        /* \"contracts/CrowdFunding.sol\":3371:3390  backers[msg.sender] */\n      0xffffffffffffffffffffffffffffffffffffffff\n      and\n      0xffffffffffffffffffffffffffffffffffffffff\n      and\n      dup2\n      mstore\n      0x20\n      add\n      swap1\n      dup2\n      mstore\n      0x20\n      add\n      0x00\n      keccak256\n        /* \"contracts/CrowdFunding.sol\":3371:3408  backers[msg.sender].totalContribution */\n      0x00\n      add\n        /* \"contracts/CrowdFunding.sol\":3371:3412  backers[msg.sender].totalContribution = 0 */\n      dup2\n      swap1\n      sstore\n      pop\n        /* \"contracts/CrowdFunding.sol\":3430:3440  msg.sender */\n      caller\n        /* \"contracts/CrowdFunding.sol\":3422:3450  payable(msg.sender).transfer */\n      0xffffffffffffffffffffffffffffffffffffffff\n      and\n        /* \"contracts/CrowdFunding.sol\":3422:3458  payable(msg.sender).transfer(amount) */\n      0x08fc\n        /* \"contracts/CrowdFunding.sol\":3451:3457  amount */\n      dup3\n        /* \"contracts/CrowdFunding.sol\":3422:3458  payable(msg.sender).transfer(amount) */\n      swap1\n      dup2\n      iszero\n      mul\n      swap1\n      mload(0x40)\n      0x00\n      mload(0x40)\n      dup1\n      dup4\n      sub\n      dup2\n      dup6\n      dup9\n      dup9\n      call\n      swap4\n      pop\n      pop\n      pop\n      pop\n      iszero\n      dup1\n      iszero\n      tag_186\n      jumpi\n      returndatacopy(0x00, 0x00, returndatasize)\n      revert(0x00, returndatasize)\n    tag_186:\n      pop\n        /* \"contracts/CrowdFunding.sol\":3126:3465  {... */\n      pop\n        /* \"contracts/CrowdFunding.sol\":3101:3465  function refund() public {... */\n      jump\t// out\n        /* \"contracts/CrowdFunding.sol\":220:238  bool public paused */\n    tag_63:\n      0x04\n      0x14\n      swap1\n      sload\n      swap1\n      0x0100\n      exp\n      swap1\n      div\n      0xff\n      and\n      dup2\n      jump\t// out\n        /* \"contracts/CrowdFunding.sol\":2990:3095  function getContractBalance() public view returns (uint256) {... */\n    tag_68:\n        /* \"contracts/CrowdFunding.sol\":3041:3048  uint256 */\n      0x00\n        /* \"contracts/CrowdFunding.sol\":3067:3088  address(this).balance */\n      selfbalance\n        /* \"contracts/CrowdFunding.sol\":3060:3088  return address(this).balance */\n      swap1\n      pop\n        /* \"contracts/CrowdFunding.sol\":2990:3095  function getContractBalance() public view returns (uint256) {... */\n      swap1\n      jump\t// out\n        /* \"contracts/CrowdFunding.sol\":109:134  string public description */\n    tag_72:\n      0x01\n      dup1\n      sload\n      tag_188\n      swap1\n      tag_118\n      jump\t// in\n    tag_188:\n      dup1\n      0x1f\n      add\n      0x20\n      dup1\n      swap2\n      div\n      mul\n      0x20\n      add\n      mload(0x40)\n      swap1\n      dup2\n      add\n      0x40\n      mstore\n      dup1\n      swap3\n      swap2\n      swap1\n      dup2\n      dup2\n      mstore\n      0x20\n      add\n      dup3\n      dup1\n      sload\n      tag_189\n      swap1\n      tag_118\n      jump\t// in\n    tag_189:\n      dup1\n      iszero\n      tag_190\n      jumpi\n      dup1\n      0x1f\n      lt\n      tag_191\n      jumpi\n      0x0100\n      dup1\n      dup4\n      sload\n      div\n      mul\n      dup4\n      mstore\n      swap2\n      0x20\n      add\n      swap2\n      jump(tag_190)\n    tag_191:\n      dup3\n      add\n      swap2\n      swap1\n      0x00\n      mstore\n      keccak256(0x00, 0x20)\n      swap1\n    tag_192:\n      dup2\n      sload\n      dup2\n      mstore\n      swap1\n      0x01\n      add\n      swap1\n      0x20\n      add\n      dup1\n      dup4\n      gt\n      tag_192\n      jumpi\n      dup3\n      swap1\n      sub\n      0x1f\n      and\n      dup3\n      add\n      swap2\n    tag_190:\n      pop\n      pop\n      pop\n      pop\n      pop\n      dup2\n      jump\t// out\n        /* \"contracts/CrowdFunding.sol\":2433:2627  function removeTier(uint256 _index) public onlyOwner {... */\n    tag_77:\n        /* \"contracts/CrowdFunding.sol\":690:695  owner */\n      0x04\n      0x00\n      swap1\n      sload\n      swap1\n      0x0100\n      exp\n      swap1\n      div\n      0xffffffffffffffffffffffffffffffffffffffff\n      and\n        /* \"contracts/CrowdFunding.sol\":676:695  msg.sender == owner */\n      0xffffffffffffffffffffffffffffffffffffffff\n      and\n        /* \"contracts/CrowdFunding.sol\":676:686  msg.sender */\n      caller\n        /* \"contracts/CrowdFunding.sol\":676:695  msg.sender == owner */\n      0xffffffffffffffffffffffffffffffffffffffff\n      and\n      eq\n        /* \"contracts/CrowdFunding.sol\":668:721  require(msg.sender == owner, \"You are not the owner\") */\n      tag_194\n      jumpi\n      mload(0x40)\n      0x08c379a000000000000000000000000000000000000000000000000000000000\n      dup2\n      mstore\n      0x04\n      add\n      tag_195\n      swap1\n      tag_141\n      jump\t// in\n    tag_195:\n      mload(0x40)\n      dup1\n      swap2\n      sub\n      swap1\n      revert\n    tag_194:\n        /* \"contracts/CrowdFunding.sol\":2513:2518  tiers */\n      0x05\n        /* \"contracts/CrowdFunding.sol\":2513:2525  tiers.length */\n      dup1\n      sload\n      swap1\n      pop\n        /* \"contracts/CrowdFunding.sol\":2504:2510  _index */\n      dup2\n        /* \"contracts/CrowdFunding.sol\":2504:2525  _index < tiers.length */\n      lt\n        /* \"contracts/CrowdFunding.sol\":2496:2550  require(_index < tiers.length, \"Tier does not exist!\") */\n      tag_197\n      jumpi\n      mload(0x40)\n      0x08c379a000000000000000000000000000000000000000000000000000000000\n      dup2\n      mstore\n      0x04\n      add\n      tag_198\n      swap1\n      tag_199\n      jump\t// in\n    tag_198:\n      mload(0x40)\n      dup1\n      swap2\n      sub\n      swap1\n      revert\n    tag_197:\n        /* \"contracts/CrowdFunding.sol\":2576:2581  tiers */\n      0x05\n        /* \"contracts/CrowdFunding.sol\":2597:2598  1 */\n      0x01\n        /* \"contracts/CrowdFunding.sol\":2582:2587  tiers */\n      0x05\n        /* \"contracts/CrowdFunding.sol\":2582:2594  tiers.length */\n      dup1\n      sload\n      swap1\n      pop\n        /* \"contracts/CrowdFunding.sol\":2582:2598  tiers.length - 1 */\n      tag_200\n      swap2\n      swap1\n      tag_201\n      jump\t// in\n    tag_200:\n        /* \"contracts/CrowdFunding.sol\":2576:2599  tiers[tiers.length - 1] */\n      dup2\n      sload\n      dup2\n      lt\n      tag_202\n      jumpi\n      tag_203\n      tag_204\n      jump\t// in\n    tag_203:\n    tag_202:\n      swap1\n      0x00\n      mstore\n      keccak256(0x00, 0x20)\n      swap1\n      0x03\n      mul\n      add\n        /* \"contracts/CrowdFunding.sol\":2560:2565  tiers */\n      0x05\n        /* \"contracts/CrowdFunding.sol\":2566:2572  _index */\n      dup3\n        /* \"contracts/CrowdFunding.sol\":2560:2573  tiers[_index] */\n      dup2\n      sload\n      dup2\n      lt\n      tag_206\n      jumpi\n      tag_207\n      tag_204\n      jump\t// in\n    tag_207:\n    tag_206:\n      swap1\n      0x00\n      mstore\n      keccak256(0x00, 0x20)\n      swap1\n      0x03\n      mul\n      add\n        /* \"contracts/CrowdFunding.sol\":2560:2599  tiers[_index] = tiers[tiers.length - 1] */\n      0x00\n      dup3\n      add\n      dup2\n      0x00\n      add\n      swap1\n      dup2\n      tag_209\n      swap2\n      swap1\n      tag_210\n      jump\t// in\n    tag_209:\n      pop\n      0x01\n      dup3\n      add\n      sload\n      dup2\n      0x01\n      add\n      sstore\n      0x02\n      dup3\n      add\n      sload\n      dup2\n      0x02\n      add\n      sstore\n      swap1\n      pop\n      pop\n        /* \"contracts/CrowdFunding.sol\":2609:2614  tiers */\n      0x05\n        /* \"contracts/CrowdFunding.sol\":2609:2620  tiers.pop() */\n      dup1\n      sload\n      dup1\n      tag_211\n      jumpi\n      tag_212\n      tag_213\n      jump\t// in\n    tag_212:\n    tag_211:\n      0x01\n      swap1\n      sub\n      dup2\n      dup2\n      swap1\n      0x00\n      mstore\n      keccak256(0x00, 0x20)\n      swap1\n      0x03\n      mul\n      add\n      0x00\n      0x00\n      dup3\n      add\n      0x00\n      tag_215\n      swap2\n      swap1\n      tag_216\n      jump\t// in\n    tag_215:\n      0x01\n      dup3\n      add\n      0x00\n      swap1\n      sstore\n      0x02\n      dup3\n      add\n      0x00\n      swap1\n      sstore\n      pop\n      pop\n      swap1\n      sstore\n        /* \"contracts/CrowdFunding.sol\":2433:2627  function removeTier(uint256 _index) public onlyOwner {... */\n      pop\n      jump\t// out\n        /* \"contracts/CrowdFunding.sol\":3471:3649  function hasFundedTier(address _backer, uint256 _tierIndex)... */\n    tag_82:\n        /* \"contracts/CrowdFunding.sol\":3576:3580  bool */\n      0x00\n        /* \"contracts/CrowdFunding.sol\":3603:3610  backers */\n      0x06\n        /* \"contracts/CrowdFunding.sol\":3603:3619  backers[_backer] */\n      0x00\n        /* \"contracts/CrowdFunding.sol\":3611:3618  _backer */\n      dup5\n        /* \"contracts/CrowdFunding.sol\":3603:3619  backers[_backer] */\n      0xffffffffffffffffffffffffffffffffffffffff\n      and\n      0xffffffffffffffffffffffffffffffffffffffff\n      and\n      dup2\n      mstore\n      0x20\n      add\n      swap1\n      dup2\n      mstore\n      0x20\n      add\n      0x00\n      keccak256\n        /* \"contracts/CrowdFunding.sol\":3603:3630  backers[_backer].fundedTier */\n      0x01\n      add\n        /* \"contracts/CrowdFunding.sol\":3603:3642  backers[_backer].fundedTier[_tierIndex] */\n      0x00\n        /* \"contracts/CrowdFunding.sol\":3631:3641  _tierIndex */\n      dup4\n        /* \"contracts/CrowdFunding.sol\":3603:3642  backers[_backer].fundedTier[_tierIndex] */\n      dup2\n      mstore\n      0x20\n      add\n      swap1\n      dup2\n      mstore\n      0x20\n      add\n      0x00\n      keccak256\n      0x00\n      swap1\n      sload\n      swap1\n      0x0100\n      exp\n      swap1\n      div\n      0xff\n      and\n        /* \"contracts/CrowdFunding.sol\":3596:3642  return backers[_backer].fundedTier[_tierIndex] */\n      swap1\n      pop\n        /* \"contracts/CrowdFunding.sol\":3471:3649  function hasFundedTier(address _backer, uint256 _tierIndex)... */\n      swap3\n      swap2\n      pop\n      pop\n      jump\t// out\n        /* \"contracts/CrowdFunding.sol\":194:214  address public owner */\n    tag_86:\n      0x04\n      0x00\n      swap1\n      sload\n      swap1\n      0x0100\n      exp\n      swap1\n      div\n      0xffffffffffffffffffffffffffffffffffffffff\n      and\n      dup2\n      jump\t// out\n        /* \"contracts/CrowdFunding.sol\":2239:2427  function addTier(string memory _name, uint256 _amount) public onlyOwner {... */\n    tag_93:\n        /* \"contracts/CrowdFunding.sol\":690:695  owner */\n      0x04\n      0x00\n      swap1\n      sload\n      swap1\n      0x0100\n      exp\n      swap1\n      div\n      0xffffffffffffffffffffffffffffffffffffffff\n      and\n        /* \"contracts/CrowdFunding.sol\":676:695  msg.sender == owner */\n      0xffffffffffffffffffffffffffffffffffffffff\n      and\n        /* \"contracts/CrowdFunding.sol\":676:686  msg.sender */\n      caller\n        /* \"contracts/CrowdFunding.sol\":676:695  msg.sender == owner */\n      0xffffffffffffffffffffffffffffffffffffffff\n      and\n      eq\n        /* \"contracts/CrowdFunding.sol\":668:721  require(msg.sender == owner, \"You are not the owner\") */\n      tag_219\n      jumpi\n      mload(0x40)\n      0x08c379a000000000000000000000000000000000000000000000000000000000\n      dup2\n      mstore\n      0x04\n      add\n      tag_220\n      swap1\n      tag_141\n      jump\t// in\n    tag_220:\n      mload(0x40)\n      dup1\n      swap2\n      sub\n      swap1\n      revert\n    tag_219:\n        /* \"contracts/CrowdFunding.sol\":2339:2340  0 */\n      0x00\n        /* \"contracts/CrowdFunding.sol\":2329:2336  _amount */\n      dup2\n        /* \"contracts/CrowdFunding.sol\":2329:2340  _amount > 0 */\n      gt\n        /* \"contracts/CrowdFunding.sol\":2321:2375  require(_amount > 0, \"Amount must be greater than 0!\") */\n      tag_222\n      jumpi\n      mload(0x40)\n      0x08c379a000000000000000000000000000000000000000000000000000000000\n      dup2\n      mstore\n      0x04\n      add\n      tag_223\n      swap1\n      tag_224\n      jump\t// in\n    tag_223:\n      mload(0x40)\n      dup1\n      swap2\n      sub\n      swap1\n      revert\n    tag_222:\n        /* \"contracts/CrowdFunding.sol\":2385:2390  tiers */\n      0x05\n        /* \"contracts/CrowdFunding.sol\":2396:2419  Tier(_name, _amount, 0) */\n      mload(0x40)\n      dup1\n      0x60\n      add\n      0x40\n      mstore\n      dup1\n        /* \"contracts/CrowdFunding.sol\":2401:2406  _name */\n      dup5\n        /* \"contracts/CrowdFunding.sol\":2396:2419  Tier(_name, _amount, 0) */\n      dup2\n      mstore\n      0x20\n      add\n        /* \"contracts/CrowdFunding.sol\":2408:2415  _amount */\n      dup4\n        /* \"contracts/CrowdFunding.sol\":2396:2419  Tier(_name, _amount, 0) */\n      dup2\n      mstore\n      0x20\n      add\n        /* \"contracts/CrowdFunding.sol\":2417:2418  0 */\n      0x00\n        /* \"contracts/CrowdFunding.sol\":2396:2419  Tier(_name, _amount, 0) */\n      dup2\n      mstore\n      pop\n        /* \"contracts/CrowdFunding.sol\":2385:2420  tiers.push(Tier(_name, _amount, 0)) */\n      swap1\n      dup1\n      0x01\n      dup2\n      sload\n      add\n      dup1\n      dup3\n      sstore\n      dup1\n      swap2\n      pop\n      pop\n      0x01\n      swap1\n      sub\n      swap1\n      0x00\n      mstore\n      keccak256(0x00, 0x20)\n      swap1\n      0x03\n      mul\n      add\n      0x00\n      swap1\n      swap2\n      swap1\n      swap2\n      swap1\n      swap2\n      pop\n      0x00\n      dup3\n      add\n      mload\n      dup2\n      0x00\n      add\n      swap1\n      dup2\n      tag_226\n      swap2\n      swap1\n      tag_227\n      jump\t// in\n    tag_226:\n      pop\n      0x20\n      dup3\n      add\n      mload\n      dup2\n      0x01\n      add\n      sstore\n      0x40\n      dup3\n      add\n      mload\n      dup2\n      0x02\n      add\n      sstore\n      pop\n      pop\n        /* \"contracts/CrowdFunding.sol\":2239:2427  function addTier(string memory _name, uint256 _amount) public onlyOwner {... */\n      pop\n      pop\n      jump\t// out\n        /* \"contracts/CrowdFunding.sol\":589:630  mapping(address => Backer) public backers */\n    tag_98:\n      mstore(0x20, 0x06)\n      dup1\n      0x00\n      mstore\n      keccak256(0x00, 0x40)\n      0x00\n      swap2\n      pop\n      swap1\n      pop\n      dup1\n      0x00\n      add\n      sload\n      swap1\n      pop\n      dup2\n      jump\t// out\n        /* \"contracts/CrowdFunding.sol\":328:354  CampaignState public state */\n    tag_102:\n      0x04\n      0x15\n      swap1\n      sload\n      swap1\n      0x0100\n      exp\n      swap1\n      div\n      0xff\n      and\n      dup2\n      jump\t// out\n        /* \"contracts/CrowdFunding.sol\":3746:3819  function togglePause() public onlyOwner {... */\n    tag_106:\n        /* \"contracts/CrowdFunding.sol\":690:695  owner */\n      0x04\n      0x00\n      swap1\n      sload\n      swap1\n      0x0100\n      exp\n      swap1\n      div\n      0xffffffffffffffffffffffffffffffffffffffff\n      and\n        /* \"contracts/CrowdFunding.sol\":676:695  msg.sender == owner */\n      0xffffffffffffffffffffffffffffffffffffffff\n      and\n        /* \"contracts/CrowdFunding.sol\":676:686  msg.sender */\n      caller\n        /* \"contracts/CrowdFunding.sol\":676:695  msg.sender == owner */\n      0xffffffffffffffffffffffffffffffffffffffff\n      and\n      eq\n        /* \"contracts/CrowdFunding.sol\":668:721  require(msg.sender == owner, \"You are not the owner\") */\n      tag_229\n      jumpi\n      mload(0x40)\n      0x08c379a000000000000000000000000000000000000000000000000000000000\n      dup2\n      mstore\n      0x04\n      add\n      tag_230\n      swap1\n      tag_141\n      jump\t// in\n    tag_230:\n      mload(0x40)\n      dup1\n      swap2\n      sub\n      swap1\n      revert\n    tag_229:\n        /* \"contracts/CrowdFunding.sol\":3806:3812  paused */\n      0x04\n      0x14\n      swap1\n      sload\n      swap1\n      0x0100\n      exp\n      swap1\n      div\n      0xff\n      and\n        /* \"contracts/CrowdFunding.sol\":3805:3812  !paused */\n      iszero\n        /* \"contracts/CrowdFunding.sol\":3796:3802  paused */\n      0x04\n      0x14\n        /* \"contracts/CrowdFunding.sol\":3796:3812  paused = !paused */\n      0x0100\n      exp\n      dup2\n      sload\n      dup2\n      0xff\n      mul\n      not\n      and\n      swap1\n      dup4\n      iszero\n      iszero\n      mul\n      or\n      swap1\n      sstore\n      pop\n        /* \"contracts/CrowdFunding.sol\":3746:3819  function togglePause() public onlyOwner {... */\n      jump\t// out\n        /* \"contracts/CrowdFunding.sol\":1812:2233  function fund(uint256 _tierIndex) public payable campaignOpen notPaused {... */\n    tag_109:\n        /* \"contracts/CrowdFunding.sol\":796:816  CampaignState.Active */\n      0x00\n        /* \"contracts/CrowdFunding.sol\":787:816  state == CampaignState.Active */\n      0x02\n      dup2\n      gt\n      iszero\n      tag_233\n      jumpi\n      tag_234\n      tag_131\n      jump\t// in\n    tag_234:\n    tag_233:\n        /* \"contracts/CrowdFunding.sol\":787:792  state */\n      0x04\n      0x15\n      swap1\n      sload\n      swap1\n      0x0100\n      exp\n      swap1\n      div\n      0xff\n      and\n        /* \"contracts/CrowdFunding.sol\":787:816  state == CampaignState.Active */\n      0x02\n      dup2\n      gt\n      iszero\n      tag_235\n      jumpi\n      tag_236\n      tag_131\n      jump\t// in\n    tag_236:\n    tag_235:\n      eq\n        /* \"contracts/CrowdFunding.sol\":779:843  require(state == CampaignState.Active, \"Campaign is not Active\") */\n      tag_237\n      jumpi\n      mload(0x40)\n      0x08c379a000000000000000000000000000000000000000000000000000000000\n      dup2\n      mstore\n      0x04\n      add\n      tag_238\n      swap1\n      tag_149\n      jump\t// in\n    tag_238:\n      mload(0x40)\n      dup1\n      swap2\n      sub\n      swap1\n      revert\n    tag_237:\n        /* \"contracts/CrowdFunding.sol\":907:913  paused */\n      0x04\n      0x14\n      swap1\n      sload\n      swap1\n      0x0100\n      exp\n      swap1\n      div\n      0xff\n      and\n        /* \"contracts/CrowdFunding.sol\":906:913  !paused */\n      iszero\n        /* \"contracts/CrowdFunding.sol\":898:937  require(!paused, \"Contract is paused!\") */\n      tag_240\n      jumpi\n      mload(0x40)\n      0x08c379a000000000000000000000000000000000000000000000000000000000\n      dup2\n      mstore\n      0x04\n      add\n      tag_241\n      swap1\n      tag_242\n      jump\t// in\n    tag_241:\n      mload(0x40)\n      dup1\n      swap2\n      sub\n      swap1\n      revert\n    tag_240:\n        /* \"contracts/CrowdFunding.sol\":1915:1920  tiers */\n      0x05\n        /* \"contracts/CrowdFunding.sol\":1915:1927  tiers.length */\n      dup1\n      sload\n      swap1\n      pop\n        /* \"contracts/CrowdFunding.sol\":1902:1912  _tierIndex */\n      dup2\n        /* \"contracts/CrowdFunding.sol\":1902:1927  _tierIndex < tiers.length */\n      lt\n        /* \"contracts/CrowdFunding.sol\":1894:1952  require(_tierIndex < tiers.length, \"Tier does not exist!\") */\n      tag_244\n      jumpi\n      mload(0x40)\n      0x08c379a000000000000000000000000000000000000000000000000000000000\n      dup2\n      mstore\n      0x04\n      add\n      tag_245\n      swap1\n      tag_199\n      jump\t// in\n    tag_245:\n      mload(0x40)\n      dup1\n      swap2\n      sub\n      swap1\n      revert\n    tag_244:\n        /* \"contracts/CrowdFunding.sol\":1983:1988  tiers */\n      0x05\n        /* \"contracts/CrowdFunding.sol\":1989:1999  _tierIndex */\n      dup2\n        /* \"contracts/CrowdFunding.sol\":1983:2000  tiers[_tierIndex] */\n      dup2\n      sload\n      dup2\n      lt\n      tag_246\n      jumpi\n      tag_247\n      tag_204\n      jump\t// in\n    tag_247:\n    tag_246:\n      swap1\n      0x00\n      mstore\n      keccak256(0x00, 0x20)\n      swap1\n      0x03\n      mul\n      add\n        /* \"contracts/CrowdFunding.sol\":1983:2007  tiers[_tierIndex].amount */\n      0x01\n      add\n      sload\n        /* \"contracts/CrowdFunding.sol\":1970:1979  msg.value */\n      callvalue\n        /* \"contracts/CrowdFunding.sol\":1970:2007  msg.value == tiers[_tierIndex].amount */\n      eq\n        /* \"contracts/CrowdFunding.sol\":1962:2029  require(msg.value == tiers[_tierIndex].amount, \"Incorrect Amount!\") */\n      tag_249\n      jumpi\n      mload(0x40)\n      0x08c379a000000000000000000000000000000000000000000000000000000000\n      dup2\n      mstore\n      0x04\n      add\n      tag_250\n      swap1\n      tag_251\n      jump\t// in\n    tag_250:\n      mload(0x40)\n      dup1\n      swap2\n      sub\n      swap1\n      revert\n    tag_249:\n        /* \"contracts/CrowdFunding.sol\":2040:2045  tiers */\n      0x05\n        /* \"contracts/CrowdFunding.sol\":2046:2056  _tierIndex */\n      dup2\n        /* \"contracts/CrowdFunding.sol\":2040:2057  tiers[_tierIndex] */\n      dup2\n      sload\n      dup2\n      lt\n      tag_252\n      jumpi\n      tag_253\n      tag_204\n      jump\t// in\n    tag_253:\n    tag_252:\n      swap1\n      0x00\n      mstore\n      keccak256(0x00, 0x20)\n      swap1\n      0x03\n      mul\n      add\n        /* \"contracts/CrowdFunding.sol\":2040:2065  tiers[_tierIndex].backers */\n      0x02\n      add\n      0x00\n        /* \"contracts/CrowdFunding.sol\":2040:2067  tiers[_tierIndex].backers++ */\n      dup2\n      sload\n      dup1\n      swap3\n      swap2\n      swap1\n      tag_255\n      swap1\n      tag_256\n      jump\t// in\n    tag_255:\n      swap2\n      swap1\n      pop\n      sstore\n      pop\n        /* \"contracts/CrowdFunding.sol\":2118:2127  msg.value */\n      callvalue\n        /* \"contracts/CrowdFunding.sol\":2077:2084  backers */\n      0x06\n        /* \"contracts/CrowdFunding.sol\":2077:2096  backers[msg.sender] */\n      0x00\n        /* \"contracts/CrowdFunding.sol\":2085:2095  msg.sender */\n      caller\n        /* \"contracts/CrowdFunding.sol\":2077:2096  backers[msg.sender] */\n      0xffffffffffffffffffffffffffffffffffffffff\n      and\n      0xffffffffffffffffffffffffffffffffffffffff\n      and\n      dup2\n      mstore\n      0x20\n      add\n      swap1\n      dup2\n      mstore\n      0x20\n      add\n      0x00\n      keccak256\n        /* \"contracts/CrowdFunding.sol\":2077:2114  backers[msg.sender].totalContribution */\n      0x00\n      add\n      0x00\n        /* \"contracts/CrowdFunding.sol\":2077:2127  backers[msg.sender].totalContribution += msg.value */\n      dup3\n      dup3\n      sload\n      tag_257\n      swap2\n      swap1\n      tag_154\n      jump\t// in\n    tag_257:\n      swap3\n      pop\n      pop\n      dup2\n      swap1\n      sstore\n      pop\n        /* \"contracts/CrowdFunding.sol\":2182:2186  true */\n      0x01\n        /* \"contracts/CrowdFunding.sol\":2137:2144  backers */\n      0x06\n        /* \"contracts/CrowdFunding.sol\":2137:2156  backers[msg.sender] */\n      0x00\n        /* \"contracts/CrowdFunding.sol\":2145:2155  msg.sender */\n      caller\n        /* \"contracts/CrowdFunding.sol\":2137:2156  backers[msg.sender] */\n      0xffffffffffffffffffffffffffffffffffffffff\n      and\n      0xffffffffffffffffffffffffffffffffffffffff\n      and\n      dup2\n      mstore\n      0x20\n      add\n      swap1\n      dup2\n      mstore\n      0x20\n      add\n      0x00\n      keccak256\n        /* \"contracts/CrowdFunding.sol\":2137:2167  backers[msg.sender].fundedTier */\n      0x01\n      add\n        /* \"contracts/CrowdFunding.sol\":2137:2179  backers[msg.sender].fundedTier[_tierIndex] */\n      0x00\n        /* \"contracts/CrowdFunding.sol\":2168:2178  _tierIndex */\n      dup4\n        /* \"contracts/CrowdFunding.sol\":2137:2179  backers[msg.sender].fundedTier[_tierIndex] */\n      dup2\n      mstore\n      0x20\n      add\n      swap1\n      dup2\n      mstore\n      0x20\n      add\n      0x00\n      keccak256\n      0x00\n        /* \"contracts/CrowdFunding.sol\":2137:2186  backers[msg.sender].fundedTier[_tierIndex] = true */\n      0x0100\n      exp\n      dup2\n      sload\n      dup2\n      0xff\n      mul\n      not\n      and\n      swap1\n      dup4\n      iszero\n      iszero\n      mul\n      or\n      swap1\n      sstore\n      pop\n        /* \"contracts/CrowdFunding.sol\":2197:2226  checkAndUpdateCampaignState() */\n      tag_258\n        /* \"contracts/CrowdFunding.sol\":2197:2224  checkAndUpdateCampaignState */\n      tag_160\n        /* \"contracts/CrowdFunding.sol\":2197:2226  checkAndUpdateCampaignState() */\n      jump\t// in\n    tag_258:\n        /* \"contracts/CrowdFunding.sol\":1812:2233  function fund(uint256 _tierIndex) public payable campaignOpen notPaused {... */\n      pop\n      jump\t// out\n        /* \"contracts/CrowdFunding.sol\":3655:3740  function getTiers() public view returns (Tier[] memory) {... */\n    tag_112:\n        /* \"contracts/CrowdFunding.sol\":3696:3709  Tier[] memory */\n      0x60\n        /* \"contracts/CrowdFunding.sol\":3728:3733  tiers */\n      0x05\n        /* \"contracts/CrowdFunding.sol\":3721:3733  return tiers */\n      dup1\n      sload\n      dup1\n      0x20\n      mul\n      0x20\n      add\n      mload(0x40)\n      swap1\n      dup2\n      add\n      0x40\n      mstore\n      dup1\n      swap3\n      swap2\n      swap1\n      dup2\n      dup2\n      mstore\n      0x20\n      add\n      0x00\n      swap1\n    tag_260:\n      dup3\n      dup3\n      lt\n      iszero\n      tag_261\n      jumpi\n      dup4\n      dup3\n      swap1\n      0x00\n      mstore\n      keccak256(0x00, 0x20)\n      swap1\n      0x03\n      mul\n      add\n      mload(0x40)\n      dup1\n      0x60\n      add\n      0x40\n      mstore\n      swap1\n      dup2\n      0x00\n      dup3\n      add\n      dup1\n      sload\n      tag_263\n      swap1\n      tag_118\n      jump\t// in\n    tag_263:\n      dup1\n      0x1f\n      add\n      0x20\n      dup1\n      swap2\n      div\n      mul\n      0x20\n      add\n      mload(0x40)\n      swap1\n      dup2\n      add\n      0x40\n      mstore\n      dup1\n      swap3\n      swap2\n      swap1\n      dup2\n      dup2\n      mstore\n      0x20\n      add\n      dup3\n      dup1\n      sload\n      tag_264\n      swap1\n      tag_118\n      jump\t// in\n    tag_264:\n      dup1\n      iszero\n      tag_265\n      jumpi\n      dup1\n      0x1f\n      lt\n      tag_266\n      jumpi\n      0x0100\n      dup1\n      dup4\n      sload\n      div\n      mul\n      dup4\n      mstore\n      swap2\n      0x20\n      add\n      swap2\n      jump(tag_265)\n    tag_266:\n      dup3\n      add\n      swap2\n      swap1\n      0x00\n      mstore\n      keccak256(0x00, 0x20)\n      swap1\n    tag_267:\n      dup2\n      sload\n      dup2\n      mstore\n      swap1\n      0x01\n      add\n      swap1\n      0x20\n      add\n      dup1\n      dup4\n      gt\n      tag_267\n      jumpi\n      dup3\n      swap1\n      sub\n      0x1f\n      and\n      dup3\n      add\n      swap2\n    tag_265:\n      pop\n      pop\n      pop\n      pop\n      pop\n      dup2\n      mstore\n      0x20\n      add\n      0x01\n      dup3\n      add\n      sload\n      dup2\n      mstore\n      0x20\n      add\n      0x02\n      dup3\n      add\n      sload\n      dup2\n      mstore\n      pop\n      pop\n      dup2\n      mstore\n      0x20\n      add\n      swap1\n      0x01\n      add\n      swap1\n      jump(tag_260)\n    tag_261:\n      pop\n      pop\n      pop\n      pop\n      swap1\n      pop\n        /* \"contracts/CrowdFunding.sol\":3655:3740  function getTiers() public view returns (Tier[] memory) {... */\n      swap1\n      jump\t// out\n        /* \"contracts/CrowdFunding.sol\":1324:1806  function checkAndUpdateCampaignState() internal {... */\n    tag_160:\n        /* \"contracts/CrowdFunding.sol\":1395:1415  CampaignState.Active */\n      0x00\n        /* \"contracts/CrowdFunding.sol\":1386:1415  state == CampaignState.Active */\n      0x02\n      dup2\n      gt\n      iszero\n      tag_269\n      jumpi\n      tag_270\n      tag_131\n      jump\t// in\n    tag_270:\n    tag_269:\n        /* \"contracts/CrowdFunding.sol\":1386:1391  state */\n      0x04\n      0x15\n      swap1\n      sload\n      swap1\n      0x0100\n      exp\n      swap1\n      div\n      0xff\n      and\n        /* \"contracts/CrowdFunding.sol\":1386:1415  state == CampaignState.Active */\n      0x02\n      dup2\n      gt\n      iszero\n      tag_271\n      jumpi\n      tag_272\n      tag_131\n      jump\t// in\n    tag_272:\n    tag_271:\n      sub\n        /* \"contracts/CrowdFunding.sol\":1382:1800  if (state == CampaignState.Active) {... */\n      tag_273\n      jumpi\n        /* \"contracts/CrowdFunding.sol\":1454:1462  deadline */\n      sload(0x03)\n        /* \"contracts/CrowdFunding.sol\":1435:1450  block.timestamp */\n      timestamp\n        /* \"contracts/CrowdFunding.sol\":1435:1462  block.timestamp >= deadline */\n      lt\n        /* \"contracts/CrowdFunding.sol\":1431:1790  if (block.timestamp >= deadline) {... */\n      tag_274\n      jumpi\n        /* \"contracts/CrowdFunding.sol\":1515:1519  goal */\n      sload(0x02)\n        /* \"contracts/CrowdFunding.sol\":1490:1511  address(this).balance */\n      selfbalance\n        /* \"contracts/CrowdFunding.sol\":1490:1519  address(this).balance >= goal */\n      lt\n      iszero\n        /* \"contracts/CrowdFunding.sol\":1490:1609  address(this).balance >= goal... */\n      tag_275\n      jumpi\n        /* \"contracts/CrowdFunding.sol\":1589:1609  CampaignState.Failed */\n      0x02\n        /* \"contracts/CrowdFunding.sol\":1490:1609  address(this).balance >= goal... */\n      jump(tag_276)\n    tag_275:\n        /* \"contracts/CrowdFunding.sol\":1542:1566  CampaignState.Successful */\n      0x01\n        /* \"contracts/CrowdFunding.sol\":1490:1609  address(this).balance >= goal... */\n    tag_276:\n        /* \"contracts/CrowdFunding.sol\":1482:1487  state */\n      0x04\n      0x15\n        /* \"contracts/CrowdFunding.sol\":1482:1609  state = address(this).balance >= goal... */\n      0x0100\n      exp\n      dup2\n      sload\n      dup2\n      0xff\n      mul\n      not\n      and\n      swap1\n      dup4\n      0x02\n      dup2\n      gt\n      iszero\n      tag_277\n      jumpi\n      tag_278\n      tag_131\n      jump\t// in\n    tag_278:\n    tag_277:\n      mul\n      or\n      swap1\n      sstore\n      pop\n        /* \"contracts/CrowdFunding.sol\":1431:1790  if (block.timestamp >= deadline) {... */\n      jump(tag_279)\n    tag_274:\n        /* \"contracts/CrowdFunding.sol\":1681:1685  goal */\n      sload(0x02)\n        /* \"contracts/CrowdFunding.sol\":1656:1677  address(this).balance */\n      selfbalance\n        /* \"contracts/CrowdFunding.sol\":1656:1685  address(this).balance >= goal */\n      lt\n      iszero\n        /* \"contracts/CrowdFunding.sol\":1656:1775  address(this).balance >= goal... */\n      tag_280\n      jumpi\n        /* \"contracts/CrowdFunding.sol\":1755:1775  CampaignState.Active */\n      0x00\n        /* \"contracts/CrowdFunding.sol\":1656:1775  address(this).balance >= goal... */\n      jump(tag_281)\n    tag_280:\n        /* \"contracts/CrowdFunding.sol\":1708:1732  CampaignState.Successful */\n      0x01\n        /* \"contracts/CrowdFunding.sol\":1656:1775  address(this).balance >= goal... */\n    tag_281:\n        /* \"contracts/CrowdFunding.sol\":1648:1653  state */\n      0x04\n      0x15\n        /* \"contracts/CrowdFunding.sol\":1648:1775  state = address(this).balance >= goal... */\n      0x0100\n      exp\n      dup2\n      sload\n      dup2\n      0xff\n      mul\n      not\n      and\n      swap1\n      dup4\n      0x02\n      dup2\n      gt\n      iszero\n      tag_282\n      jumpi\n      tag_283\n      tag_131\n      jump\t// in\n    tag_283:\n    tag_282:\n      mul\n      or\n      swap1\n      sstore\n      pop\n        /* \"contracts/CrowdFunding.sol\":1431:1790  if (block.timestamp >= deadline) {... */\n    tag_279:\n        /* \"contracts/CrowdFunding.sol\":1382:1800  if (state == CampaignState.Active) {... */\n    tag_273:\n        /* \"contracts/CrowdFunding.sol\":1324:1806  function checkAndUpdateCampaignState() internal {... */\n      jump\t// out\n    tag_216:\n      pop\n      dup1\n      sload\n      tag_284\n      swap1\n      tag_118\n      jump\t// in\n    tag_284:\n      0x00\n      dup3\n      sstore\n      dup1\n      0x1f\n      lt\n      tag_286\n      jumpi\n      pop\n      jump(tag_285)\n    tag_286:\n      0x1f\n      add\n      0x20\n      swap1\n      div\n      swap1\n      0x00\n      mstore\n      keccak256(0x00, 0x20)\n      swap1\n      dup2\n      add\n      swap1\n      tag_287\n      swap2\n      swap1\n      tag_288\n      jump\t// in\n    tag_287:\n    tag_285:\n      pop\n      jump\t// out\n    tag_288:\n    tag_289:\n      dup1\n      dup3\n      gt\n      iszero\n      tag_290\n      jumpi\n      0x00\n      dup2\n      0x00\n      swap1\n      sstore\n      pop\n      0x01\n      add\n      jump(tag_289)\n    tag_290:\n      pop\n      swap1\n      jump\t// out\n        /* \"#utility.yul\":7:82   */\n    tag_291:\n        /* \"#utility.yul\":40:46   */\n      0x00\n        /* \"#utility.yul\":73:75   */\n      0x40\n        /* \"#utility.yul\":67:76   */\n      mload\n        /* \"#utility.yul\":57:76   */\n      swap1\n      pop\n        /* \"#utility.yul\":7:82   */\n      swap1\n      jump\t// out\n        /* \"#utility.yul\":88:205   */\n    tag_292:\n        /* \"#utility.yul\":197:198   */\n      0x00\n        /* \"#utility.yul\":194:195   */\n      0x00\n        /* \"#utility.yul\":187:199   */\n      revert\n        /* \"#utility.yul\":211:328   */\n    tag_293:\n        /* \"#utility.yul\":320:321   */\n      0x00\n        /* \"#utility.yul\":317:318   */\n      0x00\n        /* \"#utility.yul\":310:322   */\n      revert\n        /* \"#utility.yul\":334:411   */\n    tag_294:\n        /* \"#utility.yul\":371:378   */\n      0x00\n        /* \"#utility.yul\":400:405   */\n      dup2\n        /* \"#utility.yul\":389:405   */\n      swap1\n      pop\n        /* \"#utility.yul\":334:411   */\n      swap2\n      swap1\n      pop\n      jump\t// out\n        /* \"#utility.yul\":417:539   */\n    tag_295:\n        /* \"#utility.yul\":490:514   */\n      tag_377\n        /* \"#utility.yul\":508:513   */\n      dup2\n        /* \"#utility.yul\":490:514   */\n      tag_294\n      jump\t// in\n    tag_377:\n        /* \"#utility.yul\":483:488   */\n      dup2\n        /* \"#utility.yul\":480:515   */\n      eq\n        /* \"#utility.yul\":470:533   */\n      tag_378\n      jumpi\n        /* \"#utility.yul\":529:530   */\n      0x00\n        /* \"#utility.yul\":526:527   */\n      0x00\n        /* \"#utility.yul\":519:531   */\n      revert\n        /* \"#utility.yul\":470:533   */\n    tag_378:\n        /* \"#utility.yul\":417:539   */\n      pop\n      jump\t// out\n        /* \"#utility.yul\":545:684   */\n    tag_296:\n        /* \"#utility.yul\":591:596   */\n      0x00\n        /* \"#utility.yul\":629:635   */\n      dup2\n        /* \"#utility.yul\":616:636   */\n      calldataload\n        /* \"#utility.yul\":607:636   */\n      swap1\n      pop\n        /* \"#utility.yul\":645:678   */\n      tag_380\n        /* \"#utility.yul\":672:677   */\n      dup2\n        /* \"#utility.yul\":645:678   */\n      tag_295\n      jump\t// in\n    tag_380:\n        /* \"#utility.yul\":545:684   */\n      swap3\n      swap2\n      pop\n      pop\n      jump\t// out\n        /* \"#utility.yul\":690:1019   */\n    tag_28:\n        /* \"#utility.yul\":749:755   */\n      0x00\n        /* \"#utility.yul\":798:800   */\n      0x20\n        /* \"#utility.yul\":786:795   */\n      dup3\n        /* \"#utility.yul\":777:784   */\n      dup5\n        /* \"#utility.yul\":773:796   */\n      sub\n        /* \"#utility.yul\":769:801   */\n      slt\n        /* \"#utility.yul\":766:885   */\n      iszero\n      tag_382\n      jumpi\n        /* \"#utility.yul\":804:883   */\n      tag_383\n      tag_292\n      jump\t// in\n    tag_383:\n        /* \"#utility.yul\":766:885   */\n    tag_382:\n        /* \"#utility.yul\":924:925   */\n      0x00\n        /* \"#utility.yul\":949:1002   */\n      tag_384\n        /* \"#utility.yul\":994:1001   */\n      dup5\n        /* \"#utility.yul\":985:991   */\n      dup3\n        /* \"#utility.yul\":974:983   */\n      dup6\n        /* \"#utility.yul\":970:992   */\n      add\n        /* \"#utility.yul\":949:1002   */\n      tag_296\n      jump\t// in\n    tag_384:\n        /* \"#utility.yul\":939:1002   */\n      swap2\n      pop\n        /* \"#utility.yul\":895:1012   */\n      pop\n        /* \"#utility.yul\":690:1019   */\n      swap3\n      swap2\n      pop\n      pop\n      jump\t// out\n        /* \"#utility.yul\":1025:1124   */\n    tag_297:\n        /* \"#utility.yul\":1077:1083   */\n      0x00\n        /* \"#utility.yul\":1111:1116   */\n      dup2\n        /* \"#utility.yul\":1105:1117   */\n      mload\n        /* \"#utility.yul\":1095:1117   */\n      swap1\n      pop\n        /* \"#utility.yul\":1025:1124   */\n      swap2\n      swap1\n      pop\n      jump\t// out\n        /* \"#utility.yul\":1130:1299   */\n    tag_298:\n        /* \"#utility.yul\":1214:1225   */\n      0x00\n        /* \"#utility.yul\":1248:1254   */\n      dup3\n        /* \"#utility.yul\":1243:1246   */\n      dup3\n        /* \"#utility.yul\":1236:1255   */\n      mstore\n        /* \"#utility.yul\":1288:1292   */\n      0x20\n        /* \"#utility.yul\":1283:1286   */\n      dup3\n        /* \"#utility.yul\":1279:1293   */\n      add\n        /* \"#utility.yul\":1264:1293   */\n      swap1\n      pop\n        /* \"#utility.yul\":1130:1299   */\n      swap3\n      swap2\n      pop\n      pop\n      jump\t// out\n        /* \"#utility.yul\":1305:1444   */\n    tag_299:\n        /* \"#utility.yul\":1394:1400   */\n      dup3\n        /* \"#utility.yul\":1389:1392   */\n      dup2\n        /* \"#utility.yul\":1384:1387   */\n      dup4\n        /* \"#utility.yul\":1378:1401   */\n      mcopy\n        /* \"#utility.yul\":1435:1436   */\n      0x00\n        /* \"#utility.yul\":1426:1432   */\n      dup4\n        /* \"#utility.yul\":1421:1424   */\n      dup4\n        /* \"#utility.yul\":1417:1433   */\n      add\n        /* \"#utility.yul\":1410:1437   */\n      mstore\n        /* \"#utility.yul\":1305:1444   */\n      pop\n      pop\n      pop\n      jump\t// out\n        /* \"#utility.yul\":1450:1552   */\n    tag_300:\n        /* \"#utility.yul\":1491:1497   */\n      0x00\n        /* \"#utility.yul\":1542:1544   */\n      0x1f\n        /* \"#utility.yul\":1538:1545   */\n      not\n        /* \"#utility.yul\":1533:1535   */\n      0x1f\n        /* \"#utility.yul\":1526:1531   */\n      dup4\n        /* \"#utility.yul\":1522:1536   */\n      add\n        /* \"#utility.yul\":1518:1546   */\n      and\n        /* \"#utility.yul\":1508:1546   */\n      swap1\n      pop\n        /* \"#utility.yul\":1450:1552   */\n      swap2\n      swap1\n      pop\n      jump\t// out\n        /* \"#utility.yul\":1558:1935   */\n    tag_301:\n        /* \"#utility.yul\":1646:1649   */\n      0x00\n        /* \"#utility.yul\":1674:1713   */\n      tag_390\n        /* \"#utility.yul\":1707:1712   */\n      dup3\n        /* \"#utility.yul\":1674:1713   */\n      tag_297\n      jump\t// in\n    tag_390:\n        /* \"#utility.yul\":1729:1800   */\n      tag_391\n        /* \"#utility.yul\":1793:1799   */\n      dup2\n        /* \"#utility.yul\":1788:1791   */\n      dup6\n        /* \"#utility.yul\":1729:1800   */\n      tag_298\n      jump\t// in\n    tag_391:\n        /* \"#utility.yul\":1722:1800   */\n      swap4\n      pop\n        /* \"#utility.yul\":1809:1874   */\n      tag_392\n        /* \"#utility.yul\":1867:1873   */\n      dup2\n        /* \"#utility.yul\":1862:1865   */\n      dup6\n        /* \"#utility.yul\":1855:1859   */\n      0x20\n        /* \"#utility.yul\":1848:1853   */\n      dup7\n        /* \"#utility.yul\":1844:1860   */\n      add\n        /* \"#utility.yul\":1809:1874   */\n      tag_299\n      jump\t// in\n    tag_392:\n        /* \"#utility.yul\":1899:1928   */\n      tag_393\n        /* \"#utility.yul\":1921:1927   */\n      dup2\n        /* \"#utility.yul\":1899:1928   */\n      tag_300\n      jump\t// in\n    tag_393:\n        /* \"#utility.yul\":1894:1897   */\n      dup5\n        /* \"#utility.yul\":1890:1929   */\n      add\n        /* \"#utility.yul\":1883:1929   */\n      swap2\n      pop\n        /* \"#utility.yul\":1650:1935   */\n      pop\n        /* \"#utility.yul\":1558:1935   */\n      swap3\n      swap2\n      pop\n      pop\n      jump\t// out\n        /* \"#utility.yul\":1941:2059   */\n    tag_302:\n        /* \"#utility.yul\":2028:2052   */\n      tag_395\n        /* \"#utility.yul\":2046:2051   */\n      dup2\n        /* \"#utility.yul\":2028:2052   */\n      tag_294\n      jump\t// in\n    tag_395:\n        /* \"#utility.yul\":2023:2026   */\n      dup3\n        /* \"#utility.yul\":2016:2053   */\n      mstore\n        /* \"#utility.yul\":1941:2059   */\n      pop\n      pop\n      jump\t// out\n        /* \"#utility.yul\":2065:2598   */\n    tag_31:\n        /* \"#utility.yul\":2234:2238   */\n      0x00\n        /* \"#utility.yul\":2272:2274   */\n      0x60\n        /* \"#utility.yul\":2261:2270   */\n      dup3\n        /* \"#utility.yul\":2257:2275   */\n      add\n        /* \"#utility.yul\":2249:2275   */\n      swap1\n      pop\n        /* \"#utility.yul\":2321:2330   */\n      dup2\n        /* \"#utility.yul\":2315:2319   */\n      dup2\n        /* \"#utility.yul\":2311:2331   */\n      sub\n        /* \"#utility.yul\":2307:2308   */\n      0x00\n        /* \"#utility.yul\":2296:2305   */\n      dup4\n        /* \"#utility.yul\":2292:2309   */\n      add\n        /* \"#utility.yul\":2285:2332   */\n      mstore\n        /* \"#utility.yul\":2349:2427   */\n      tag_397\n        /* \"#utility.yul\":2422:2426   */\n      dup2\n        /* \"#utility.yul\":2413:2419   */\n      dup7\n        /* \"#utility.yul\":2349:2427   */\n      tag_301\n      jump\t// in\n    tag_397:\n        /* \"#utility.yul\":2341:2427   */\n      swap1\n      pop\n        /* \"#utility.yul\":2437:2509   */\n      tag_398\n        /* \"#utility.yul\":2505:2507   */\n      0x20\n        /* \"#utility.yul\":2494:2503   */\n      dup4\n        /* \"#utility.yul\":2490:2508   */\n      add\n        /* \"#utility.yul\":2481:2487   */\n      dup6\n        /* \"#utility.yul\":2437:2509   */\n      tag_302\n      jump\t// in\n    tag_398:\n        /* \"#utility.yul\":2519:2591   */\n      tag_399\n        /* \"#utility.yul\":2587:2589   */\n      0x40\n        /* \"#utility.yul\":2576:2585   */\n      dup4\n        /* \"#utility.yul\":2572:2590   */\n      add\n        /* \"#utility.yul\":2563:2569   */\n      dup5\n        /* \"#utility.yul\":2519:2591   */\n      tag_302\n      jump\t// in\n    tag_399:\n        /* \"#utility.yul\":2065:2598   */\n      swap5\n      swap4\n      pop\n      pop\n      pop\n      pop\n      jump\t// out\n        /* \"#utility.yul\":2604:2917   */\n    tag_36:\n        /* \"#utility.yul\":2717:2721   */\n      0x00\n        /* \"#utility.yul\":2755:2757   */\n      0x20\n        /* \"#utility.yul\":2744:2753   */\n      dup3\n        /* \"#utility.yul\":2740:2758   */\n      add\n        /* \"#utility.yul\":2732:2758   */\n      swap1\n      pop\n        /* \"#utility.yul\":2804:2813   */\n      dup2\n        /* \"#utility.yul\":2798:2802   */\n      dup2\n        /* \"#utility.yul\":2794:2814   */\n      sub\n        /* \"#utility.yul\":2790:2791   */\n      0x00\n        /* \"#utility.yul\":2779:2788   */\n      dup4\n        /* \"#utility.yul\":2775:2792   */\n      add\n        /* \"#utility.yul\":2768:2815   */\n      mstore\n        /* \"#utility.yul\":2832:2910   */\n      tag_401\n        /* \"#utility.yul\":2905:2909   */\n      dup2\n        /* \"#utility.yul\":2896:2902   */\n      dup5\n        /* \"#utility.yul\":2832:2910   */\n      tag_301\n      jump\t// in\n    tag_401:\n        /* \"#utility.yul\":2824:2910   */\n      swap1\n      pop\n        /* \"#utility.yul\":2604:2917   */\n      swap3\n      swap2\n      pop\n      pop\n      jump\t// out\n        /* \"#utility.yul\":2923:3103   */\n    tag_131:\n        /* \"#utility.yul\":2971:3048   */\n      0x4e487b7100000000000000000000000000000000000000000000000000000000\n        /* \"#utility.yul\":2968:2969   */\n      0x00\n        /* \"#utility.yul\":2961:3049   */\n      mstore\n        /* \"#utility.yul\":3068:3072   */\n      0x21\n        /* \"#utility.yul\":3065:3066   */\n      0x04\n        /* \"#utility.yul\":3058:3073   */\n      mstore\n        /* \"#utility.yul\":3092:3096   */\n      0x24\n        /* \"#utility.yul\":3089:3090   */\n      0x00\n        /* \"#utility.yul\":3082:3097   */\n      revert\n        /* \"#utility.yul\":3109:3230   */\n    tag_303:\n        /* \"#utility.yul\":3198:3199   */\n      0x03\n        /* \"#utility.yul\":3191:3196   */\n      dup2\n        /* \"#utility.yul\":3188:3200   */\n      lt\n        /* \"#utility.yul\":3178:3224   */\n      tag_404\n      jumpi\n        /* \"#utility.yul\":3204:3222   */\n      tag_405\n      tag_131\n      jump\t// in\n    tag_405:\n        /* \"#utility.yul\":3178:3224   */\n    tag_404:\n        /* \"#utility.yul\":3109:3230   */\n      pop\n      jump\t// out\n        /* \"#utility.yul\":3236:3379   */\n    tag_304:\n        /* \"#utility.yul\":3289:3296   */\n      0x00\n        /* \"#utility.yul\":3318:3323   */\n      dup2\n        /* \"#utility.yul\":3307:3323   */\n      swap1\n      pop\n        /* \"#utility.yul\":3324:3373   */\n      tag_407\n        /* \"#utility.yul\":3367:3372   */\n      dup3\n        /* \"#utility.yul\":3324:3373   */\n      tag_303\n      jump\t// in\n    tag_407:\n        /* \"#utility.yul\":3236:3379   */\n      swap2\n      swap1\n      pop\n      jump\t// out\n        /* \"#utility.yul\":3385:3528   */\n    tag_305:\n        /* \"#utility.yul\":3449:3458   */\n      0x00\n        /* \"#utility.yul\":3482:3522   */\n      tag_409\n        /* \"#utility.yul\":3516:3521   */\n      dup3\n        /* \"#utility.yul\":3482:3522   */\n      tag_304\n      jump\t// in\n    tag_409:\n        /* \"#utility.yul\":3469:3522   */\n      swap1\n      pop\n        /* \"#utility.yul\":3385:3528   */\n      swap2\n      swap1\n      pop\n      jump\t// out\n        /* \"#utility.yul\":3534:3693   */\n    tag_306:\n        /* \"#utility.yul\":3635:3686   */\n      tag_411\n        /* \"#utility.yul\":3680:3685   */\n      dup2\n        /* \"#utility.yul\":3635:3686   */\n      tag_305\n      jump\t// in\n    tag_411:\n        /* \"#utility.yul\":3630:3633   */\n      dup3\n        /* \"#utility.yul\":3623:3687   */\n      mstore\n        /* \"#utility.yul\":3534:3693   */\n      pop\n      pop\n      jump\t// out\n        /* \"#utility.yul\":3699:3949   */\n    tag_41:\n        /* \"#utility.yul\":3806:3810   */\n      0x00\n        /* \"#utility.yul\":3844:3846   */\n      0x20\n        /* \"#utility.yul\":3833:3842   */\n      dup3\n        /* \"#utility.yul\":3829:3847   */\n      add\n        /* \"#utility.yul\":3821:3847   */\n      swap1\n      pop\n        /* \"#utility.yul\":3857:3942   */\n      tag_413\n        /* \"#utility.yul\":3939:3940   */\n      0x00\n        /* \"#utility.yul\":3928:3937   */\n      dup4\n        /* \"#utility.yul\":3924:3941   */\n      add\n        /* \"#utility.yul\":3915:3921   */\n      dup5\n        /* \"#utility.yul\":3857:3942   */\n      tag_306\n      jump\t// in\n    tag_413:\n        /* \"#utility.yul\":3699:3949   */\n      swap3\n      swap2\n      pop\n      pop\n      jump\t// out\n        /* \"#utility.yul\":3955:4177   */\n    tag_46:\n        /* \"#utility.yul\":4048:4052   */\n      0x00\n        /* \"#utility.yul\":4086:4088   */\n      0x20\n        /* \"#utility.yul\":4075:4084   */\n      dup3\n        /* \"#utility.yul\":4071:4089   */\n      add\n        /* \"#utility.yul\":4063:4089   */\n      swap1\n      pop\n        /* \"#utility.yul\":4099:4170   */\n      tag_415\n        /* \"#utility.yul\":4167:4168   */\n      0x00\n        /* \"#utility.yul\":4156:4165   */\n      dup4\n        /* \"#utility.yul\":4152:4169   */\n      add\n        /* \"#utility.yul\":4143:4149   */\n      dup5\n        /* \"#utility.yul\":4099:4170   */\n      tag_302\n      jump\t// in\n    tag_415:\n        /* \"#utility.yul\":3955:4177   */\n      swap3\n      swap2\n      pop\n      pop\n      jump\t// out\n        /* \"#utility.yul\":4183:4273   */\n    tag_307:\n        /* \"#utility.yul\":4217:4224   */\n      0x00\n        /* \"#utility.yul\":4260:4265   */\n      dup2\n        /* \"#utility.yul\":4253:4266   */\n      iszero\n        /* \"#utility.yul\":4246:4267   */\n      iszero\n        /* \"#utility.yul\":4235:4267   */\n      swap1\n      pop\n        /* \"#utility.yul\":4183:4273   */\n      swap2\n      swap1\n      pop\n      jump\t// out\n        /* \"#utility.yul\":4279:4388   */\n    tag_308:\n        /* \"#utility.yul\":4360:4381   */\n      tag_418\n        /* \"#utility.yul\":4375:4380   */\n      dup2\n        /* \"#utility.yul\":4360:4381   */\n      tag_307\n      jump\t// in\n    tag_418:\n        /* \"#utility.yul\":4355:4358   */\n      dup3\n        /* \"#utility.yul\":4348:4382   */\n      mstore\n        /* \"#utility.yul\":4279:4388   */\n      pop\n      pop\n      jump\t// out\n        /* \"#utility.yul\":4394:4604   */\n    tag_65:\n        /* \"#utility.yul\":4481:4485   */\n      0x00\n        /* \"#utility.yul\":4519:4521   */\n      0x20\n        /* \"#utility.yul\":4508:4517   */\n      dup3\n        /* \"#utility.yul\":4504:4522   */\n      add\n        /* \"#utility.yul\":4496:4522   */\n      swap1\n      pop\n        /* \"#utility.yul\":4532:4597   */\n      tag_420\n        /* \"#utility.yul\":4594:4595   */\n      0x00\n        /* \"#utility.yul\":4583:4592   */\n      dup4\n        /* \"#utility.yul\":4579:4596   */\n      add\n        /* \"#utility.yul\":4570:4576   */\n      dup5\n        /* \"#utility.yul\":4532:4597   */\n      tag_308\n      jump\t// in\n    tag_420:\n        /* \"#utility.yul\":4394:4604   */\n      swap3\n      swap2\n      pop\n      pop\n      jump\t// out\n        /* \"#utility.yul\":4610:4736   */\n    tag_309:\n        /* \"#utility.yul\":4647:4654   */\n      0x00\n        /* \"#utility.yul\":4687:4729   */\n      0xffffffffffffffffffffffffffffffffffffffff\n        /* \"#utility.yul\":4680:4685   */\n      dup3\n        /* \"#utility.yul\":4676:4730   */\n      and\n        /* \"#utility.yul\":4665:4730   */\n      swap1\n      pop\n        /* \"#utility.yul\":4610:4736   */\n      swap2\n      swap1\n      pop\n      jump\t// out\n        /* \"#utility.yul\":4742:4838   */\n    tag_310:\n        /* \"#utility.yul\":4779:4786   */\n      0x00\n        /* \"#utility.yul\":4808:4832   */\n      tag_423\n        /* \"#utility.yul\":4826:4831   */\n      dup3\n        /* \"#utility.yul\":4808:4832   */\n      tag_309\n      jump\t// in\n    tag_423:\n        /* \"#utility.yul\":4797:4832   */\n      swap1\n      pop\n        /* \"#utility.yul\":4742:4838   */\n      swap2\n      swap1\n      pop\n      jump\t// out\n        /* \"#utility.yul\":4844:4966   */\n    tag_311:\n        /* \"#utility.yul\":4917:4941   */\n      tag_425\n        /* \"#utility.yul\":4935:4940   */\n      dup2\n        /* \"#utility.yul\":4917:4941   */\n      tag_310\n      jump\t// in\n    tag_425:\n        /* \"#utility.yul\":4910:4915   */\n      dup2\n        /* \"#utility.yul\":4907:4942   */\n      eq\n        /* \"#utility.yul\":4897:4960   */\n      tag_426\n      jumpi\n        /* \"#utility.yul\":4956:4957   */\n      0x00\n        /* \"#utility.yul\":4953:4954   */\n      0x00\n        /* \"#utility.yul\":4946:4958   */\n      revert\n        /* \"#utility.yul\":4897:4960   */\n    tag_426:\n        /* \"#utility.yul\":4844:4966   */\n      pop\n      jump\t// out\n        /* \"#utility.yul\":4972:5111   */\n    tag_312:\n        /* \"#utility.yul\":5018:5023   */\n      0x00\n        /* \"#utility.yul\":5056:5062   */\n      dup2\n        /* \"#utility.yul\":5043:5063   */\n      calldataload\n        /* \"#utility.yul\":5034:5063   */\n      swap1\n      pop\n        /* \"#utility.yul\":5072:5105   */\n      tag_428\n        /* \"#utility.yul\":5099:5104   */\n      dup2\n        /* \"#utility.yul\":5072:5105   */\n      tag_311\n      jump\t// in\n    tag_428:\n        /* \"#utility.yul\":4972:5111   */\n      swap3\n      swap2\n      pop\n      pop\n      jump\t// out\n        /* \"#utility.yul\":5117:5591   */\n    tag_81:\n        /* \"#utility.yul\":5185:5191   */\n      0x00\n        /* \"#utility.yul\":5193:5199   */\n      0x00\n        /* \"#utility.yul\":5242:5244   */\n      0x40\n        /* \"#utility.yul\":5230:5239   */\n      dup4\n        /* \"#utility.yul\":5221:5228   */\n      dup6\n        /* \"#utility.yul\":5217:5240   */\n      sub\n        /* \"#utility.yul\":5213:5245   */\n      slt\n        /* \"#utility.yul\":5210:5329   */\n      iszero\n      tag_430\n      jumpi\n        /* \"#utility.yul\":5248:5327   */\n      tag_431\n      tag_292\n      jump\t// in\n    tag_431:\n        /* \"#utility.yul\":5210:5329   */\n    tag_430:\n        /* \"#utility.yul\":5368:5369   */\n      0x00\n        /* \"#utility.yul\":5393:5446   */\n      tag_432\n        /* \"#utility.yul\":5438:5445   */\n      dup6\n        /* \"#utility.yul\":5429:5435   */\n      dup3\n        /* \"#utility.yul\":5418:5427   */\n      dup7\n        /* \"#utility.yul\":5414:5436   */\n      add\n        /* \"#utility.yul\":5393:5446   */\n      tag_312\n      jump\t// in\n    tag_432:\n        /* \"#utility.yul\":5383:5446   */\n      swap3\n      pop\n        /* \"#utility.yul\":5339:5456   */\n      pop\n        /* \"#utility.yul\":5495:5497   */\n      0x20\n        /* \"#utility.yul\":5521:5574   */\n      tag_433\n        /* \"#utility.yul\":5566:5573   */\n      dup6\n        /* \"#utility.yul\":5557:5563   */\n      dup3\n        /* \"#utility.yul\":5546:5555   */\n      dup7\n        /* \"#utility.yul\":5542:5564   */\n      add\n        /* \"#utility.yul\":5521:5574   */\n      tag_296\n      jump\t// in\n    tag_433:\n        /* \"#utility.yul\":5511:5574   */\n      swap2\n      pop\n        /* \"#utility.yul\":5466:5584   */\n      pop\n        /* \"#utility.yul\":5117:5591   */\n      swap3\n      pop\n      swap3\n      swap1\n      pop\n      jump\t// out\n        /* \"#utility.yul\":5597:5715   */\n    tag_313:\n        /* \"#utility.yul\":5684:5708   */\n      tag_435\n        /* \"#utility.yul\":5702:5707   */\n      dup2\n        /* \"#utility.yul\":5684:5708   */\n      tag_310\n      jump\t// in\n    tag_435:\n        /* \"#utility.yul\":5679:5682   */\n      dup3\n        /* \"#utility.yul\":5672:5709   */\n      mstore\n        /* \"#utility.yul\":5597:5715   */\n      pop\n      pop\n      jump\t// out\n        /* \"#utility.yul\":5721:5943   */\n    tag_88:\n        /* \"#utility.yul\":5814:5818   */\n      0x00\n        /* \"#utility.yul\":5852:5854   */\n      0x20\n        /* \"#utility.yul\":5841:5850   */\n      dup3\n        /* \"#utility.yul\":5837:5855   */\n      add\n        /* \"#utility.yul\":5829:5855   */\n      swap1\n      pop\n        /* \"#utility.yul\":5865:5936   */\n      tag_437\n        /* \"#utility.yul\":5933:5934   */\n      0x00\n        /* \"#utility.yul\":5922:5931   */\n      dup4\n        /* \"#utility.yul\":5918:5935   */\n      add\n        /* \"#utility.yul\":5909:5915   */\n      dup5\n        /* \"#utility.yul\":5865:5936   */\n      tag_313\n      jump\t// in\n    tag_437:\n        /* \"#utility.yul\":5721:5943   */\n      swap3\n      swap2\n      pop\n      pop\n      jump\t// out\n        /* \"#utility.yul\":5949:6066   */\n    tag_314:\n        /* \"#utility.yul\":6058:6059   */\n      0x00\n        /* \"#utility.yul\":6055:6056   */\n      0x00\n        /* \"#utility.yul\":6048:6060   */\n      revert\n        /* \"#utility.yul\":6072:6189   */\n    tag_315:\n        /* \"#utility.yul\":6181:6182   */\n      0x00\n        /* \"#utility.yul\":6178:6179   */\n      0x00\n        /* \"#utility.yul\":6171:6183   */\n      revert\n        /* \"#utility.yul\":6195:6375   */\n    tag_316:\n        /* \"#utility.yul\":6243:6320   */\n      0x4e487b7100000000000000000000000000000000000000000000000000000000\n        /* \"#utility.yul\":6240:6241   */\n      0x00\n        /* \"#utility.yul\":6233:6321   */\n      mstore\n        /* \"#utility.yul\":6340:6344   */\n      0x41\n        /* \"#utility.yul\":6337:6338   */\n      0x04\n        /* \"#utility.yul\":6330:6345   */\n      mstore\n        /* \"#utility.yul\":6364:6368   */\n      0x24\n        /* \"#utility.yul\":6361:6362   */\n      0x00\n        /* \"#utility.yul\":6354:6369   */\n      revert\n        /* \"#utility.yul\":6381:6662   */\n    tag_317:\n        /* \"#utility.yul\":6464:6491   */\n      tag_442\n        /* \"#utility.yul\":6486:6490   */\n      dup3\n        /* \"#utility.yul\":6464:6491   */\n      tag_300\n      jump\t// in\n    tag_442:\n        /* \"#utility.yul\":6456:6462   */\n      dup2\n        /* \"#utility.yul\":6452:6492   */\n      add\n        /* \"#utility.yul\":6594:6600   */\n      dup2\n        /* \"#utility.yul\":6582:6592   */\n      dup2\n        /* \"#utility.yul\":6579:6601   */\n      lt\n        /* \"#utility.yul\":6558:6576   */\n      0xffffffffffffffff\n        /* \"#utility.yul\":6546:6556   */\n      dup3\n        /* \"#utility.yul\":6543:6577   */\n      gt\n        /* \"#utility.yul\":6540:6602   */\n      or\n        /* \"#utility.yul\":6537:6625   */\n      iszero\n      tag_443\n      jumpi\n        /* \"#utility.yul\":6605:6623   */\n      tag_444\n      tag_316\n      jump\t// in\n    tag_444:\n        /* \"#utility.yul\":6537:6625   */\n    tag_443:\n        /* \"#utility.yul\":6645:6655   */\n      dup1\n        /* \"#utility.yul\":6641:6643   */\n      0x40\n        /* \"#utility.yul\":6634:6656   */\n      mstore\n        /* \"#utility.yul\":6424:6662   */\n      pop\n        /* \"#utility.yul\":6381:6662   */\n      pop\n      pop\n      jump\t// out\n        /* \"#utility.yul\":6668:6797   */\n    tag_318:\n        /* \"#utility.yul\":6702:6708   */\n      0x00\n        /* \"#utility.yul\":6729:6749   */\n      tag_446\n      tag_291\n      jump\t// in\n    tag_446:\n        /* \"#utility.yul\":6719:6749   */\n      swap1\n      pop\n        /* \"#utility.yul\":6758:6791   */\n      tag_447\n        /* \"#utility.yul\":6786:6790   */\n      dup3\n        /* \"#utility.yul\":6778:6784   */\n      dup3\n        /* \"#utility.yul\":6758:6791   */\n      tag_317\n      jump\t// in\n    tag_447:\n        /* \"#utility.yul\":6668:6797   */\n      swap2\n      swap1\n      pop\n      jump\t// out\n        /* \"#utility.yul\":6803:7111   */\n    tag_319:\n        /* \"#utility.yul\":6865:6869   */\n      0x00\n        /* \"#utility.yul\":6955:6973   */\n      0xffffffffffffffff\n        /* \"#utility.yul\":6947:6953   */\n      dup3\n        /* \"#utility.yul\":6944:6974   */\n      gt\n        /* \"#utility.yul\":6941:6997   */\n      iszero\n      tag_449\n      jumpi\n        /* \"#utility.yul\":6977:6995   */\n      tag_450\n      tag_316\n      jump\t// in\n    tag_450:\n        /* \"#utility.yul\":6941:6997   */\n    tag_449:\n        /* \"#utility.yul\":7015:7044   */\n      tag_451\n        /* \"#utility.yul\":7037:7043   */\n      dup3\n        /* \"#utility.yul\":7015:7044   */\n      tag_300\n      jump\t// in\n    tag_451:\n        /* \"#utility.yul\":7007:7044   */\n      swap1\n      pop\n        /* \"#utility.yul\":7099:7103   */\n      0x20\n        /* \"#utility.yul\":7093:7097   */\n      dup2\n        /* \"#utility.yul\":7089:7104   */\n      add\n        /* \"#utility.yul\":7081:7104   */\n      swap1\n      pop\n        /* \"#utility.yul\":6803:7111   */\n      swap2\n      swap1\n      pop\n      jump\t// out\n        /* \"#utility.yul\":7117:7265   */\n    tag_320:\n        /* \"#utility.yul\":7215:7221   */\n      dup3\n        /* \"#utility.yul\":7210:7213   */\n      dup2\n        /* \"#utility.yul\":7205:7208   */\n      dup4\n        /* \"#utility.yul\":7192:7222   */\n      calldatacopy\n        /* \"#utility.yul\":7256:7257   */\n      0x00\n        /* \"#utility.yul\":7247:7253   */\n      dup4\n        /* \"#utility.yul\":7242:7245   */\n      dup4\n        /* \"#utility.yul\":7238:7254   */\n      add\n        /* \"#utility.yul\":7231:7258   */\n      mstore\n        /* \"#utility.yul\":7117:7265   */\n      pop\n      pop\n      pop\n      jump\t// out\n        /* \"#utility.yul\":7271:7696   */\n    tag_321:\n        /* \"#utility.yul\":7349:7354   */\n      0x00\n        /* \"#utility.yul\":7374:7440   */\n      tag_454\n        /* \"#utility.yul\":7390:7439   */\n      tag_455\n        /* \"#utility.yul\":7432:7438   */\n      dup5\n        /* \"#utility.yul\":7390:7439   */\n      tag_319\n      jump\t// in\n    tag_455:\n        /* \"#utility.yul\":7374:7440   */\n      tag_318\n      jump\t// in\n    tag_454:\n        /* \"#utility.yul\":7365:7440   */\n      swap1\n      pop\n        /* \"#utility.yul\":7463:7469   */\n      dup3\n        /* \"#utility.yul\":7456:7461   */\n      dup2\n        /* \"#utility.yul\":7449:7470   */\n      mstore\n        /* \"#utility.yul\":7501:7505   */\n      0x20\n        /* \"#utility.yul\":7494:7499   */\n      dup2\n        /* \"#utility.yul\":7490:7506   */\n      add\n        /* \"#utility.yul\":7539:7542   */\n      dup5\n        /* \"#utility.yul\":7530:7536   */\n      dup5\n        /* \"#utility.yul\":7525:7528   */\n      dup5\n        /* \"#utility.yul\":7521:7537   */\n      add\n        /* \"#utility.yul\":7518:7543   */\n      gt\n        /* \"#utility.yul\":7515:7627   */\n      iszero\n      tag_456\n      jumpi\n        /* \"#utility.yul\":7546:7625   */\n      tag_457\n      tag_315\n      jump\t// in\n    tag_457:\n        /* \"#utility.yul\":7515:7627   */\n    tag_456:\n        /* \"#utility.yul\":7636:7690   */\n      tag_458\n        /* \"#utility.yul\":7683:7689   */\n      dup5\n        /* \"#utility.yul\":7678:7681   */\n      dup3\n        /* \"#utility.yul\":7673:7676   */\n      dup6\n        /* \"#utility.yul\":7636:7690   */\n      tag_320\n      jump\t// in\n    tag_458:\n        /* \"#utility.yul\":7355:7696   */\n      pop\n        /* \"#utility.yul\":7271:7696   */\n      swap4\n      swap3\n      pop\n      pop\n      pop\n      jump\t// out\n        /* \"#utility.yul\":7716:8056   */\n    tag_322:\n        /* \"#utility.yul\":7772:7777   */\n      0x00\n        /* \"#utility.yul\":7821:7824   */\n      dup3\n        /* \"#utility.yul\":7814:7818   */\n      0x1f\n        /* \"#utility.yul\":7806:7812   */\n      dup4\n        /* \"#utility.yul\":7802:7819   */\n      add\n        /* \"#utility.yul\":7798:7825   */\n      slt\n        /* \"#utility.yul\":7788:7910   */\n      tag_460\n      jumpi\n        /* \"#utility.yul\":7829:7908   */\n      tag_461\n      tag_314\n      jump\t// in\n    tag_461:\n        /* \"#utility.yul\":7788:7910   */\n    tag_460:\n        /* \"#utility.yul\":7946:7952   */\n      dup2\n        /* \"#utility.yul\":7933:7953   */\n      calldataload\n        /* \"#utility.yul\":7971:8050   */\n      tag_462\n        /* \"#utility.yul\":8046:8049   */\n      dup5\n        /* \"#utility.yul\":8038:8044   */\n      dup3\n        /* \"#utility.yul\":8031:8035   */\n      0x20\n        /* \"#utility.yul\":8023:8029   */\n      dup7\n        /* \"#utility.yul\":8019:8036   */\n      add\n        /* \"#utility.yul\":7971:8050   */\n      tag_321\n      jump\t// in\n    tag_462:\n        /* \"#utility.yul\":7962:8050   */\n      swap2\n      pop\n        /* \"#utility.yul\":7778:8056   */\n      pop\n        /* \"#utility.yul\":7716:8056   */\n      swap3\n      swap2\n      pop\n      pop\n      jump\t// out\n        /* \"#utility.yul\":8062:8716   */\n    tag_92:\n        /* \"#utility.yul\":8140:8146   */\n      0x00\n        /* \"#utility.yul\":8148:8154   */\n      0x00\n        /* \"#utility.yul\":8197:8199   */\n      0x40\n        /* \"#utility.yul\":8185:8194   */\n      dup4\n        /* \"#utility.yul\":8176:8183   */\n      dup6\n        /* \"#utility.yul\":8172:8195   */\n      sub\n        /* \"#utility.yul\":8168:8200   */\n      slt\n        /* \"#utility.yul\":8165:8284   */\n      iszero\n      tag_464\n      jumpi\n        /* \"#utility.yul\":8203:8282   */\n      tag_465\n      tag_292\n      jump\t// in\n    tag_465:\n        /* \"#utility.yul\":8165:8284   */\n    tag_464:\n        /* \"#utility.yul\":8351:8352   */\n      0x00\n        /* \"#utility.yul\":8340:8349   */\n      dup4\n        /* \"#utility.yul\":8336:8353   */\n      add\n        /* \"#utility.yul\":8323:8354   */\n      calldataload\n        /* \"#utility.yul\":8381:8399   */\n      0xffffffffffffffff\n        /* \"#utility.yul\":8373:8379   */\n      dup2\n        /* \"#utility.yul\":8370:8400   */\n      gt\n        /* \"#utility.yul\":8367:8484   */\n      iszero\n      tag_466\n      jumpi\n        /* \"#utility.yul\":8403:8482   */\n      tag_467\n      tag_293\n      jump\t// in\n    tag_467:\n        /* \"#utility.yul\":8367:8484   */\n    tag_466:\n        /* \"#utility.yul\":8508:8571   */\n      tag_468\n        /* \"#utility.yul\":8563:8570   */\n      dup6\n        /* \"#utility.yul\":8554:8560   */\n      dup3\n        /* \"#utility.yul\":8543:8552   */\n      dup7\n        /* \"#utility.yul\":8539:8561   */\n      add\n        /* \"#utility.yul\":8508:8571   */\n      tag_322\n      jump\t// in\n    tag_468:\n        /* \"#utility.yul\":8498:8571   */\n      swap3\n      pop\n        /* \"#utility.yul\":8294:8581   */\n      pop\n        /* \"#utility.yul\":8620:8622   */\n      0x20\n        /* \"#utility.yul\":8646:8699   */\n      tag_469\n        /* \"#utility.yul\":8691:8698   */\n      dup6\n        /* \"#utility.yul\":8682:8688   */\n      dup3\n        /* \"#utility.yul\":8671:8680   */\n      dup7\n        /* \"#utility.yul\":8667:8689   */\n      add\n        /* \"#utility.yul\":8646:8699   */\n      tag_296\n      jump\t// in\n    tag_469:\n        /* \"#utility.yul\":8636:8699   */\n      swap2\n      pop\n        /* \"#utility.yul\":8591:8709   */\n      pop\n        /* \"#utility.yul\":8062:8716   */\n      swap3\n      pop\n      swap3\n      swap1\n      pop\n      jump\t// out\n        /* \"#utility.yul\":8722:9051   */\n    tag_97:\n        /* \"#utility.yul\":8781:8787   */\n      0x00\n        /* \"#utility.yul\":8830:8832   */\n      0x20\n        /* \"#utility.yul\":8818:8827   */\n      dup3\n        /* \"#utility.yul\":8809:8816   */\n      dup5\n        /* \"#utility.yul\":8805:8828   */\n      sub\n        /* \"#utility.yul\":8801:8833   */\n      slt\n        /* \"#utility.yul\":8798:8917   */\n      iszero\n      tag_471\n      jumpi\n        /* \"#utility.yul\":8836:8915   */\n      tag_472\n      tag_292\n      jump\t// in\n    tag_472:\n        /* \"#utility.yul\":8798:8917   */\n    tag_471:\n        /* \"#utility.yul\":8956:8957   */\n      0x00\n        /* \"#utility.yul\":8981:9034   */\n      tag_473\n        /* \"#utility.yul\":9026:9033   */\n      dup5\n        /* \"#utility.yul\":9017:9023   */\n      dup3\n        /* \"#utility.yul\":9006:9015   */\n      dup6\n        /* \"#utility.yul\":9002:9024   */\n      add\n        /* \"#utility.yul\":8981:9034   */\n      tag_312\n      jump\t// in\n    tag_473:\n        /* \"#utility.yul\":8971:9034   */\n      swap2\n      pop\n        /* \"#utility.yul\":8927:9044   */\n      pop\n        /* \"#utility.yul\":8722:9051   */\n      swap3\n      swap2\n      pop\n      pop\n      jump\t// out\n        /* \"#utility.yul\":9057:9191   */\n    tag_323:\n        /* \"#utility.yul\":9144:9150   */\n      0x00\n        /* \"#utility.yul\":9178:9183   */\n      dup2\n        /* \"#utility.yul\":9172:9184   */\n      mload\n        /* \"#utility.yul\":9162:9184   */\n      swap1\n      pop\n        /* \"#utility.yul\":9057:9191   */\n      swap2\n      swap1\n      pop\n      jump\t// out\n        /* \"#utility.yul\":9197:9401   */\n    tag_324:\n        /* \"#utility.yul\":9316:9327   */\n      0x00\n        /* \"#utility.yul\":9350:9356   */\n      dup3\n        /* \"#utility.yul\":9345:9348   */\n      dup3\n        /* \"#utility.yul\":9338:9357   */\n      mstore\n        /* \"#utility.yul\":9390:9394   */\n      0x20\n        /* \"#utility.yul\":9385:9388   */\n      dup3\n        /* \"#utility.yul\":9381:9395   */\n      add\n        /* \"#utility.yul\":9366:9395   */\n      swap1\n      pop\n        /* \"#utility.yul\":9197:9401   */\n      swap3\n      swap2\n      pop\n      pop\n      jump\t// out\n        /* \"#utility.yul\":9407:9559   */\n    tag_325:\n        /* \"#utility.yul\":9494:9498   */\n      0x00\n        /* \"#utility.yul\":9517:9520   */\n      dup2\n        /* \"#utility.yul\":9509:9520   */\n      swap1\n      pop\n        /* \"#utility.yul\":9547:9551   */\n      0x20\n        /* \"#utility.yul\":9542:9545   */\n      dup3\n        /* \"#utility.yul\":9538:9552   */\n      add\n        /* \"#utility.yul\":9530:9552   */\n      swap1\n      pop\n        /* \"#utility.yul\":9407:9559   */\n      swap2\n      swap1\n      pop\n      jump\t// out\n        /* \"#utility.yul\":9565:9724   */\n    tag_326:\n        /* \"#utility.yul\":9639:9650   */\n      0x00\n        /* \"#utility.yul\":9673:9679   */\n      dup3\n        /* \"#utility.yul\":9668:9671   */\n      dup3\n        /* \"#utility.yul\":9661:9680   */\n      mstore\n        /* \"#utility.yul\":9713:9717   */\n      0x20\n        /* \"#utility.yul\":9708:9711   */\n      dup3\n        /* \"#utility.yul\":9704:9718   */\n      add\n        /* \"#utility.yul\":9689:9718   */\n      swap1\n      pop\n        /* \"#utility.yul\":9565:9724   */\n      swap3\n      swap2\n      pop\n      pop\n      jump\t// out\n        /* \"#utility.yul\":9730:10087   */\n    tag_327:\n        /* \"#utility.yul\":9808:9811   */\n      0x00\n        /* \"#utility.yul\":9836:9875   */\n      tag_479\n        /* \"#utility.yul\":9869:9874   */\n      dup3\n        /* \"#utility.yul\":9836:9875   */\n      tag_297\n      jump\t// in\n    tag_479:\n        /* \"#utility.yul\":9891:9952   */\n      tag_480\n        /* \"#utility.yul\":9945:9951   */\n      dup2\n        /* \"#utility.yul\":9940:9943   */\n      dup6\n        /* \"#utility.yul\":9891:9952   */\n      tag_326\n      jump\t// in\n    tag_480:\n        /* \"#utility.yul\":9884:9952   */\n      swap4\n      pop\n        /* \"#utility.yul\":9961:10026   */\n      tag_481\n        /* \"#utility.yul\":10019:10025   */\n      dup2\n        /* \"#utility.yul\":10014:10017   */\n      dup6\n        /* \"#utility.yul\":10007:10011   */\n      0x20\n        /* \"#utility.yul\":10000:10005   */\n      dup7\n        /* \"#utility.yul\":9996:10012   */\n      add\n        /* \"#utility.yul\":9961:10026   */\n      tag_299\n      jump\t// in\n    tag_481:\n        /* \"#utility.yul\":10051:10080   */\n      tag_482\n        /* \"#utility.yul\":10073:10079   */\n      dup2\n        /* \"#utility.yul\":10051:10080   */\n      tag_300\n      jump\t// in\n    tag_482:\n        /* \"#utility.yul\":10046:10049   */\n      dup5\n        /* \"#utility.yul\":10042:10081   */\n      add\n        /* \"#utility.yul\":10035:10081   */\n      swap2\n      pop\n        /* \"#utility.yul\":9812:10087   */\n      pop\n        /* \"#utility.yul\":9730:10087   */\n      swap3\n      swap2\n      pop\n      pop\n      jump\t// out\n        /* \"#utility.yul\":10093:10201   */\n    tag_328:\n        /* \"#utility.yul\":10170:10194   */\n      tag_484\n        /* \"#utility.yul\":10188:10193   */\n      dup2\n        /* \"#utility.yul\":10170:10194   */\n      tag_294\n      jump\t// in\n    tag_484:\n        /* \"#utility.yul\":10165:10168   */\n      dup3\n        /* \"#utility.yul\":10158:10195   */\n      mstore\n        /* \"#utility.yul\":10093:10201   */\n      pop\n      pop\n      jump\t// out\n        /* \"#utility.yul\":10267:11032   */\n    tag_329:\n        /* \"#utility.yul\":10366:10369   */\n      0x00\n        /* \"#utility.yul\":10402:10406   */\n      0x60\n        /* \"#utility.yul\":10397:10400   */\n      dup4\n        /* \"#utility.yul\":10393:10407   */\n      add\n        /* \"#utility.yul\":10489:10493   */\n      0x00\n        /* \"#utility.yul\":10482:10487   */\n      dup4\n        /* \"#utility.yul\":10478:10494   */\n      add\n        /* \"#utility.yul\":10472:10495   */\n      mload\n        /* \"#utility.yul\":10542:10545   */\n      dup5\n        /* \"#utility.yul\":10536:10540   */\n      dup3\n        /* \"#utility.yul\":10532:10546   */\n      sub\n        /* \"#utility.yul\":10525:10529   */\n      0x00\n        /* \"#utility.yul\":10520:10523   */\n      dup7\n        /* \"#utility.yul\":10516:10530   */\n      add\n        /* \"#utility.yul\":10509:10547   */\n      mstore\n        /* \"#utility.yul\":10568:10641   */\n      tag_486\n        /* \"#utility.yul\":10636:10640   */\n      dup3\n        /* \"#utility.yul\":10622:10634   */\n      dup3\n        /* \"#utility.yul\":10568:10641   */\n      tag_327\n      jump\t// in\n    tag_486:\n        /* \"#utility.yul\":10560:10641   */\n      swap2\n      pop\n        /* \"#utility.yul\":10417:10652   */\n      pop\n        /* \"#utility.yul\":10736:10740   */\n      0x20\n        /* \"#utility.yul\":10729:10734   */\n      dup4\n        /* \"#utility.yul\":10725:10741   */\n      add\n        /* \"#utility.yul\":10719:10742   */\n      mload\n        /* \"#utility.yul\":10755:10818   */\n      tag_487\n        /* \"#utility.yul\":10812:10816   */\n      0x20\n        /* \"#utility.yul\":10807:10810   */\n      dup7\n        /* \"#utility.yul\":10803:10817   */\n      add\n        /* \"#utility.yul\":10789:10801   */\n      dup3\n        /* \"#utility.yul\":10755:10818   */\n      tag_328\n      jump\t// in\n    tag_487:\n        /* \"#utility.yul\":10662:10828   */\n      pop\n        /* \"#utility.yul\":10913:10917   */\n      0x40\n        /* \"#utility.yul\":10906:10911   */\n      dup4\n        /* \"#utility.yul\":10902:10918   */\n      add\n        /* \"#utility.yul\":10896:10919   */\n      mload\n        /* \"#utility.yul\":10932:10995   */\n      tag_488\n        /* \"#utility.yul\":10989:10993   */\n      0x40\n        /* \"#utility.yul\":10984:10987   */\n      dup7\n        /* \"#utility.yul\":10980:10994   */\n      add\n        /* \"#utility.yul\":10966:10978   */\n      dup3\n        /* \"#utility.yul\":10932:10995   */\n      tag_328\n      jump\t// in\n    tag_488:\n        /* \"#utility.yul\":10838:11005   */\n      pop\n        /* \"#utility.yul\":11022:11026   */\n      dup1\n        /* \"#utility.yul\":11015:11026   */\n      swap2\n      pop\n        /* \"#utility.yul\":10371:11032   */\n      pop\n        /* \"#utility.yul\":10267:11032   */\n      swap3\n      swap2\n      pop\n      pop\n      jump\t// out\n        /* \"#utility.yul\":11038:11274   */\n    tag_330:\n        /* \"#utility.yul\":11147:11157   */\n      0x00\n        /* \"#utility.yul\":11182:11268   */\n      tag_490\n        /* \"#utility.yul\":11264:11267   */\n      dup4\n        /* \"#utility.yul\":11256:11262   */\n      dup4\n        /* \"#utility.yul\":11182:11268   */\n      tag_329\n      jump\t// in\n    tag_490:\n        /* \"#utility.yul\":11168:11268   */\n      swap1\n      pop\n        /* \"#utility.yul\":11038:11274   */\n      swap3\n      swap2\n      pop\n      pop\n      jump\t// out\n        /* \"#utility.yul\":11280:11413   */\n    tag_331:\n        /* \"#utility.yul\":11370:11374   */\n      0x00\n        /* \"#utility.yul\":11402:11406   */\n      0x20\n        /* \"#utility.yul\":11397:11400   */\n      dup3\n        /* \"#utility.yul\":11393:11407   */\n      add\n        /* \"#utility.yul\":11385:11407   */\n      swap1\n      pop\n        /* \"#utility.yul\":11280:11413   */\n      swap2\n      swap1\n      pop\n      jump\t// out\n        /* \"#utility.yul\":11483:12554   */\n    tag_332:\n        /* \"#utility.yul\":11642:11645   */\n      0x00\n        /* \"#utility.yul\":11671:11745   */\n      tag_493\n        /* \"#utility.yul\":11739:11744   */\n      dup3\n        /* \"#utility.yul\":11671:11745   */\n      tag_323\n      jump\t// in\n    tag_493:\n        /* \"#utility.yul\":11761:11867   */\n      tag_494\n        /* \"#utility.yul\":11860:11866   */\n      dup2\n        /* \"#utility.yul\":11855:11858   */\n      dup6\n        /* \"#utility.yul\":11761:11867   */\n      tag_324\n      jump\t// in\n    tag_494:\n        /* \"#utility.yul\":11754:11867   */\n      swap4\n      pop\n        /* \"#utility.yul\":11893:11896   */\n      dup4\n        /* \"#utility.yul\":11938:11942   */\n      0x20\n        /* \"#utility.yul\":11930:11936   */\n      dup3\n        /* \"#utility.yul\":11926:11943   */\n      mul\n        /* \"#utility.yul\":11921:11924   */\n      dup6\n        /* \"#utility.yul\":11917:11944   */\n      add\n        /* \"#utility.yul\":11968:12044   */\n      tag_495\n        /* \"#utility.yul\":12038:12043   */\n      dup6\n        /* \"#utility.yul\":11968:12044   */\n      tag_325\n      jump\t// in\n    tag_495:\n        /* \"#utility.yul\":12067:12074   */\n      dup1\n        /* \"#utility.yul\":12098:12099   */\n      0x00\n        /* \"#utility.yul\":12083:12509   */\n    tag_496:\n        /* \"#utility.yul\":12108:12114   */\n      dup6\n        /* \"#utility.yul\":12105:12106   */\n      dup2\n        /* \"#utility.yul\":12102:12115   */\n      lt\n        /* \"#utility.yul\":12083:12509   */\n      iszero\n      tag_498\n      jumpi\n        /* \"#utility.yul\":12179:12188   */\n      dup5\n        /* \"#utility.yul\":12173:12177   */\n      dup5\n        /* \"#utility.yul\":12169:12189   */\n      sub\n        /* \"#utility.yul\":12164:12167   */\n      dup10\n        /* \"#utility.yul\":12157:12190   */\n      mstore\n        /* \"#utility.yul\":12230:12236   */\n      dup2\n        /* \"#utility.yul\":12224:12237   */\n      mload\n        /* \"#utility.yul\":12258:12362   */\n      tag_499\n        /* \"#utility.yul\":12357:12361   */\n      dup6\n        /* \"#utility.yul\":12342:12355   */\n      dup3\n        /* \"#utility.yul\":12258:12362   */\n      tag_330\n      jump\t// in\n    tag_499:\n        /* \"#utility.yul\":12250:12362   */\n      swap5\n      pop\n        /* \"#utility.yul\":12385:12465   */\n      tag_500\n        /* \"#utility.yul\":12458:12464   */\n      dup4\n        /* \"#utility.yul\":12385:12465   */\n      tag_331\n      jump\t// in\n    tag_500:\n        /* \"#utility.yul\":12375:12465   */\n      swap3\n      pop\n        /* \"#utility.yul\":12494:12498   */\n      0x20\n        /* \"#utility.yul\":12489:12492   */\n      dup11\n        /* \"#utility.yul\":12485:12499   */\n      add\n        /* \"#utility.yul\":12478:12499   */\n      swap10\n      pop\n        /* \"#utility.yul\":12143:12509   */\n      pop\n        /* \"#utility.yul\":12130:12131   */\n      0x01\n        /* \"#utility.yul\":12127:12128   */\n      dup2\n        /* \"#utility.yul\":12123:12132   */\n      add\n        /* \"#utility.yul\":12118:12132   */\n      swap1\n      pop\n        /* \"#utility.yul\":12083:12509   */\n      jump(tag_496)\n    tag_498:\n        /* \"#utility.yul\":12087:12101   */\n      pop\n        /* \"#utility.yul\":12525:12529   */\n      dup3\n        /* \"#utility.yul\":12518:12529   */\n      swap8\n      pop\n        /* \"#utility.yul\":12545:12548   */\n      dup8\n        /* \"#utility.yul\":12538:12548   */\n      swap6\n      pop\n        /* \"#utility.yul\":11647:12554   */\n      pop\n      pop\n      pop\n      pop\n      pop\n        /* \"#utility.yul\":11483:12554   */\n      swap3\n      swap2\n      pop\n      pop\n      jump\t// out\n        /* \"#utility.yul\":12560:13013   */\n    tag_114:\n        /* \"#utility.yul\":12743:12747   */\n      0x00\n        /* \"#utility.yul\":12781:12783   */\n      0x20\n        /* \"#utility.yul\":12770:12779   */\n      dup3\n        /* \"#utility.yul\":12766:12784   */\n      add\n        /* \"#utility.yul\":12758:12784   */\n      swap1\n      pop\n        /* \"#utility.yul\":12830:12839   */\n      dup2\n        /* \"#utility.yul\":12824:12828   */\n      dup2\n        /* \"#utility.yul\":12820:12840   */\n      sub\n        /* \"#utility.yul\":12816:12817   */\n      0x00\n        /* \"#utility.yul\":12805:12814   */\n      dup4\n        /* \"#utility.yul\":12801:12818   */\n      add\n        /* \"#utility.yul\":12794:12841   */\n      mstore\n        /* \"#utility.yul\":12858:13006   */\n      tag_502\n        /* \"#utility.yul\":13001:13005   */\n      dup2\n        /* \"#utility.yul\":12992:12998   */\n      dup5\n        /* \"#utility.yul\":12858:13006   */\n      tag_332\n      jump\t// in\n    tag_502:\n        /* \"#utility.yul\":12850:13006   */\n      swap1\n      pop\n        /* \"#utility.yul\":12560:13013   */\n      swap3\n      swap2\n      pop\n      pop\n      jump\t// out\n        /* \"#utility.yul\":13019:13199   */\n    tag_333:\n        /* \"#utility.yul\":13067:13144   */\n      0x4e487b7100000000000000000000000000000000000000000000000000000000\n        /* \"#utility.yul\":13064:13065   */\n      0x00\n        /* \"#utility.yul\":13057:13145   */\n      mstore\n        /* \"#utility.yul\":13164:13168   */\n      0x22\n        /* \"#utility.yul\":13161:13162   */\n      0x04\n        /* \"#utility.yul\":13154:13169   */\n      mstore\n        /* \"#utility.yul\":13188:13192   */\n      0x24\n        /* \"#utility.yul\":13185:13186   */\n      0x00\n        /* \"#utility.yul\":13178:13193   */\n      revert\n        /* \"#utility.yul\":13205:13525   */\n    tag_118:\n        /* \"#utility.yul\":13249:13255   */\n      0x00\n        /* \"#utility.yul\":13286:13287   */\n      0x02\n        /* \"#utility.yul\":13280:13284   */\n      dup3\n        /* \"#utility.yul\":13276:13288   */\n      div\n        /* \"#utility.yul\":13266:13288   */\n      swap1\n      pop\n        /* \"#utility.yul\":13333:13334   */\n      0x01\n        /* \"#utility.yul\":13327:13331   */\n      dup3\n        /* \"#utility.yul\":13323:13335   */\n      and\n        /* \"#utility.yul\":13354:13372   */\n      dup1\n        /* \"#utility.yul\":13344:13425   */\n      tag_505\n      jumpi\n        /* \"#utility.yul\":13410:13414   */\n      0x7f\n        /* \"#utility.yul\":13402:13408   */\n      dup3\n        /* \"#utility.yul\":13398:13415   */\n      and\n        /* \"#utility.yul\":13388:13415   */\n      swap2\n      pop\n        /* \"#utility.yul\":13344:13425   */\n    tag_505:\n        /* \"#utility.yul\":13472:13474   */\n      0x20\n        /* \"#utility.yul\":13464:13470   */\n      dup3\n        /* \"#utility.yul\":13461:13475   */\n      lt\n        /* \"#utility.yul\":13441:13459   */\n      dup2\n        /* \"#utility.yul\":13438:13476   */\n      sub\n        /* \"#utility.yul\":13435:13519   */\n      tag_506\n      jumpi\n        /* \"#utility.yul\":13491:13509   */\n      tag_507\n      tag_333\n      jump\t// in\n    tag_507:\n        /* \"#utility.yul\":13435:13519   */\n    tag_506:\n        /* \"#utility.yul\":13256:13525   */\n      pop\n        /* \"#utility.yul\":13205:13525   */\n      swap2\n      swap1\n      pop\n      jump\t// out\n        /* \"#utility.yul\":13531:13702   */\n    tag_334:\n        /* \"#utility.yul\":13671:13694   */\n      0x596f7520617265206e6f7420746865206f776e65720000000000000000000000\n        /* \"#utility.yul\":13667:13668   */\n      0x00\n        /* \"#utility.yul\":13659:13665   */\n      dup3\n        /* \"#utility.yul\":13655:13669   */\n      add\n        /* \"#utility.yul\":13648:13695   */\n      mstore\n        /* \"#utility.yul\":13531:13702   */\n      pop\n      jump\t// out\n        /* \"#utility.yul\":13708:14074   */\n    tag_335:\n        /* \"#utility.yul\":13850:13853   */\n      0x00\n        /* \"#utility.yul\":13871:13938   */\n      tag_510\n        /* \"#utility.yul\":13935:13937   */\n      0x15\n        /* \"#utility.yul\":13930:13933   */\n      dup4\n        /* \"#utility.yul\":13871:13938   */\n      tag_298\n      jump\t// in\n    tag_510:\n        /* \"#utility.yul\":13864:13938   */\n      swap2\n      pop\n        /* \"#utility.yul\":13947:14040   */\n      tag_511\n        /* \"#utility.yul\":14036:14039   */\n      dup3\n        /* \"#utility.yul\":13947:14040   */\n      tag_334\n      jump\t// in\n    tag_511:\n        /* \"#utility.yul\":14065:14067   */\n      0x20\n        /* \"#utility.yul\":14060:14063   */\n      dup3\n        /* \"#utility.yul\":14056:14068   */\n      add\n        /* \"#utility.yul\":14049:14068   */\n      swap1\n      pop\n        /* \"#utility.yul\":13708:14074   */\n      swap2\n      swap1\n      pop\n      jump\t// out\n        /* \"#utility.yul\":14080:14499   */\n    tag_141:\n        /* \"#utility.yul\":14246:14250   */\n      0x00\n        /* \"#utility.yul\":14284:14286   */\n      0x20\n        /* \"#utility.yul\":14273:14282   */\n      dup3\n        /* \"#utility.yul\":14269:14287   */\n      add\n        /* \"#utility.yul\":14261:14287   */\n      swap1\n      pop\n        /* \"#utility.yul\":14333:14342   */\n      dup2\n        /* \"#utility.yul\":14327:14331   */\n      dup2\n        /* \"#utility.yul\":14323:14343   */\n      sub\n        /* \"#utility.yul\":14319:14320   */\n      0x00\n        /* \"#utility.yul\":14308:14317   */\n      dup4\n        /* \"#utility.yul\":14304:14321   */\n      add\n        /* \"#utility.yul\":14297:14344   */\n      mstore\n        /* \"#utility.yul\":14361:14492   */\n      tag_513\n        /* \"#utility.yul\":14487:14491   */\n      dup2\n        /* \"#utility.yul\":14361:14492   */\n      tag_335\n      jump\t// in\n    tag_513:\n        /* \"#utility.yul\":14353:14492   */\n      swap1\n      pop\n        /* \"#utility.yul\":14080:14499   */\n      swap2\n      swap1\n      pop\n      jump\t// out\n        /* \"#utility.yul\":14505:14677   */\n    tag_336:\n        /* \"#utility.yul\":14645:14669   */\n      0x43616d706169676e206973206e6f742041637469766500000000000000000000\n        /* \"#utility.yul\":14641:14642   */\n      0x00\n        /* \"#utility.yul\":14633:14639   */\n      dup3\n        /* \"#utility.yul\":14629:14643   */\n      add\n        /* \"#utility.yul\":14622:14670   */\n      mstore\n        /* \"#utility.yul\":14505:14677   */\n      pop\n      jump\t// out\n        /* \"#utility.yul\":14683:15049   */\n    tag_337:\n        /* \"#utility.yul\":14825:14828   */\n      0x00\n        /* \"#utility.yul\":14846:14913   */\n      tag_516\n        /* \"#utility.yul\":14910:14912   */\n      0x16\n        /* \"#utility.yul\":14905:14908   */\n      dup4\n        /* \"#utility.yul\":14846:14913   */\n      tag_298\n      jump\t// in\n    tag_516:\n        /* \"#utility.yul\":14839:14913   */\n      swap2\n      pop\n        /* \"#utility.yul\":14922:15015   */\n      tag_517\n        /* \"#utility.yul\":15011:15014   */\n      dup3\n        /* \"#utility.yul\":14922:15015   */\n      tag_336\n      jump\t// in\n    tag_517:\n        /* \"#utility.yul\":15040:15042   */\n      0x20\n        /* \"#utility.yul\":15035:15038   */\n      dup3\n        /* \"#utility.yul\":15031:15043   */\n      add\n        /* \"#utility.yul\":15024:15043   */\n      swap1\n      pop\n        /* \"#utility.yul\":14683:15049   */\n      swap2\n      swap1\n      pop\n      jump\t// out\n        /* \"#utility.yul\":15055:15474   */\n    tag_149:\n        /* \"#utility.yul\":15221:15225   */\n      0x00\n        /* \"#utility.yul\":15259:15261   */\n      0x20\n        /* \"#utility.yul\":15248:15257   */\n      dup3\n        /* \"#utility.yul\":15244:15262   */\n      add\n        /* \"#utility.yul\":15236:15262   */\n      swap1\n      pop\n        /* \"#utility.yul\":15308:15317   */\n      dup2\n        /* \"#utility.yul\":15302:15306   */\n      dup2\n        /* \"#utility.yul\":15298:15318   */\n      sub\n        /* \"#utility.yul\":15294:15295   */\n      0x00\n        /* \"#utility.yul\":15283:15292   */\n      dup4\n        /* \"#utility.yul\":15279:15296   */\n      add\n        /* \"#utility.yul\":15272:15319   */\n      mstore\n        /* \"#utility.yul\":15336:15467   */\n      tag_519\n        /* \"#utility.yul\":15462:15466   */\n      dup2\n        /* \"#utility.yul\":15336:15467   */\n      tag_337\n      jump\t// in\n    tag_519:\n        /* \"#utility.yul\":15328:15467   */\n      swap1\n      pop\n        /* \"#utility.yul\":15055:15474   */\n      swap2\n      swap1\n      pop\n      jump\t// out\n        /* \"#utility.yul\":15480:15660   */\n    tag_338:\n        /* \"#utility.yul\":15528:15605   */\n      0x4e487b7100000000000000000000000000000000000000000000000000000000\n        /* \"#utility.yul\":15525:15526   */\n      0x00\n        /* \"#utility.yul\":15518:15606   */\n      mstore\n        /* \"#utility.yul\":15625:15629   */\n      0x11\n        /* \"#utility.yul\":15622:15623   */\n      0x04\n        /* \"#utility.yul\":15615:15630   */\n      mstore\n        /* \"#utility.yul\":15649:15653   */\n      0x24\n        /* \"#utility.yul\":15646:15647   */\n      0x00\n        /* \"#utility.yul\":15639:15654   */\n      revert\n        /* \"#utility.yul\":15666:16076   */\n    tag_152:\n        /* \"#utility.yul\":15706:15713   */\n      0x00\n        /* \"#utility.yul\":15729:15749   */\n      tag_522\n        /* \"#utility.yul\":15747:15748   */\n      dup3\n        /* \"#utility.yul\":15729:15749   */\n      tag_294\n      jump\t// in\n    tag_522:\n        /* \"#utility.yul\":15724:15749   */\n      swap2\n      pop\n        /* \"#utility.yul\":15763:15783   */\n      tag_523\n        /* \"#utility.yul\":15781:15782   */\n      dup4\n        /* \"#utility.yul\":15763:15783   */\n      tag_294\n      jump\t// in\n    tag_523:\n        /* \"#utility.yul\":15758:15783   */\n      swap3\n      pop\n        /* \"#utility.yul\":15818:15819   */\n      dup3\n        /* \"#utility.yul\":15815:15816   */\n      dup3\n        /* \"#utility.yul\":15811:15820   */\n      mul\n        /* \"#utility.yul\":15840:15870   */\n      tag_524\n        /* \"#utility.yul\":15858:15869   */\n      dup2\n        /* \"#utility.yul\":15840:15870   */\n      tag_294\n      jump\t// in\n    tag_524:\n        /* \"#utility.yul\":15829:15870   */\n      swap2\n      pop\n        /* \"#utility.yul\":16019:16020   */\n      dup3\n        /* \"#utility.yul\":16010:16017   */\n      dup3\n        /* \"#utility.yul\":16006:16021   */\n      div\n        /* \"#utility.yul\":16003:16004   */\n      dup5\n        /* \"#utility.yul\":16000:16022   */\n      eq\n        /* \"#utility.yul\":15980:15981   */\n      dup4\n        /* \"#utility.yul\":15973:15982   */\n      iszero\n        /* \"#utility.yul\":15953:16036   */\n      or\n        /* \"#utility.yul\":15930:16069   */\n      tag_525\n      jumpi\n        /* \"#utility.yul\":16049:16067   */\n      tag_526\n      tag_338\n      jump\t// in\n    tag_526:\n        /* \"#utility.yul\":15930:16069   */\n    tag_525:\n        /* \"#utility.yul\":15714:16076   */\n      pop\n        /* \"#utility.yul\":15666:16076   */\n      swap3\n      swap2\n      pop\n      pop\n      jump\t// out\n        /* \"#utility.yul\":16082:16273   */\n    tag_154:\n        /* \"#utility.yul\":16122:16125   */\n      0x00\n        /* \"#utility.yul\":16141:16161   */\n      tag_528\n        /* \"#utility.yul\":16159:16160   */\n      dup3\n        /* \"#utility.yul\":16141:16161   */\n      tag_294\n      jump\t// in\n    tag_528:\n        /* \"#utility.yul\":16136:16161   */\n      swap2\n      pop\n        /* \"#utility.yul\":16175:16195   */\n      tag_529\n        /* \"#utility.yul\":16193:16194   */\n      dup4\n        /* \"#utility.yul\":16175:16195   */\n      tag_294\n      jump\t// in\n    tag_529:\n        /* \"#utility.yul\":16170:16195   */\n      swap3\n      pop\n        /* \"#utility.yul\":16218:16219   */\n      dup3\n        /* \"#utility.yul\":16215:16216   */\n      dup3\n        /* \"#utility.yul\":16211:16220   */\n      add\n        /* \"#utility.yul\":16204:16220   */\n      swap1\n      pop\n        /* \"#utility.yul\":16239:16242   */\n      dup1\n        /* \"#utility.yul\":16236:16237   */\n      dup3\n        /* \"#utility.yul\":16233:16243   */\n      gt\n        /* \"#utility.yul\":16230:16266   */\n      iszero\n      tag_530\n      jumpi\n        /* \"#utility.yul\":16246:16264   */\n      tag_531\n      tag_338\n      jump\t// in\n    tag_531:\n        /* \"#utility.yul\":16230:16266   */\n    tag_530:\n        /* \"#utility.yul\":16082:16273   */\n      swap3\n      swap2\n      pop\n      pop\n      jump\t// out\n        /* \"#utility.yul\":16279:16456   */\n    tag_339:\n        /* \"#utility.yul\":16419:16448   */\n      0x43616d706169676e206e6f74207375636365737366756c207965740000000000\n        /* \"#utility.yul\":16415:16416   */\n      0x00\n        /* \"#utility.yul\":16407:16413   */\n      dup3\n        /* \"#utility.yul\":16403:16417   */\n      add\n        /* \"#utility.yul\":16396:16449   */\n      mstore\n        /* \"#utility.yul\":16279:16456   */\n      pop\n      jump\t// out\n        /* \"#utility.yul\":16462:16828   */\n    tag_340:\n        /* \"#utility.yul\":16604:16607   */\n      0x00\n        /* \"#utility.yul\":16625:16692   */\n      tag_534\n        /* \"#utility.yul\":16689:16691   */\n      0x1b\n        /* \"#utility.yul\":16684:16687   */\n      dup4\n        /* \"#utility.yul\":16625:16692   */\n      tag_298\n      jump\t// in\n    tag_534:\n        /* \"#utility.yul\":16618:16692   */\n      swap2\n      pop\n        /* \"#utility.yul\":16701:16794   */\n      tag_535\n        /* \"#utility.yul\":16790:16793   */\n      dup3\n        /* \"#utility.yul\":16701:16794   */\n      tag_339\n      jump\t// in\n    tag_535:\n        /* \"#utility.yul\":16819:16821   */\n      0x20\n        /* \"#utility.yul\":16814:16817   */\n      dup3\n        /* \"#utility.yul\":16810:16822   */\n      add\n        /* \"#utility.yul\":16803:16822   */\n      swap1\n      pop\n        /* \"#utility.yul\":16462:16828   */\n      swap2\n      swap1\n      pop\n      jump\t// out\n        /* \"#utility.yul\":16834:17253   */\n    tag_167:\n        /* \"#utility.yul\":17000:17004   */\n      0x00\n        /* \"#utility.yul\":17038:17040   */\n      0x20\n        /* \"#utility.yul\":17027:17036   */\n      dup3\n        /* \"#utility.yul\":17023:17041   */\n      add\n        /* \"#utility.yul\":17015:17041   */\n      swap1\n      pop\n        /* \"#utility.yul\":17087:17096   */\n      dup2\n        /* \"#utility.yul\":17081:17085   */\n      dup2\n        /* \"#utility.yul\":17077:17097   */\n      sub\n        /* \"#utility.yul\":17073:17074   */\n      0x00\n        /* \"#utility.yul\":17062:17071   */\n      dup4\n        /* \"#utility.yul\":17058:17075   */\n      add\n        /* \"#utility.yul\":17051:17098   */\n      mstore\n        /* \"#utility.yul\":17115:17246   */\n      tag_537\n        /* \"#utility.yul\":17241:17245   */\n      dup2\n        /* \"#utility.yul\":17115:17246   */\n      tag_340\n      jump\t// in\n    tag_537:\n        /* \"#utility.yul\":17107:17246   */\n      swap1\n      pop\n        /* \"#utility.yul\":16834:17253   */\n      swap2\n      swap1\n      pop\n      jump\t// out\n        /* \"#utility.yul\":17259:17432   */\n    tag_341:\n        /* \"#utility.yul\":17399:17424   */\n      0x4e6f2062616c616e636520746f20776974686472617721000000000000000000\n        /* \"#utility.yul\":17395:17396   */\n      0x00\n        /* \"#utility.yul\":17387:17393   */\n      dup3\n        /* \"#utility.yul\":17383:17397   */\n      add\n        /* \"#utility.yul\":17376:17425   */\n      mstore\n        /* \"#utility.yul\":17259:17432   */\n      pop\n      jump\t// out\n        /* \"#utility.yul\":17438:17804   */\n    tag_342:\n        /* \"#utility.yul\":17580:17583   */\n      0x00\n        /* \"#utility.yul\":17601:17668   */\n      tag_540\n        /* \"#utility.yul\":17665:17667   */\n      0x17\n        /* \"#utility.yul\":17660:17663   */\n      dup4\n        /* \"#utility.yul\":17601:17668   */\n      tag_298\n      jump\t// in\n    tag_540:\n        /* \"#utility.yul\":17594:17668   */\n      swap2\n      pop\n        /* \"#utility.yul\":17677:17770   */\n      tag_541\n        /* \"#utility.yul\":17766:17769   */\n      dup3\n        /* \"#utility.yul\":17677:17770   */\n      tag_341\n      jump\t// in\n    tag_541:\n        /* \"#utility.yul\":17795:17797   */\n      0x20\n        /* \"#utility.yul\":17790:17793   */\n      dup3\n        /* \"#utility.yul\":17786:17798   */\n      add\n        /* \"#utility.yul\":17779:17798   */\n      swap1\n      pop\n        /* \"#utility.yul\":17438:17804   */\n      swap2\n      swap1\n      pop\n      jump\t// out\n        /* \"#utility.yul\":17810:18229   */\n    tag_170:\n        /* \"#utility.yul\":17976:17980   */\n      0x00\n        /* \"#utility.yul\":18014:18016   */\n      0x20\n        /* \"#utility.yul\":18003:18012   */\n      dup3\n        /* \"#utility.yul\":17999:18017   */\n      add\n        /* \"#utility.yul\":17991:18017   */\n      swap1\n      pop\n        /* \"#utility.yul\":18063:18072   */\n      dup2\n        /* \"#utility.yul\":18057:18061   */\n      dup2\n        /* \"#utility.yul\":18053:18073   */\n      sub\n        /* \"#utility.yul\":18049:18050   */\n      0x00\n        /* \"#utility.yul\":18038:18047   */\n      dup4\n        /* \"#utility.yul\":18034:18051   */\n      add\n        /* \"#utility.yul\":18027:18074   */\n      mstore\n        /* \"#utility.yul\":18091:18222   */\n      tag_543\n        /* \"#utility.yul\":18217:18221   */\n      dup2\n        /* \"#utility.yul\":18091:18222   */\n      tag_342\n      jump\t// in\n    tag_543:\n        /* \"#utility.yul\":18083:18222   */\n      swap1\n      pop\n        /* \"#utility.yul\":17810:18229   */\n      swap2\n      swap1\n      pop\n      jump\t// out\n        /* \"#utility.yul\":18235:18406   */\n    tag_343:\n        /* \"#utility.yul\":18375:18398   */\n      0x526566756e6473206e6f7420617661696c61626c650000000000000000000000\n        /* \"#utility.yul\":18371:18372   */\n      0x00\n        /* \"#utility.yul\":18363:18369   */\n      dup3\n        /* \"#utility.yul\":18359:18373   */\n      add\n        /* \"#utility.yul\":18352:18399   */\n      mstore\n        /* \"#utility.yul\":18235:18406   */\n      pop\n      jump\t// out\n        /* \"#utility.yul\":18412:18778   */\n    tag_344:\n        /* \"#utility.yul\":18554:18557   */\n      0x00\n        /* \"#utility.yul\":18575:18642   */\n      tag_546\n        /* \"#utility.yul\":18639:18641   */\n      0x15\n        /* \"#utility.yul\":18634:18637   */\n      dup4\n        /* \"#utility.yul\":18575:18642   */\n      tag_298\n      jump\t// in\n    tag_546:\n        /* \"#utility.yul\":18568:18642   */\n      swap2\n      pop\n        /* \"#utility.yul\":18651:18744   */\n      tag_547\n        /* \"#utility.yul\":18740:18743   */\n      dup3\n        /* \"#utility.yul\":18651:18744   */\n      tag_343\n      jump\t// in\n    tag_547:\n        /* \"#utility.yul\":18769:18771   */\n      0x20\n        /* \"#utility.yul\":18764:18767   */\n      dup3\n        /* \"#utility.yul\":18760:18772   */\n      add\n        /* \"#utility.yul\":18753:18772   */\n      swap1\n      pop\n        /* \"#utility.yul\":18412:18778   */\n      swap2\n      swap1\n      pop\n      jump\t// out\n        /* \"#utility.yul\":18784:19203   */\n    tag_181:\n        /* \"#utility.yul\":18950:18954   */\n      0x00\n        /* \"#utility.yul\":18988:18990   */\n      0x20\n        /* \"#utility.yul\":18977:18986   */\n      dup3\n        /* \"#utility.yul\":18973:18991   */\n      add\n        /* \"#utility.yul\":18965:18991   */\n      swap1\n      pop\n        /* \"#utility.yul\":19037:19046   */\n      dup2\n        /* \"#utility.yul\":19031:19035   */\n      dup2\n        /* \"#utility.yul\":19027:19047   */\n      sub\n        /* \"#utility.yul\":19023:19024   */\n      0x00\n        /* \"#utility.yul\":19012:19021   */\n      dup4\n        /* \"#utility.yul\":19008:19025   */\n      add\n        /* \"#utility.yul\":19001:19048   */\n      mstore\n        /* \"#utility.yul\":19065:19196   */\n      tag_549\n        /* \"#utility.yul\":19191:19195   */\n      dup2\n        /* \"#utility.yul\":19065:19196   */\n      tag_344\n      jump\t// in\n    tag_549:\n        /* \"#utility.yul\":19057:19196   */\n      swap1\n      pop\n        /* \"#utility.yul\":18784:19203   */\n      swap2\n      swap1\n      pop\n      jump\t// out\n        /* \"#utility.yul\":19209:19384   */\n    tag_345:\n        /* \"#utility.yul\":19349:19376   */\n      0x4e6f20636f6e747269627574696f6e20746f20726566756e6400000000000000\n        /* \"#utility.yul\":19345:19346   */\n      0x00\n        /* \"#utility.yul\":19337:19343   */\n      dup3\n        /* \"#utility.yul\":19333:19347   */\n      add\n        /* \"#utility.yul\":19326:19377   */\n      mstore\n        /* \"#utility.yul\":19209:19384   */\n      pop\n      jump\t// out\n        /* \"#utility.yul\":19390:19756   */\n    tag_346:\n        /* \"#utility.yul\":19532:19535   */\n      0x00\n        /* \"#utility.yul\":19553:19620   */\n      tag_552\n        /* \"#utility.yul\":19617:19619   */\n      0x19\n        /* \"#utility.yul\":19612:19615   */\n      dup4\n        /* \"#utility.yul\":19553:19620   */\n      tag_298\n      jump\t// in\n    tag_552:\n        /* \"#utility.yul\":19546:19620   */\n      swap2\n      pop\n        /* \"#utility.yul\":19629:19722   */\n      tag_553\n        /* \"#utility.yul\":19718:19721   */\n      dup3\n        /* \"#utility.yul\":19629:19722   */\n      tag_345\n      jump\t// in\n    tag_553:\n        /* \"#utility.yul\":19747:19749   */\n      0x20\n        /* \"#utility.yul\":19742:19745   */\n      dup3\n        /* \"#utility.yul\":19738:19750   */\n      add\n        /* \"#utility.yul\":19731:19750   */\n      swap1\n      pop\n        /* \"#utility.yul\":19390:19756   */\n      swap2\n      swap1\n      pop\n      jump\t// out\n        /* \"#utility.yul\":19762:20181   */\n    tag_184:\n        /* \"#utility.yul\":19928:19932   */\n      0x00\n        /* \"#utility.yul\":19966:19968   */\n      0x20\n        /* \"#utility.yul\":19955:19964   */\n      dup3\n        /* \"#utility.yul\":19951:19969   */\n      add\n        /* \"#utility.yul\":19943:19969   */\n      swap1\n      pop\n        /* \"#utility.yul\":20015:20024   */\n      dup2\n        /* \"#utility.yul\":20009:20013   */\n      dup2\n        /* \"#utility.yul\":20005:20025   */\n      sub\n        /* \"#utility.yul\":20001:20002   */\n      0x00\n        /* \"#utility.yul\":19990:19999   */\n      dup4\n        /* \"#utility.yul\":19986:20003   */\n      add\n        /* \"#utility.yul\":19979:20026   */\n      mstore\n        /* \"#utility.yul\":20043:20174   */\n      tag_555\n        /* \"#utility.yul\":20169:20173   */\n      dup2\n        /* \"#utility.yul\":20043:20174   */\n      tag_346\n      jump\t// in\n    tag_555:\n        /* \"#utility.yul\":20035:20174   */\n      swap1\n      pop\n        /* \"#utility.yul\":19762:20181   */\n      swap2\n      swap1\n      pop\n      jump\t// out\n        /* \"#utility.yul\":20187:20357   */\n    tag_347:\n        /* \"#utility.yul\":20327:20349   */\n      0x5469657220646f6573206e6f7420657869737421000000000000000000000000\n        /* \"#utility.yul\":20323:20324   */\n      0x00\n        /* \"#utility.yul\":20315:20321   */\n      dup3\n        /* \"#utility.yul\":20311:20325   */\n      add\n        /* \"#utility.yul\":20304:20350   */\n      mstore\n        /* \"#utility.yul\":20187:20357   */\n      pop\n      jump\t// out\n        /* \"#utility.yul\":20363:20729   */\n    tag_348:\n        /* \"#utility.yul\":20505:20508   */\n      0x00\n        /* \"#utility.yul\":20526:20593   */\n      tag_558\n        /* \"#utility.yul\":20590:20592   */\n      0x14\n        /* \"#utility.yul\":20585:20588   */\n      dup4\n        /* \"#utility.yul\":20526:20593   */\n      tag_298\n      jump\t// in\n    tag_558:\n        /* \"#utility.yul\":20519:20593   */\n      swap2\n      pop\n        /* \"#utility.yul\":20602:20695   */\n      tag_559\n        /* \"#utility.yul\":20691:20694   */\n      dup3\n        /* \"#utility.yul\":20602:20695   */\n      tag_347\n      jump\t// in\n    tag_559:\n        /* \"#utility.yul\":20720:20722   */\n      0x20\n        /* \"#utility.yul\":20715:20718   */\n      dup3\n        /* \"#utility.yul\":20711:20723   */\n      add\n        /* \"#utility.yul\":20704:20723   */\n      swap1\n      pop\n        /* \"#utility.yul\":20363:20729   */\n      swap2\n      swap1\n      pop\n      jump\t// out\n        /* \"#utility.yul\":20735:21154   */\n    tag_199:\n        /* \"#utility.yul\":20901:20905   */\n      0x00\n        /* \"#utility.yul\":20939:20941   */\n      0x20\n        /* \"#utility.yul\":20928:20937   */\n      dup3\n        /* \"#utility.yul\":20924:20942   */\n      add\n        /* \"#utility.yul\":20916:20942   */\n      swap1\n      pop\n        /* \"#utility.yul\":20988:20997   */\n      dup2\n        /* \"#utility.yul\":20982:20986   */\n      dup2\n        /* \"#utility.yul\":20978:20998   */\n      sub\n        /* \"#utility.yul\":20974:20975   */\n      0x00\n        /* \"#utility.yul\":20963:20972   */\n      dup4\n        /* \"#utility.yul\":20959:20976   */\n      add\n        /* \"#utility.yul\":20952:20999   */\n      mstore\n        /* \"#utility.yul\":21016:21147   */\n      tag_561\n        /* \"#utility.yul\":21142:21146   */\n      dup2\n        /* \"#utility.yul\":21016:21147   */\n      tag_348\n      jump\t// in\n    tag_561:\n        /* \"#utility.yul\":21008:21147   */\n      swap1\n      pop\n        /* \"#utility.yul\":20735:21154   */\n      swap2\n      swap1\n      pop\n      jump\t// out\n        /* \"#utility.yul\":21160:21354   */\n    tag_201:\n        /* \"#utility.yul\":21200:21204   */\n      0x00\n        /* \"#utility.yul\":21220:21240   */\n      tag_563\n        /* \"#utility.yul\":21238:21239   */\n      dup3\n        /* \"#utility.yul\":21220:21240   */\n      tag_294\n      jump\t// in\n    tag_563:\n        /* \"#utility.yul\":21215:21240   */\n      swap2\n      pop\n        /* \"#utility.yul\":21254:21274   */\n      tag_564\n        /* \"#utility.yul\":21272:21273   */\n      dup4\n        /* \"#utility.yul\":21254:21274   */\n      tag_294\n      jump\t// in\n    tag_564:\n        /* \"#utility.yul\":21249:21274   */\n      swap3\n      pop\n        /* \"#utility.yul\":21298:21299   */\n      dup3\n        /* \"#utility.yul\":21295:21296   */\n      dup3\n        /* \"#utility.yul\":21291:21300   */\n      sub\n        /* \"#utility.yul\":21283:21300   */\n      swap1\n      pop\n        /* \"#utility.yul\":21322:21323   */\n      dup2\n        /* \"#utility.yul\":21316:21320   */\n      dup2\n        /* \"#utility.yul\":21313:21324   */\n      gt\n        /* \"#utility.yul\":21310:21347   */\n      iszero\n      tag_565\n      jumpi\n        /* \"#utility.yul\":21327:21345   */\n      tag_566\n      tag_338\n      jump\t// in\n    tag_566:\n        /* \"#utility.yul\":21310:21347   */\n    tag_565:\n        /* \"#utility.yul\":21160:21354   */\n      swap3\n      swap2\n      pop\n      pop\n      jump\t// out\n        /* \"#utility.yul\":21360:21540   */\n    tag_204:\n        /* \"#utility.yul\":21408:21485   */\n      0x4e487b7100000000000000000000000000000000000000000000000000000000\n        /* \"#utility.yul\":21405:21406   */\n      0x00\n        /* \"#utility.yul\":21398:21486   */\n      mstore\n        /* \"#utility.yul\":21505:21509   */\n      0x32\n        /* \"#utility.yul\":21502:21503   */\n      0x04\n        /* \"#utility.yul\":21495:21510   */\n      mstore\n        /* \"#utility.yul\":21529:21533   */\n      0x24\n        /* \"#utility.yul\":21526:21527   */\n      0x00\n        /* \"#utility.yul\":21519:21534   */\n      revert\n        /* \"#utility.yul\":21546:21695   */\n    tag_349:\n        /* \"#utility.yul\":21595:21601   */\n      0x00\n        /* \"#utility.yul\":21629:21634   */\n      dup2\n        /* \"#utility.yul\":21623:21635   */\n      sload\n        /* \"#utility.yul\":21613:21635   */\n      swap1\n      pop\n        /* \"#utility.yul\":21655:21688   */\n      tag_569\n        /* \"#utility.yul\":21681:21687   */\n      dup2\n        /* \"#utility.yul\":21655:21688   */\n      tag_118\n      jump\t// in\n    tag_569:\n        /* \"#utility.yul\":21645:21688   */\n      swap1\n      pop\n        /* \"#utility.yul\":21546:21695   */\n      swap2\n      swap1\n      pop\n      jump\t// out\n        /* \"#utility.yul\":21701:21842   */\n    tag_350:\n        /* \"#utility.yul\":21750:21754   */\n      0x00\n        /* \"#utility.yul\":21773:21776   */\n      dup2\n        /* \"#utility.yul\":21765:21776   */\n      swap1\n      pop\n        /* \"#utility.yul\":21796:21799   */\n      dup2\n        /* \"#utility.yul\":21793:21794   */\n      0x00\n        /* \"#utility.yul\":21786:21800   */\n      mstore\n        /* \"#utility.yul\":21830:21834   */\n      0x20\n        /* \"#utility.yul\":21827:21828   */\n      0x00\n        /* \"#utility.yul\":21817:21835   */\n      keccak256\n        /* \"#utility.yul\":21809:21835   */\n      swap1\n      pop\n        /* \"#utility.yul\":21701:21842   */\n      swap2\n      swap1\n      pop\n      jump\t// out\n        /* \"#utility.yul\":21848:21941   */\n    tag_351:\n        /* \"#utility.yul\":21885:21891   */\n      0x00\n        /* \"#utility.yul\":21932:21934   */\n      0x20\n        /* \"#utility.yul\":21927:21929   */\n      0x1f\n        /* \"#utility.yul\":21920:21925   */\n      dup4\n        /* \"#utility.yul\":21916:21930   */\n      add\n        /* \"#utility.yul\":21912:21935   */\n      div\n        /* \"#utility.yul\":21902:21935   */\n      swap1\n      pop\n        /* \"#utility.yul\":21848:21941   */\n      swap2\n      swap1\n      pop\n      jump\t// out\n        /* \"#utility.yul\":21947:22054   */\n    tag_352:\n        /* \"#utility.yul\":21991:21999   */\n      0x00\n        /* \"#utility.yul\":22041:22046   */\n      dup3\n        /* \"#utility.yul\":22035:22039   */\n      dup3\n        /* \"#utility.yul\":22031:22047   */\n      shl\n        /* \"#utility.yul\":22010:22047   */\n      swap1\n      pop\n        /* \"#utility.yul\":21947:22054   */\n      swap3\n      swap2\n      pop\n      pop\n      jump\t// out\n        /* \"#utility.yul\":22060:22453   */\n    tag_353:\n        /* \"#utility.yul\":22129:22135   */\n      0x00\n        /* \"#utility.yul\":22179:22180   */\n      0x08\n        /* \"#utility.yul\":22167:22177   */\n      dup4\n        /* \"#utility.yul\":22163:22181   */\n      mul\n        /* \"#utility.yul\":22202:22299   */\n      tag_574\n        /* \"#utility.yul\":22232:22298   */\n      0xffffffffffffffffffffffffffffffffffffffffffffffffffffffffffffffff\n        /* \"#utility.yul\":22221:22230   */\n      dup3\n        /* \"#utility.yul\":22202:22299   */\n      tag_352\n      jump\t// in\n    tag_574:\n        /* \"#utility.yul\":22320:22359   */\n      tag_575\n        /* \"#utility.yul\":22350:22358   */\n      dup7\n        /* \"#utility.yul\":22339:22348   */\n      dup4\n        /* \"#utility.yul\":22320:22359   */\n      tag_352\n      jump\t// in\n    tag_575:\n        /* \"#utility.yul\":22308:22359   */\n      swap6\n      pop\n        /* \"#utility.yul\":22392:22396   */\n      dup1\n        /* \"#utility.yul\":22388:22397   */\n      not\n        /* \"#utility.yul\":22381:22386   */\n      dup5\n        /* \"#utility.yul\":22377:22398   */\n      and\n        /* \"#utility.yul\":22368:22398   */\n      swap4\n      pop\n        /* \"#utility.yul\":22441:22445   */\n      dup1\n        /* \"#utility.yul\":22431:22439   */\n      dup7\n        /* \"#utility.yul\":22427:22446   */\n      and\n        /* \"#utility.yul\":22420:22425   */\n      dup5\n        /* \"#utility.yul\":22417:22447   */\n      or\n        /* \"#utility.yul\":22407:22447   */\n      swap3\n      pop\n        /* \"#utility.yul\":22136:22453   */\n      pop\n      pop\n        /* \"#utility.yul\":22060:22453   */\n      swap4\n      swap3\n      pop\n      pop\n      pop\n      jump\t// out\n        /* \"#utility.yul\":22459:22519   */\n    tag_354:\n        /* \"#utility.yul\":22487:22490   */\n      0x00\n        /* \"#utility.yul\":22508:22513   */\n      dup2\n        /* \"#utility.yul\":22501:22513   */\n      swap1\n      pop\n        /* \"#utility.yul\":22459:22519   */\n      swap2\n      swap1\n      pop\n      jump\t// out\n        /* \"#utility.yul\":22525:22667   */\n    tag_355:\n        /* \"#utility.yul\":22575:22584   */\n      0x00\n        /* \"#utility.yul\":22608:22661   */\n      tag_578\n        /* \"#utility.yul\":22626:22660   */\n      tag_579\n        /* \"#utility.yul\":22635:22659   */\n      tag_580\n        /* \"#utility.yul\":22653:22658   */\n      dup5\n        /* \"#utility.yul\":22635:22659   */\n      tag_294\n      jump\t// in\n    tag_580:\n        /* \"#utility.yul\":22626:22660   */\n      tag_354\n      jump\t// in\n    tag_579:\n        /* \"#utility.yul\":22608:22661   */\n      tag_294\n      jump\t// in\n    tag_578:\n        /* \"#utility.yul\":22595:22661   */\n      swap1\n      pop\n        /* \"#utility.yul\":22525:22667   */\n      swap2\n      swap1\n      pop\n      jump\t// out\n        /* \"#utility.yul\":22673:22748   */\n    tag_356:\n        /* \"#utility.yul\":22716:22719   */\n      0x00\n        /* \"#utility.yul\":22737:22742   */\n      dup2\n        /* \"#utility.yul\":22730:22742   */\n      swap1\n      pop\n        /* \"#utility.yul\":22673:22748   */\n      swap2\n      swap1\n      pop\n      jump\t// out\n        /* \"#utility.yul\":22754:23023   */\n    tag_357:\n        /* \"#utility.yul\":22864:22903   */\n      tag_583\n        /* \"#utility.yul\":22895:22902   */\n      dup4\n        /* \"#utility.yul\":22864:22903   */\n      tag_355\n      jump\t// in\n    tag_583:\n        /* \"#utility.yul\":22925:23016   */\n      tag_584\n        /* \"#utility.yul\":22974:23015   */\n      tag_585\n        /* \"#utility.yul\":22998:23014   */\n      dup3\n        /* \"#utility.yul\":22974:23015   */\n      tag_356\n      jump\t// in\n    tag_585:\n        /* \"#utility.yul\":22966:22972   */\n      dup5\n        /* \"#utility.yul\":22959:22963   */\n      dup5\n        /* \"#utility.yul\":22953:22964   */\n      sload\n        /* \"#utility.yul\":22925:23016   */\n      tag_353\n      jump\t// in\n    tag_584:\n        /* \"#utility.yul\":22919:22923   */\n      dup3\n        /* \"#utility.yul\":22912:23017   */\n      sstore\n        /* \"#utility.yul\":22830:23023   */\n      pop\n        /* \"#utility.yul\":22754:23023   */\n      pop\n      pop\n      pop\n      jump\t// out\n        /* \"#utility.yul\":23029:23102   */\n    tag_358:\n        /* \"#utility.yul\":23074:23077   */\n      0x00\n        /* \"#utility.yul\":23095:23096   */\n      0x00\n        /* \"#utility.yul\":23088:23096   */\n      swap1\n      pop\n        /* \"#utility.yul\":23029:23102   */\n      swap1\n      jump\t// out\n        /* \"#utility.yul\":23108:23297   */\n    tag_359:\n        /* \"#utility.yul\":23185:23217   */\n      tag_588\n      tag_358\n      jump\t// in\n    tag_588:\n        /* \"#utility.yul\":23226:23291   */\n      tag_589\n        /* \"#utility.yul\":23284:23290   */\n      dup2\n        /* \"#utility.yul\":23276:23282   */\n      dup5\n        /* \"#utility.yul\":23270:23274   */\n      dup5\n        /* \"#utility.yul\":23226:23291   */\n      tag_357\n      jump\t// in\n    tag_589:\n        /* \"#utility.yul\":23161:23297   */\n      pop\n        /* \"#utility.yul\":23108:23297   */\n      pop\n      pop\n      jump\t// out\n        /* \"#utility.yul\":23303:23489   */\n    tag_360:\n        /* \"#utility.yul\":23363:23483   */\n    tag_591:\n        /* \"#utility.yul\":23380:23383   */\n      dup2\n        /* \"#utility.yul\":23373:23378   */\n      dup2\n        /* \"#utility.yul\":23370:23384   */\n      lt\n        /* \"#utility.yul\":23363:23483   */\n      iszero\n      tag_593\n      jumpi\n        /* \"#utility.yul\":23434:23473   */\n      tag_594\n        /* \"#utility.yul\":23471:23472   */\n      0x00\n        /* \"#utility.yul\":23464:23469   */\n      dup3\n        /* \"#utility.yul\":23434:23473   */\n      tag_359\n      jump\t// in\n    tag_594:\n        /* \"#utility.yul\":23407:23408   */\n      0x01\n        /* \"#utility.yul\":23400:23405   */\n      dup2\n        /* \"#utility.yul\":23396:23409   */\n      add\n        /* \"#utility.yul\":23387:23409   */\n      swap1\n      pop\n        /* \"#utility.yul\":23363:23483   */\n      jump(tag_591)\n    tag_593:\n        /* \"#utility.yul\":23303:23489   */\n      pop\n      pop\n      jump\t// out\n        /* \"#utility.yul\":23495:24038   */\n    tag_361:\n        /* \"#utility.yul\":23596:23598   */\n      0x1f\n        /* \"#utility.yul\":23591:23594   */\n      dup3\n        /* \"#utility.yul\":23588:23599   */\n      gt\n        /* \"#utility.yul\":23585:24031   */\n      iszero\n      tag_596\n      jumpi\n        /* \"#utility.yul\":23630:23668   */\n      tag_597\n        /* \"#utility.yul\":23662:23667   */\n      dup2\n        /* \"#utility.yul\":23630:23668   */\n      tag_350\n      jump\t// in\n    tag_597:\n        /* \"#utility.yul\":23714:23743   */\n      tag_598\n        /* \"#utility.yul\":23732:23742   */\n      dup5\n        /* \"#utility.yul\":23714:23743   */\n      tag_351\n      jump\t// in\n    tag_598:\n        /* \"#utility.yul\":23704:23712   */\n      dup2\n        /* \"#utility.yul\":23700:23744   */\n      add\n        /* \"#utility.yul\":23897:23899   */\n      0x20\n        /* \"#utility.yul\":23885:23895   */\n      dup6\n        /* \"#utility.yul\":23882:23900   */\n      lt\n        /* \"#utility.yul\":23879:23928   */\n      iszero\n      tag_599\n      jumpi\n        /* \"#utility.yul\":23918:23926   */\n      dup2\n        /* \"#utility.yul\":23903:23926   */\n      swap1\n      pop\n        /* \"#utility.yul\":23879:23928   */\n    tag_599:\n        /* \"#utility.yul\":23941:24021   */\n      tag_600\n        /* \"#utility.yul\":23997:24019   */\n      tag_601\n        /* \"#utility.yul\":24015:24018   */\n      dup6\n        /* \"#utility.yul\":23997:24019   */\n      tag_351\n      jump\t// in\n    tag_601:\n        /* \"#utility.yul\":23987:23995   */\n      dup4\n        /* \"#utility.yul\":23983:24020   */\n      add\n        /* \"#utility.yul\":23970:23981   */\n      dup3\n        /* \"#utility.yul\":23941:24021   */\n      tag_360\n      jump\t// in\n    tag_600:\n        /* \"#utility.yul\":23600:24031   */\n      pop\n      pop\n        /* \"#utility.yul\":23585:24031   */\n    tag_596:\n        /* \"#utility.yul\":23495:24038   */\n      pop\n      pop\n      pop\n      jump\t// out\n        /* \"#utility.yul\":24044:24161   */\n    tag_362:\n        /* \"#utility.yul\":24098:24106   */\n      0x00\n        /* \"#utility.yul\":24148:24153   */\n      dup3\n        /* \"#utility.yul\":24142:24146   */\n      dup3\n        /* \"#utility.yul\":24138:24154   */\n      shr\n        /* \"#utility.yul\":24117:24154   */\n      swap1\n      pop\n        /* \"#utility.yul\":24044:24161   */\n      swap3\n      swap2\n      pop\n      pop\n      jump\t// out\n        /* \"#utility.yul\":24167:24336   */\n    tag_363:\n        /* \"#utility.yul\":24211:24217   */\n      0x00\n        /* \"#utility.yul\":24244:24295   */\n      tag_604\n        /* \"#utility.yul\":24292:24293   */\n      0x00\n        /* \"#utility.yul\":24288:24294   */\n      not\n        /* \"#utility.yul\":24280:24285   */\n      dup5\n        /* \"#utility.yul\":24277:24278   */\n      0x08\n        /* \"#utility.yul\":24273:24286   */\n      mul\n        /* \"#utility.yul\":24244:24295   */\n      tag_362\n      jump\t// in\n    tag_604:\n        /* \"#utility.yul\":24240:24296   */\n      not\n        /* \"#utility.yul\":24325:24329   */\n      dup1\n        /* \"#utility.yul\":24319:24323   */\n      dup4\n        /* \"#utility.yul\":24315:24330   */\n      and\n        /* \"#utility.yul\":24305:24330   */\n      swap2\n      pop\n        /* \"#utility.yul\":24218:24336   */\n      pop\n        /* \"#utility.yul\":24167:24336   */\n      swap3\n      swap2\n      pop\n      pop\n      jump\t// out\n        /* \"#utility.yul\":24341:24636   */\n    tag_364:\n        /* \"#utility.yul\":24417:24421   */\n      0x00\n        /* \"#utility.yul\":24563:24592   */\n      tag_606\n        /* \"#utility.yul\":24588:24591   */\n      dup4\n        /* \"#utility.yul\":24582:24586   */\n      dup4\n        /* \"#utility.yul\":24563:24592   */\n      tag_363\n      jump\t// in\n    tag_606:\n        /* \"#utility.yul\":24555:24592   */\n      swap2\n      pop\n        /* \"#utility.yul\":24625:24628   */\n      dup3\n        /* \"#utility.yul\":24622:24623   */\n      0x02\n        /* \"#utility.yul\":24618:24629   */\n      mul\n        /* \"#utility.yul\":24612:24616   */\n      dup3\n        /* \"#utility.yul\":24609:24630   */\n      or\n        /* \"#utility.yul\":24601:24630   */\n      swap1\n      pop\n        /* \"#utility.yul\":24341:24636   */\n      swap3\n      swap2\n      pop\n      pop\n      jump\t// out\n        /* \"#utility.yul\":24641:26092   */\n    tag_210:\n        /* \"#utility.yul\":24752:24755   */\n      dup2\n        /* \"#utility.yul\":24746:24750   */\n      dup2\n        /* \"#utility.yul\":24743:24756   */\n      sub\n        /* \"#utility.yul\":24740:24766   */\n      tag_608\n      jumpi\n        /* \"#utility.yul\":24759:24764   */\n      pop\n      pop\n      jump(tag_607)\n        /* \"#utility.yul\":24740:24766   */\n    tag_608:\n        /* \"#utility.yul\":24790:24824   */\n      tag_609\n        /* \"#utility.yul\":24820:24823   */\n      dup3\n        /* \"#utility.yul\":24790:24824   */\n      tag_349\n      jump\t// in\n    tag_609:\n        /* \"#utility.yul\":24889:24907   */\n      0xffffffffffffffff\n        /* \"#utility.yul\":24881:24887   */\n      dup2\n        /* \"#utility.yul\":24878:24908   */\n      gt\n        /* \"#utility.yul\":24875:24931   */\n      iszero\n      tag_610\n      jumpi\n        /* \"#utility.yul\":24911:24929   */\n      tag_611\n      tag_316\n      jump\t// in\n    tag_611:\n        /* \"#utility.yul\":24875:24931   */\n    tag_610:\n        /* \"#utility.yul\":24955:24993   */\n      tag_612\n        /* \"#utility.yul\":24987:24991   */\n      dup3\n        /* \"#utility.yul\":24981:24992   */\n      sload\n        /* \"#utility.yul\":24955:24993   */\n      tag_118\n      jump\t// in\n    tag_612:\n        /* \"#utility.yul\":25040:25107   */\n      tag_613\n        /* \"#utility.yul\":25100:25106   */\n      dup3\n        /* \"#utility.yul\":25092:25098   */\n      dup3\n        /* \"#utility.yul\":25086:25090   */\n      dup6\n        /* \"#utility.yul\":25040:25107   */\n      tag_361\n      jump\t// in\n    tag_613:\n        /* \"#utility.yul\":25134:25135   */\n      0x00\n        /* \"#utility.yul\":25163:25165   */\n      0x1f\n        /* \"#utility.yul\":25155:25161   */\n      dup4\n        /* \"#utility.yul\":25152:25166   */\n      gt\n        /* \"#utility.yul\":25180:25181   */\n      0x01\n        /* \"#utility.yul\":25175:25847   */\n      dup2\n      eq\n      tag_615\n      jumpi\n        /* \"#utility.yul\":25891:25892   */\n      0x00\n        /* \"#utility.yul\":25908:25914   */\n      dup5\n        /* \"#utility.yul\":25905:25982   */\n      iszero\n      tag_616\n      jumpi\n        /* \"#utility.yul\":25957:25966   */\n      dup3\n        /* \"#utility.yul\":25952:25955   */\n      dup8\n        /* \"#utility.yul\":25948:25967   */\n      add\n        /* \"#utility.yul\":25942:25968   */\n      sload\n        /* \"#utility.yul\":25933:25968   */\n      swap1\n      pop\n        /* \"#utility.yul\":25905:25982   */\n    tag_616:\n        /* \"#utility.yul\":26008:26075   */\n      tag_617\n        /* \"#utility.yul\":26068:26074   */\n      dup6\n        /* \"#utility.yul\":26061:26066   */\n      dup3\n        /* \"#utility.yul\":26008:26075   */\n      tag_364\n      jump\t// in\n    tag_617:\n        /* \"#utility.yul\":26002:26006   */\n      dup7\n        /* \"#utility.yul\":25995:26076   */\n      sstore\n        /* \"#utility.yul\":25864:26086   */\n      pop\n        /* \"#utility.yul\":25145:26086   */\n      jump(tag_614)\n        /* \"#utility.yul\":25175:25847   */\n    tag_615:\n        /* \"#utility.yul\":25227:25231   */\n      0x1f\n        /* \"#utility.yul\":25223:25232   */\n      not\n        /* \"#utility.yul\":25215:25221   */\n      dup5\n        /* \"#utility.yul\":25211:25233   */\n      and\n        /* \"#utility.yul\":25253:25289   */\n      tag_618\n        /* \"#utility.yul\":25285:25288   */\n      dup8\n        /* \"#utility.yul\":25253:25289   */\n      tag_350\n      jump\t// in\n    tag_618:\n        /* \"#utility.yul\":25246:25289   */\n      swap7\n      pop\n        /* \"#utility.yul\":25316:25353   */\n      tag_619\n        /* \"#utility.yul\":25348:25352   */\n      dup7\n        /* \"#utility.yul\":25316:25353   */\n      tag_350\n      jump\t// in\n    tag_619:\n        /* \"#utility.yul\":25375:25376   */\n      0x00\n        /* \"#utility.yul\":25389:25596   */\n    tag_620:\n        /* \"#utility.yul\":25403:25410   */\n      dup3\n        /* \"#utility.yul\":25400:25401   */\n      dup2\n        /* \"#utility.yul\":25397:25411   */\n      lt\n        /* \"#utility.yul\":25389:25596   */\n      iszero\n      tag_622\n      jumpi\n        /* \"#utility.yul\":25482:25491   */\n      dup5\n        /* \"#utility.yul\":25477:25480   */\n      dup10\n        /* \"#utility.yul\":25473:25492   */\n      add\n        /* \"#utility.yul\":25467:25493   */\n      sload\n        /* \"#utility.yul\":25459:25465   */\n      dup3\n        /* \"#utility.yul\":25452:25494   */\n      sstore\n        /* \"#utility.yul\":25533:25534   */\n      0x01\n        /* \"#utility.yul\":25525:25531   */\n      dup3\n        /* \"#utility.yul\":25521:25535   */\n      add\n        /* \"#utility.yul\":25511:25535   */\n      swap2\n      pop\n        /* \"#utility.yul\":25580:25581   */\n      0x01\n        /* \"#utility.yul\":25569:25578   */\n      dup6\n        /* \"#utility.yul\":25565:25582   */\n      add\n        /* \"#utility.yul\":25552:25582   */\n      swap5\n      pop\n        /* \"#utility.yul\":25426:25430   */\n      0x20\n        /* \"#utility.yul\":25423:25424   */\n      dup2\n        /* \"#utility.yul\":25419:25431   */\n      add\n        /* \"#utility.yul\":25414:25431   */\n      swap1\n      pop\n        /* \"#utility.yul\":25389:25596   */\n      jump(tag_620)\n    tag_622:\n        /* \"#utility.yul\":25624:25630   */\n      dup7\n        /* \"#utility.yul\":25615:25622   */\n      dup4\n        /* \"#utility.yul\":25612:25631   */\n      lt\n        /* \"#utility.yul\":25609:25788   */\n      iszero\n      tag_623\n      jumpi\n        /* \"#utility.yul\":25682:25691   */\n      dup5\n        /* \"#utility.yul\":25677:25680   */\n      dup10\n        /* \"#utility.yul\":25673:25692   */\n      add\n        /* \"#utility.yul\":25667:25693   */\n      sload\n        /* \"#utility.yul\":25725:25773   */\n      tag_624\n        /* \"#utility.yul\":25767:25771   */\n      0x1f\n        /* \"#utility.yul\":25759:25765   */\n      dup10\n        /* \"#utility.yul\":25755:25772   */\n      and\n        /* \"#utility.yul\":25744:25753   */\n      dup3\n        /* \"#utility.yul\":25725:25773   */\n      tag_363\n      jump\t// in\n    tag_624:\n        /* \"#utility.yul\":25717:25723   */\n      dup4\n        /* \"#utility.yul\":25710:25774   */\n      sstore\n        /* \"#utility.yul\":25632:25788   */\n      pop\n        /* \"#utility.yul\":25609:25788   */\n    tag_623:\n        /* \"#utility.yul\":25834:25835   */\n      0x01\n        /* \"#utility.yul\":25830:25831   */\n      0x02\n        /* \"#utility.yul\":25822:25828   */\n      dup9\n        /* \"#utility.yul\":25818:25832   */\n      mul\n        /* \"#utility.yul\":25814:25836   */\n      add\n        /* \"#utility.yul\":25808:25812   */\n      dup9\n        /* \"#utility.yul\":25801:25837   */\n      sstore\n        /* \"#utility.yul\":25182:25847   */\n      pop\n      pop\n      pop\n        /* \"#utility.yul\":25145:26086   */\n    tag_614:\n      pop\n        /* \"#utility.yul\":24730:26092   */\n      pop\n      pop\n      pop\n        /* \"#utility.yul\":24641:26092   */\n      pop\n      pop\n    tag_607:\n      jump\t// out\n        /* \"#utility.yul\":26098:26278   */\n    tag_213:\n        /* \"#utility.yul\":26146:26223   */\n      0x4e487b7100000000000000000000000000000000000000000000000000000000\n        /* \"#utility.yul\":26143:26144   */\n      0x00\n        /* \"#utility.yul\":26136:26224   */\n      mstore\n        /* \"#utility.yul\":26243:26247   */\n      0x31\n        /* \"#utility.yul\":26240:26241   */\n      0x04\n        /* \"#utility.yul\":26233:26248   */\n      mstore\n        /* \"#utility.yul\":26267:26271   */\n      0x24\n        /* \"#utility.yul\":26264:26265   */\n      0x00\n        /* \"#utility.yul\":26257:26272   */\n      revert\n        /* \"#utility.yul\":26284:26464   */\n    tag_365:\n        /* \"#utility.yul\":26424:26456   */\n      0x416d6f756e74206d7573742062652067726561746572207468616e2030210000\n        /* \"#utility.yul\":26420:26421   */\n      0x00\n        /* \"#utility.yul\":26412:26418   */\n      dup3\n        /* \"#utility.yul\":26408:26422   */\n      add\n        /* \"#utility.yul\":26401:26457   */\n      mstore\n        /* \"#utility.yul\":26284:26464   */\n      pop\n      jump\t// out\n        /* \"#utility.yul\":26470:26836   */\n    tag_366:\n        /* \"#utility.yul\":26612:26615   */\n      0x00\n        /* \"#utility.yul\":26633:26700   */\n      tag_628\n        /* \"#utility.yul\":26697:26699   */\n      0x1e\n        /* \"#utility.yul\":26692:26695   */\n      dup4\n        /* \"#utility.yul\":26633:26700   */\n      tag_298\n      jump\t// in\n    tag_628:\n        /* \"#utility.yul\":26626:26700   */\n      swap2\n      pop\n        /* \"#utility.yul\":26709:26802   */\n      tag_629\n        /* \"#utility.yul\":26798:26801   */\n      dup3\n        /* \"#utility.yul\":26709:26802   */\n      tag_365\n      jump\t// in\n    tag_629:\n        /* \"#utility.yul\":26827:26829   */\n      0x20\n        /* \"#utility.yul\":26822:26825   */\n      dup3\n        /* \"#utility.yul\":26818:26830   */\n      add\n        /* \"#utility.yul\":26811:26830   */\n      swap1\n      pop\n        /* \"#utility.yul\":26470:26836   */\n      swap2\n      swap1\n      pop\n      jump\t// out\n        /* \"#utility.yul\":26842:27261   */\n    tag_224:\n        /* \"#utility.yul\":27008:27012   */\n      0x00\n        /* \"#utility.yul\":27046:27048   */\n      0x20\n        /* \"#utility.yul\":27035:27044   */\n      dup3\n        /* \"#utility.yul\":27031:27049   */\n      add\n        /* \"#utility.yul\":27023:27049   */\n      swap1\n      pop\n        /* \"#utility.yul\":27095:27104   */\n      dup2\n        /* \"#utility.yul\":27089:27093   */\n      dup2\n        /* \"#utility.yul\":27085:27105   */\n      sub\n        /* \"#utility.yul\":27081:27082   */\n      0x00\n        /* \"#utility.yul\":27070:27079   */\n      dup4\n        /* \"#utility.yul\":27066:27083   */\n      add\n        /* \"#utility.yul\":27059:27106   */\n      mstore\n        /* \"#utility.yul\":27123:27254   */\n      tag_631\n        /* \"#utility.yul\":27249:27253   */\n      dup2\n        /* \"#utility.yul\":27123:27254   */\n      tag_366\n      jump\t// in\n    tag_631:\n        /* \"#utility.yul\":27115:27254   */\n      swap1\n      pop\n        /* \"#utility.yul\":26842:27261   */\n      swap2\n      swap1\n      pop\n      jump\t// out\n        /* \"#utility.yul\":27267:28662   */\n    tag_227:\n        /* \"#utility.yul\":27384:27421   */\n      tag_633\n        /* \"#utility.yul\":27417:27420   */\n      dup3\n        /* \"#utility.yul\":27384:27421   */\n      tag_297\n      jump\t// in\n    tag_633:\n        /* \"#utility.yul\":27486:27504   */\n      0xffffffffffffffff\n        /* \"#utility.yul\":27478:27484   */\n      dup2\n        /* \"#utility.yul\":27475:27505   */\n      gt\n        /* \"#utility.yul\":27472:27528   */\n      iszero\n      tag_634\n      jumpi\n        /* \"#utility.yul\":27508:27526   */\n      tag_635\n      tag_316\n      jump\t// in\n    tag_635:\n        /* \"#utility.yul\":27472:27528   */\n    tag_634:\n        /* \"#utility.yul\":27552:27590   */\n      tag_636\n        /* \"#utility.yul\":27584:27588   */\n      dup3\n        /* \"#utility.yul\":27578:27589   */\n      sload\n        /* \"#utility.yul\":27552:27590   */\n      tag_118\n      jump\t// in\n    tag_636:\n        /* \"#utility.yul\":27637:27704   */\n      tag_637\n        /* \"#utility.yul\":27697:27703   */\n      dup3\n        /* \"#utility.yul\":27689:27695   */\n      dup3\n        /* \"#utility.yul\":27683:27687   */\n      dup6\n        /* \"#utility.yul\":27637:27704   */\n      tag_361\n      jump\t// in\n    tag_637:\n        /* \"#utility.yul\":27731:27732   */\n      0x00\n        /* \"#utility.yul\":27755:27759   */\n      0x20\n        /* \"#utility.yul\":27742:27759   */\n      swap1\n      pop\n        /* \"#utility.yul\":27787:27789   */\n      0x1f\n        /* \"#utility.yul\":27779:27785   */\n      dup4\n        /* \"#utility.yul\":27776:27790   */\n      gt\n        /* \"#utility.yul\":27804:27805   */\n      0x01\n        /* \"#utility.yul\":27799:28417   */\n      dup2\n      eq\n      tag_639\n      jumpi\n        /* \"#utility.yul\":28461:28462   */\n      0x00\n        /* \"#utility.yul\":28478:28484   */\n      dup5\n        /* \"#utility.yul\":28475:28552   */\n      iszero\n      tag_640\n      jumpi\n        /* \"#utility.yul\":28527:28536   */\n      dup3\n        /* \"#utility.yul\":28522:28525   */\n      dup8\n        /* \"#utility.yul\":28518:28537   */\n      add\n        /* \"#utility.yul\":28512:28538   */\n      mload\n        /* \"#utility.yul\":28503:28538   */\n      swap1\n      pop\n        /* \"#utility.yul\":28475:28552   */\n    tag_640:\n        /* \"#utility.yul\":28578:28645   */\n      tag_641\n        /* \"#utility.yul\":28638:28644   */\n      dup6\n        /* \"#utility.yul\":28631:28636   */\n      dup3\n        /* \"#utility.yul\":28578:28645   */\n      tag_364\n      jump\t// in\n    tag_641:\n        /* \"#utility.yul\":28572:28576   */\n      dup7\n        /* \"#utility.yul\":28565:28646   */\n      sstore\n        /* \"#utility.yul\":28434:28656   */\n      pop\n        /* \"#utility.yul\":27769:28656   */\n      jump(tag_638)\n        /* \"#utility.yul\":27799:28417   */\n    tag_639:\n        /* \"#utility.yul\":27851:27855   */\n      0x1f\n        /* \"#utility.yul\":27847:27856   */\n      not\n        /* \"#utility.yul\":27839:27845   */\n      dup5\n        /* \"#utility.yul\":27835:27857   */\n      and\n        /* \"#utility.yul\":27885:27922   */\n      tag_642\n        /* \"#utility.yul\":27917:27921   */\n      dup7\n        /* \"#utility.yul\":27885:27922   */\n      tag_350\n      jump\t// in\n    tag_642:\n        /* \"#utility.yul\":27944:27945   */\n      0x00\n        /* \"#utility.yul\":27958:28166   */\n    tag_643:\n        /* \"#utility.yul\":27972:27979   */\n      dup3\n        /* \"#utility.yul\":27969:27970   */\n      dup2\n        /* \"#utility.yul\":27966:27980   */\n      lt\n        /* \"#utility.yul\":27958:28166   */\n      iszero\n      tag_645\n      jumpi\n        /* \"#utility.yul\":28051:28060   */\n      dup5\n        /* \"#utility.yul\":28046:28049   */\n      dup10\n        /* \"#utility.yul\":28042:28061   */\n      add\n        /* \"#utility.yul\":28036:28062   */\n      mload\n        /* \"#utility.yul\":28028:28034   */\n      dup3\n        /* \"#utility.yul\":28021:28063   */\n      sstore\n        /* \"#utility.yul\":28102:28103   */\n      0x01\n        /* \"#utility.yul\":28094:28100   */\n      dup3\n        /* \"#utility.yul\":28090:28104   */\n      add\n        /* \"#utility.yul\":28080:28104   */\n      swap2\n      pop\n        /* \"#utility.yul\":28149:28151   */\n      0x20\n        /* \"#utility.yul\":28138:28147   */\n      dup6\n        /* \"#utility.yul\":28134:28152   */\n      add\n        /* \"#utility.yul\":28121:28152   */\n      swap5\n      pop\n        /* \"#utility.yul\":27995:27999   */\n      0x20\n        /* \"#utility.yul\":27992:27993   */\n      dup2\n        /* \"#utility.yul\":27988:28000   */\n      add\n        /* \"#utility.yul\":27983:28000   */\n      swap1\n      pop\n        /* \"#utility.yul\":27958:28166   */\n      jump(tag_643)\n    tag_645:\n        /* \"#utility.yul\":28194:28200   */\n      dup7\n        /* \"#utility.yul\":28185:28192   */\n      dup4\n        /* \"#utility.yul\":28182:28201   */\n      lt\n        /* \"#utility.yul\":28179:28358   */\n      iszero\n      tag_646\n      jumpi\n        /* \"#utility.yul\":28252:28261   */\n      dup5\n        /* \"#utility.yul\":28247:28250   */\n      dup10\n        /* \"#utility.yul\":28243:28262   */\n      add\n        /* \"#utility.yul\":28237:28263   */\n      mload\n        /* \"#utility.yul\":28295:28343   */\n      tag_647\n        /* \"#utility.yul\":28337:28341   */\n      0x1f\n        /* \"#utility.yul\":28329:28335   */\n      dup10\n        /* \"#utility.yul\":28325:28342   */\n      and\n        /* \"#utility.yul\":28314:28323   */\n      dup3\n        /* \"#utility.yul\":28295:28343   */\n      tag_363\n      jump\t// in\n    tag_647:\n        /* \"#utility.yul\":28287:28293   */\n      dup4\n        /* \"#utility.yul\":28280:28344   */\n      sstore\n        /* \"#utility.yul\":28202:28358   */\n      pop\n        /* \"#utility.yul\":28179:28358   */\n    tag_646:\n        /* \"#utility.yul\":28404:28405   */\n      0x01\n        /* \"#utility.yul\":28400:28401   */\n      0x02\n        /* \"#utility.yul\":28392:28398   */\n      dup9\n        /* \"#utility.yul\":28388:28402   */\n      mul\n        /* \"#utility.yul\":28384:28406   */\n      add\n        /* \"#utility.yul\":28378:28382   */\n      dup9\n        /* \"#utility.yul\":28371:28407   */\n      sstore\n        /* \"#utility.yul\":27806:28417   */\n      pop\n      pop\n      pop\n        /* \"#utility.yul\":27769:28656   */\n    tag_638:\n      pop\n        /* \"#utility.yul\":27359:28662   */\n      pop\n      pop\n      pop\n        /* \"#utility.yul\":27267:28662   */\n      pop\n      pop\n      jump\t// out\n        /* \"#utility.yul\":28668:28837   */\n    tag_367:\n        /* \"#utility.yul\":28808:28829   */\n      0x436f6e7472616374206973207061757365642100000000000000000000000000\n        /* \"#utility.yul\":28804:28805   */\n      0x00\n        /* \"#utility.yul\":28796:28802   */\n      dup3\n        /* \"#utility.yul\":28792:28806   */\n      add\n        /* \"#utility.yul\":28785:28830   */\n      mstore\n        /* \"#utility.yul\":28668:28837   */\n      pop\n      jump\t// out\n        /* \"#utility.yul\":28843:29209   */\n    tag_368:\n        /* \"#utility.yul\":28985:28988   */\n      0x00\n        /* \"#utility.yul\":29006:29073   */\n      tag_650\n        /* \"#utility.yul\":29070:29072   */\n      0x13\n        /* \"#utility.yul\":29065:29068   */\n      dup4\n        /* \"#utility.yul\":29006:29073   */\n      tag_298\n      jump\t// in\n    tag_650:\n        /* \"#utility.yul\":28999:29073   */\n      swap2\n      pop\n        /* \"#utility.yul\":29082:29175   */\n      tag_651\n        /* \"#utility.yul\":29171:29174   */\n      dup3\n        /* \"#utility.yul\":29082:29175   */\n      tag_367\n      jump\t// in\n    tag_651:\n        /* \"#utility.yul\":29200:29202   */\n      0x20\n        /* \"#utility.yul\":29195:29198   */\n      dup3\n        /* \"#utility.yul\":29191:29203   */\n      add\n        /* \"#utility.yul\":29184:29203   */\n      swap1\n      pop\n        /* \"#utility.yul\":28843:29209   */\n      swap2\n      swap1\n      pop\n      jump\t// out\n        /* \"#utility.yul\":29215:29634   */\n    tag_242:\n        /* \"#utility.yul\":29381:29385   */\n      0x00\n        /* \"#utility.yul\":29419:29421   */\n      0x20\n        /* \"#utility.yul\":29408:29417   */\n      dup3\n        /* \"#utility.yul\":29404:29422   */\n      add\n        /* \"#utility.yul\":29396:29422   */\n      swap1\n      pop\n        /* \"#utility.yul\":29468:29477   */\n      dup2\n        /* \"#utility.yul\":29462:29466   */\n      dup2\n        /* \"#utility.yul\":29458:29478   */\n      sub\n        /* \"#utility.yul\":29454:29455   */\n      0x00\n        /* \"#utility.yul\":29443:29452   */\n      dup4\n        /* \"#utility.yul\":29439:29456   */\n      add\n        /* \"#utility.yul\":29432:29479   */\n      mstore\n        /* \"#utility.yul\":29496:29627   */\n      tag_653\n        /* \"#utility.yul\":29622:29626   */\n      dup2\n        /* \"#utility.yul\":29496:29627   */\n      tag_368\n      jump\t// in\n    tag_653:\n        /* \"#utility.yul\":29488:29627   */\n      swap1\n      pop\n        /* \"#utility.yul\":29215:29634   */\n      swap2\n      swap1\n      pop\n      jump\t// out\n        /* \"#utility.yul\":29640:29807   */\n    tag_369:\n        /* \"#utility.yul\":29780:29799   */\n      0x496e636f727265637420416d6f756e7421000000000000000000000000000000\n        /* \"#utility.yul\":29776:29777   */\n      0x00\n        /* \"#utility.yul\":29768:29774   */\n      dup3\n        /* \"#utility.yul\":29764:29778   */\n      add\n        /* \"#utility.yul\":29757:29800   */\n      mstore\n        /* \"#utility.yul\":29640:29807   */\n      pop\n      jump\t// out\n        /* \"#utility.yul\":29813:30179   */\n    tag_370:\n        /* \"#utility.yul\":29955:29958   */\n      0x00\n        /* \"#utility.yul\":29976:30043   */\n      tag_656\n        /* \"#utility.yul\":30040:30042   */\n      0x11\n        /* \"#utility.yul\":30035:30038   */\n      dup4\n        /* \"#utility.yul\":29976:30043   */\n      tag_298\n      jump\t// in\n    tag_656:\n        /* \"#utility.yul\":29969:30043   */\n      swap2\n      pop\n        /* \"#utility.yul\":30052:30145   */\n      tag_657\n        /* \"#utility.yul\":30141:30144   */\n      dup3\n        /* \"#utility.yul\":30052:30145   */\n      tag_369\n      jump\t// in\n    tag_657:\n        /* \"#utility.yul\":30170:30172   */\n      0x20\n        /* \"#utility.yul\":30165:30168   */\n      dup3\n        /* \"#utility.yul\":30161:30173   */\n      add\n        /* \"#utility.yul\":30154:30173   */\n      swap1\n      pop\n        /* \"#utility.yul\":29813:30179   */\n      swap2\n      swap1\n      pop\n      jump\t// out\n        /* \"#utility.yul\":30185:30604   */\n    tag_251:\n        /* \"#utility.yul\":30351:30355   */\n      0x00\n        /* \"#utility.yul\":30389:30391   */\n      0x20\n        /* \"#utility.yul\":30378:30387   */\n      dup3\n        /* \"#utility.yul\":30374:30392   */\n      add\n        /* \"#utility.yul\":30366:30392   */\n      swap1\n      pop\n        /* \"#utility.yul\":30438:30447   */\n      dup2\n        /* \"#utility.yul\":30432:30436   */\n      dup2\n        /* \"#utility.yul\":30428:30448   */\n      sub\n        /* \"#utility.yul\":30424:30425   */\n      0x00\n        /* \"#utility.yul\":30413:30422   */\n      dup4\n        /* \"#utility.yul\":30409:30426   */\n      add\n        /* \"#utility.yul\":30402:30449   */\n      mstore\n        /* \"#utility.yul\":30466:30597   */\n      tag_659\n        /* \"#utility.yul\":30592:30596   */\n      dup2\n        /* \"#utility.yul\":30466:30597   */\n      tag_370\n      jump\t// in\n    tag_659:\n        /* \"#utility.yul\":30458:30597   */\n      swap1\n      pop\n        /* \"#utility.yul\":30185:30604   */\n      swap2\n      swap1\n      pop\n      jump\t// out\n        /* \"#utility.yul\":30610:30843   */\n    tag_256:\n        /* \"#utility.yul\":30649:30652   */\n      0x00\n        /* \"#utility.yul\":30672:30696   */\n      tag_661\n        /* \"#utility.yul\":30690:30695   */\n      dup3\n        /* \"#utility.yul\":30672:30696   */\n      tag_294\n      jump\t// in\n    tag_661:\n        /* \"#utility.yul\":30663:30696   */\n      swap2\n      pop\n        /* \"#utility.yul\":30718:30784   */\n      0xffffffffffffffffffffffffffffffffffffffffffffffffffffffffffffffff\n        /* \"#utility.yul\":30711:30716   */\n      dup3\n        /* \"#utility.yul\":30708:30785   */\n      sub\n        /* \"#utility.yul\":30705:30808   */\n      tag_662\n      jumpi\n        /* \"#utility.yul\":30788:30806   */\n      tag_663\n      tag_338\n      jump\t// in\n    tag_663:\n        /* \"#utility.yul\":30705:30808   */\n    tag_662:\n        /* \"#utility.yul\":30835:30836   */\n      0x01\n        /* \"#utility.yul\":30828:30833   */\n      dup3\n        /* \"#utility.yul\":30824:30837   */\n      add\n        /* \"#utility.yul\":30817:30837   */\n      swap1\n      pop\n        /* \"#utility.yul\":30610:30843   */\n      swap2\n      swap1\n      pop\n      jump\t// out\n\n    auxdata: 0xa2646970667358221220871a2b7d6d8bad64ed99bbb99fba2ea84b9e51f1945125d265991c68e6cc74db64736f6c634300081e0033\n}\n",
				"bytecode": {
					"linkReferences": {},
					"object": "608060405234801561000f575f5ffd5b50604051612a5c380380612a5c8339818101604052810190610031919061026a565b835f908161003f919061050d565b50826001908161004f919061050d565b508160028190555062015180816100669190610609565b42610071919061064a565b6003819055503360045f6101000a81548173ffffffffffffffffffffffffffffffffffffffff021916908373ffffffffffffffffffffffffffffffffffffffff1602179055505f600460156101000a81548160ff021916908360028111156100dc576100db61067d565b5b0217905550505050506106aa565b5f604051905090565b5f5ffd5b5f5ffd5b5f5ffd5b5f5ffd5b5f601f19601f8301169050919050565b7f4e487b71000000000000000000000000000000000000000000000000000000005f52604160045260245ffd5b61014982610103565b810181811067ffffffffffffffff8211171561016857610167610113565b5b80604052505050565b5f61017a6100ea565b90506101868282610140565b919050565b5f67ffffffffffffffff8211156101a5576101a4610113565b5b6101ae82610103565b9050602081019050919050565b8281835e5f83830152505050565b5f6101db6101d68461018b565b610171565b9050828152602081018484840111156101f7576101f66100ff565b5b6102028482856101bb565b509392505050565b5f82601f83011261021e5761021d6100fb565b5b815161022e8482602086016101c9565b91505092915050565b5f819050919050565b61024981610237565b8114610253575f5ffd5b50565b5f8151905061026481610240565b92915050565b5f5f5f5f60808587031215610282576102816100f3565b5b5f85015167ffffffffffffffff81111561029f5761029e6100f7565b5b6102ab8782880161020a565b945050602085015167ffffffffffffffff8111156102cc576102cb6100f7565b5b6102d88782880161020a565b93505060406102e987828801610256565b92505060606102fa87828801610256565b91505092959194509250565b5f81519050919050565b7f4e487b71000000000000000000000000000000000000000000000000000000005f52602260045260245ffd5b5f600282049050600182168061035457607f821691505b60208210810361036757610366610310565b5b50919050565b5f819050815f5260205f209050919050565b5f6020601f8301049050919050565b5f82821b905092915050565b5f600883026103c97fffffffffffffffffffffffffffffffffffffffffffffffffffffffffffffffff8261038e565b6103d3868361038e565b95508019841693508086168417925050509392505050565b5f819050919050565b5f61040e61040961040484610237565b6103eb565b610237565b9050919050565b5f819050919050565b610427836103f4565b61043b61043382610415565b84845461039a565b825550505050565b5f5f905090565b610452610443565b61045d81848461041e565b505050565b5b81811015610480576104755f8261044a565b600181019050610463565b5050565b601f8211156104c5576104968161036d565b61049f8461037f565b810160208510156104ae578190505b6104c26104ba8561037f565b830182610462565b50505b505050565b5f82821c905092915050565b5f6104e55f19846008026104ca565b1980831691505092915050565b5f6104fd83836104d6565b9150826002028217905092915050565b61051682610306565b67ffffffffffffffff81111561052f5761052e610113565b5b610539825461033d565b610544828285610484565b5f60209050601f831160018114610575575f8415610563578287015190505b61056d85826104f2565b8655506105d4565b601f1984166105838661036d565b5f5b828110156105aa57848901518255600182019150602085019450602081019050610585565b868310156105c757848901516105c3601f8916826104d6565b8355505b6001600288020188555050505b505050505050565b7f4e487b71000000000000000000000000000000000000000000000000000000005f52601160045260245ffd5b5f61061382610237565b915061061e83610237565b925082820261062c81610237565b91508282048414831517610643576106426105dc565b5b5092915050565b5f61065482610237565b915061065f83610237565b9250828201905080821115610677576106766105dc565b5b92915050565b7f4e487b71000000000000000000000000000000000000000000000000000000005f52602160045260245ffd5b6123a5806106b75f395ff3fe60806040526004361061011e575f3560e01c80637284e4161161009f578063b85dfb8011610063578063b85dfb8014610390578063c19d93fb146103cc578063c4ae3168146103f6578063ca1d209d1461040c578063de170570146104285761011e565b80637284e416146102b05780637497211b146102da5780637adba527146103025780638da5cb5b1461033e5780638ece7b91146103685761011e565b80633ccfd60b116100e65780633ccfd60b14610206578063401938831461021c578063590e1ae3146102465780635c975abb1461025c5780636f9fb98a146102865761011e565b8063039af9eb1461012257806306fdde0314610160578063105505151461018a57806329dcb0cf146101b4578063389b7533146101de575b5f5ffd5b34801561012d575f5ffd5b5061014860048036038101906101439190611456565b610452565b60405161015793929190611500565b60405180910390f35b34801561016b575f5ffd5b5061017461050d565b604051610181919061153c565b60405180910390f35b348015610195575f5ffd5b5061019e610598565b6040516101ab91906115cf565b60405180910390f35b3480156101bf575f5ffd5b506101c8610612565b6040516101d591906115e8565b60405180910390f35b3480156101e9575f5ffd5b5061020460048036038101906101ff9190611456565b610618565b005b348015610211575f5ffd5b5061021a610745565b005b348015610227575f5ffd5b50610230610900565b60405161023d91906115e8565b60405180910390f35b348015610251575f5ffd5b5061025a610906565b005b348015610267575f5ffd5b50610270610a93565b60405161027d919061161b565b60405180910390f35b348015610291575f5ffd5b5061029a610aa6565b6040516102a791906115e8565b60405180910390f35b3480156102bb575f5ffd5b506102c4610aad565b6040516102d1919061153c565b60405180910390f35b3480156102e5575f5ffd5b5061030060048036038101906102fb9190611456565b610b39565b005b34801561030d575f5ffd5b506103286004803603810190610323919061168e565b610cd2565b604051610335919061161b565b60405180910390f35b348015610349575f5ffd5b50610352610d37565b60405161035f91906116db565b60405180910390f35b348015610373575f5ffd5b5061038e60048036038101906103899190611820565b610d5c565b005b34801561039b575f5ffd5b506103b660048036038101906103b1919061187a565b610e9e565b6040516103c391906115e8565b60405180910390f35b3480156103d7575f5ffd5b506103e0610eb8565b6040516103ed91906115cf565b60405180910390f35b348015610401575f5ffd5b5061040a610ecb565b005b61042660048036038101906104219190611456565b610f86565b005b348015610433575f5ffd5b5061043c6111f6565b6040516104499190611a04565b60405180910390f35b60058181548110610461575f80fd5b905f5260205f2090600302015f91509050805f01805461048090611a51565b80601f01602080910402602001604051908101604052809291908181526020018280546104ac90611a51565b80156104f75780601f106104ce576101008083540402835291602001916104f7565b820191905f5260205f20905b8154815290600101906020018083116104da57829003601f168201915b5050505050908060010154908060020154905083565b5f805461051990611a51565b80601f016020809104026020016040519081016040528092919081815260200182805461054590611a51565b80156105905780601f1061056757610100808354040283529160200191610590565b820191905f5260205f20905b81548152906001019060200180831161057357829003601f168201915b505050505081565b5f5f60028111156105ac576105ab61155c565b5b600460159054906101000a900460ff1660028111156105ce576105cd61155c565b5b1480156105dc575060035442115b156105fc576002544710156105f25760026105f5565b60015b905061060f565b600460159054906101000a900460ff1690505b90565b60035481565b60045f9054906101000a900473ffffffffffffffffffffffffffffffffffffffff1673ffffffffffffffffffffffffffffffffffffffff163373ffffffffffffffffffffffffffffffffffffffff16146106a7576040517f08c379a000000000000000000000000000000000000000000000000000000000815260040161069e90611acb565b60405180910390fd5b5f60028111156106ba576106b961155c565b5b600460159054906101000a900460ff1660028111156106dc576106db61155c565b5b1461071c576040517f08c379a000000000000000000000000000000000000000000000000000000000815260040161071390611b33565b60405180910390fd5b620151808161072b9190611b7e565b60035f82825461073b9190611bbf565b9250508190555050565b60045f9054906101000a900473ffffffffffffffffffffffffffffffffffffffff1673ffffffffffffffffffffffffffffffffffffffff163373ffffffffffffffffffffffffffffffffffffffff16146107d4576040517f08c379a00000000000000000000000000000000000000000000000000000000081526004016107cb90611acb565b60405180910390fd5b6107dc6112f5565b600160028111156107f0576107ef61155c565b5b600460159054906101000a900460ff1660028111156108125761081161155c565b5b14610852576040517f08c379a000000000000000000000000000000000000000000000000000000000815260040161084990611c3c565b60405180910390fd5b5f4790505f8111610898576040517f08c379a000000000000000000000000000000000000000000000000000000000815260040161088f90611ca4565b60405180910390fd5b60045f9054906101000a900473ffffffffffffffffffffffffffffffffffffffff1673ffffffffffffffffffffffffffffffffffffffff166108fc8290811502906040515f60405180830381858888f193505050501580156108fc573d5f5f3e3d5ffd5b5050565b60025481565b61090e6112f5565b6002808111156109215761092061155c565b5b600460159054906101000a900460ff1660028111156109435761094261155c565b5b14610983576040517f08c379a000000000000000000000000000000000000000000000000000000000815260040161097a90611d0c565b60405180910390fd5b5f60065f3373ffffffffffffffffffffffffffffffffffffffff1673ffffffffffffffffffffffffffffffffffffffff1681526020019081526020015f205f015490505f8111610a08576040517f08c379a00000000000000000000000000000000000000000000000000000000081526004016109ff90611d74565b60405180910390fd5b5f60065f3373ffffffffffffffffffffffffffffffffffffffff1673ffffffffffffffffffffffffffffffffffffffff1681526020019081526020015f205f01819055503373ffffffffffffffffffffffffffffffffffffffff166108fc8290811502906040515f60405180830381858888f19350505050158015610a8f573d5f5f3e3d5ffd5b5050565b600460149054906101000a900460ff1681565b5f47905090565b60018054610aba90611a51565b80601f0160208091040260200160405190810160405280929190818152602001828054610ae690611a51565b8015610b315780601f10610b0857610100808354040283529160200191610b31565b820191905f5260205f20905b815481529060010190602001808311610b1457829003601f168201915b505050505081565b60045f9054906101000a900473ffffffffffffffffffffffffffffffffffffffff1673ffffffffffffffffffffffffffffffffffffffff163373ffffffffffffffffffffffffffffffffffffffff1614610bc8576040517f08c379a0000000000000000000000000000000000000000000000000000000008152600401610bbf90611acb565b60405180910390fd5b6005805490508110610c0f576040517f08c379a0000000000000000000000000000000000000000000000000000000008152600401610c0690611ddc565b60405180910390fd5b60056001600580549050610c239190611dfa565b81548110610c3457610c33611e2d565b5b905f5260205f20906003020160058281548110610c5457610c53611e2d565b5b905f5260205f2090600302015f8201815f019081610c72919061200f565b5060018201548160010155600282015481600201559050506005805480610c9c57610c9b6120f4565b5b600190038181905f5260205f2090600302015f5f82015f610cbd91906113ba565b600182015f9055600282015f90555050905550565b5f60065f8473ffffffffffffffffffffffffffffffffffffffff1673ffffffffffffffffffffffffffffffffffffffff1681526020019081526020015f206001015f8381526020019081526020015f205f9054906101000a900460ff16905092915050565b60045f9054906101000a900473ffffffffffffffffffffffffffffffffffffffff1681565b60045f9054906101000a900473ffffffffffffffffffffffffffffffffffffffff1673ffffffffffffffffffffffffffffffffffffffff163373ffffffffffffffffffffffffffffffffffffffff1614610deb576040517f08c379a0000000000000000000000000000000000000000000000000000000008152600401610de290611acb565b60405180910390fd5b5f8111610e2d576040517f08c379a0000000000000000000000000000000000000000000000000000000008152600401610e249061216b565b60405180910390fd5b600560405180606001604052808481526020018381526020015f815250908060018154018082558091505060019003905f5260205f2090600302015f909190919091505f820151815f019081610e839190612189565b50602082015181600101556040820151816002015550505050565b6006602052805f5260405f205f91509050805f0154905081565b600460159054906101000a900460ff1681565b60045f9054906101000a900473ffffffffffffffffffffffffffffffffffffffff1673ffffffffffffffffffffffffffffffffffffffff163373ffffffffffffffffffffffffffffffffffffffff1614610f5a576040517f08c379a0000000000000000000000000000000000000000000000000000000008152600401610f5190611acb565b60405180910390fd5b600460149054906101000a900460ff1615600460146101000a81548160ff021916908315150217905550565b5f6002811115610f9957610f9861155c565b5b600460159054906101000a900460ff166002811115610fbb57610fba61155c565b5b14610ffb576040517f08c379a0000000000000000000000000000000000000000000000000000000008152600401610ff290611b33565b60405180910390fd5b600460149054906101000a900460ff161561104b576040517f08c379a0000000000000000000000000000000000000000000000000000000008152600401611042906122a2565b60405180910390fd5b6005805490508110611092576040517f08c379a000000000000000000000000000000000000000000000000000000000815260040161108990611ddc565b60405180910390fd5b600581815481106110a6576110a5611e2d565b5b905f5260205f2090600302016001015434146110f7576040517f08c379a00000000000000000000000000000000000000000000000000000000081526004016110ee9061230a565b60405180910390fd5b6005818154811061110b5761110a611e2d565b5b905f5260205f2090600302016002015f81548092919061112a90612328565b91905055503460065f3373ffffffffffffffffffffffffffffffffffffffff1673ffffffffffffffffffffffffffffffffffffffff1681526020019081526020015f205f015f82825461117d9190611bbf565b92505081905550600160065f3373ffffffffffffffffffffffffffffffffffffffff1673ffffffffffffffffffffffffffffffffffffffff1681526020019081526020015f206001015f8381526020019081526020015f205f6101000a81548160ff0219169083151502179055506111f36112f5565b50565b60606005805480602002602001604051908101604052809291908181526020015f905b828210156112ec578382905f5260205f2090600302016040518060600160405290815f8201805461124990611a51565b80601f016020809104026020016040519081016040528092919081815260200182805461127590611a51565b80156112c05780601f10611297576101008083540402835291602001916112c0565b820191905f5260205f20905b8154815290600101906020018083116112a357829003601f168201915b505050505081526020016001820154815260200160028201548152505081526020019060010190611219565b50505050905090565b5f60028111156113085761130761155c565b5b600460159054906101000a900460ff16600281111561132a5761132961155c565b5b036113b857600354421061137a5760025447101561134957600261134c565b60015b600460156101000a81548160ff021916908360028111156113705761136f61155c565b5b02179055506113b7565b60025447101561138a575f61138d565b60015b600460156101000a81548160ff021916908360028111156113b1576113b061155c565b5b02179055505b5b565b5080546113c690611a51565b5f825580601f106113d757506113f4565b601f0160209004905f5260205f20908101906113f391906113f7565b5b50565b5b8082111561140e575f815f9055506001016113f8565b5090565b5f604051905090565b5f5ffd5b5f5ffd5b5f819050919050565b61143581611423565b811461143f575f5ffd5b50565b5f813590506114508161142c565b92915050565b5f6020828403121561146b5761146a61141b565b5b5f61147884828501611442565b91505092915050565b5f81519050919050565b5f82825260208201905092915050565b8281835e5f83830152505050565b5f601f19601f8301169050919050565b5f6114c382611481565b6114cd818561148b565b93506114dd81856020860161149b565b6114e6816114a9565b840191505092915050565b6114fa81611423565b82525050565b5f6060820190508181035f83015261151881866114b9565b905061152760208301856114f1565b61153460408301846114f1565b949350505050565b5f6020820190508181035f83015261155481846114b9565b905092915050565b7f4e487b71000000000000000000000000000000000000000000000000000000005f52602160045260245ffd5b6003811061159a5761159961155c565b5b50565b5f8190506115aa82611589565b919050565b5f6115b98261159d565b9050919050565b6115c9816115af565b82525050565b5f6020820190506115e25f8301846115c0565b92915050565b5f6020820190506115fb5f8301846114f1565b92915050565b5f8115159050919050565b61161581611601565b82525050565b5f60208201905061162e5f83018461160c565b92915050565b5f73ffffffffffffffffffffffffffffffffffffffff82169050919050565b5f61165d82611634565b9050919050565b61166d81611653565b8114611677575f5ffd5b50565b5f8135905061168881611664565b92915050565b5f5f604083850312156116a4576116a361141b565b5b5f6116b18582860161167a565b92505060206116c285828601611442565b9150509250929050565b6116d581611653565b82525050565b5f6020820190506116ee5f8301846116cc565b92915050565b5f5ffd5b5f5ffd5b7f4e487b71000000000000000000000000000000000000000000000000000000005f52604160045260245ffd5b611732826114a9565b810181811067ffffffffffffffff82111715611751576117506116fc565b5b80604052505050565b5f611763611412565b905061176f8282611729565b919050565b5f67ffffffffffffffff82111561178e5761178d6116fc565b5b611797826114a9565b9050602081019050919050565b828183375f83830152505050565b5f6117c46117bf84611774565b61175a565b9050828152602081018484840111156117e0576117df6116f8565b5b6117eb8482856117a4565b509392505050565b5f82601f830112611807576118066116f4565b5b81356118178482602086016117b2565b91505092915050565b5f5f604083850312156118365761183561141b565b5b5f83013567ffffffffffffffff8111156118535761185261141f565b5b61185f858286016117f3565b925050602061187085828601611442565b9150509250929050565b5f6020828403121561188f5761188e61141b565b5b5f61189c8482850161167a565b91505092915050565b5f81519050919050565b5f82825260208201905092915050565b5f819050602082019050919050565b5f82825260208201905092915050565b5f6118e882611481565b6118f281856118ce565b935061190281856020860161149b565b61190b816114a9565b840191505092915050565b61191f81611423565b82525050565b5f606083015f8301518482035f86015261193f82826118de565b91505060208301516119546020860182611916565b5060408301516119676040860182611916565b508091505092915050565b5f61197d8383611925565b905092915050565b5f602082019050919050565b5f61199b826118a5565b6119a581856118af565b9350836020820285016119b7856118bf565b805f5b858110156119f257848403895281516119d38582611972565b94506119de83611985565b925060208a019950506001810190506119ba565b50829750879550505050505092915050565b5f6020820190508181035f830152611a1c8184611991565b905092915050565b7f4e487b71000000000000000000000000000000000000000000000000000000005f52602260045260245ffd5b5f6002820490506001821680611a6857607f821691505b602082108103611a7b57611a7a611a24565b5b50919050565b7f596f7520617265206e6f7420746865206f776e657200000000000000000000005f82015250565b5f611ab560158361148b565b9150611ac082611a81565b602082019050919050565b5f6020820190508181035f830152611ae281611aa9565b9050919050565b7f43616d706169676e206973206e6f7420416374697665000000000000000000005f82015250565b5f611b1d60168361148b565b9150611b2882611ae9565b602082019050919050565b5f6020820190508181035f830152611b4a81611b11565b9050919050565b7f4e487b71000000000000000000000000000000000000000000000000000000005f52601160045260245ffd5b5f611b8882611423565b9150611b9383611423565b9250828202611ba181611423565b91508282048414831517611bb857611bb7611b51565b5b5092915050565b5f611bc982611423565b9150611bd483611423565b9250828201905080821115611bec57611beb611b51565b5b92915050565b7f43616d706169676e206e6f74207375636365737366756c2079657400000000005f82015250565b5f611c26601b8361148b565b9150611c3182611bf2565b602082019050919050565b5f6020820190508181035f830152611c5381611c1a565b9050919050565b7f4e6f2062616c616e636520746f207769746864726177210000000000000000005f82015250565b5f611c8e60178361148b565b9150611c9982611c5a565b602082019050919050565b5f6020820190508181035f830152611cbb81611c82565b9050919050565b7f526566756e6473206e6f7420617661696c61626c6500000000000000000000005f82015250565b5f611cf660158361148b565b9150611d0182611cc2565b602082019050919050565b5f6020820190508181035f830152611d2381611cea565b9050919050565b7f4e6f20636f6e747269627574696f6e20746f20726566756e64000000000000005f82015250565b5f611d5e60198361148b565b9150611d6982611d2a565b602082019050919050565b5f6020820190508181035f830152611d8b81611d52565b9050919050565b7f5469657220646f6573206e6f74206578697374210000000000000000000000005f82015250565b5f611dc660148361148b565b9150611dd182611d92565b602082019050919050565b5f6020820190508181035f830152611df381611dba565b9050919050565b5f611e0482611423565b9150611e0f83611423565b9250828203905081811115611e2757611e26611b51565b5b92915050565b7f4e487b71000000000000000000000000000000000000000000000000000000005f52603260045260245ffd5b5f81549050611e6881611a51565b9050919050565b5f819050815f5260205f209050919050565b5f6020601f8301049050919050565b5f82821b905092915050565b5f60088302611ecb7fffffffffffffffffffffffffffffffffffffffffffffffffffffffffffffffff82611e90565b611ed58683611e90565b95508019841693508086168417925050509392505050565b5f819050919050565b5f611f10611f0b611f0684611423565b611eed565b611423565b9050919050565b5f819050919050565b611f2983611ef6565b611f3d611f3582611f17565b848454611e9c565b825550505050565b5f5f905090565b611f54611f45565b611f5f818484611f20565b505050565b5b81811015611f8257611f775f82611f4c565b600181019050611f65565b5050565b601f821115611fc757611f9881611e6f565b611fa184611e81565b81016020851015611fb0578190505b611fc4611fbc85611e81565b830182611f64565b50505b505050565b5f82821c905092915050565b5f611fe75f1984600802611fcc565b1980831691505092915050565b5f611fff8383611fd8565b9150826002028217905092915050565b81810361201d5750506120f2565b61202682611e5a565b67ffffffffffffffff81111561203f5761203e6116fc565b5b6120498254611a51565b612054828285611f86565b5f601f831160018114612081575f841561206f578287015490505b6120798582611ff4565b8655506120eb565b601f19841661208f87611e6f565b965061209a86611e6f565b5f5b828110156120c15784890154825560018201915060018501945060208101905061209c565b868310156120de57848901546120da601f891682611fd8565b8355505b6001600288020188555050505b5050505050505b565b7f4e487b71000000000000000000000000000000000000000000000000000000005f52603160045260245ffd5b7f416d6f756e74206d7573742062652067726561746572207468616e20302100005f82015250565b5f612155601e8361148b565b915061216082612121565b602082019050919050565b5f6020820190508181035f83015261218281612149565b9050919050565b61219282611481565b67ffffffffffffffff8111156121ab576121aa6116fc565b5b6121b58254611a51565b6121c0828285611f86565b5f60209050601f8311600181146121f1575f84156121df578287015190505b6121e98582611ff4565b865550612250565b601f1984166121ff86611e6f565b5f5b8281101561222657848901518255600182019150602085019450602081019050612201565b86831015612243578489015161223f601f891682611fd8565b8355505b6001600288020188555050505b505050505050565b7f436f6e74726163742069732070617573656421000000000000000000000000005f82015250565b5f61228c60138361148b565b915061229782612258565b602082019050919050565b5f6020820190508181035f8301526122b981612280565b9050919050565b7f496e636f727265637420416d6f756e74210000000000000000000000000000005f82015250565b5f6122f460118361148b565b91506122ff826122c0565b602082019050919050565b5f6020820190508181035f830152612321816122e8565b9050919050565b5f61233282611423565b91507fffffffffffffffffffffffffffffffffffffffffffffffffffffffffffffffff820361236457612363611b51565b5b60018201905091905056fea2646970667358221220871a2b7d6d8bad64ed99bbb99fba2ea84b9e51f1945125d265991c68e6cc74db64736f6c634300081e0033",
					"opcodes": "PUSH1 0x80 PUSH1 0x40 MSTORE CALLVALUE DUP1 ISZERO PUSH2 0xF JUMPI PUSH0 PUSH0 REVERT JUMPDEST POP PUSH1 0x40 MLOAD PUSH2 0x2A5C CODESIZE SUB DUP1 PUSH2 0x2A5C DUP4 CODECOPY DUP2 DUP2 ADD PUSH1 0x40 MSTORE DUP2 ADD SWAP1 PUSH2 0x31 SWAP2 SWAP1 PUSH2 0x26A JUMP JUMPDEST DUP4 PUSH0 SWAP1 DUP2 PUSH2 0x3F SWAP2 SWAP1 PUSH2 0x50D JUMP JUMPDEST POP DUP3 PUSH1 0x1 SWAP1 DUP2 PUSH2 0x4F SWAP2 SWAP1 PUSH2 0x50D JUMP JUMPDEST POP DUP2 PUSH1 0x2 DUP2 SWAP1 SSTORE POP PUSH3 0x15180 DUP2 PUSH2 0x66 SWAP2 SWAP1 PUSH2 0x609 JUMP JUMPDEST TIMESTAMP PUSH2 0x71 SWAP2 SWAP1 PUSH2 0x64A JUMP JUMPDEST PUSH1 0x3 DUP2 SWAP1 SSTORE POP CALLER PUSH1 0x4 PUSH0 PUSH2 0x100 EXP DUP2 SLOAD DUP2 PUSH20 0xFFFFFFFFFFFFFFFFFFFFFFFFFFFFFFFFFFFFFFFF MUL NOT AND SWAP1 DUP4 PUSH20 0xFFFFFFFFFFFFFFFFFFFFFFFFFFFFFFFFFFFFFFFF AND MUL OR SWAP1 SSTORE POP PUSH0 PUSH1 0x4 PUSH1 0x15 PUSH2 0x100 EXP DUP2 SLOAD DUP2 PUSH1 0xFF MUL NOT AND SWAP1 DUP4 PUSH1 0x2 DUP2 GT ISZERO PUSH2 0xDC JUMPI PUSH2 0xDB PUSH2 0x67D JUMP JUMPDEST JUMPDEST MUL OR SWAP1 SSTORE POP POP POP POP POP PUSH2 0x6AA JUMP JUMPDEST PUSH0 PUSH1 0x40 MLOAD SWAP1 POP SWAP1 JUMP JUMPDEST PUSH0 PUSH0 REVERT JUMPDEST PUSH0 PUSH0 REVERT JUMPDEST PUSH0 PUSH0 REVERT JUMPDEST PUSH0 PUSH0 REVERT JUMPDEST PUSH0 PUSH1 0x1F NOT PUSH1 0x1F DUP4 ADD AND SWAP1 POP SWAP2 SWAP1 POP JUMP JUMPDEST PUSH32 0x4E487B7100000000000000000000000000000000000000000000000000000000 PUSH0 MSTORE PUSH1 0x41 PUSH1 0x4 MSTORE PUSH1 0x24 PUSH0 REVERT JUMPDEST PUSH2 0x149 DUP3 PUSH2 0x103 JUMP JUMPDEST DUP2 ADD DUP2 DUP2 LT PUSH8 0xFFFFFFFFFFFFFFFF DUP3 GT OR ISZERO PUSH2 0x168 JUMPI PUSH2 0x167 PUSH2 0x113 JUMP JUMPDEST JUMPDEST DUP1 PUSH1 0x40 MSTORE POP POP POP JUMP JUMPDEST PUSH0 PUSH2 0x17A PUSH2 0xEA JUMP JUMPDEST SWAP1 POP PUSH2 0x186 DUP3 DUP3 PUSH2 0x140 JUMP JUMPDEST SWAP2 SWAP1 POP JUMP JUMPDEST PUSH0 PUSH8 0xFFFFFFFFFFFFFFFF DUP3 GT ISZERO PUSH2 0x1A5 JUMPI PUSH2 0x1A4 PUSH2 0x113 JUMP JUMPDEST JUMPDEST PUSH2 0x1AE DUP3 PUSH2 0x103 JUMP JUMPDEST SWAP1 POP PUSH1 0x20 DUP2 ADD SWAP1 POP SWAP2 SWAP1 POP JUMP JUMPDEST DUP3 DUP2 DUP4 MCOPY PUSH0 DUP4 DUP4 ADD MSTORE POP POP POP JUMP JUMPDEST PUSH0 PUSH2 0x1DB PUSH2 0x1D6 DUP5 PUSH2 0x18B JUMP JUMPDEST PUSH2 0x171 JUMP JUMPDEST SWAP1 POP DUP3 DUP2 MSTORE PUSH1 0x20 DUP2 ADD DUP5 DUP5 DUP5 ADD GT ISZERO PUSH2 0x1F7 JUMPI PUSH2 0x1F6 PUSH2 0xFF JUMP JUMPDEST JUMPDEST PUSH2 0x202 DUP5 DUP3 DUP6 PUSH2 0x1BB JUMP JUMPDEST POP SWAP4 SWAP3 POP POP POP JUMP JUMPDEST PUSH0 DUP3 PUSH1 0x1F DUP4 ADD SLT PUSH2 0x21E JUMPI PUSH2 0x21D PUSH2 0xFB JUMP JUMPDEST JUMPDEST DUP2 MLOAD PUSH2 0x22E DUP5 DUP3 PUSH1 0x20 DUP7 ADD PUSH2 0x1C9 JUMP JUMPDEST SWAP2 POP POP SWAP3 SWAP2 POP POP JUMP JUMPDEST PUSH0 DUP2 SWAP1 POP SWAP2 SWAP1 POP JUMP JUMPDEST PUSH2 0x249 DUP2 PUSH2 0x237 JUMP JUMPDEST DUP2 EQ PUSH2 0x253 JUMPI PUSH0 PUSH0 REVERT JUMPDEST POP JUMP JUMPDEST PUSH0 DUP2 MLOAD SWAP1 POP PUSH2 0x264 DUP2 PUSH2 0x240 JUMP JUMPDEST SWAP3 SWAP2 POP POP JUMP JUMPDEST PUSH0 PUSH0 PUSH0 PUSH0 PUSH1 0x80 DUP6 DUP8 SUB SLT ISZERO PUSH2 0x282 JUMPI PUSH2 0x281 PUSH2 0xF3 JUMP JUMPDEST JUMPDEST PUSH0 DUP6 ADD MLOAD PUSH8 0xFFFFFFFFFFFFFFFF DUP2 GT ISZERO PUSH2 0x29F JUMPI PUSH2 0x29E PUSH2 0xF7 JUMP JUMPDEST JUMPDEST PUSH2 0x2AB DUP8 DUP3 DUP9 ADD PUSH2 0x20A JUMP JUMPDEST SWAP5 POP POP PUSH1 0x20 DUP6 ADD MLOAD PUSH8 0xFFFFFFFFFFFFFFFF DUP2 GT ISZERO PUSH2 0x2CC JUMPI PUSH2 0x2CB PUSH2 0xF7 JUMP JUMPDEST JUMPDEST PUSH2 0x2D8 DUP8 DUP3 DUP9 ADD PUSH2 0x20A JUMP JUMPDEST SWAP4 POP POP PUSH1 0x40 PUSH2 0x2E9 DUP8 DUP3 DUP9 ADD PUSH2 0x256 JUMP JUMPDEST SWAP3 POP POP PUSH1 0x60 PUSH2 0x2FA DUP8 DUP3 DUP9 ADD PUSH2 0x256 JUMP JUMPDEST SWAP2 POP POP SWAP3 SWAP6 SWAP2 SWAP5 POP SWAP3 POP JUMP JUMPDEST PUSH0 DUP2 MLOAD SWAP1 POP SWAP2 SWAP1 POP JUMP JUMPDEST PUSH32 0x4E487B7100000000000000000000000000000000000000000000000000000000 PUSH0 MSTORE PUSH1 0x22 PUSH1 0x4 MSTORE PUSH1 0x24 PUSH0 REVERT JUMPDEST PUSH0 PUSH1 0x2 DUP3 DIV SWAP1 POP PUSH1 0x1 DUP3 AND DUP1 PUSH2 0x354 JUMPI PUSH1 0x7F DUP3 AND SWAP2 POP JUMPDEST PUSH1 0x20 DUP3 LT DUP2 SUB PUSH2 0x367 JUMPI PUSH2 0x366 PUSH2 0x310 JUMP JUMPDEST JUMPDEST POP SWAP2 SWAP1 POP JUMP JUMPDEST PUSH0 DUP2 SWAP1 POP DUP2 PUSH0 MSTORE PUSH1 0x20 PUSH0 KECCAK256 SWAP1 POP SWAP2 SWAP1 POP JUMP JUMPDEST PUSH0 PUSH1 0x20 PUSH1 0x1F DUP4 ADD DIV SWAP1 POP SWAP2 SWAP1 POP JUMP JUMPDEST PUSH0 DUP3 DUP3 SHL SWAP1 POP SWAP3 SWAP2 POP POP JUMP JUMPDEST PUSH0 PUSH1 0x8 DUP4 MUL PUSH2 0x3C9 PUSH32 0xFFFFFFFFFFFFFFFFFFFFFFFFFFFFFFFFFFFFFFFFFFFFFFFFFFFFFFFFFFFFFFFF DUP3 PUSH2 0x38E JUMP JUMPDEST PUSH2 0x3D3 DUP7 DUP4 PUSH2 0x38E JUMP JUMPDEST SWAP6 POP DUP1 NOT DUP5 AND SWAP4 POP DUP1 DUP7 AND DUP5 OR SWAP3 POP POP POP SWAP4 SWAP3 POP POP POP JUMP JUMPDEST PUSH0 DUP2 SWAP1 POP SWAP2 SWAP1 POP JUMP JUMPDEST PUSH0 PUSH2 0x40E PUSH2 0x409 PUSH2 0x404 DUP5 PUSH2 0x237 JUMP JUMPDEST PUSH2 0x3EB JUMP JUMPDEST PUSH2 0x237 JUMP JUMPDEST SWAP1 POP SWAP2 SWAP1 POP JUMP JUMPDEST PUSH0 DUP2 SWAP1 POP SWAP2 SWAP1 POP JUMP JUMPDEST PUSH2 0x427 DUP4 PUSH2 0x3F4 JUMP JUMPDEST PUSH2 0x43B PUSH2 0x433 DUP3 PUSH2 0x415 JUMP JUMPDEST DUP5 DUP5 SLOAD PUSH2 0x39A JUMP JUMPDEST DUP3 SSTORE POP POP POP POP JUMP JUMPDEST PUSH0 PUSH0 SWAP1 POP SWAP1 JUMP JUMPDEST PUSH2 0x452 PUSH2 0x443 JUMP JUMPDEST PUSH2 0x45D DUP2 DUP5 DUP5 PUSH2 0x41E JUMP JUMPDEST POP POP POP JUMP JUMPDEST JUMPDEST DUP2 DUP2 LT ISZERO PUSH2 0x480 JUMPI PUSH2 0x475 PUSH0 DUP3 PUSH2 0x44A JUMP JUMPDEST PUSH1 0x1 DUP2 ADD SWAP1 POP PUSH2 0x463 JUMP JUMPDEST POP POP JUMP JUMPDEST PUSH1 0x1F DUP3 GT ISZERO PUSH2 0x4C5 JUMPI PUSH2 0x496 DUP2 PUSH2 0x36D JUMP JUMPDEST PUSH2 0x49F DUP5 PUSH2 0x37F JUMP JUMPDEST DUP2 ADD PUSH1 0x20 DUP6 LT ISZERO PUSH2 0x4AE JUMPI DUP2 SWAP1 POP JUMPDEST PUSH2 0x4C2 PUSH2 0x4BA DUP6 PUSH2 0x37F JUMP JUMPDEST DUP4 ADD DUP3 PUSH2 0x462 JUMP JUMPDEST POP POP JUMPDEST POP POP POP JUMP JUMPDEST PUSH0 DUP3 DUP3 SHR SWAP1 POP SWAP3 SWAP2 POP POP JUMP JUMPDEST PUSH0 PUSH2 0x4E5 PUSH0 NOT DUP5 PUSH1 0x8 MUL PUSH2 0x4CA JUMP JUMPDEST NOT DUP1 DUP4 AND SWAP2 POP POP SWAP3 SWAP2 POP POP JUMP JUMPDEST PUSH0 PUSH2 0x4FD DUP4 DUP4 PUSH2 0x4D6 JUMP JUMPDEST SWAP2 POP DUP3 PUSH1 0x2 MUL DUP3 OR SWAP1 POP SWAP3 SWAP2 POP POP JUMP JUMPDEST PUSH2 0x516 DUP3 PUSH2 0x306 JUMP JUMPDEST PUSH8 0xFFFFFFFFFFFFFFFF DUP2 GT ISZERO PUSH2 0x52F JUMPI PUSH2 0x52E PUSH2 0x113 JUMP JUMPDEST JUMPDEST PUSH2 0x539 DUP3 SLOAD PUSH2 0x33D JUMP JUMPDEST PUSH2 0x544 DUP3 DUP3 DUP6 PUSH2 0x484 JUMP JUMPDEST PUSH0 PUSH1 0x20 SWAP1 POP PUSH1 0x1F DUP4 GT PUSH1 0x1 DUP2 EQ PUSH2 0x575 JUMPI PUSH0 DUP5 ISZERO PUSH2 0x563 JUMPI DUP3 DUP8 ADD MLOAD SWAP1 POP JUMPDEST PUSH2 0x56D DUP6 DUP3 PUSH2 0x4F2 JUMP JUMPDEST DUP7 SSTORE POP PUSH2 0x5D4 JUMP JUMPDEST PUSH1 0x1F NOT DUP5 AND PUSH2 0x583 DUP7 PUSH2 0x36D JUMP JUMPDEST PUSH0 JUMPDEST DUP3 DUP2 LT ISZERO PUSH2 0x5AA JUMPI DUP5 DUP10 ADD MLOAD DUP3 SSTORE PUSH1 0x1 DUP3 ADD SWAP2 POP PUSH1 0x20 DUP6 ADD SWAP5 POP PUSH1 0x20 DUP2 ADD SWAP1 POP PUSH2 0x585 JUMP JUMPDEST DUP7 DUP4 LT ISZERO PUSH2 0x5C7 JUMPI DUP5 DUP10 ADD MLOAD PUSH2 0x5C3 PUSH1 0x1F DUP10 AND DUP3 PUSH2 0x4D6 JUMP JUMPDEST DUP4 SSTORE POP JUMPDEST PUSH1 0x1 PUSH1 0x2 DUP9 MUL ADD DUP9 SSTORE POP POP POP JUMPDEST POP POP POP POP POP POP JUMP JUMPDEST PUSH32 0x4E487B7100000000000000000000000000000000000000000000000000000000 PUSH0 MSTORE PUSH1 0x11 PUSH1 0x4 MSTORE PUSH1 0x24 PUSH0 REVERT JUMPDEST PUSH0 PUSH2 0x613 DUP3 PUSH2 0x237 JUMP JUMPDEST SWAP2 POP PUSH2 0x61E DUP4 PUSH2 0x237 JUMP JUMPDEST SWAP3 POP DUP3 DUP3 MUL PUSH2 0x62C DUP2 PUSH2 0x237 JUMP JUMPDEST SWAP2 POP DUP3 DUP3 DIV DUP5 EQ DUP4 ISZERO OR PUSH2 0x643 JUMPI PUSH2 0x642 PUSH2 0x5DC JUMP JUMPDEST JUMPDEST POP SWAP3 SWAP2 POP POP JUMP JUMPDEST PUSH0 PUSH2 0x654 DUP3 PUSH2 0x237 JUMP JUMPDEST SWAP2 POP PUSH2 0x65F DUP4 PUSH2 0x237 JUMP JUMPDEST SWAP3 POP DUP3 DUP3 ADD SWAP1 POP DUP1 DUP3 GT ISZERO PUSH2 0x677 JUMPI PUSH2 0x676 PUSH2 0x5DC JUMP JUMPDEST JUMPDEST SWAP3 SWAP2 POP POP JUMP JUMPDEST PUSH32 0x4E487B7100000000000000000000000000000000000000000000000000000000 PUSH0 MSTORE PUSH1 0x21 PUSH1 0x4 MSTORE PUSH1 0x24 PUSH0 REVERT JUMPDEST PUSH2 0x23A5 DUP1 PUSH2 0x6B7 PUSH0 CODECOPY PUSH0 RETURN INVALID PUSH1 0x80 PUSH1 0x40 MSTORE PUSH1 0x4 CALLDATASIZE LT PUSH2 0x11E JUMPI PUSH0 CALLDATALOAD PUSH1 0xE0 SHR DUP1 PUSH4 0x7284E416 GT PUSH2 0x9F JUMPI DUP1 PUSH4 0xB85DFB80 GT PUSH2 0x63 JUMPI DUP1 PUSH4 0xB85DFB80 EQ PUSH2 0x390 JUMPI DUP1 PUSH4 0xC19D93FB EQ PUSH2 0x3CC JUMPI DUP1 PUSH4 0xC4AE3168 EQ PUSH2 0x3F6 JUMPI DUP1 PUSH4 0xCA1D209D EQ PUSH2 0x40C JUMPI DUP1 PUSH4 0xDE170570 EQ PUSH2 0x428 JUMPI PUSH2 0x11E JUMP JUMPDEST DUP1 PUSH4 0x7284E416 EQ PUSH2 0x2B0 JUMPI DUP1 PUSH4 0x7497211B EQ PUSH2 0x2DA JUMPI DUP1 PUSH4 0x7ADBA527 EQ PUSH2 0x302 JUMPI DUP1 PUSH4 0x8DA5CB5B EQ PUSH2 0x33E JUMPI DUP1 PUSH4 0x8ECE7B91 EQ PUSH2 0x368 JUMPI PUSH2 0x11E JUMP JUMPDEST DUP1 PUSH4 0x3CCFD60B GT PUSH2 0xE6 JUMPI DUP1 PUSH4 0x3CCFD60B EQ PUSH2 0x206 JUMPI DUP1 PUSH4 0x40193883 EQ PUSH2 0x21C JUMPI DUP1 PUSH4 0x590E1AE3 EQ PUSH2 0x246 JUMPI DUP1 PUSH4 0x5C975ABB EQ PUSH2 0x25C JUMPI DUP1 PUSH4 0x6F9FB98A EQ PUSH2 0x286 JUMPI PUSH2 0x11E JUMP JUMPDEST DUP1 PUSH4 0x39AF9EB EQ PUSH2 0x122 JUMPI DUP1 PUSH4 0x6FDDE03 EQ PUSH2 0x160 JUMPI DUP1 PUSH4 0x10550515 EQ PUSH2 0x18A JUMPI DUP1 PUSH4 0x29DCB0CF EQ PUSH2 0x1B4 JUMPI DUP1 PUSH4 0x389B7533 EQ PUSH2 0x1DE JUMPI JUMPDEST PUSH0 PUSH0 REVERT JUMPDEST CALLVALUE DUP1 ISZERO PUSH2 0x12D JUMPI PUSH0 PUSH0 REVERT JUMPDEST POP PUSH2 0x148 PUSH1 0x4 DUP1 CALLDATASIZE SUB DUP2 ADD SWAP1 PUSH2 0x143 SWAP2 SWAP1 PUSH2 0x1456 JUMP JUMPDEST PUSH2 0x452 JUMP JUMPDEST PUSH1 0x40 MLOAD PUSH2 0x157 SWAP4 SWAP3 SWAP2 SWAP1 PUSH2 0x1500 JUMP JUMPDEST PUSH1 0x40 MLOAD DUP1 SWAP2 SUB SWAP1 RETURN JUMPDEST CALLVALUE DUP1 ISZERO PUSH2 0x16B JUMPI PUSH0 PUSH0 REVERT JUMPDEST POP PUSH2 0x174 PUSH2 0x50D JUMP JUMPDEST PUSH1 0x40 MLOAD PUSH2 0x181 SWAP2 SWAP1 PUSH2 0x153C JUMP JUMPDEST PUSH1 0x40 MLOAD DUP1 SWAP2 SUB SWAP1 RETURN JUMPDEST CALLVALUE DUP1 ISZERO PUSH2 0x195 JUMPI PUSH0 PUSH0 REVERT JUMPDEST POP PUSH2 0x19E PUSH2 0x598 JUMP JUMPDEST PUSH1 0x40 MLOAD PUSH2 0x1AB SWAP2 SWAP1 PUSH2 0x15CF JUMP JUMPDEST PUSH1 0x40 MLOAD DUP1 SWAP2 SUB SWAP1 RETURN JUMPDEST CALLVALUE DUP1 ISZERO PUSH2 0x1BF JUMPI PUSH0 PUSH0 REVERT JUMPDEST POP PUSH2 0x1C8 PUSH2 0x612 JUMP JUMPDEST PUSH1 0x40 MLOAD PUSH2 0x1D5 SWAP2 SWAP1 PUSH2 0x15E8 JUMP JUMPDEST PUSH1 0x40 MLOAD DUP1 SWAP2 SUB SWAP1 RETURN JUMPDEST CALLVALUE DUP1 ISZERO PUSH2 0x1E9 JUMPI PUSH0 PUSH0 REVERT JUMPDEST POP PUSH2 0x204 PUSH1 0x4 DUP1 CALLDATASIZE SUB DUP2 ADD SWAP1 PUSH2 0x1FF SWAP2 SWAP1 PUSH2 0x1456 JUMP JUMPDEST PUSH2 0x618 JUMP JUMPDEST STOP JUMPDEST CALLVALUE DUP1 ISZERO PUSH2 0x211 JUMPI PUSH0 PUSH0 REVERT JUMPDEST POP PUSH2 0x21A PUSH2 0x745 JUMP JUMPDEST STOP JUMPDEST CALLVALUE DUP1 ISZERO PUSH2 0x227 JUMPI PUSH0 PUSH0 REVERT JUMPDEST POP PUSH2 0x230 PUSH2 0x900 JUMP JUMPDEST PUSH1 0x40 MLOAD PUSH2 0x23D SWAP2 SWAP1 PUSH2 0x15E8 JUMP JUMPDEST PUSH1 0x40 MLOAD DUP1 SWAP2 SUB SWAP1 RETURN JUMPDEST CALLVALUE DUP1 ISZERO PUSH2 0x251 JUMPI PUSH0 PUSH0 REVERT JUMPDEST POP PUSH2 0x25A PUSH2 0x906 JUMP JUMPDEST STOP JUMPDEST CALLVALUE DUP1 ISZERO PUSH2 0x267 JUMPI PUSH0 PUSH0 REVERT JUMPDEST POP PUSH2 0x270 PUSH2 0xA93 JUMP JUMPDEST PUSH1 0x40 MLOAD PUSH2 0x27D SWAP2 SWAP1 PUSH2 0x161B JUMP JUMPDEST PUSH1 0x40 MLOAD DUP1 SWAP2 SUB SWAP1 RETURN JUMPDEST CALLVALUE DUP1 ISZERO PUSH2 0x291 JUMPI PUSH0 PUSH0 REVERT JUMPDEST POP PUSH2 0x29A PUSH2 0xAA6 JUMP JUMPDEST PUSH1 0x40 MLOAD PUSH2 0x2A7 SWAP2 SWAP1 PUSH2 0x15E8 JUMP JUMPDEST PUSH1 0x40 MLOAD DUP1 SWAP2 SUB SWAP1 RETURN JUMPDEST CALLVALUE DUP1 ISZERO PUSH2 0x2BB JUMPI PUSH0 PUSH0 REVERT JUMPDEST POP PUSH2 0x2C4 PUSH2 0xAAD JUMP JUMPDEST PUSH1 0x40 MLOAD PUSH2 0x2D1 SWAP2 SWAP1 PUSH2 0x153C JUMP JUMPDEST PUSH1 0x40 MLOAD DUP1 SWAP2 SUB SWAP1 RETURN JUMPDEST CALLVALUE DUP1 ISZERO PUSH2 0x2E5 JUMPI PUSH0 PUSH0 REVERT JUMPDEST POP PUSH2 0x300 PUSH1 0x4 DUP1 CALLDATASIZE SUB DUP2 ADD SWAP1 PUSH2 0x2FB SWAP2 SWAP1 PUSH2 0x1456 JUMP JUMPDEST PUSH2 0xB39 JUMP JUMPDEST STOP JUMPDEST CALLVALUE DUP1 ISZERO PUSH2 0x30D JUMPI PUSH0 PUSH0 REVERT JUMPDEST POP PUSH2 0x328 PUSH1 0x4 DUP1 CALLDATASIZE SUB DUP2 ADD SWAP1 PUSH2 0x323 SWAP2 SWAP1 PUSH2 0x168E JUMP JUMPDEST PUSH2 0xCD2 JUMP JUMPDEST PUSH1 0x40 MLOAD PUSH2 0x335 SWAP2 SWAP1 PUSH2 0x161B JUMP JUMPDEST PUSH1 0x40 MLOAD DUP1 SWAP2 SUB SWAP1 RETURN JUMPDEST CALLVALUE DUP1 ISZERO PUSH2 0x349 JUMPI PUSH0 PUSH0 REVERT JUMPDEST POP PUSH2 0x352 PUSH2 0xD37 JUMP JUMPDEST PUSH1 0x40 MLOAD PUSH2 0x35F SWAP2 SWAP1 PUSH2 0x16DB JUMP JUMPDEST PUSH1 0x40 MLOAD DUP1 SWAP2 SUB SWAP1 RETURN JUMPDEST CALLVALUE DUP1 ISZERO PUSH2 0x373 JUMPI PUSH0 PUSH0 REVERT JUMPDEST POP PUSH2 0x38E PUSH1 0x4 DUP1 CALLDATASIZE SUB DUP2 ADD SWAP1 PUSH2 0x389 SWAP2 SWAP1 PUSH2 0x1820 JUMP JUMPDEST PUSH2 0xD5C JUMP JUMPDEST STOP JUMPDEST CALLVALUE DUP1 ISZERO PUSH2 0x39B JUMPI PUSH0 PUSH0 REVERT JUMPDEST POP PUSH2 0x3B6 PUSH1 0x4 DUP1 CALLDATASIZE SUB DUP2 ADD SWAP1 PUSH2 0x3B1 SWAP2 SWAP1 PUSH2 0x187A JUMP JUMPDEST PUSH2 0xE9E JUMP JUMPDEST PUSH1 0x40 MLOAD PUSH2 0x3C3 SWAP2 SWAP1 PUSH2 0x15E8 JUMP JUMPDEST PUSH1 0x40 MLOAD DUP1 SWAP2 SUB SWAP1 RETURN JUMPDEST CALLVALUE DUP1 ISZERO PUSH2 0x3D7 JUMPI PUSH0 PUSH0 REVERT JUMPDEST POP PUSH2 0x3E0 PUSH2 0xEB8 JUMP JUMPDEST PUSH1 0x40 MLOAD PUSH2 0x3ED SWAP2 SWAP1 PUSH2 0x15CF JUMP JUMPDEST PUSH1 0x40 MLOAD DUP1 SWAP2 SUB SWAP1 RETURN JUMPDEST CALLVALUE DUP1 ISZERO PUSH2 0x401 JUMPI PUSH0 PUSH0 REVERT JUMPDEST POP PUSH2 0x40A PUSH2 0xECB JUMP JUMPDEST STOP JUMPDEST PUSH2 0x426 PUSH1 0x4 DUP1 CALLDATASIZE SUB DUP2 ADD SWAP1 PUSH2 0x421 SWAP2 SWAP1 PUSH2 0x1456 JUMP JUMPDEST PUSH2 0xF86 JUMP JUMPDEST STOP JUMPDEST CALLVALUE DUP1 ISZERO PUSH2 0x433 JUMPI PUSH0 PUSH0 REVERT JUMPDEST POP PUSH2 0x43C PUSH2 0x11F6 JUMP JUMPDEST PUSH1 0x40 MLOAD PUSH2 0x449 SWAP2 SWAP1 PUSH2 0x1A04 JUMP JUMPDEST PUSH1 0x40 MLOAD DUP1 SWAP2 SUB SWAP1 RETURN JUMPDEST PUSH1 0x5 DUP2 DUP2 SLOAD DUP2 LT PUSH2 0x461 JUMPI PUSH0 DUP1 REVERT JUMPDEST SWAP1 PUSH0 MSTORE PUSH1 0x20 PUSH0 KECCAK256 SWAP1 PUSH1 0x3 MUL ADD PUSH0 SWAP2 POP SWAP1 POP DUP1 PUSH0 ADD DUP1 SLOAD PUSH2 0x480 SWAP1 PUSH2 0x1A51 JUMP JUMPDEST DUP1 PUSH1 0x1F ADD PUSH1 0x20 DUP1 SWAP2 DIV MUL PUSH1 0x20 ADD PUSH1 0x40 MLOAD SWAP1 DUP2 ADD PUSH1 0x40 MSTORE DUP1 SWAP3 SWAP2 SWAP1 DUP2 DUP2 MSTORE PUSH1 0x20 ADD DUP3 DUP1 SLOAD PUSH2 0x4AC SWAP1 PUSH2 0x1A51 JUMP JUMPDEST DUP1 ISZERO PUSH2 0x4F7 JUMPI DUP1 PUSH1 0x1F LT PUSH2 0x4CE JUMPI PUSH2 0x100 DUP1 DUP4 SLOAD DIV MUL DUP4 MSTORE SWAP2 PUSH1 0x20 ADD SWAP2 PUSH2 0x4F7 JUMP JUMPDEST DUP3 ADD SWAP2 SWAP1 PUSH0 MSTORE PUSH1 0x20 PUSH0 KECCAK256 SWAP1 JUMPDEST DUP2 SLOAD DUP2 MSTORE SWAP1 PUSH1 0x1 ADD SWAP1 PUSH1 0x20 ADD DUP1 DUP4 GT PUSH2 0x4DA JUMPI DUP3 SWAP1 SUB PUSH1 0x1F AND DUP3 ADD SWAP2 JUMPDEST POP POP POP POP POP SWAP1 DUP1 PUSH1 0x1 ADD SLOAD SWAP1 DUP1 PUSH1 0x2 ADD SLOAD SWAP1 POP DUP4 JUMP JUMPDEST PUSH0 DUP1 SLOAD PUSH2 0x519 SWAP1 PUSH2 0x1A51 JUMP JUMPDEST DUP1 PUSH1 0x1F ADD PUSH1 0x20 DUP1 SWAP2 DIV MUL PUSH1 0x20 ADD PUSH1 0x40 MLOAD SWAP1 DUP2 ADD PUSH1 0x40 MSTORE DUP1 SWAP3 SWAP2 SWAP1 DUP2 DUP2 MSTORE PUSH1 0x20 ADD DUP3 DUP1 SLOAD PUSH2 0x545 SWAP1 PUSH2 0x1A51 JUMP JUMPDEST DUP1 ISZERO PUSH2 0x590 JUMPI DUP1 PUSH1 0x1F LT PUSH2 0x567 JUMPI PUSH2 0x100 DUP1 DUP4 SLOAD DIV MUL DUP4 MSTORE SWAP2 PUSH1 0x20 ADD SWAP2 PUSH2 0x590 JUMP JUMPDEST DUP3 ADD SWAP2 SWAP1 PUSH0 MSTORE PUSH1 0x20 PUSH0 KECCAK256 SWAP1 JUMPDEST DUP2 SLOAD DUP2 MSTORE SWAP1 PUSH1 0x1 ADD SWAP1 PUSH1 0x20 ADD DUP1 DUP4 GT PUSH2 0x573 JUMPI DUP3 SWAP1 SUB PUSH1 0x1F AND DUP3 ADD SWAP2 JUMPDEST POP POP POP POP POP DUP2 JUMP JUMPDEST PUSH0 PUSH0 PUSH1 0x2 DUP2 GT ISZERO PUSH2 0x5AC JUMPI PUSH2 0x5AB PUSH2 0x155C JUMP JUMPDEST JUMPDEST PUSH1 0x4 PUSH1 0x15 SWAP1 SLOAD SWAP1 PUSH2 0x100 EXP SWAP1 DIV PUSH1 0xFF AND PUSH1 0x2 DUP2 GT ISZERO PUSH2 0x5CE JUMPI PUSH2 0x5CD PUSH2 0x155C JUMP JUMPDEST JUMPDEST EQ DUP1 ISZERO PUSH2 0x5DC JUMPI POP PUSH1 0x3 SLOAD TIMESTAMP GT JUMPDEST ISZERO PUSH2 0x5FC JUMPI PUSH1 0x2 SLOAD SELFBALANCE LT ISZERO PUSH2 0x5F2 JUMPI PUSH1 0x2 PUSH2 0x5F5 JUMP JUMPDEST PUSH1 0x1 JUMPDEST SWAP1 POP PUSH2 0x60F JUMP JUMPDEST PUSH1 0x4 PUSH1 0x15 SWAP1 SLOAD SWAP1 PUSH2 0x100 EXP SWAP1 DIV PUSH1 0xFF AND SWAP1 POP JUMPDEST SWAP1 JUMP JUMPDEST PUSH1 0x3 SLOAD DUP2 JUMP JUMPDEST PUSH1 0x4 PUSH0 SWAP1 SLOAD SWAP1 PUSH2 0x100 EXP SWAP1 DIV PUSH20 0xFFFFFFFFFFFFFFFFFFFFFFFFFFFFFFFFFFFFFFFF AND PUSH20 0xFFFFFFFFFFFFFFFFFFFFFFFFFFFFFFFFFFFFFFFF AND CALLER PUSH20 0xFFFFFFFFFFFFFFFFFFFFFFFFFFFFFFFFFFFFFFFF AND EQ PUSH2 0x6A7 JUMPI PUSH1 0x40 MLOAD PUSH32 0x8C379A000000000000000000000000000000000000000000000000000000000 DUP2 MSTORE PUSH1 0x4 ADD PUSH2 0x69E SWAP1 PUSH2 0x1ACB JUMP JUMPDEST PUSH1 0x40 MLOAD DUP1 SWAP2 SUB SWAP1 REVERT JUMPDEST PUSH0 PUSH1 0x2 DUP2 GT ISZERO PUSH2 0x6BA JUMPI PUSH2 0x6B9 PUSH2 0x155C JUMP JUMPDEST JUMPDEST PUSH1 0x4 PUSH1 0x15 SWAP1 SLOAD SWAP1 PUSH2 0x100 EXP SWAP1 DIV PUSH1 0xFF AND PUSH1 0x2 DUP2 GT ISZERO PUSH2 0x6DC JUMPI PUSH2 0x6DB PUSH2 0x155C JUMP JUMPDEST JUMPDEST EQ PUSH2 0x71C JUMPI PUSH1 0x40 MLOAD PUSH32 0x8C379A000000000000000000000000000000000000000000000000000000000 DUP2 MSTORE PUSH1 0x4 ADD PUSH2 0x713 SWAP1 PUSH2 0x1B33 JUMP JUMPDEST PUSH1 0x40 MLOAD DUP1 SWAP2 SUB SWAP1 REVERT JUMPDEST PUSH3 0x15180 DUP2 PUSH2 0x72B SWAP2 SWAP1 PUSH2 0x1B7E JUMP JUMPDEST PUSH1 0x3 PUSH0 DUP3 DUP3 SLOAD PUSH2 0x73B SWAP2 SWAP1 PUSH2 0x1BBF JUMP JUMPDEST SWAP3 POP POP DUP2 SWAP1 SSTORE POP POP JUMP JUMPDEST PUSH1 0x4 PUSH0 SWAP1 SLOAD SWAP1 PUSH2 0x100 EXP SWAP1 DIV PUSH20 0xFFFFFFFFFFFFFFFFFFFFFFFFFFFFFFFFFFFFFFFF AND PUSH20 0xFFFFFFFFFFFFFFFFFFFFFFFFFFFFFFFFFFFFFFFF AND CALLER PUSH20 0xFFFFFFFFFFFFFFFFFFFFFFFFFFFFFFFFFFFFFFFF AND EQ PUSH2 0x7D4 JUMPI PUSH1 0x40 MLOAD PUSH32 0x8C379A000000000000000000000000000000000000000000000000000000000 DUP2 MSTORE PUSH1 0x4 ADD PUSH2 0x7CB SWAP1 PUSH2 0x1ACB JUMP JUMPDEST PUSH1 0x40 MLOAD DUP1 SWAP2 SUB SWAP1 REVERT JUMPDEST PUSH2 0x7DC PUSH2 0x12F5 JUMP JUMPDEST PUSH1 0x1 PUSH1 0x2 DUP2 GT ISZERO PUSH2 0x7F0 JUMPI PUSH2 0x7EF PUSH2 0x155C JUMP JUMPDEST JUMPDEST PUSH1 0x4 PUSH1 0x15 SWAP1 SLOAD SWAP1 PUSH2 0x100 EXP SWAP1 DIV PUSH1 0xFF AND PUSH1 0x2 DUP2 GT ISZERO PUSH2 0x812 JUMPI PUSH2 0x811 PUSH2 0x155C JUMP JUMPDEST JUMPDEST EQ PUSH2 0x852 JUMPI PUSH1 0x40 MLOAD PUSH32 0x8C379A000000000000000000000000000000000000000000000000000000000 DUP2 MSTORE PUSH1 0x4 ADD PUSH2 0x849 SWAP1 PUSH2 0x1C3C JUMP JUMPDEST PUSH1 0x40 MLOAD DUP1 SWAP2 SUB SWAP1 REVERT JUMPDEST PUSH0 SELFBALANCE SWAP1 POP PUSH0 DUP2 GT PUSH2 0x898 JUMPI PUSH1 0x40 MLOAD PUSH32 0x8C379A000000000000000000000000000000000000000000000000000000000 DUP2 MSTORE PUSH1 0x4 ADD PUSH2 0x88F SWAP1 PUSH2 0x1CA4 JUMP JUMPDEST PUSH1 0x40 MLOAD DUP1 SWAP2 SUB SWAP1 REVERT JUMPDEST PUSH1 0x4 PUSH0 SWAP1 SLOAD SWAP1 PUSH2 0x100 EXP SWAP1 DIV PUSH20 0xFFFFFFFFFFFFFFFFFFFFFFFFFFFFFFFFFFFFFFFF AND PUSH20 0xFFFFFFFFFFFFFFFFFFFFFFFFFFFFFFFFFFFFFFFF AND PUSH2 0x8FC DUP3 SWAP1 DUP2 ISZERO MUL SWAP1 PUSH1 0x40 MLOAD PUSH0 PUSH1 0x40 MLOAD DUP1 DUP4 SUB DUP2 DUP6 DUP9 DUP9 CALL SWAP4 POP POP POP POP ISZERO DUP1 ISZERO PUSH2 0x8FC JUMPI RETURNDATASIZE PUSH0 PUSH0 RETURNDATACOPY RETURNDATASIZE PUSH0 REVERT JUMPDEST POP POP JUMP JUMPDEST PUSH1 0x2 SLOAD DUP2 JUMP JUMPDEST PUSH2 0x90E PUSH2 0x12F5 JUMP JUMPDEST PUSH1 0x2 DUP1 DUP2 GT ISZERO PUSH2 0x921 JUMPI PUSH2 0x920 PUSH2 0x155C JUMP JUMPDEST JUMPDEST PUSH1 0x4 PUSH1 0x15 SWAP1 SLOAD SWAP1 PUSH2 0x100 EXP SWAP1 DIV PUSH1 0xFF AND PUSH1 0x2 DUP2 GT ISZERO PUSH2 0x943 JUMPI PUSH2 0x942 PUSH2 0x155C JUMP JUMPDEST JUMPDEST EQ PUSH2 0x983 JUMPI PUSH1 0x40 MLOAD PUSH32 0x8C379A000000000000000000000000000000000000000000000000000000000 DUP2 MSTORE PUSH1 0x4 ADD PUSH2 0x97A SWAP1 PUSH2 0x1D0C JUMP JUMPDEST PUSH1 0x40 MLOAD DUP1 SWAP2 SUB SWAP1 REVERT JUMPDEST PUSH0 PUSH1 0x6 PUSH0 CALLER PUSH20 0xFFFFFFFFFFFFFFFFFFFFFFFFFFFFFFFFFFFFFFFF AND PUSH20 0xFFFFFFFFFFFFFFFFFFFFFFFFFFFFFFFFFFFFFFFF AND DUP2 MSTORE PUSH1 0x20 ADD SWAP1 DUP2 MSTORE PUSH1 0x20 ADD PUSH0 KECCAK256 PUSH0 ADD SLOAD SWAP1 POP PUSH0 DUP2 GT PUSH2 0xA08 JUMPI PUSH1 0x40 MLOAD PUSH32 0x8C379A000000000000000000000000000000000000000000000000000000000 DUP2 MSTORE PUSH1 0x4 ADD PUSH2 0x9FF SWAP1 PUSH2 0x1D74 JUMP JUMPDEST PUSH1 0x40 MLOAD DUP1 SWAP2 SUB SWAP1 REVERT JUMPDEST PUSH0 PUSH1 0x6 PUSH0 CALLER PUSH20 0xFFFFFFFFFFFFFFFFFFFFFFFFFFFFFFFFFFFFFFFF AND PUSH20 0xFFFFFFFFFFFFFFFFFFFFFFFFFFFFFFFFFFFFFFFF AND DUP2 MSTORE PUSH1 0x20 ADD SWAP1 DUP2 MSTORE PUSH1 0x20 ADD PUSH0 KECCAK256 PUSH0 ADD DUP2 SWAP1 SSTORE POP CALLER PUSH20 0xFFFFFFFFFFFFFFFFFFFFFFFFFFFFFFFFFFFFFFFF AND PUSH2 0x8FC DUP3 SWAP1 DUP2 ISZERO MUL SWAP1 PUSH1 0x40 MLOAD PUSH0 PUSH1 0x40 MLOAD DUP1 DUP4 SUB DUP2 DUP6 DUP9 DUP9 CALL SWAP4 POP POP POP POP ISZERO DUP1 ISZERO PUSH2 0xA8F JUMPI RETURNDATASIZE PUSH0 PUSH0 RETURNDATACOPY RETURNDATASIZE PUSH0 REVERT JUMPDEST POP POP JUMP JUMPDEST PUSH1 0x4 PUSH1 0x14 SWAP1 SLOAD SWAP1 PUSH2 0x100 EXP SWAP1 DIV PUSH1 0xFF AND DUP2 JUMP JUMPDEST PUSH0 SELFBALANCE SWAP1 POP SWAP1 JUMP JUMPDEST PUSH1 0x1 DUP1 SLOAD PUSH2 0xABA SWAP1 PUSH2 0x1A51 JUMP JUMPDEST DUP1 PUSH1 0x1F ADD PUSH1 0x20 DUP1 SWAP2 DIV MUL PUSH1 0x20 ADD PUSH1 0x40 MLOAD SWAP1 DUP2 ADD PUSH1 0x40 MSTORE DUP1 SWAP3 SWAP2 SWAP1 DUP2 DUP2 MSTORE PUSH1 0x20 ADD DUP3 DUP1 SLOAD PUSH2 0xAE6 SWAP1 PUSH2 0x1A51 JUMP JUMPDEST DUP1 ISZERO PUSH2 0xB31 JUMPI DUP1 PUSH1 0x1F LT PUSH2 0xB08 JUMPI PUSH2 0x100 DUP1 DUP4 SLOAD DIV MUL DUP4 MSTORE SWAP2 PUSH1 0x20 ADD SWAP2 PUSH2 0xB31 JUMP JUMPDEST DUP3 ADD SWAP2 SWAP1 PUSH0 MSTORE PUSH1 0x20 PUSH0 KECCAK256 SWAP1 JUMPDEST DUP2 SLOAD DUP2 MSTORE SWAP1 PUSH1 0x1 ADD SWAP1 PUSH1 0x20 ADD DUP1 DUP4 GT PUSH2 0xB14 JUMPI DUP3 SWAP1 SUB PUSH1 0x1F AND DUP3 ADD SWAP2 JUMPDEST POP POP POP POP POP DUP2 JUMP JUMPDEST PUSH1 0x4 PUSH0 SWAP1 SLOAD SWAP1 PUSH2 0x100 EXP SWAP1 DIV PUSH20 0xFFFFFFFFFFFFFFFFFFFFFFFFFFFFFFFFFFFFFFFF AND PUSH20 0xFFFFFFFFFFFFFFFFFFFFFFFFFFFFFFFFFFFFFFFF AND CALLER PUSH20 0xFFFFFFFFFFFFFFFFFFFFFFFFFFFFFFFFFFFFFFFF AND EQ PUSH2 0xBC8 JUMPI PUSH1 0x40 MLOAD PUSH32 0x8C379A000000000000000000000000000000000000000000000000000000000 DUP2 MSTORE PUSH1 0x4 ADD PUSH2 0xBBF SWAP1 PUSH2 0x1ACB JUMP JUMPDEST PUSH1 0x40 MLOAD DUP1 SWAP2 SUB SWAP1 REVERT JUMPDEST PUSH1 0x5 DUP1 SLOAD SWAP1 POP DUP2 LT PUSH2 0xC0F JUMPI PUSH1 0x40 MLOAD PUSH32 0x8C379A000000000000000000000000000000000000000000000000000000000 DUP2 MSTORE PUSH1 0x4 ADD PUSH2 0xC06 SWAP1 PUSH2 0x1DDC JUMP JUMPDEST PUSH1 0x40 MLOAD DUP1 SWAP2 SUB SWAP1 REVERT JUMPDEST PUSH1 0x5 PUSH1 0x1 PUSH1 0x5 DUP1 SLOAD SWAP1 POP PUSH2 0xC23 SWAP2 SWAP1 PUSH2 0x1DFA JUMP JUMPDEST DUP2 SLOAD DUP2 LT PUSH2 0xC34 JUMPI PUSH2 0xC33 PUSH2 0x1E2D JUMP JUMPDEST JUMPDEST SWAP1 PUSH0 MSTORE PUSH1 0x20 PUSH0 KECCAK256 SWAP1 PUSH1 0x3 MUL ADD PUSH1 0x5 DUP3 DUP2 SLOAD DUP2 LT PUSH2 0xC54 JUMPI PUSH2 0xC53 PUSH2 0x1E2D JUMP JUMPDEST JUMPDEST SWAP1 PUSH0 MSTORE PUSH1 0x20 PUSH0 KECCAK256 SWAP1 PUSH1 0x3 MUL ADD PUSH0 DUP3 ADD DUP2 PUSH0 ADD SWAP1 DUP2 PUSH2 0xC72 SWAP2 SWAP1 PUSH2 0x200F JUMP JUMPDEST POP PUSH1 0x1 DUP3 ADD SLOAD DUP2 PUSH1 0x1 ADD SSTORE PUSH1 0x2 DUP3 ADD SLOAD DUP2 PUSH1 0x2 ADD SSTORE SWAP1 POP POP PUSH1 0x5 DUP1 SLOAD DUP1 PUSH2 0xC9C JUMPI PUSH2 0xC9B PUSH2 0x20F4 JUMP JUMPDEST JUMPDEST PUSH1 0x1 SWAP1 SUB DUP2 DUP2 SWAP1 PUSH0 MSTORE PUSH1 0x20 PUSH0 KECCAK256 SWAP1 PUSH1 0x3 MUL ADD PUSH0 PUSH0 DUP3 ADD PUSH0 PUSH2 0xCBD SWAP2 SWAP1 PUSH2 0x13BA JUMP JUMPDEST PUSH1 0x1 DUP3 ADD PUSH0 SWAP1 SSTORE PUSH1 0x2 DUP3 ADD PUSH0 SWAP1 SSTORE POP POP SWAP1 SSTORE POP JUMP JUMPDEST PUSH0 PUSH1 0x6 PUSH0 DUP5 PUSH20 0xFFFFFFFFFFFFFFFFFFFFFFFFFFFFFFFFFFFFFFFF AND PUSH20 0xFFFFFFFFFFFFFFFFFFFFFFFFFFFFFFFFFFFFFFFF AND DUP2 MSTORE PUSH1 0x20 ADD SWAP1 DUP2 MSTORE PUSH1 0x20 ADD PUSH0 KECCAK256 PUSH1 0x1 ADD PUSH0 DUP4 DUP2 MSTORE PUSH1 0x20 ADD SWAP1 DUP2 MSTORE PUSH1 0x20 ADD PUSH0 KECCAK256 PUSH0 SWAP1 SLOAD SWAP1 PUSH2 0x100 EXP SWAP1 DIV PUSH1 0xFF AND SWAP1 POP SWAP3 SWAP2 POP POP JUMP JUMPDEST PUSH1 0x4 PUSH0 SWAP1 SLOAD SWAP1 PUSH2 0x100 EXP SWAP1 DIV PUSH20 0xFFFFFFFFFFFFFFFFFFFFFFFFFFFFFFFFFFFFFFFF AND DUP2 JUMP JUMPDEST PUSH1 0x4 PUSH0 SWAP1 SLOAD SWAP1 PUSH2 0x100 EXP SWAP1 DIV PUSH20 0xFFFFFFFFFFFFFFFFFFFFFFFFFFFFFFFFFFFFFFFF AND PUSH20 0xFFFFFFFFFFFFFFFFFFFFFFFFFFFFFFFFFFFFFFFF AND CALLER PUSH20 0xFFFFFFFFFFFFFFFFFFFFFFFFFFFFFFFFFFFFFFFF AND EQ PUSH2 0xDEB JUMPI PUSH1 0x40 MLOAD PUSH32 0x8C379A000000000000000000000000000000000000000000000000000000000 DUP2 MSTORE PUSH1 0x4 ADD PUSH2 0xDE2 SWAP1 PUSH2 0x1ACB JUMP JUMPDEST PUSH1 0x40 MLOAD DUP1 SWAP2 SUB SWAP1 REVERT JUMPDEST PUSH0 DUP2 GT PUSH2 0xE2D JUMPI PUSH1 0x40 MLOAD PUSH32 0x8C379A000000000000000000000000000000000000000000000000000000000 DUP2 MSTORE PUSH1 0x4 ADD PUSH2 0xE24 SWAP1 PUSH2 0x216B JUMP JUMPDEST PUSH1 0x40 MLOAD DUP1 SWAP2 SUB SWAP1 REVERT JUMPDEST PUSH1 0x5 PUSH1 0x40 MLOAD DUP1 PUSH1 0x60 ADD PUSH1 0x40 MSTORE DUP1 DUP5 DUP2 MSTORE PUSH1 0x20 ADD DUP4 DUP2 MSTORE PUSH1 0x20 ADD PUSH0 DUP2 MSTORE POP SWAP1 DUP1 PUSH1 0x1 DUP2 SLOAD ADD DUP1 DUP3 SSTORE DUP1 SWAP2 POP POP PUSH1 0x1 SWAP1 SUB SWAP1 PUSH0 MSTORE PUSH1 0x20 PUSH0 KECCAK256 SWAP1 PUSH1 0x3 MUL ADD PUSH0 SWAP1 SWAP2 SWAP1 SWAP2 SWAP1 SWAP2 POP PUSH0 DUP3 ADD MLOAD DUP2 PUSH0 ADD SWAP1 DUP2 PUSH2 0xE83 SWAP2 SWAP1 PUSH2 0x2189 JUMP JUMPDEST POP PUSH1 0x20 DUP3 ADD MLOAD DUP2 PUSH1 0x1 ADD SSTORE PUSH1 0x40 DUP3 ADD MLOAD DUP2 PUSH1 0x2 ADD SSTORE POP POP POP POP JUMP JUMPDEST PUSH1 0x6 PUSH1 0x20 MSTORE DUP1 PUSH0 MSTORE PUSH1 0x40 PUSH0 KECCAK256 PUSH0 SWAP2 POP SWAP1 POP DUP1 PUSH0 ADD SLOAD SWAP1 POP DUP2 JUMP JUMPDEST PUSH1 0x4 PUSH1 0x15 SWAP1 SLOAD SWAP1 PUSH2 0x100 EXP SWAP1 DIV PUSH1 0xFF AND DUP2 JUMP JUMPDEST PUSH1 0x4 PUSH0 SWAP1 SLOAD SWAP1 PUSH2 0x100 EXP SWAP1 DIV PUSH20 0xFFFFFFFFFFFFFFFFFFFFFFFFFFFFFFFFFFFFFFFF AND PUSH20 0xFFFFFFFFFFFFFFFFFFFFFFFFFFFFFFFFFFFFFFFF AND CALLER PUSH20 0xFFFFFFFFFFFFFFFFFFFFFFFFFFFFFFFFFFFFFFFF AND EQ PUSH2 0xF5A JUMPI PUSH1 0x40 MLOAD PUSH32 0x8C379A000000000000000000000000000000000000000000000000000000000 DUP2 MSTORE PUSH1 0x4 ADD PUSH2 0xF51 SWAP1 PUSH2 0x1ACB JUMP JUMPDEST PUSH1 0x40 MLOAD DUP1 SWAP2 SUB SWAP1 REVERT JUMPDEST PUSH1 0x4 PUSH1 0x14 SWAP1 SLOAD SWAP1 PUSH2 0x100 EXP SWAP1 DIV PUSH1 0xFF AND ISZERO PUSH1 0x4 PUSH1 0x14 PUSH2 0x100 EXP DUP2 SLOAD DUP2 PUSH1 0xFF MUL NOT AND SWAP1 DUP4 ISZERO ISZERO MUL OR SWAP1 SSTORE POP JUMP JUMPDEST PUSH0 PUSH1 0x2 DUP2 GT ISZERO PUSH2 0xF99 JUMPI PUSH2 0xF98 PUSH2 0x155C JUMP JUMPDEST JUMPDEST PUSH1 0x4 PUSH1 0x15 SWAP1 SLOAD SWAP1 PUSH2 0x100 EXP SWAP1 DIV PUSH1 0xFF AND PUSH1 0x2 DUP2 GT ISZERO PUSH2 0xFBB JUMPI PUSH2 0xFBA PUSH2 0x155C JUMP JUMPDEST JUMPDEST EQ PUSH2 0xFFB JUMPI PUSH1 0x40 MLOAD PUSH32 0x8C379A000000000000000000000000000000000000000000000000000000000 DUP2 MSTORE PUSH1 0x4 ADD PUSH2 0xFF2 SWAP1 PUSH2 0x1B33 JUMP JUMPDEST PUSH1 0x40 MLOAD DUP1 SWAP2 SUB SWAP1 REVERT JUMPDEST PUSH1 0x4 PUSH1 0x14 SWAP1 SLOAD SWAP1 PUSH2 0x100 EXP SWAP1 DIV PUSH1 0xFF AND ISZERO PUSH2 0x104B JUMPI PUSH1 0x40 MLOAD PUSH32 0x8C379A000000000000000000000000000000000000000000000000000000000 DUP2 MSTORE PUSH1 0x4 ADD PUSH2 0x1042 SWAP1 PUSH2 0x22A2 JUMP JUMPDEST PUSH1 0x40 MLOAD DUP1 SWAP2 SUB SWAP1 REVERT JUMPDEST PUSH1 0x5 DUP1 SLOAD SWAP1 POP DUP2 LT PUSH2 0x1092 JUMPI PUSH1 0x40 MLOAD PUSH32 0x8C379A000000000000000000000000000000000000000000000000000000000 DUP2 MSTORE PUSH1 0x4 ADD PUSH2 0x1089 SWAP1 PUSH2 0x1DDC JUMP JUMPDEST PUSH1 0x40 MLOAD DUP1 SWAP2 SUB SWAP1 REVERT JUMPDEST PUSH1 0x5 DUP2 DUP2 SLOAD DUP2 LT PUSH2 0x10A6 JUMPI PUSH2 0x10A5 PUSH2 0x1E2D JUMP JUMPDEST JUMPDEST SWAP1 PUSH0 MSTORE PUSH1 0x20 PUSH0 KECCAK256 SWAP1 PUSH1 0x3 MUL ADD PUSH1 0x1 ADD SLOAD CALLVALUE EQ PUSH2 0x10F7 JUMPI PUSH1 0x40 MLOAD PUSH32 0x8C379A000000000000000000000000000000000000000000000000000000000 DUP2 MSTORE PUSH1 0x4 ADD PUSH2 0x10EE SWAP1 PUSH2 0x230A JUMP JUMPDEST PUSH1 0x40 MLOAD DUP1 SWAP2 SUB SWAP1 REVERT JUMPDEST PUSH1 0x5 DUP2 DUP2 SLOAD DUP2 LT PUSH2 0x110B JUMPI PUSH2 0x110A PUSH2 0x1E2D JUMP JUMPDEST JUMPDEST SWAP1 PUSH0 MSTORE PUSH1 0x20 PUSH0 KECCAK256 SWAP1 PUSH1 0x3 MUL ADD PUSH1 0x2 ADD PUSH0 DUP2 SLOAD DUP1 SWAP3 SWAP2 SWAP1 PUSH2 0x112A SWAP1 PUSH2 0x2328 JUMP JUMPDEST SWAP2 SWAP1 POP SSTORE POP CALLVALUE PUSH1 0x6 PUSH0 CALLER PUSH20 0xFFFFFFFFFFFFFFFFFFFFFFFFFFFFFFFFFFFFFFFF AND PUSH20 0xFFFFFFFFFFFFFFFFFFFFFFFFFFFFFFFFFFFFFFFF AND DUP2 MSTORE PUSH1 0x20 ADD SWAP1 DUP2 MSTORE PUSH1 0x20 ADD PUSH0 KECCAK256 PUSH0 ADD PUSH0 DUP3 DUP3 SLOAD PUSH2 0x117D SWAP2 SWAP1 PUSH2 0x1BBF JUMP JUMPDEST SWAP3 POP POP DUP2 SWAP1 SSTORE POP PUSH1 0x1 PUSH1 0x6 PUSH0 CALLER PUSH20 0xFFFFFFFFFFFFFFFFFFFFFFFFFFFFFFFFFFFFFFFF AND PUSH20 0xFFFFFFFFFFFFFFFFFFFFFFFFFFFFFFFFFFFFFFFF AND DUP2 MSTORE PUSH1 0x20 ADD SWAP1 DUP2 MSTORE PUSH1 0x20 ADD PUSH0 KECCAK256 PUSH1 0x1 ADD PUSH0 DUP4 DUP2 MSTORE PUSH1 0x20 ADD SWAP1 DUP2 MSTORE PUSH1 0x20 ADD PUSH0 KECCAK256 PUSH0 PUSH2 0x100 EXP DUP2 SLOAD DUP2 PUSH1 0xFF MUL NOT AND SWAP1 DUP4 ISZERO ISZERO MUL OR SWAP1 SSTORE POP PUSH2 0x11F3 PUSH2 0x12F5 JUMP JUMPDEST POP JUMP JUMPDEST PUSH1 0x60 PUSH1 0x5 DUP1 SLOAD DUP1 PUSH1 0x20 MUL PUSH1 0x20 ADD PUSH1 0x40 MLOAD SWAP1 DUP2 ADD PUSH1 0x40 MSTORE DUP1 SWAP3 SWAP2 SWAP1 DUP2 DUP2 MSTORE PUSH1 0x20 ADD PUSH0 SWAP1 JUMPDEST DUP3 DUP3 LT ISZERO PUSH2 0x12EC JUMPI DUP4 DUP3 SWAP1 PUSH0 MSTORE PUSH1 0x20 PUSH0 KECCAK256 SWAP1 PUSH1 0x3 MUL ADD PUSH1 0x40 MLOAD DUP1 PUSH1 0x60 ADD PUSH1 0x40 MSTORE SWAP1 DUP2 PUSH0 DUP3 ADD DUP1 SLOAD PUSH2 0x1249 SWAP1 PUSH2 0x1A51 JUMP JUMPDEST DUP1 PUSH1 0x1F ADD PUSH1 0x20 DUP1 SWAP2 DIV MUL PUSH1 0x20 ADD PUSH1 0x40 MLOAD SWAP1 DUP2 ADD PUSH1 0x40 MSTORE DUP1 SWAP3 SWAP2 SWAP1 DUP2 DUP2 MSTORE PUSH1 0x20 ADD DUP3 DUP1 SLOAD PUSH2 0x1275 SWAP1 PUSH2 0x1A51 JUMP JUMPDEST DUP1 ISZERO PUSH2 0x12C0 JUMPI DUP1 PUSH1 0x1F LT PUSH2 0x1297 JUMPI PUSH2 0x100 DUP1 DUP4 SLOAD DIV MUL DUP4 MSTORE SWAP2 PUSH1 0x20 ADD SWAP2 PUSH2 0x12C0 JUMP JUMPDEST DUP3 ADD SWAP2 SWAP1 PUSH0 MSTORE PUSH1 0x20 PUSH0 KECCAK256 SWAP1 JUMPDEST DUP2 SLOAD DUP2 MSTORE SWAP1 PUSH1 0x1 ADD SWAP1 PUSH1 0x20 ADD DUP1 DUP4 GT PUSH2 0x12A3 JUMPI DUP3 SWAP1 SUB PUSH1 0x1F AND DUP3 ADD SWAP2 JUMPDEST POP POP POP POP POP DUP2 MSTORE PUSH1 0x20 ADD PUSH1 0x1 DUP3 ADD SLOAD DUP2 MSTORE PUSH1 0x20 ADD PUSH1 0x2 DUP3 ADD SLOAD DUP2 MSTORE POP POP DUP2 MSTORE PUSH1 0x20 ADD SWAP1 PUSH1 0x1 ADD SWAP1 PUSH2 0x1219 JUMP JUMPDEST POP POP POP POP SWAP1 POP SWAP1 JUMP JUMPDEST PUSH0 PUSH1 0x2 DUP2 GT ISZERO PUSH2 0x1308 JUMPI PUSH2 0x1307 PUSH2 0x155C JUMP JUMPDEST JUMPDEST PUSH1 0x4 PUSH1 0x15 SWAP1 SLOAD SWAP1 PUSH2 0x100 EXP SWAP1 DIV PUSH1 0xFF AND PUSH1 0x2 DUP2 GT ISZERO PUSH2 0x132A JUMPI PUSH2 0x1329 PUSH2 0x155C JUMP JUMPDEST JUMPDEST SUB PUSH2 0x13B8 JUMPI PUSH1 0x3 SLOAD TIMESTAMP LT PUSH2 0x137A JUMPI PUSH1 0x2 SLOAD SELFBALANCE LT ISZERO PUSH2 0x1349 JUMPI PUSH1 0x2 PUSH2 0x134C JUMP JUMPDEST PUSH1 0x1 JUMPDEST PUSH1 0x4 PUSH1 0x15 PUSH2 0x100 EXP DUP2 SLOAD DUP2 PUSH1 0xFF MUL NOT AND SWAP1 DUP4 PUSH1 0x2 DUP2 GT ISZERO PUSH2 0x1370 JUMPI PUSH2 0x136F PUSH2 0x155C JUMP JUMPDEST JUMPDEST MUL OR SWAP1 SSTORE POP PUSH2 0x13B7 JUMP JUMPDEST PUSH1 0x2 SLOAD SELFBALANCE LT ISZERO PUSH2 0x138A JUMPI PUSH0 PUSH2 0x138D JUMP JUMPDEST PUSH1 0x1 JUMPDEST PUSH1 0x4 PUSH1 0x15 PUSH2 0x100 EXP DUP2 SLOAD DUP2 PUSH1 0xFF MUL NOT AND SWAP1 DUP4 PUSH1 0x2 DUP2 GT ISZERO PUSH2 0x13B1 JUMPI PUSH2 0x13B0 PUSH2 0x155C JUMP JUMPDEST JUMPDEST MUL OR SWAP1 SSTORE POP JUMPDEST JUMPDEST JUMP JUMPDEST POP DUP1 SLOAD PUSH2 0x13C6 SWAP1 PUSH2 0x1A51 JUMP JUMPDEST PUSH0 DUP3 SSTORE DUP1 PUSH1 0x1F LT PUSH2 0x13D7 JUMPI POP PUSH2 0x13F4 JUMP JUMPDEST PUSH1 0x1F ADD PUSH1 0x20 SWAP1 DIV SWAP1 PUSH0 MSTORE PUSH1 0x20 PUSH0 KECCAK256 SWAP1 DUP2 ADD SWAP1 PUSH2 0x13F3 SWAP2 SWAP1 PUSH2 0x13F7 JUMP JUMPDEST JUMPDEST POP JUMP JUMPDEST JUMPDEST DUP1 DUP3 GT ISZERO PUSH2 0x140E JUMPI PUSH0 DUP2 PUSH0 SWAP1 SSTORE POP PUSH1 0x1 ADD PUSH2 0x13F8 JUMP JUMPDEST POP SWAP1 JUMP JUMPDEST PUSH0 PUSH1 0x40 MLOAD SWAP1 POP SWAP1 JUMP JUMPDEST PUSH0 PUSH0 REVERT JUMPDEST PUSH0 PUSH0 REVERT JUMPDEST PUSH0 DUP2 SWAP1 POP SWAP2 SWAP1 POP JUMP JUMPDEST PUSH2 0x1435 DUP2 PUSH2 0x1423 JUMP JUMPDEST DUP2 EQ PUSH2 0x143F JUMPI PUSH0 PUSH0 REVERT JUMPDEST POP JUMP JUMPDEST PUSH0 DUP2 CALLDATALOAD SWAP1 POP PUSH2 0x1450 DUP2 PUSH2 0x142C JUMP JUMPDEST SWAP3 SWAP2 POP POP JUMP JUMPDEST PUSH0 PUSH1 0x20 DUP3 DUP5 SUB SLT ISZERO PUSH2 0x146B JUMPI PUSH2 0x146A PUSH2 0x141B JUMP JUMPDEST JUMPDEST PUSH0 PUSH2 0x1478 DUP5 DUP3 DUP6 ADD PUSH2 0x1442 JUMP JUMPDEST SWAP2 POP POP SWAP3 SWAP2 POP POP JUMP JUMPDEST PUSH0 DUP2 MLOAD SWAP1 POP SWAP2 SWAP1 POP JUMP JUMPDEST PUSH0 DUP3 DUP3 MSTORE PUSH1 0x20 DUP3 ADD SWAP1 POP SWAP3 SWAP2 POP POP JUMP JUMPDEST DUP3 DUP2 DUP4 MCOPY PUSH0 DUP4 DUP4 ADD MSTORE POP POP POP JUMP JUMPDEST PUSH0 PUSH1 0x1F NOT PUSH1 0x1F DUP4 ADD AND SWAP1 POP SWAP2 SWAP1 POP JUMP JUMPDEST PUSH0 PUSH2 0x14C3 DUP3 PUSH2 0x1481 JUMP JUMPDEST PUSH2 0x14CD DUP2 DUP6 PUSH2 0x148B JUMP JUMPDEST SWAP4 POP PUSH2 0x14DD DUP2 DUP6 PUSH1 0x20 DUP7 ADD PUSH2 0x149B JUMP JUMPDEST PUSH2 0x14E6 DUP2 PUSH2 0x14A9 JUMP JUMPDEST DUP5 ADD SWAP2 POP POP SWAP3 SWAP2 POP POP JUMP JUMPDEST PUSH2 0x14FA DUP2 PUSH2 0x1423 JUMP JUMPDEST DUP3 MSTORE POP POP JUMP JUMPDEST PUSH0 PUSH1 0x60 DUP3 ADD SWAP1 POP DUP2 DUP2 SUB PUSH0 DUP4 ADD MSTORE PUSH2 0x1518 DUP2 DUP7 PUSH2 0x14B9 JUMP JUMPDEST SWAP1 POP PUSH2 0x1527 PUSH1 0x20 DUP4 ADD DUP6 PUSH2 0x14F1 JUMP JUMPDEST PUSH2 0x1534 PUSH1 0x40 DUP4 ADD DUP5 PUSH2 0x14F1 JUMP JUMPDEST SWAP5 SWAP4 POP POP POP POP JUMP JUMPDEST PUSH0 PUSH1 0x20 DUP3 ADD SWAP1 POP DUP2 DUP2 SUB PUSH0 DUP4 ADD MSTORE PUSH2 0x1554 DUP2 DUP5 PUSH2 0x14B9 JUMP JUMPDEST SWAP1 POP SWAP3 SWAP2 POP POP JUMP JUMPDEST PUSH32 0x4E487B7100000000000000000000000000000000000000000000000000000000 PUSH0 MSTORE PUSH1 0x21 PUSH1 0x4 MSTORE PUSH1 0x24 PUSH0 REVERT JUMPDEST PUSH1 0x3 DUP2 LT PUSH2 0x159A JUMPI PUSH2 0x1599 PUSH2 0x155C JUMP JUMPDEST JUMPDEST POP JUMP JUMPDEST PUSH0 DUP2 SWAP1 POP PUSH2 0x15AA DUP3 PUSH2 0x1589 JUMP JUMPDEST SWAP2 SWAP1 POP JUMP JUMPDEST PUSH0 PUSH2 0x15B9 DUP3 PUSH2 0x159D JUMP JUMPDEST SWAP1 POP SWAP2 SWAP1 POP JUMP JUMPDEST PUSH2 0x15C9 DUP2 PUSH2 0x15AF JUMP JUMPDEST DUP3 MSTORE POP POP JUMP JUMPDEST PUSH0 PUSH1 0x20 DUP3 ADD SWAP1 POP PUSH2 0x15E2 PUSH0 DUP4 ADD DUP5 PUSH2 0x15C0 JUMP JUMPDEST SWAP3 SWAP2 POP POP JUMP JUMPDEST PUSH0 PUSH1 0x20 DUP3 ADD SWAP1 POP PUSH2 0x15FB PUSH0 DUP4 ADD DUP5 PUSH2 0x14F1 JUMP JUMPDEST SWAP3 SWAP2 POP POP JUMP JUMPDEST PUSH0 DUP2 ISZERO ISZERO SWAP1 POP SWAP2 SWAP1 POP JUMP JUMPDEST PUSH2 0x1615 DUP2 PUSH2 0x1601 JUMP JUMPDEST DUP3 MSTORE POP POP JUMP JUMPDEST PUSH0 PUSH1 0x20 DUP3 ADD SWAP1 POP PUSH2 0x162E PUSH0 DUP4 ADD DUP5 PUSH2 0x160C JUMP JUMPDEST SWAP3 SWAP2 POP POP JUMP JUMPDEST PUSH0 PUSH20 0xFFFFFFFFFFFFFFFFFFFFFFFFFFFFFFFFFFFFFFFF DUP3 AND SWAP1 POP SWAP2 SWAP1 POP JUMP JUMPDEST PUSH0 PUSH2 0x165D DUP3 PUSH2 0x1634 JUMP JUMPDEST SWAP1 POP SWAP2 SWAP1 POP JUMP JUMPDEST PUSH2 0x166D DUP2 PUSH2 0x1653 JUMP JUMPDEST DUP2 EQ PUSH2 0x1677 JUMPI PUSH0 PUSH0 REVERT JUMPDEST POP JUMP JUMPDEST PUSH0 DUP2 CALLDATALOAD SWAP1 POP PUSH2 0x1688 DUP2 PUSH2 0x1664 JUMP JUMPDEST SWAP3 SWAP2 POP POP JUMP JUMPDEST PUSH0 PUSH0 PUSH1 0x40 DUP4 DUP6 SUB SLT ISZERO PUSH2 0x16A4 JUMPI PUSH2 0x16A3 PUSH2 0x141B JUMP JUMPDEST JUMPDEST PUSH0 PUSH2 0x16B1 DUP6 DUP3 DUP7 ADD PUSH2 0x167A JUMP JUMPDEST SWAP3 POP POP PUSH1 0x20 PUSH2 0x16C2 DUP6 DUP3 DUP7 ADD PUSH2 0x1442 JUMP JUMPDEST SWAP2 POP POP SWAP3 POP SWAP3 SWAP1 POP JUMP JUMPDEST PUSH2 0x16D5 DUP2 PUSH2 0x1653 JUMP JUMPDEST DUP3 MSTORE POP POP JUMP JUMPDEST PUSH0 PUSH1 0x20 DUP3 ADD SWAP1 POP PUSH2 0x16EE PUSH0 DUP4 ADD DUP5 PUSH2 0x16CC JUMP JUMPDEST SWAP3 SWAP2 POP POP JUMP JUMPDEST PUSH0 PUSH0 REVERT JUMPDEST PUSH0 PUSH0 REVERT JUMPDEST PUSH32 0x4E487B7100000000000000000000000000000000000000000000000000000000 PUSH0 MSTORE PUSH1 0x41 PUSH1 0x4 MSTORE PUSH1 0x24 PUSH0 REVERT JUMPDEST PUSH2 0x1732 DUP3 PUSH2 0x14A9 JUMP JUMPDEST DUP2 ADD DUP2 DUP2 LT PUSH8 0xFFFFFFFFFFFFFFFF DUP3 GT OR ISZERO PUSH2 0x1751 JUMPI PUSH2 0x1750 PUSH2 0x16FC JUMP JUMPDEST JUMPDEST DUP1 PUSH1 0x40 MSTORE POP POP POP JUMP JUMPDEST PUSH0 PUSH2 0x1763 PUSH2 0x1412 JUMP JUMPDEST SWAP1 POP PUSH2 0x176F DUP3 DUP3 PUSH2 0x1729 JUMP JUMPDEST SWAP2 SWAP1 POP JUMP JUMPDEST PUSH0 PUSH8 0xFFFFFFFFFFFFFFFF DUP3 GT ISZERO PUSH2 0x178E JUMPI PUSH2 0x178D PUSH2 0x16FC JUMP JUMPDEST JUMPDEST PUSH2 0x1797 DUP3 PUSH2 0x14A9 JUMP JUMPDEST SWAP1 POP PUSH1 0x20 DUP2 ADD SWAP1 POP SWAP2 SWAP1 POP JUMP JUMPDEST DUP3 DUP2 DUP4 CALLDATACOPY PUSH0 DUP4 DUP4 ADD MSTORE POP POP POP JUMP JUMPDEST PUSH0 PUSH2 0x17C4 PUSH2 0x17BF DUP5 PUSH2 0x1774 JUMP JUMPDEST PUSH2 0x175A JUMP JUMPDEST SWAP1 POP DUP3 DUP2 MSTORE PUSH1 0x20 DUP2 ADD DUP5 DUP5 DUP5 ADD GT ISZERO PUSH2 0x17E0 JUMPI PUSH2 0x17DF PUSH2 0x16F8 JUMP JUMPDEST JUMPDEST PUSH2 0x17EB DUP5 DUP3 DUP6 PUSH2 0x17A4 JUMP JUMPDEST POP SWAP4 SWAP3 POP POP POP JUMP JUMPDEST PUSH0 DUP3 PUSH1 0x1F DUP4 ADD SLT PUSH2 0x1807 JUMPI PUSH2 0x1806 PUSH2 0x16F4 JUMP JUMPDEST JUMPDEST DUP2 CALLDATALOAD PUSH2 0x1817 DUP5 DUP3 PUSH1 0x20 DUP7 ADD PUSH2 0x17B2 JUMP JUMPDEST SWAP2 POP POP SWAP3 SWAP2 POP POP JUMP JUMPDEST PUSH0 PUSH0 PUSH1 0x40 DUP4 DUP6 SUB SLT ISZERO PUSH2 0x1836 JUMPI PUSH2 0x1835 PUSH2 0x141B JUMP JUMPDEST JUMPDEST PUSH0 DUP4 ADD CALLDATALOAD PUSH8 0xFFFFFFFFFFFFFFFF DUP2 GT ISZERO PUSH2 0x1853 JUMPI PUSH2 0x1852 PUSH2 0x141F JUMP JUMPDEST JUMPDEST PUSH2 0x185F DUP6 DUP3 DUP7 ADD PUSH2 0x17F3 JUMP JUMPDEST SWAP3 POP POP PUSH1 0x20 PUSH2 0x1870 DUP6 DUP3 DUP7 ADD PUSH2 0x1442 JUMP JUMPDEST SWAP2 POP POP SWAP3 POP SWAP3 SWAP1 POP JUMP JUMPDEST PUSH0 PUSH1 0x20 DUP3 DUP5 SUB SLT ISZERO PUSH2 0x188F JUMPI PUSH2 0x188E PUSH2 0x141B JUMP JUMPDEST JUMPDEST PUSH0 PUSH2 0x189C DUP5 DUP3 DUP6 ADD PUSH2 0x167A JUMP JUMPDEST SWAP2 POP POP SWAP3 SWAP2 POP POP JUMP JUMPDEST PUSH0 DUP2 MLOAD SWAP1 POP SWAP2 SWAP1 POP JUMP JUMPDEST PUSH0 DUP3 DUP3 MSTORE PUSH1 0x20 DUP3 ADD SWAP1 POP SWAP3 SWAP2 POP POP JUMP JUMPDEST PUSH0 DUP2 SWAP1 POP PUSH1 0x20 DUP3 ADD SWAP1 POP SWAP2 SWAP1 POP JUMP JUMPDEST PUSH0 DUP3 DUP3 MSTORE PUSH1 0x20 DUP3 ADD SWAP1 POP SWAP3 SWAP2 POP POP JUMP JUMPDEST PUSH0 PUSH2 0x18E8 DUP3 PUSH2 0x1481 JUMP JUMPDEST PUSH2 0x18F2 DUP2 DUP6 PUSH2 0x18CE JUMP JUMPDEST SWAP4 POP PUSH2 0x1902 DUP2 DUP6 PUSH1 0x20 DUP7 ADD PUSH2 0x149B JUMP JUMPDEST PUSH2 0x190B DUP2 PUSH2 0x14A9 JUMP JUMPDEST DUP5 ADD SWAP2 POP POP SWAP3 SWAP2 POP POP JUMP JUMPDEST PUSH2 0x191F DUP2 PUSH2 0x1423 JUMP JUMPDEST DUP3 MSTORE POP POP JUMP JUMPDEST PUSH0 PUSH1 0x60 DUP4 ADD PUSH0 DUP4 ADD MLOAD DUP5 DUP3 SUB PUSH0 DUP7 ADD MSTORE PUSH2 0x193F DUP3 DUP3 PUSH2 0x18DE JUMP JUMPDEST SWAP2 POP POP PUSH1 0x20 DUP4 ADD MLOAD PUSH2 0x1954 PUSH1 0x20 DUP7 ADD DUP3 PUSH2 0x1916 JUMP JUMPDEST POP PUSH1 0x40 DUP4 ADD MLOAD PUSH2 0x1967 PUSH1 0x40 DUP7 ADD DUP3 PUSH2 0x1916 JUMP JUMPDEST POP DUP1 SWAP2 POP POP SWAP3 SWAP2 POP POP JUMP JUMPDEST PUSH0 PUSH2 0x197D DUP4 DUP4 PUSH2 0x1925 JUMP JUMPDEST SWAP1 POP SWAP3 SWAP2 POP POP JUMP JUMPDEST PUSH0 PUSH1 0x20 DUP3 ADD SWAP1 POP SWAP2 SWAP1 POP JUMP JUMPDEST PUSH0 PUSH2 0x199B DUP3 PUSH2 0x18A5 JUMP JUMPDEST PUSH2 0x19A5 DUP2 DUP6 PUSH2 0x18AF JUMP JUMPDEST SWAP4 POP DUP4 PUSH1 0x20 DUP3 MUL DUP6 ADD PUSH2 0x19B7 DUP6 PUSH2 0x18BF JUMP JUMPDEST DUP1 PUSH0 JUMPDEST DUP6 DUP2 LT ISZERO PUSH2 0x19F2 JUMPI DUP5 DUP5 SUB DUP10 MSTORE DUP2 MLOAD PUSH2 0x19D3 DUP6 DUP3 PUSH2 0x1972 JUMP JUMPDEST SWAP5 POP PUSH2 0x19DE DUP4 PUSH2 0x1985 JUMP JUMPDEST SWAP3 POP PUSH1 0x20 DUP11 ADD SWAP10 POP POP PUSH1 0x1 DUP2 ADD SWAP1 POP PUSH2 0x19BA JUMP JUMPDEST POP DUP3 SWAP8 POP DUP8 SWAP6 POP POP POP POP POP POP SWAP3 SWAP2 POP POP JUMP JUMPDEST PUSH0 PUSH1 0x20 DUP3 ADD SWAP1 POP DUP2 DUP2 SUB PUSH0 DUP4 ADD MSTORE PUSH2 0x1A1C DUP2 DUP5 PUSH2 0x1991 JUMP JUMPDEST SWAP1 POP SWAP3 SWAP2 POP POP JUMP JUMPDEST PUSH32 0x4E487B7100000000000000000000000000000000000000000000000000000000 PUSH0 MSTORE PUSH1 0x22 PUSH1 0x4 MSTORE PUSH1 0x24 PUSH0 REVERT JUMPDEST PUSH0 PUSH1 0x2 DUP3 DIV SWAP1 POP PUSH1 0x1 DUP3 AND DUP1 PUSH2 0x1A68 JUMPI PUSH1 0x7F DUP3 AND SWAP2 POP JUMPDEST PUSH1 0x20 DUP3 LT DUP2 SUB PUSH2 0x1A7B JUMPI PUSH2 0x1A7A PUSH2 0x1A24 JUMP JUMPDEST JUMPDEST POP SWAP2 SWAP1 POP JUMP JUMPDEST PUSH32 0x596F7520617265206E6F7420746865206F776E65720000000000000000000000 PUSH0 DUP3 ADD MSTORE POP JUMP JUMPDEST PUSH0 PUSH2 0x1AB5 PUSH1 0x15 DUP4 PUSH2 0x148B JUMP JUMPDEST SWAP2 POP PUSH2 0x1AC0 DUP3 PUSH2 0x1A81 JUMP JUMPDEST PUSH1 0x20 DUP3 ADD SWAP1 POP SWAP2 SWAP1 POP JUMP JUMPDEST PUSH0 PUSH1 0x20 DUP3 ADD SWAP1 POP DUP2 DUP2 SUB PUSH0 DUP4 ADD MSTORE PUSH2 0x1AE2 DUP2 PUSH2 0x1AA9 JUMP JUMPDEST SWAP1 POP SWAP2 SWAP1 POP JUMP JUMPDEST PUSH32 0x43616D706169676E206973206E6F742041637469766500000000000000000000 PUSH0 DUP3 ADD MSTORE POP JUMP JUMPDEST PUSH0 PUSH2 0x1B1D PUSH1 0x16 DUP4 PUSH2 0x148B JUMP JUMPDEST SWAP2 POP PUSH2 0x1B28 DUP3 PUSH2 0x1AE9 JUMP JUMPDEST PUSH1 0x20 DUP3 ADD SWAP1 POP SWAP2 SWAP1 POP JUMP JUMPDEST PUSH0 PUSH1 0x20 DUP3 ADD SWAP1 POP DUP2 DUP2 SUB PUSH0 DUP4 ADD MSTORE PUSH2 0x1B4A DUP2 PUSH2 0x1B11 JUMP JUMPDEST SWAP1 POP SWAP2 SWAP1 POP JUMP JUMPDEST PUSH32 0x4E487B7100000000000000000000000000000000000000000000000000000000 PUSH0 MSTORE PUSH1 0x11 PUSH1 0x4 MSTORE PUSH1 0x24 PUSH0 REVERT JUMPDEST PUSH0 PUSH2 0x1B88 DUP3 PUSH2 0x1423 JUMP JUMPDEST SWAP2 POP PUSH2 0x1B93 DUP4 PUSH2 0x1423 JUMP JUMPDEST SWAP3 POP DUP3 DUP3 MUL PUSH2 0x1BA1 DUP2 PUSH2 0x1423 JUMP JUMPDEST SWAP2 POP DUP3 DUP3 DIV DUP5 EQ DUP4 ISZERO OR PUSH2 0x1BB8 JUMPI PUSH2 0x1BB7 PUSH2 0x1B51 JUMP JUMPDEST JUMPDEST POP SWAP3 SWAP2 POP POP JUMP JUMPDEST PUSH0 PUSH2 0x1BC9 DUP3 PUSH2 0x1423 JUMP JUMPDEST SWAP2 POP PUSH2 0x1BD4 DUP4 PUSH2 0x1423 JUMP JUMPDEST SWAP3 POP DUP3 DUP3 ADD SWAP1 POP DUP1 DUP3 GT ISZERO PUSH2 0x1BEC JUMPI PUSH2 0x1BEB PUSH2 0x1B51 JUMP JUMPDEST JUMPDEST SWAP3 SWAP2 POP POP JUMP JUMPDEST PUSH32 0x43616D706169676E206E6F74207375636365737366756C207965740000000000 PUSH0 DUP3 ADD MSTORE POP JUMP JUMPDEST PUSH0 PUSH2 0x1C26 PUSH1 0x1B DUP4 PUSH2 0x148B JUMP JUMPDEST SWAP2 POP PUSH2 0x1C31 DUP3 PUSH2 0x1BF2 JUMP JUMPDEST PUSH1 0x20 DUP3 ADD SWAP1 POP SWAP2 SWAP1 POP JUMP JUMPDEST PUSH0 PUSH1 0x20 DUP3 ADD SWAP1 POP DUP2 DUP2 SUB PUSH0 DUP4 ADD MSTORE PUSH2 0x1C53 DUP2 PUSH2 0x1C1A JUMP JUMPDEST SWAP1 POP SWAP2 SWAP1 POP JUMP JUMPDEST PUSH32 0x4E6F2062616C616E636520746F20776974686472617721000000000000000000 PUSH0 DUP3 ADD MSTORE POP JUMP JUMPDEST PUSH0 PUSH2 0x1C8E PUSH1 0x17 DUP4 PUSH2 0x148B JUMP JUMPDEST SWAP2 POP PUSH2 0x1C99 DUP3 PUSH2 0x1C5A JUMP JUMPDEST PUSH1 0x20 DUP3 ADD SWAP1 POP SWAP2 SWAP1 POP JUMP JUMPDEST PUSH0 PUSH1 0x20 DUP3 ADD SWAP1 POP DUP2 DUP2 SUB PUSH0 DUP4 ADD MSTORE PUSH2 0x1CBB DUP2 PUSH2 0x1C82 JUMP JUMPDEST SWAP1 POP SWAP2 SWAP1 POP JUMP JUMPDEST PUSH32 0x526566756E6473206E6F7420617661696C61626C650000000000000000000000 PUSH0 DUP3 ADD MSTORE POP JUMP JUMPDEST PUSH0 PUSH2 0x1CF6 PUSH1 0x15 DUP4 PUSH2 0x148B JUMP JUMPDEST SWAP2 POP PUSH2 0x1D01 DUP3 PUSH2 0x1CC2 JUMP JUMPDEST PUSH1 0x20 DUP3 ADD SWAP1 POP SWAP2 SWAP1 POP JUMP JUMPDEST PUSH0 PUSH1 0x20 DUP3 ADD SWAP1 POP DUP2 DUP2 SUB PUSH0 DUP4 ADD MSTORE PUSH2 0x1D23 DUP2 PUSH2 0x1CEA JUMP JUMPDEST SWAP1 POP SWAP2 SWAP1 POP JUMP JUMPDEST PUSH32 0x4E6F20636F6E747269627574696F6E20746F20726566756E6400000000000000 PUSH0 DUP3 ADD MSTORE POP JUMP JUMPDEST PUSH0 PUSH2 0x1D5E PUSH1 0x19 DUP4 PUSH2 0x148B JUMP JUMPDEST SWAP2 POP PUSH2 0x1D69 DUP3 PUSH2 0x1D2A JUMP JUMPDEST PUSH1 0x20 DUP3 ADD SWAP1 POP SWAP2 SWAP1 POP JUMP JUMPDEST PUSH0 PUSH1 0x20 DUP3 ADD SWAP1 POP DUP2 DUP2 SUB PUSH0 DUP4 ADD MSTORE PUSH2 0x1D8B DUP2 PUSH2 0x1D52 JUMP JUMPDEST SWAP1 POP SWAP2 SWAP1 POP JUMP JUMPDEST PUSH32 0x5469657220646F6573206E6F7420657869737421000000000000000000000000 PUSH0 DUP3 ADD MSTORE POP JUMP JUMPDEST PUSH0 PUSH2 0x1DC6 PUSH1 0x14 DUP4 PUSH2 0x148B JUMP JUMPDEST SWAP2 POP PUSH2 0x1DD1 DUP3 PUSH2 0x1D92 JUMP JUMPDEST PUSH1 0x20 DUP3 ADD SWAP1 POP SWAP2 SWAP1 POP JUMP JUMPDEST PUSH0 PUSH1 0x20 DUP3 ADD SWAP1 POP DUP2 DUP2 SUB PUSH0 DUP4 ADD MSTORE PUSH2 0x1DF3 DUP2 PUSH2 0x1DBA JUMP JUMPDEST SWAP1 POP SWAP2 SWAP1 POP JUMP JUMPDEST PUSH0 PUSH2 0x1E04 DUP3 PUSH2 0x1423 JUMP JUMPDEST SWAP2 POP PUSH2 0x1E0F DUP4 PUSH2 0x1423 JUMP JUMPDEST SWAP3 POP DUP3 DUP3 SUB SWAP1 POP DUP2 DUP2 GT ISZERO PUSH2 0x1E27 JUMPI PUSH2 0x1E26 PUSH2 0x1B51 JUMP JUMPDEST JUMPDEST SWAP3 SWAP2 POP POP JUMP JUMPDEST PUSH32 0x4E487B7100000000000000000000000000000000000000000000000000000000 PUSH0 MSTORE PUSH1 0x32 PUSH1 0x4 MSTORE PUSH1 0x24 PUSH0 REVERT JUMPDEST PUSH0 DUP2 SLOAD SWAP1 POP PUSH2 0x1E68 DUP2 PUSH2 0x1A51 JUMP JUMPDEST SWAP1 POP SWAP2 SWAP1 POP JUMP JUMPDEST PUSH0 DUP2 SWAP1 POP DUP2 PUSH0 MSTORE PUSH1 0x20 PUSH0 KECCAK256 SWAP1 POP SWAP2 SWAP1 POP JUMP JUMPDEST PUSH0 PUSH1 0x20 PUSH1 0x1F DUP4 ADD DIV SWAP1 POP SWAP2 SWAP1 POP JUMP JUMPDEST PUSH0 DUP3 DUP3 SHL SWAP1 POP SWAP3 SWAP2 POP POP JUMP JUMPDEST PUSH0 PUSH1 0x8 DUP4 MUL PUSH2 0x1ECB PUSH32 0xFFFFFFFFFFFFFFFFFFFFFFFFFFFFFFFFFFFFFFFFFFFFFFFFFFFFFFFFFFFFFFFF DUP3 PUSH2 0x1E90 JUMP JUMPDEST PUSH2 0x1ED5 DUP7 DUP4 PUSH2 0x1E90 JUMP JUMPDEST SWAP6 POP DUP1 NOT DUP5 AND SWAP4 POP DUP1 DUP7 AND DUP5 OR SWAP3 POP POP POP SWAP4 SWAP3 POP POP POP JUMP JUMPDEST PUSH0 DUP2 SWAP1 POP SWAP2 SWAP1 POP JUMP JUMPDEST PUSH0 PUSH2 0x1F10 PUSH2 0x1F0B PUSH2 0x1F06 DUP5 PUSH2 0x1423 JUMP JUMPDEST PUSH2 0x1EED JUMP JUMPDEST PUSH2 0x1423 JUMP JUMPDEST SWAP1 POP SWAP2 SWAP1 POP JUMP JUMPDEST PUSH0 DUP2 SWAP1 POP SWAP2 SWAP1 POP JUMP JUMPDEST PUSH2 0x1F29 DUP4 PUSH2 0x1EF6 JUMP JUMPDEST PUSH2 0x1F3D PUSH2 0x1F35 DUP3 PUSH2 0x1F17 JUMP JUMPDEST DUP5 DUP5 SLOAD PUSH2 0x1E9C JUMP JUMPDEST DUP3 SSTORE POP POP POP POP JUMP JUMPDEST PUSH0 PUSH0 SWAP1 POP SWAP1 JUMP JUMPDEST PUSH2 0x1F54 PUSH2 0x1F45 JUMP JUMPDEST PUSH2 0x1F5F DUP2 DUP5 DUP5 PUSH2 0x1F20 JUMP JUMPDEST POP POP POP JUMP JUMPDEST JUMPDEST DUP2 DUP2 LT ISZERO PUSH2 0x1F82 JUMPI PUSH2 0x1F77 PUSH0 DUP3 PUSH2 0x1F4C JUMP JUMPDEST PUSH1 0x1 DUP2 ADD SWAP1 POP PUSH2 0x1F65 JUMP JUMPDEST POP POP JUMP JUMPDEST PUSH1 0x1F DUP3 GT ISZERO PUSH2 0x1FC7 JUMPI PUSH2 0x1F98 DUP2 PUSH2 0x1E6F JUMP JUMPDEST PUSH2 0x1FA1 DUP5 PUSH2 0x1E81 JUMP JUMPDEST DUP2 ADD PUSH1 0x20 DUP6 LT ISZERO PUSH2 0x1FB0 JUMPI DUP2 SWAP1 POP JUMPDEST PUSH2 0x1FC4 PUSH2 0x1FBC DUP6 PUSH2 0x1E81 JUMP JUMPDEST DUP4 ADD DUP3 PUSH2 0x1F64 JUMP JUMPDEST POP POP JUMPDEST POP POP POP JUMP JUMPDEST PUSH0 DUP3 DUP3 SHR SWAP1 POP SWAP3 SWAP2 POP POP JUMP JUMPDEST PUSH0 PUSH2 0x1FE7 PUSH0 NOT DUP5 PUSH1 0x8 MUL PUSH2 0x1FCC JUMP JUMPDEST NOT DUP1 DUP4 AND SWAP2 POP POP SWAP3 SWAP2 POP POP JUMP JUMPDEST PUSH0 PUSH2 0x1FFF DUP4 DUP4 PUSH2 0x1FD8 JUMP JUMPDEST SWAP2 POP DUP3 PUSH1 0x2 MUL DUP3 OR SWAP1 POP SWAP3 SWAP2 POP POP JUMP JUMPDEST DUP2 DUP2 SUB PUSH2 0x201D JUMPI POP POP PUSH2 0x20F2 JUMP JUMPDEST PUSH2 0x2026 DUP3 PUSH2 0x1E5A JUMP JUMPDEST PUSH8 0xFFFFFFFFFFFFFFFF DUP2 GT ISZERO PUSH2 0x203F JUMPI PUSH2 0x203E PUSH2 0x16FC JUMP JUMPDEST JUMPDEST PUSH2 0x2049 DUP3 SLOAD PUSH2 0x1A51 JUMP JUMPDEST PUSH2 0x2054 DUP3 DUP3 DUP6 PUSH2 0x1F86 JUMP JUMPDEST PUSH0 PUSH1 0x1F DUP4 GT PUSH1 0x1 DUP2 EQ PUSH2 0x2081 JUMPI PUSH0 DUP5 ISZERO PUSH2 0x206F JUMPI DUP3 DUP8 ADD SLOAD SWAP1 POP JUMPDEST PUSH2 0x2079 DUP6 DUP3 PUSH2 0x1FF4 JUMP JUMPDEST DUP7 SSTORE POP PUSH2 0x20EB JUMP JUMPDEST PUSH1 0x1F NOT DUP5 AND PUSH2 0x208F DUP8 PUSH2 0x1E6F JUMP JUMPDEST SWAP7 POP PUSH2 0x209A DUP7 PUSH2 0x1E6F JUMP JUMPDEST PUSH0 JUMPDEST DUP3 DUP2 LT ISZERO PUSH2 0x20C1 JUMPI DUP5 DUP10 ADD SLOAD DUP3 SSTORE PUSH1 0x1 DUP3 ADD SWAP2 POP PUSH1 0x1 DUP6 ADD SWAP5 POP PUSH1 0x20 DUP2 ADD SWAP1 POP PUSH2 0x209C JUMP JUMPDEST DUP7 DUP4 LT ISZERO PUSH2 0x20DE JUMPI DUP5 DUP10 ADD SLOAD PUSH2 0x20DA PUSH1 0x1F DUP10 AND DUP3 PUSH2 0x1FD8 JUMP JUMPDEST DUP4 SSTORE POP JUMPDEST PUSH1 0x1 PUSH1 0x2 DUP9 MUL ADD DUP9 SSTORE POP POP POP JUMPDEST POP POP POP POP POP POP JUMPDEST JUMP JUMPDEST PUSH32 0x4E487B7100000000000000000000000000000000000000000000000000000000 PUSH0 MSTORE PUSH1 0x31 PUSH1 0x4 MSTORE PUSH1 0x24 PUSH0 REVERT JUMPDEST PUSH32 0x416D6F756E74206D7573742062652067726561746572207468616E2030210000 PUSH0 DUP3 ADD MSTORE POP JUMP JUMPDEST PUSH0 PUSH2 0x2155 PUSH1 0x1E DUP4 PUSH2 0x148B JUMP JUMPDEST SWAP2 POP PUSH2 0x2160 DUP3 PUSH2 0x2121 JUMP JUMPDEST PUSH1 0x20 DUP3 ADD SWAP1 POP SWAP2 SWAP1 POP JUMP JUMPDEST PUSH0 PUSH1 0x20 DUP3 ADD SWAP1 POP DUP2 DUP2 SUB PUSH0 DUP4 ADD MSTORE PUSH2 0x2182 DUP2 PUSH2 0x2149 JUMP JUMPDEST SWAP1 POP SWAP2 SWAP1 POP JUMP JUMPDEST PUSH2 0x2192 DUP3 PUSH2 0x1481 JUMP JUMPDEST PUSH8 0xFFFFFFFFFFFFFFFF DUP2 GT ISZERO PUSH2 0x21AB JUMPI PUSH2 0x21AA PUSH2 0x16FC JUMP JUMPDEST JUMPDEST PUSH2 0x21B5 DUP3 SLOAD PUSH2 0x1A51 JUMP JUMPDEST PUSH2 0x21C0 DUP3 DUP3 DUP6 PUSH2 0x1F86 JUMP JUMPDEST PUSH0 PUSH1 0x20 SWAP1 POP PUSH1 0x1F DUP4 GT PUSH1 0x1 DUP2 EQ PUSH2 0x21F1 JUMPI PUSH0 DUP5 ISZERO PUSH2 0x21DF JUMPI DUP3 DUP8 ADD MLOAD SWAP1 POP JUMPDEST PUSH2 0x21E9 DUP6 DUP3 PUSH2 0x1FF4 JUMP JUMPDEST DUP7 SSTORE POP PUSH2 0x2250 JUMP JUMPDEST PUSH1 0x1F NOT DUP5 AND PUSH2 0x21FF DUP7 PUSH2 0x1E6F JUMP JUMPDEST PUSH0 JUMPDEST DUP3 DUP2 LT ISZERO PUSH2 0x2226 JUMPI DUP5 DUP10 ADD MLOAD DUP3 SSTORE PUSH1 0x1 DUP3 ADD SWAP2 POP PUSH1 0x20 DUP6 ADD SWAP5 POP PUSH1 0x20 DUP2 ADD SWAP1 POP PUSH2 0x2201 JUMP JUMPDEST DUP7 DUP4 LT ISZERO PUSH2 0x2243 JUMPI DUP5 DUP10 ADD MLOAD PUSH2 0x223F PUSH1 0x1F DUP10 AND DUP3 PUSH2 0x1FD8 JUMP JUMPDEST DUP4 SSTORE POP JUMPDEST PUSH1 0x1 PUSH1 0x2 DUP9 MUL ADD DUP9 SSTORE POP POP POP JUMPDEST POP POP POP POP POP POP JUMP JUMPDEST PUSH32 0x436F6E7472616374206973207061757365642100000000000000000000000000 PUSH0 DUP3 ADD MSTORE POP JUMP JUMPDEST PUSH0 PUSH2 0x228C PUSH1 0x13 DUP4 PUSH2 0x148B JUMP JUMPDEST SWAP2 POP PUSH2 0x2297 DUP3 PUSH2 0x2258 JUMP JUMPDEST PUSH1 0x20 DUP3 ADD SWAP1 POP SWAP2 SWAP1 POP JUMP JUMPDEST PUSH0 PUSH1 0x20 DUP3 ADD SWAP1 POP DUP2 DUP2 SUB PUSH0 DUP4 ADD MSTORE PUSH2 0x22B9 DUP2 PUSH2 0x2280 JUMP JUMPDEST SWAP1 POP SWAP2 SWAP1 POP JUMP JUMPDEST PUSH32 0x496E636F727265637420416D6F756E7421000000000000000000000000000000 PUSH0 DUP3 ADD MSTORE POP JUMP JUMPDEST PUSH0 PUSH2 0x22F4 PUSH1 0x11 DUP4 PUSH2 0x148B JUMP JUMPDEST SWAP2 POP PUSH2 0x22FF DUP3 PUSH2 0x22C0 JUMP JUMPDEST PUSH1 0x20 DUP3 ADD SWAP1 POP SWAP2 SWAP1 POP JUMP JUMPDEST PUSH0 PUSH1 0x20 DUP3 ADD SWAP1 POP DUP2 DUP2 SUB PUSH0 DUP4 ADD MSTORE PUSH2 0x2321 DUP2 PUSH2 0x22E8 JUMP JUMPDEST SWAP1 POP SWAP2 SWAP1 POP JUMP JUMPDEST PUSH0 PUSH2 0x2332 DUP3 PUSH2 0x1423 JUMP JUMPDEST SWAP2 POP PUSH32 0xFFFFFFFFFFFFFFFFFFFFFFFFFFFFFFFFFFFFFFFFFFFFFFFFFFFFFFFFFFFFFFFF DUP3 SUB PUSH2 0x2364 JUMPI PUSH2 0x2363 PUSH2 0x1B51 JUMP JUMPDEST JUMPDEST PUSH1 0x1 DUP3 ADD SWAP1 POP SWAP2 SWAP1 POP JUMP INVALID LOG2 PUSH5 0x6970667358 0x22 SLT KECCAK256 DUP8 BYTE 0x2B PUSH30 0x6D8BAD64ED99BBB99FBA2EA84B9E51F1945125D265991C68E6CC74DB6473 PUSH16 0x6C634300081E00330000000000000000 "
				},
				"gasEstimates": {
					"creation": {
						"codeDepositCost": "1825000",
						"executionCost": "infinite",
						"totalCost": "infinite"
					},
					"external": {
						"addTier(string,uint256)": "infinite",
						"backers(address)": "2837",
						"deadline()": "2515",
						"description()": "infinite",
						"extendDeadline(uint256)": "infinite",
						"fund(uint256)": "infinite",
						"getCampaignStatus()": "7074",
						"getContractBalance()": "445",
						"getTiers()": "infinite",
						"goal()": "2470",
						"hasFundedTier(address,uint256)": "3189",
						"name()": "infinite",
						"owner()": "2597",
						"paused()": "2606",
						"refund()": "infinite",
						"removeTier(uint256)": "infinite",
						"state()": "2649",
						"tiers(uint256)": "infinite",
						"togglePause()": "28884",
						"withdraw()": "infinite"
					},
					"internal": {
						"checkAndUpdateCampaignState()": "30878"
					}
				},
				"methodIdentifiers": {
					"addTier(string,uint256)": "8ece7b91",
					"backers(address)": "b85dfb80",
					"deadline()": "29dcb0cf",
					"description()": "7284e416",
					"extendDeadline(uint256)": "389b7533",
					"fund(uint256)": "ca1d209d",
					"getCampaignStatus()": "10550515",
					"getContractBalance()": "6f9fb98a",
					"getTiers()": "de170570",
					"goal()": "40193883",
					"hasFundedTier(address,uint256)": "7adba527",
					"name()": "06fdde03",
					"owner()": "8da5cb5b",
					"paused()": "5c975abb",
					"refund()": "590e1ae3",
					"removeTier(uint256)": "7497211b",
					"state()": "c19d93fb",
					"tiers(uint256)": "039af9eb",
					"togglePause()": "c4ae3168",
					"withdraw()": "3ccfd60b"
				}
			},
			"storageLayout": {
				"storage": [
					{
						"astId": 3,
						"contract": "contracts/CrowdFunding.sol:CrowdFunding",
						"label": "name",
						"offset": 0,
						"slot": "0",
						"type": "t_string_storage"
					},
					{
						"astId": 5,
						"contract": "contracts/CrowdFunding.sol:CrowdFunding",
						"label": "description",
						"offset": 0,
						"slot": "1",
						"type": "t_string_storage"
					},
					{
						"astId": 7,
						"contract": "contracts/CrowdFunding.sol:CrowdFunding",
						"label": "goal",
						"offset": 0,
						"slot": "2",
						"type": "t_uint256"
					},
					{
						"astId": 9,
						"contract": "contracts/CrowdFunding.sol:CrowdFunding",
						"label": "deadline",
						"offset": 0,
						"slot": "3",
						"type": "t_uint256"
					},
					{
						"astId": 11,
						"contract": "contracts/CrowdFunding.sol:CrowdFunding",
						"label": "owner",
						"offset": 0,
						"slot": "4",
						"type": "t_address"
					},
					{
						"astId": 13,
						"contract": "contracts/CrowdFunding.sol:CrowdFunding",
						"label": "paused",
						"offset": 20,
						"slot": "4",
						"type": "t_bool"
					},
					{
						"astId": 20,
						"contract": "contracts/CrowdFunding.sol:CrowdFunding",
						"label": "state",
						"offset": 21,
						"slot": "4",
						"type": "t_enum(CampaignState)17"
					},
					{
						"astId": 38,
						"contract": "contracts/CrowdFunding.sol:CrowdFunding",
						"label": "tiers",
						"offset": 0,
						"slot": "5",
						"type": "t_array(t_struct(Tier)27_storage)dyn_storage"
					},
					{
						"astId": 43,
						"contract": "contracts/CrowdFunding.sol:CrowdFunding",
						"label": "backers",
						"offset": 0,
						"slot": "6",
						"type": "t_mapping(t_address,t_struct(Backer)34_storage)"
					}
				],
				"types": {
					"t_address": {
						"encoding": "inplace",
						"label": "address",
						"numberOfBytes": "20"
					},
					"t_array(t_struct(Tier)27_storage)dyn_storage": {
						"base": "t_struct(Tier)27_storage",
						"encoding": "dynamic_array",
						"label": "struct CrowdFunding.Tier[]",
						"numberOfBytes": "32"
					},
					"t_bool": {
						"encoding": "inplace",
						"label": "bool",
						"numberOfBytes": "1"
					},
					"t_enum(CampaignState)17": {
						"encoding": "inplace",
						"label": "enum CrowdFunding.CampaignState",
						"numberOfBytes": "1"
					},
					"t_mapping(t_address,t_struct(Backer)34_storage)": {
						"encoding": "mapping",
						"key": "t_address",
						"label": "mapping(address => struct CrowdFunding.Backer)",
						"numberOfBytes": "32",
						"value": "t_struct(Backer)34_storage"
					},
					"t_mapping(t_uint256,t_bool)": {
						"encoding": "mapping",
						"key": "t_uint256",
						"label": "mapping(uint256 => bool)",
						"numberOfBytes": "32",
						"value": "t_bool"
					},
					"t_string_storage": {
						"encoding": "bytes",
						"label": "string",
						"numberOfBytes": "32"
					},
					"t_struct(Backer)34_storage": {
						"encoding": "inplace",
						"label": "struct CrowdFunding.Backer",
						"members": [
							{
								"astId": 29,
								"contract": "contracts/CrowdFunding.sol:CrowdFunding",
								"label": "totalContribution",
								"offset": 0,
								"slot": "0",
								"type": "t_uint256"
							},
							{
								"astId": 33,
								"contract": "contracts/CrowdFunding.sol:CrowdFunding",
								"label": "fundedTier",
								"offset": 0,
								"slot": "1",
								"type": "t_mapping(t_uint256,t_bool)"
							}
						],
						"numberOfBytes": "64"
					},
					"t_struct(Tier)27_storage": {
						"encoding": "inplace",
						"label": "struct CrowdFunding.Tier",
						"members": [
							{
								"astId": 22,
								"contract": "contracts/CrowdFunding.sol:CrowdFunding",
								"label": "name",
								"offset": 0,
								"slot": "0",
								"type": "t_string_storage"
							},
							{
								"astId": 24,
								"contract": "contracts/CrowdFunding.sol:CrowdFunding",
								"label": "amount",
								"offset": 0,
								"slot": "1",
								"type": "t_uint256"
							},
							{
								"astId": 26,
								"contract": "contracts/CrowdFunding.sol:CrowdFunding",
								"label": "backers",
								"offset": 0,
								"slot": "2",
								"type": "t_uint256"
							}
						],
						"numberOfBytes": "96"
					},
					"t_uint256": {
						"encoding": "inplace",
						"label": "uint256",
						"numberOfBytes": "32"
					}
				}
			},
			"userdoc": {
				"kind": "user",
				"methods": {},
				"version": 1
			}
		}
	}
}